S01F00006A64616E69656C736B695F46696E616C5F50726F6A6563742E73333738
S21400000000000420E5CB000011CC000011CC00005D
S21400001011CC000011CC000011CC000011CC000067
S21400002011CC000011CC000011CC00007192000031
S21400003011CC000010CC000081940000E994000070
S21400004011CC000011CC000011CC000011CC000037
S21400005011CC000011CC000011CC000011CC000027
S21400006011CC000011CC0000173B000069BD000059
S21400007011CC000011CC000011CC000011CC000007
S21400008011CC000011CC0000273B000011CC000072
S21400009011CC000011CC000011CC000011CC0000E7
S2140000A011CC000011CC000011CC000011CC0000D7
S2140000B011CC000011CC000011CC000011CC0000C7
S2140000C011CC000011CC000011CC000011CC0000B7
S2140000D011CC000011CC000011CC000011CC0000A7
S2140000E011CC000011CC000011CC000011CC000097
S2140000F011CC000011CC000011CC000011CC000087
S21400010011CC000011CC000011CC000010B5054C3D
S214000110237833B9044B13B10448AFF300800123AE
S214000120237010BD4401002000000000980201006A
S21400013008B5034B1BB103490348AFF3008008BD65
S214000140000000004801002098020100154B002B1B
S21400015008BF134B9D46A3F5803A00218B460F46F9
S2140001601348144A121A0EF057FD0F4B002B00D0FE
S21400017098470E4B002B00D0984700200021040023
S2140001800D000D48002802D00C48AFF300800EF09A
S214000190EDFC2000290002F04FFC0EF0D3FC00BF5F
S2140001A0000008000000042000000000000000001E
S2140001B04401002098840020000000000000000099
S2140001C080B500AF04F056FF0346184680BD000019
S2140001D080B500AF01220121032004F0E9FF0748A3
S2140001E004F054FFFFF7ECFF0121054804F022F964
S2140001F00121044804F01EF900BF80BD80D54302EB
S2140002004041050000250A0080B582B000AF786046
S2140002107B6800221A757B68194918460EF047FD60
S2140002207B6800225A757B6800229A757B680022DC
S2140002301A767B6800221A767B684FF07E52DA6167
S2140002407B68104A1A627B680F4ADA637B680A2268
S2140002509A867B681222DA867B680A221A877B686F
S2140002600A4A1A647B6802225A877B68084A5A62DE
S2140002707B6800221A6500BF0837BD4680BD00BFF8
S214000280BCF500004260653C00A0CD44000ECE47A1
S2140002901F856B3EB0B584B000AF78600B46FB7030
S2140002A07B68FA781A75FB78032B47D801A252F8B8
S2140002B023F000BFC5020000E302000001030000B7
S2140002C01F0300007B68244918460EF0F0FC7B688C
S2140002D0224A03F1340415460FCD0FC42B68236061
S2140002E036E07B681E4918460EF0E1FC7B681D4A26
S2140002F003F1340415460FCD0FC42B68236027E0A6
S2140003007B68194918460EF0D2FC7B68174A03F141
S214000310340415460FCD0FC42B68236018E07B68A5
S214000320134918460EF0C3FC7B68124A03F13404E6
S21400033015460FCD0FC42B68236009E04FF0A003CD
S21400034083F31188BFF36F8FBFF34F8FFB60FEE719
S21400035000BF1037BD46B0BDBCF500000000002051
S214000360C4F5000014000020CCF500002800002092
S214000370D8F500003C00002080B483B000AF786061
S2140003807B684FF000029A607B6800221A6000BF0C
S2140003900C37BD465DF8047B704780B483B000AF71
S2140003A078607B6802221A707B6800225A707B682D
S2140003B000229A7000BF0C37BD465DF8047B70477C
S2140003C080B483B000AF78607B6800221A707B68C8
S2140003D000225A707B6800229A7000BF0C37BD4618
S2140003E05DF8047B7047000080B584B000AF78608D
S2140003F03223BB810223FB730BF074FD00F0BAF8C6
S21400040003461A46534B1A70534B186800230022B3
S214000410002109F067FC514B1A78514B1A704E4B6D
S214000420186800230022002109F08EFA4C4B1B7836
S214000430052B00F2898001A252F823F0490500003E
S21400044055040000490500009B0400001905000043
S214000450490500003F4B1A78424B1B789A421AD047
S2140004603C4B1A783F4B1A703A4B1B78012B02D044
S214000470042B08D010E03C4B186800230322AD2163
S2140004800AF0B8FF08E0384B186800230322DE2184
S2140004900AF0B0FF00E000BF56E02E4B1B78013B91
S2140004A0032B1FD801A252F823F000BFBD040000A2
S2140004B0C7040000D1040000DB0400000023FB7327
S2140004C0C423BB7313E00123FB73E223BB730EE06C
S2140004D00323FB731E23BB7309E00423FB733C2337
S2140004E0BB7304E00223FB730023BB7300BF1F4BE8
S2140004F0186800230A22002109F0F4FB1C4AFB7B43
S2140005001370BA7B1A4B9A70184B18680023002297
S214000510002109F019FA17E0144B186800230A2284
S214000520002109F0DFFB124B02221A70104B00224A
S2140005305A700F4B00229A700C4B1868002300224A
S214000540002109F001FA00BFBB89184609F0F2FF46
S21400055054E700BF60010020608300205A0000209E
S2140005606101002062010020E882002064830020F0
S2140005707483002090B583B000AF4FF0804003F046
S21400058089FC0BF085FC0023FB710023BB7119E08E
S214000590BC79BB7918460BF025FC03461A4607F1D2
S2140005A00803234403F8082CBB7907F10802134418
S2140005B013F8083C002B02D0FB790133FB71BB79A2
S2140005C00133BB71BB79032BE2D94FF0804003F0B7
S2140005D047FCFB79002B02D0FB79012B01D90023C5
S2140005E015E00023BB710EE0BB7907F10802134447
S2140005F013F8083C002B03D0BB790133DBB206E0CE
S214000600BB790133BB71BB79032BEDD900231846A8
S2140006100C37BD4690BD0000F0B5ADB01EAF78609B
S214000620AD4B1B681B885B089AB2AC4B1A800BF06C
S214000630B9FC78637B6B002B09D04FF0A00383F3E3
S2140006401188BFF36F8FBFF34F8F3B62FEE700202A
S21400065007F036F978637B6B002B09D04FF0A003C8
S21400066083F31188BFF36F8FBFF34F8FFB61FEE7F5
S214000670994807F01BFC78637B6B002B09D04FF082
S214000680A00383F31188BFF36F8FBFF34F8FBB6157
S214000690FEE7914B6FF07F425A608F4B00229A60C4
S2140006A08F4B19888F4B0093002300228E480AF048
S2140006B0EDFF02468D4B1A60894B19888C4B0093D0
S2140006C0002300228B480AF0E1FF02468A4B1A609C
S2140006D08A4B19888A4B00930023002289480AF027
S2140006E0D5FF0246884B1A60884B186800230A22FA
S2140006F0002109F0F7FA864B1A78864B1A70834B5E
S214000700186800230022002109F01EF9814B1B788F
S214000710052B00F2A58301A252F823F0350700004E
S2140007206B070000AB0A0000350B0000C50C00008C
S214000730C50D000000F01CFC07F012FB6B4B1B689D
S21400074018460BF0BFFA0346002B40F08483674B35
S2140007501C680AF03FF903461A460A230093002352
S214000760012120460AF0E2FF75E3604B1B6818463D
S2140007700BF0A8FA0346012B08D15C4B18680A2335
S21400078000930023002203210AF0D0FF624B1B785F
S21400079083F00103DBB2002B28D0604B18680023DF
S2140007A00A22002109F09EFA5D4B1B785D4C1293DD
S2140007B05D4A11AB1188927819809A70684604F1E8
S2140007C01003442219460EF01CFA94E80F0000F0BD
S2140007D09DFE524B186800230022002109F0B4F851
S2140007E007F0BEFA4C4B01221A7039E307F11402E7
S2140007F04FF6FF734FF0FF314FF0FF300AF096FDD3
S2140008007B69AD2B00F02181AD2B06D8552B00F06F
S214000810C280AA2B00F0948022E3DE2B00F0E68054
S214000820424A934200D01BE33C4B186800230A223E
S214000830002109F057FA3B4C3D4B1193684604F1F2
S2140008401003442219460EF0DCF994E80F0001F07C
S214000850C7FB214B1B681B885B089AB2314B9B8EEB
S2140008605B089BB2D31A9AB21C4B1A802B4B1868A3
S21400087000230022002109F067F82E4B1868002399
S2140008800A22002109F02EFA2B4B274A118892786B
S21400089019809A70244B1B781946284803F0DCF917
S2140008A0244B186800230022002109F04DF8174B4E
S2140008B0186800230A22002109F014FA144B0222B9
S2140008C01A70124B186800230022002109F03CF829
S2140008D0114B00221A70E7E070010020AC010020E6
S2140008E050000020D90E0000DCF500006401002056
S2140008F0210F0000ECF500006801002052000020E7
S214000900490F0000FCF500006C0100206083002009
S2140009105A000020AE010020AF0100205C830020BA
S21400092054000020F08200209C830020F0DEBC0AE9
S2140009309C01002048830020B00100207C8300201A
S2140009408D4800F067FE8D4B186800230A220021B0
S21400095009F0C8F9884B1B78894C1293894A11AB69
S2140009601268114619800233120C1A70684604F198
S2140009701003442219460EF044F994E80F0000F0E4
S214000980C5FD7E4B186800230022002108F0DCFF1E
S21400099007F0E6F988E0784800F068FE774B1868BC
S2140009A000230A22002109F09DF9734B1B78744C32
S2140009B01293744A11AB1268114619800233120C56
S2140009C01A70684604F11003442219460EF019F90D
S2140009D094E80F0000F09AFD684B18680023002288
S2140009E0002108F0B1FF07F0BBF95DE0634B186823
S2140009F000230A22002109F075F95F4B1B78614A33
S214000A005F49184600F05EFE5B4B1B785C4C129309
S214000A105C4A11AB1268114619800233120C1A7028
S214000A20684604F11003442219460EF0EAF894E8EA
S214000A300F0000F06BFD514B1868002300220021C8
S214000A4008F082FF07F08CF92EE04C4B1868002364
S214000A500A22002109F046F9474B1B78494A4849C3
S214000A60184600F05FFE444B1B78454C1293454AEF
S214000A7011AB1268114619800233120C1A706846C0
S214000A8004F11003442219460EF0BBF894E80F0058
S214000A9000F03CFD394B186800230022002108F0C6
S214000AA053FF07F05DF900BFDAE1374B1B78013BD7
S214000AB0DBB2184600F05CFF07F052F9324B1B78A9
S214000AC0013BDAB2304B1A702F4B1B78002B40F0EC
S214000AD0C4812D4B04221A702C4B186800230A225E
S214000AE0002109F0FFF82A4B03221A70284B1A78C7
S214000AF0284B1A70254B186800230022002108F0A6
S214000B0023FF254B186800230A22002109F0EAF883
S214000B10224B00229A82204B1868002300220021D4
S214000B2008F012FF1E4B1B68184609F0EFFD0DF08B
S214000B30D7FA92E107F1100200234FF0FF314FF091
S214000B40FF300AF0F3FB0346012B2BD10F4B18683E
S214000B5000230A22002109F0C5F80D4B04221A7062
S214000B600B4B1A780B4B1A70084B186800230022A0
S214000B70002108F0E9FE73E1540000205C830020A9
S214000B80F0820020B0010020550000206083002085
S214000B905A000020AE010020488300207C830020FD
S214000BA070830020B64B186800230022002109F04D
S214000BB099F8B44AB44B14460FCB84E80F00B04BF8
S214000BC0186800230022002108F0BEFEAF4B18680C
S214000BD000230022002109F085F8AD4BAD4A1188AC
S214000BE0927819809A70A94B186800230022002179
S214000BF008F0AAFEA84CA64A04AB12681146198053
S214000C000233120C1A709F4B6D460FCB85E80F000F
S214000C1094E80F0000F004FFA04B186800230022A1
S214000C20002109F05FF89E4B18680023002200217F
S214000C3009F058F89B4E934B19AC0FCB84E80F0085
S214000C40994B11AC1D460FCD0FC495E80F0084E8F4
S214000C500F00684606F11003442219460DF0D1FF36
S214000C6096E80F0001F0E2F9034687F827308B4B31
S214000C70186800230022002108F066FE884B1868DA
S214000C8000230022002108F05FFE97F82730002B93
S214000C9014D0864B186800230A22002109F022F897
S214000CA0834B04221A70824B1A78824B1A707F4B41
S214000CB0186800230022002108F046FE07F050F8CE
S214000CC000BFCDE00DF028FA7B4B1B78002B05D03B
S214000CD001F0FAFA784B00221A7004E001F0A0FA4C
S214000CE0754B01221A7007F03BF8744B1B681846C8
S214000CF00AF0E8FF0346002B0CD1704B1C6809F085
S214000D0069FE03461A460A23009300230221204662
S214000D100AF00CFD07F10C0200234FF0FF314FF0F4
S214000D20FF300AF003FB0346012B40F09880FB6877
S214000D30634A934240F09380514B18680023052283
S214000D40002108F0CFFF504B5B683B634C4B1868A4
S214000D5000230022002108F0F7FD514B18680023FD
S214000D600522002108F0BEFF4E4B1B6DFB624C4B6C
S214000D70186800230022002108F0E6FD0DF0DEF9D9
S214000D8003461A46F96A386B0DF088F9B862B96AF4
S214000D904C480DF043F9454B186800230A22002101
S214000DA008F0A0FF424B05221A70414B1A78414BBF
S214000DB01A703E4B186800230022002108F0C4FD7C
S214000DC000BF4CE03F4E6D4606F110040FCC0FC539
S214000DD094E8070085E8070096E80F0001F0C8FAD7
S214000DE006F0BEFF384B1B6818460AF06BFF03463A
S214000DF0002B0CD1344B1C6809F0ECFD03461A4658
S214000E000A2300930023022120460AF08FFC07F1F4
S214000E1008024FF6FF734FF0FF314FF0FF300AF035
S214000E2085FABB68294A93421AD1204B18680023DA
S214000E300A22002108F056FF1D4B00221A701C4B98
S214000E401A781C4B1A70194B1868002300220021D0
S214000E5008F07AFD04E000BF02E000BF00E000BF3B
S214000E60144B1B78022B05D1194B1B88184609F02A
S214000E7061FB39E4174B1B88184609F05BFB33E42B
S214000E8068830020B40100204C8300206483002087
S214000E90C4010020748300209C01002048830020A9
S214000EA05C830020F08200207C830020608300208A
S214000EB05A000020AE010020C70100206801002073
S214000EC078563412A08300206C010020B1CAED0FC2
S214000ED0560000205800002080B582B000AF786031
S214000EE00D4B186800230A22002108F0FBFE03467B
S214000EF0012B0DD1094B1B78002B02D1074B012289
S214000F001A70054B186800230022002108F01CFD0B
S214000F1000BF0837BD4680BD608300205A00002011
S214000F2080B582B000AF7860054B186800230322B6
S214000F3004490AF05FFA00BF0837BD4680BD00BF0F
S214000F40E88200207856341280B582B000AF786010
S214000F50054B18680023032204490AF04BFA00BF29
S214000F600837BD4680BD00BFE8820020B1CAED0F3D
S214000F70F0B58FB002AF374807F02BF83649354842
S214000F8007F021FF3B46354A302118460DF04CFE4F
S214000F903B4618460DF093FE06462E4B1B681B88F4
S214000FA05B089BB21C462B4B93F824301A46294B01
S214000FB093F8273013441D463B4618460DF07FFE37
S214000FC0034603FB05F35B08E31A1A46394600237B
S214000FD0019305230093134632461E4807F08CFE05
S214000FE03B461F4A302118460DF01EFE3B4618466B
S214000FF00DF065FE0646174B1B681B885B089BB208
S2140010001C46144B93F824301A46124B93F827309C
S21400101013441D463B4618460DF051FE034603FB9F
S21400102005F35B08E31A18460A4B93F825301A4670
S21400103013465B00134405333946002201920093A1
S21400104003463246034807F057FE00BF3437BD4616
S214001050F0BD00BF70010020E8FE00000CF60000A6
S21400106018F6000090B591B002AF0346FB71354903
S214001070354807F0A8FE07F10803344A3021184621
S2140010800DF0D2FD07F1080318460DF018FE2E4BA2
S21400109093F825309B0007F1080100220192009387
S2140010A00A230246284807F027FEFB79032B2BD895
S2140010B001A252F823F000BFC9100000D9100000AA
S2140010C0E9100000F910000007F10803204A30215B
S2140010D018460DF0A9FD17E007F108031D4A302158
S2140010E018460DF0A1FD0FE007F108031A4A30215B
S2140010F018460DF099FD07E007F10803174A30215E
S21400110018460DF091FD00BF07F1080318460DF0D4
S214001110D6FD04460C4B1B681B88A3F133000A4B14
S21400112093F825309B0007F10801002201920093F6
S21400113003462246044807F0DFFD00BF3C37BD46A5
S21400114090BD00BFB8FB00007001002024F6000030
S2140011502CF6000034F600003CF6000044F60000D2
S21400116090B591B002AF0346FB713749374807F098
S2140011702AFE07F10803364A302118460DF054FDC2
S21400118007F1080318460DF09AFD304B93F825300A
S2140011901A4613469B00134407F1080100220192E9
S2140011A000930A230246294807F0A6FDFB79032B85
S2140011B02AD801A252F823F0C9110000D911000064
S2140011C0E9110000F911000007F10803214A302157
S2140011D018460DF029FD17E007F108031E4A3021D6
S2140011E018460DF021FD0FE007F108031B4A3021D9
S2140011F018460DF019FD07E007F10803184A3021DC
S21400120018460DF011FD00BF07F1080318460DF053
S21400121056FD04460D4B1B681B88A3F133000B4B91
S21400122093F825301A4613469B00134407F108012D
S21400123000220192009303462246044807F05CFD14
S21400124000BF3C37BD4690BDB8FB000070010020D3
S21400125054F6000060F6000068F6000070F6000025
S2140012607CF6000090B591B002AF0346FB713249A0
S214001270324807F0A8FD07F10803314A3021184626
S2140012800DF0D2FC07F1080318460DF018FD2B4BA5
S21400129093F825301A4613465B0013445B001A4643
S2140012A007F108010023019300920A23024623480F
S2140012B007F022FDFB79012B0BD0022B11D0002B5F
S2140012C017D107F108031F4A302118460DF0ACFC71
S2140012D00FE007F108031C4A302118460DF0A4FC65
S2140012E007E007F10803194A302118460DF09CFC68
S2140012F000BF07F1080318460DF0E1FC04460F4B4B
S2140013001B681B88A3F133000C4B93F825301A4654
S21400131013465B0013445B001A4607F108010023DE
S2140013200193009203462246044807F0E5FC00BFFE
S2140013303C37BD4690BD00BFB8FB000070010020E2
S21400134080F600008CF6000094F600009CF6000084
S21400135090B591B002AF0346FB713049304807F0B4
S21400136032FD07F108032F4A302118460DF05CFCC9
S21400137007F1080318460DF0A2FC294B93F8253018
S2140013801A461346DB009B1A07F108010022019259
S21400139000930A230246224807F0AEFCFB79012B95
S2140013A00BD0022B11D0002B17D107F108031E4AD1
S2140013B0302118460DF038FC0FE007F108031B4AF1
S2140013C0302118460DF030FC07E007F10803184AF4
S2140013D0302118460DF028FC00BF07F10803184618
S2140013E00DF06DFC04460E4B1B681B88A3F1330002
S2140013F00B4B93F825301A461346DB009B1A07F171
S214001400080100220192009303462246044807F092
S21400141073FC00BF3C37BD4690BD00BFB8FB000064
S21400142070010020A4F60000B0F60000B8F6000038
S2140014309CF6000090B591B002AF0346FB712D49B3
S2140014402D4807F0C0FC07F108032C4A3021184647
S2140014500DF0EAFB07F1080318460DF030FC264BAA
S21400146093F82530DB0007F1080100220192009373
S2140014700A230246204807F03FFCFB79012B0BD0DD
S214001480022B11D0002B17D107F108031C4A30217C
S21400149018460DF0C9FB0FE007F10803194A302182
S2140014A018460DF0C1FB07E007F10803164A302185
S2140014B018460DF0B9FB00BF07F1080318460DF0FB
S2140014C0FEFB04460C4B1B681B88A3F133000A4B3B
S2140014D093F82530DB0007F1080100220192009303
S2140014E003462246044807F007FC00BF3C37BD46CB
S2140014F090BD00BFB8FB000070010020C0F60000E1
S214001500C8F60000D0F60000D8F6000084B0F0B5AB
S2140015108FB002AF07F1480484E80F003A4806F09F
S21400152058FD3A49384807F04EFC3B46384A3021C9
S21400153018460DF079FB3B4618460DF0C0FB0646F4
S214001540314B1B681B885B089BB21C462E4B93F8DE
S21400155024301A462C4B93F8273013441D463B463E
S21400156018460DF0ACFB034603FB05F35B08E31AD5
S2140015701A46394600230193052300931346324644
S214001580214807F0B9FB204B93F825305A001E4B34
S2140015901B681B8819461C4B93F825305B0000938C
S2140015A00B464FF0FF31184807F0BDF897F8A0300B
S2140015B0154A92F8252002FB03F3DA1C02230321C6
S2140015C0114806F000FE97F89C301846FFF74AFDD3
S2140015D097F85C301846FFF7C3FD97F8603018465A
S2140015E0FFF740FE97F85D301846FFF7B1FE97F814
S2140015F05E301846FFF71EFF00BF3437BD46BDE815
S214001600F04004B0704700BF70010020E8FE000004
S214001610E0F6000080B483B000AF78607B681B788B
S214001620043B032B1AD801A252F823F03D16000003
S214001630451600004D160000551600007B68052272
S2140016401A700CE07B6806221A7008E07B68072296
S2140016501A7004E07B6808221A7000E000BF00BF22
S2140016600C37BD465DF8047B704700BF80B483B07E
S21400167000AF78607B681B78053B032B1AD801A265
S21400168052F823F0951600009D160000A5160000DF
S214001690AD1600007B6804221A700CE07B680522F9
S2140016A01A7008E07B6806221A7004E07B6807223E
S2140016B01A7000E000BF00BF0C37BD465DF8047B23
S2140016C0704700BF80B584B000AF0346B9607A604B
S2140016D0FB73FB7B043B042B20D801A252F823F0BB
S2140016E0F5160000FD160000051700000D17000097
S2140016F015170000786800F045F80FE0B86800F0AD
S2140017006DF80BE0B86800F0A9F807E0B86800F0DC
S214001710D7F803E0B86800F0FFF800BF00BF103746
S214001720BD4680BD80B584B000AF0346B9607A6020
S214001730FB73FB7B043B042B20D801A252F823F05A
S214001740551700005D170000651700006D170000B4
S21400175075170000786800F02BF80FE0B86800F006
S2140017605DF80BE0B86800F092F807E0B86800F0A3
S214001770BDF803E0B86800F0E5F800BF00BF10371A
S214001780BD4680BD80B483B000AF78607B681B78B0
S214001790032B06D07B681B780133DAB27B681A709D
S2140017A000E000BF00BF0C37BD465DF8047B704705
S2140017B080B483B000AF78607B681B78002B06D0BF
S2140017C07B681B78013BDAB27B681A7000E000BFCA
S2140017D000BF0C37BD465DF8047B704780B582B00D
S2140017E000AF78607B681B7D012B09D0022B0CD0E4
S2140017F0002B00D00EE001217868FEF74BFD09E0D3
S21400180002217868FEF746FD04E003217868FEF7BB
S21400181041FD00BF00BF0837BD4680BD80B582B021
S21400182000AF78607B681B7D022B09D0032B0CD0A1
S214001830012B00D00EE000217868FEF72BFD09E0B2
S21400184001217868FEF726FD04E002217868FEF79D
S21400185021FD00BF00BF0837BD4680BD80B483B001
S21400186000AF78607B681B7E002B02D0012B04D073
S21400187007E07B6801221A7603E07B6802221A766C
S21400188000BF00BF0C37BD465DF8047B704780B4D0
S21400189083B000AF78607B681B7E012B02D0022BE2
S2140018A004D007E07B6800221A7603E07B680122FA
S2140018B01A7600BF00BF0C37BD465DF8047B704744
S2140018C080B483B000AF78607B685B7D022B06D067
S2140018D07B685B7D0133DAB27B685A7500E000BF37
S2140018E000BF0C37BD465DF8047B704780B483B0FC
S2140018F000AF78607B685B7D002B06D07B685B7DE5
S214001900013BDAB27B685A7500E000BF00BF0C37B7
S214001910BD465DF8047B704780B483B000AF786046
S2140019207B689B7D022B06D07B689B7D0133DAB2F9
S2140019307B689A7500E000BF00BF0C37BD465DF8B7
S214001940047B704780B483B000AF78607B689B7D73
S214001950002B06D07B689B7D013BDAB27B689A75CC
S21400196000E000BF00BF0C37BD465DF8047B704743
S214001970B0B592B002AF0346FB71FB7907F10C01DC
S2140019800A2218460DF016F9234806F022FB2349D2
S214001990214807F018FA07F10C0207F1100330216E
S2140019A018460DF041F907F1100318460DF087F9B7
S2140019B00546194B1B681B885B089BB21C4607F143
S2140019C0100318460DF07BF90246134B93F82430AB
S2140019D01946114B93F827300B4403FB02F35B08C0
S2140019E0E31A18460C4B1B685B885B089BB21A46CA
S2140019F0094B93F825305B08DBB2D31A07F11001C8
S214001A0000220192009303462A46034807F074F921
S214001A1000BF4037BD46B0BD70010020D8000100B1
S214001A2090B587B002AF3C4684E80F000C4806F03D
S214001A30D0FA07F120030FCB00F014F86B4607F13D
S214001A4030021268114619800233120C1A703B4697
S214001A500FCB00F021F900BF1437BD4690BD00BF84
S214001A607001002090B59DB002AF3C4684E80F00A0
S214001A7005237B650523BB65844B1B681B885B08B9
S214001A809BB2FB65814B93F825303B66D7ED027A17
S214001A90F5EE407AF1EE10FA1AD17C4B1B681B88E3
S214001AA05B089BB20533DA0F13445B107B64052397
S214001AB0BB64764B1B681B885B089BB20533DA0F4A
S214001AC013445B10FB64714B93F825303B657AE05A
S214001AD0D7ED027AF5EEC07AF1EE10FA3DDB6B4BED
S214001AE01B681B885B089BB20533DA0F13445B1038
S214001AF07B640523BB64654B1B681B885B089BB235
S214001B000533DA0F13445B1007EE903AB8EEE77A27
S214001B10D7ED026A5D4B1B681B885B089BB21946B3
S214001B205A4B1B681B885B089BB20533DA0F1344BD
S214001B305B105B420B4407EE903AF8EEE77A66EEEF
S214001B40A77A77EE277AFDEEE77A17EE903AFB64EF
S214001B504E4B93F825303B6535E04C4B1B681B8895
S214001B605B089BB20533DA0F13445B1007EE903A1E
S214001B70B8EEE77A454B1B681B885B089BB20533BB
S214001B80DA0F13445B10053B07EE903AF8EEE76A6F
S214001B90D7ED027A66EEA77A77EE277AFDEEE77A39
S214001BA017EE903A7B640523BB64384B1B681B8892
S214001BB05B089BB20533DA0F13445B10FB64334BB0
S214001BC093F825303B6507F1540319462F4806F075
S214001BD0C1FE07F1440319462C4806F031FF2C4A93
S214001BE007F1100392E803001860043319800233EB
S214001BF00A0C1A7007F117032922002118460DF067
S214001C000BF83B460FCB00F0E7FA78667B6E07F1E1
S214001C1040010A2218460CF0CDFF07F1400207F1FA
S214001C201003114618460DF033F81A49174807F006
S214001C30CAF807F1100318460DF041F8134B1B685D
S214001C401B88A3F1380207F1100100230193032338
S214001C500093134602460D4807F04EF80B4B93F8D8
S214001C6025305A00094B1B681B881946074B93F80A
S214001C7025305B0000930B464FF0FF31034806F01B
S214001C8052FD00BF6C37BD4690BD00BF70010020FE
S214001C90ECF60000B8FB000090B58BB002AF3C46F7
S214001CA084E80F0097F83030022B29D107F1100492
S214001CB03B460FCB84E80F00BB69964A1288134454
S214001CC0BB61BA69944B1B681B88023B9A420BDDCA
S214001CD0914B1B681B88023BBB61BA69B9683B68BD
S214001CE0CB1AD31A3B6104E03B698A4A1288134434
S214001CF03B6107F110031946874806F02BFE67E1A3
S214001D0097F83030042B00F2628101A252F823F0DB
S214001D10C31D0000251D0000CF1F0000611E00002F
S214001D201D1F00007B4B1B88022B05D9794B1B8897
S214001D30013B9AB2774B1A803B68764A1288134466
S214001D40991C78683B68734A12881A44FB680093AB
S214001D5013460246704806F0E6FCBB686D4A1288D9
S214001D601344991C7868BB686A4A12881A44FB6850
S214001D70009313460246684806F0D5FCBB68654AE1
S214001D8012889918F8683B68624A12881A44FB68F9
S214001D90009313460246604806F0C5FCBB685D4AE1
S214001DA012881344991C78683B685A4A1288134470
S214001DB09A1C7B68009313460246574806F0B3FC0D
S214001DC006E1544B1B88042B05D9524B1B88033B5A
S214001DD09AB2504B1A803B684E4A12881344191D1B
S214001DE078683B684B4A12881A44FB68009313468F
S214001DF00246494806F097FCBB68464A12881344D8
S214001E00191D7868BB68434A12881A44FB68009319
S214001E1013460246404806F086FCBB683D4A1288D8
S214001E209918F8683B683B4A12881A44FB68009386
S214001E3013460246384806F076FCBB68354A1288D8
S214001E401344191D78683B68324A128813441A1DD9
S214001E507B680093134602462F4806F064FCB7E002
S214001E602C4B1B8818462C4B1B681B885A1EB968BF
S214001E703B68CB1AD31A023B984205DA254B1B88DF
S214001E8001339AB2234B1A803B68224A12881344C5
S214001E90991E78683B681F4A12881A44FB680093AC
S214001EA0134602461C4806F03EFCBB68194A1288D8
S214001EB01344991E7868BB68164A12881A44FB6851
S214001EC0009313460246144806F02DFCBB68114AE0
S214001ED012889918F8683B680E4A12881A44FB68FC
S214001EE00093134602460C4806F01DFCBB68094AE0
S214001EF012881344991E78683B68064A1288134471
S214001F009A1E7B68009313460246034806F00BFCB5
S214001F105EE000BFAC010020700100202E4B1B8845
S214001F2018462E4B1B681B885A1EB9683B68CB1A8E
S214001F30D31A043B984205DA274B1B8803339AB220
S214001F40254B1A803B68244A12881344191F786868
S214001F503B68214A12881A44FB68009313460246DF
S214001F601E4806F0E0FBBB681B4A12881344191F84
S214001F707868BB68184A12881A44FB6800931346B0
S214001F800246164806F0CFFBBB68134A128899181B
S214001F90F8683B68104A12881A44FB680093134698
S214001FA002460E4806F0BFFBBB680B4A1288134475
S214001FB0191F78683B68084A128813441A1F7B6802
S214001FC0009313460246054806F0ADFB00E000BF4E
S214001FD000BF2437BD4690BDAC0100207001002034
S214001FE084B090B400AF07F1080484E80F00BB8FFC
S214001FF01A46FB6D9A600B4B1B885A1EFB6D1A60C7
S214002000094B1B685B889A1EFB6D5A60FB6D5B680C
S214002010FA8F9A1AFB6DDA6000BFBD4690BC04B01A
S214002020704700BFAC0100207001002084B080B56E
S21400203082B000AF07F1100C8CE80F002D4B1B6828
S2140020401B885B089BB2DAB22A4B1B681B88013BD5
S214002050294981FB03018910DB175B1ADBB21344A5
S214002060DAB2264B1A70234B1B685B88DBB2013B47
S214002070DAB2234B1A70D7F88020B7F878309B0076
S21400208013441B881A46FB6F9A4229D20023FB7121
S21400209012E0D7F88020B7F878301946FB790B4461
S2140020A09B00134493F902301A461549134800F072
S2140020B029F8FB790133FB71FB79052BE9D93B6ED7
S2140020C0D7F88010B7F8782092000A441288934216
S2140020D008D9B7F8783001339BB2A7F8783001E01A
S2140020E0012300E0002318460837BD46BDE88040BF
S2140020F004B070477001002067666666C80100205D
S214002100C901002090B589B002AFF860B9601346E7
S214002110FB71BB681B78143BFB75FA7D2B4B93F861
S21400212025305B009A4204DA284B93F825305B0092
S214002130FB75FB681B781946BB681B781846FB685E
S2140021401B781A4697F907301A44FB7D009313460E
S21400215002461E4806F0E7FAFB681B7819461B4B3A
S2140021601B681B88013B1A4A82FB03025210DB17CE
S214002170D31A1944BB681B781C46FB681B781846A4
S214002180124B1B681B88013B114A82FB03C252108C
S214002190DB17D31AC21897F907301A44FB7D009351
S2140021A013462246094806F0BEFAFB681A78FB7901
S2140021B01344DAB2FB681A70BB681B78143BDAB2B9
S2140021C0BB681A7000BF1C37BD4690BD700100206A
S2140021D0676666660000000090B585B000AF3C46B6
S2140021E084E80F003B6807EE903AF8EE677A17EE41
S2140021F0900A0CF029F908A3D3E900230CF07CF927
S21400220003460C46184621460CF026FC03461846A4
S2140022101437BD4690BD00BFF7E978CC40E50140D5
S214002220F0B58FB002AF254B6FF07F425A60234B5C
S21400223000229A60214805F0CCFE21491F4806F08E
S214002240C2FD3B461F4A302118460CF0EDFC3B46CB
S21400225018460CF034FD0646184B1B681B885B08B6
S2140022609BB21C46154B93F824301A46134B93F832
S214002270273013441D463B4618460CF020FD034607
S21400228003FB05F39B08E31A053318460B4B1B6844
S2140022905B885B089BB21A46084B93F825305B00B8
S2140022A0D31A394600220192009303463246034869
S2140022B006F022FD00BF3437BD46F0BD7001002099
S2140022C0E8FE00001CF70000F0B58FB002AF254B0B
S2140022D000225A60234B6FF07F429A60214805F037
S2140022E078FE21491F4806F06EFD3B461F4A302106
S2140022F018460CF099FC3B4618460CF0E0FC0646E7
S214002300184B1B681B885B089BB21C46154B93F842
S21400231024301A46134B93F8273013441D463B4689
S21400232018460CF0CCFC034603FB05F39B08E31AA7
S214002330053318460B4B1B685B885B089BB21A4636
S214002340084B93F825305B00D31A394600220192D9
S214002350009303463246034806F0CEFC00BF3437EF
S214002360BD46F0BD70010020E8FE00001CF700002E
S21400237084B0F0B591B002AF07F1500484E80F00C6
S214002380554B6FF07F425A60534B00229A6052487A
S21400239005F01FFE5149504806F015FD3B1D504AFA
S2140023A0302118460CF040FC3B1D18460CF087FC0C
S2140023B00646494B1B681B885B089BB21C46464B6F
S2140023C093F824301A46444B93F8273013441D469E
S2140023D03B1D18460CF073FC034603FB05F35B0835
S2140023E0E31A1A46391D002301930523009313466A
S2140023F03246394806F080FC374B93F825305A00B1
S214002400354B1B681B881946334B93F825305B0009
S21400241000930B464FF0FF312F4806F084F9314900
S2140024202D4806F0D0FC3B1D2F4A302118460CF0F4
S214002430FBFB3B1D18460CF042FC274B93F825305F
S2140024409B00391D0022019200930A23024622486F
S21400245006F052FC3B1D254A302118460CF0E4FBE2
S2140024603B1D18460CF02BFC04461B4B1B681B88B8
S214002470A3F13300184B93F825309B00391D00223A
S2140024800192009303462246134806F035FC0023CB
S21400249087F8373013E097F837300133DAB297F819
S2140024A037309B0007F150010B445B681946104615
S2140024B000F01EF897F83730013387F8373097F872
S2140024C0503097F837209A42E5D300BF3C37BD46D8
S2140024D0BDE8F04004B0704770010020E8FE000040
S2140024E028F70000B8FB000034F700003CF70000B7
S2140024F090B595B002AF03463960FB71FB7907F1E2
S21400250014010A2218460CF055FB07F114032A4959
S21400251018460CF0BDFB2949294806F054FC07F183
S214002520140207F11803302118460CF07DFB07F162
S214002530180318460CF0C3FBFB790533204A92F8C3
S214002540252002FB03F307F11801002201920093F5
S2140025500A2302461A4806F0CFFB3B6807F10C0137
S2140025600A2218460CF026FB07F10C0207F11803A6
S214002570302118460CF058FB07F1180318460CF0EB
S2140025809EFB04460E4B1B681B88A3F13300FB79A9
S21400259005330B4A92F8252002FB03F307F11801D6
S2140025A000220192009303462246054806F0A4FB4B
S2140025B000BF4C37BD4690BD44F70000B8FB000096
S2140025C07001002080B485B000AF786039607B6809
S2140025D003F1C063FB60FB683A681A6000BF1437FB
S2140025E0BD465DF8047B704780B485B000AF786068
S2140025F039607B6803F18063FB60FB683A681A60A9
S21400260000BF1437BD465DF8047B704780B582B0C6
S21400261000AF03463960FB71FB79002B1CD0FB79B9
S214002620012B19D0FB79022B16D0FB79032B13D084
S214002630FB79042B10D0FB79052B0DD0FB79062BEC
S2140026400AD0FB79072B07D0FB79082B04D0FB793F
S214002650092B01D0FB790A2BFA7913465B00134449
S2140026601B010C3303F1804303F5204301213A6834
S21400267001FA02F211461846FFF7B6FF00BF083708
S214002680BD4680BD80B582B000AF03463960FB71A1
S214002690FB79002B1CD0FB79012B19D0FB79022B80
S2140026A016D0FB79032B13D0FB79042B10D0FB79C3
S2140026B0052B0DD0FB79062B0AD0FB79072B07D00C
S2140026C0FB79082B04D0FB79092B01D0FB790A2B68
S2140026D0FA7913465B0013441B010C3303F1804365
S2140026E003F5204301213A6801FA02F21146184622
S2140026F0FFF768FF00BF0837BD4680BD80B584B0D1
S21400270000AF78604FF4FA73FB816423BB8100F05E
S21400271003F9794B186800230022002107F0E2FA3B
S214002720764B1A78764B1A70734B18680023002283
S214002730002107F009F9724B1B78052B00F2CD80BB
S21400274001A252F823F000BF6127000061270000B5
S214002750A7270000C92700004F2800009528000082
S214002760684B1B78184600F0F5F8674B1B78184640
S21400277000F005F9634B1B7883F00103DBB2002BF6
S21400278014BF01230023DAB25E4B1A705E4B1B782F
S21400279083F00103DBB2002B14BF01230023DAB25F
S2140027A0594B1A7099E0574B00221A70564B00226C
S2140027B01A70544B1B78184600F0CCF8524B1B7816
S2140027C0184600F0DCF888E0504B5B78002B03D00E
S2140027D04C4B01221A7013E04C4B1B78002B0CD08C
S2140027E0484B1B7883F00103DBB2002B14BF012398
S2140027F00023DAB2434B1A7002E0424B00221A70F2
S214002800424BDB78002B03D03F4B01221A7013E0BB
S2140028103E4B9B78002B0CD03B4B1B7883F0010380
S214002820DBB2002B14BF01230023DAB2364B1A703A
S21400283002E0354B00221A70324B1B78184600F027
S21400284089F8314B1B78184600F099F845E0304B74
S2140028501B78012B09D02B4B00221A702A4B012221
S2140028601A702B4B01221A7009E0264B01221A70AF
S214002870254B00221A70264B00221A7000BF214BEF
S2140028801B78184600F066F81F4B1B78184600F0B9
S21400289076F822E01F4B1B78012B09D0194B00223B
S2140028A01A70194B00221A701A4B01221A7009E08E
S2140028B0144B01221A70144B01221A70154B002279
S2140028C01A7000BF0F4B1B78184600F043F80E4BEB
S2140028D01B78184600F053F800BF094B1B78042BF2
S2140028E004D1BB89184607F025FE12E7FB89184677
S2140028F007F020FE0DE700BF608300205A0000208E
S214002900CA010020CB010020CC0100204483002017
S214002910CD010020CE01002080B500AF01210C487B
S21400292001F088FD0021052002F0CEFF00230422DE
S2140029300421052003F008F80021052002F0C4FF5A
S214002940002304220521052002F0FEFF00BF80BD03
S21400295000350A0080B582B000AF0346FB71FB79F4
S214002960002B04D004210520FFF78CFE03E0042191
S2140029700520FFF74BFE00BF0837BD4680BD80B57B
S21400298082B000AF0346FB71FB79002B04D0052113
S2140029900520FFF777FE03E005210520FFF736FE4A
S2140029A000BF0837BD4680BD80B400AF044BDB6C6B
S2140029B01B0EDBB21846BD465DF8047B704700BFB1
S2140029C0B081E00F80B582B000AF164B01225A648A
S2140029D0FFF7EAFF0346FB71FB79002B0CD1124B85
S2140029E04AF6E8521A60114B1B68104A43F004037B
S2140029F013600D4B00221A60FB79012B05D80C4B97
S214002A001B680B4A43F4005313600A4B1B6A23F4FB
S214002A104413084A43F48813136200BF0837BD46C0
S214002A2080BD00BF00000E4090310E4098310E4031
S214002A3064310E4000400E4080B582B002AFFFF712
S214002A40C1FFFDF7C5FB01F077F83C48FDF7DCFB5E
S214002A503B48FDF791FC3B48FDF79FFC3A48FDF7E5
S214002A60AFFC3A480BF0AEFA0AF0A8F803220021B1
S214002A70012006F0D9FE0246354B1A60012006F00A
S214002A804BFF0246334B1A60012006F045FF024614
S214002A90314B1A60012006F03FFF02462F4B1A60AA
S214002AA0012006F039FF02462D4B1A60012006F081
S214002AB033FF02462B4B1A60012006F02DFF02461C
S214002AC0294B1A60294B01930423009300236422A8
S214002AD02749284807F0DBFB274B01930123009387
S214002AE000234FF4AF722549254807F0D0FB00239A
S214002AF00193022300930023C8222249224807F0AC
S214002B00C6FB00230193022300930023C8221F491B
S214002B101F4807F0BCFB1F4B0193012300930023C3
S214002B20C8221D491D4807F0B2FB1A4B1B68184601
S214002B3007F03AFD07F054FEFEE700BFF0820020E3
S214002B404C830020748300209C830020A0830020F8
S214002B507883002068830020648300206083002040
S214002B606C8300205C83002048830020EC820020D9
S214002B7048F70000FD260000E882002050F700001D
S214002B80190600005CF70000F12F000068F700004F
S214002B90E90300007083002074F70000D92B0000C2
S214002BA080B483B000AF4FF0A00383F31188BFF367
S214002BB06F8FBFF34F8F7B60FEE780B485B000AFAA
S214002BC0786039604FF0A00383F31188BFF36F8FEE
S214002BD0BFF34F8FFB60FEE7B0B59AB016AF7860D4
S214002BE03223FB81514800F0BDF8514B1868002392
S214002BF00A22002107F076F84E4B1A784E4B1A70D0
S214002C004B4B186800230022002106F09DFE4A4B1D
S214002C101B78042B02D1454800F0A4F8474BDA692C
S214002C20464B9B8A9B0013441B881A46444B1B6DDD
S214002C309A4214D2414B9B8A01339AB23F4B9A82F6
S214002C403E4B9B8A1A463D4BDB8A03339A4206DD8F
S214002C503C4B1868002303223B4908F0CBFB3B4B58
S214002C60186800230A22002107F03CF8384B9B78AE
S214002C70002B3ED0374B186800230A22002107F0AD
S214002C8031F8354B1B6818460BF0BCFB4FF00002C2
S214002C904FF000030BF0C0FE0346002B22D02F4B54
S214002CA0186800230A22002107F01CF8244C2A4B3F
S214002CB011AD0FCB85E80F00684604F110034422DF
S214002CC019460BF09EFF94E80F0000F08DF80346BF
S214002CD01A46234B1A70214B186800230022002145
S214002CE006F032FE1B4B186800230022002106F077
S214002CF02BFE164B186800230022002106F024FE47
S214002D00174B1B78012B02D0022B05D009E00221BD
S214002D10064800F03DF804E00021044800F038F8CA
S214002D2000BFFB89184607F005FC5EE744830020D9
S214002D30608300205A000020D00100207C83002001
S214002D40F0820020E882002021436587648300200B
S214002D5074830020688300204C8300205C8300205E
S214002D60D101002080B483B000AF78607B68002279
S214002D701A707B6800225A707B6800229A707B6803
S214002D800022DA7000BF0C37BD465DF8047B704742
S214002D9080B483B000AF78600B46FB70FB78032BE3
S214002DA01AD801A252F823F0B92D0000C12D000058
S214002DB0C92D0000D12D00007B6801221A700CE09E
S214002DC07B6801229A7008E07B6801225A7004E052
S214002DD07B680122DA7000E000BF00BF0C37BD46FA
S214002DE05DF8047B704700BF84B0B0B582B000AF1A
S214002DF007F1180484E80F0097ED1D7AD7ED167AD0
S214002E0067EE277A17EE900A0BF01EFB4FF00002D3
S214002E104FF0804309F0A0FF03460C4618462146B3
S214002E200BF03AFE03467B60FB6E18460BF0EAFAA0
S214002E304FF000024FF0804309F08EFF04460D4627
S214002E40B7F8503018460BF0EDFA02460B4620460F
S214002E5029460BF07BFC03460C461846214630A359
S214002E60D3E900230BF072FC03460C4618462146B5
S214002E704FF000024FF0804309F06EFF04460D4607
S214002E8078680BF0E1FA02460B46204629460BF01E
S214002E907DF903460C46184621460BF0FDFD034619
S214002EA07B6078680BF0D0FA03460C46184621463D
S214002EB00AF0F0F803460C46184621460BF0ECFDE7
S214002EC003467B60D7ED127A97ED017AB4EEE77A87
S214002ED0F1EE10FA01DB012319E078680BF0B4FA82
S214002EE004460D46BB6C18460BF0AEFA0EA3D3E9AB
S214002EF000230BF001FB02460B46204629460BF04A
S214002F0081FD0346002B01D0022300E00023184673
S214002F100837BD46BDE8B04004B07047AFF3008048
S214002F209A9999999999B93F333333333333EB3FB1
S214002F3080B485B000AF786039607B6803F10473B5
S214002F40DA003B6813449B00FB60FB681B6818466E
S214002F501437BD465DF8047B7047000080B483B02C
S214002F6000AF7860044A7B68C2F8243400BF0C3790
S214002F70BD465DF8047B704700A0004080B582B077
S214002F8000AF03463960FB71FB79002B1CD0FB7940
S214002F90012B19D0FB79022B16D0FB79032B13D00B
S214002FA0FB79042B10D0FB79052B0DD0FB79062B73
S214002FB00AD0FB79072B07D0FB79082B04D0FB79C6
S214002FC0092B01D0FB790A2BFA7913465B001344D0
S214002FD01B011C3303F1804303F520433968184670
S214002FE0FFF7A6FF034618460837BD4680BD00001B
S214002FF090B597B012AF78603223FB73FB7B4FF42B
S2140030007A7202FB03F3B04A82FB03129211DB17BB
S214003010D31ABB81C8237B814FF47A733B8100F0BF
S214003020FBFC3989A94B009300230022A84808F02E
S2140030302DFB0246A74B1A60A74B009300230022E5
S2140030404FF47A71A54808F021FB0246A44B1A609B
S214003050A44B0093002300224FF49671A24808F078
S21400306015FB0246A14B1A6000F0F4FC03461A4614
S2140030709F4B1A7000F00BFD03461A469D4B1A70C4
S2140030809D4B186800230022002106F02BFE9B4B68
S2140030901A789B4B1A70984B186800230022002160
S2140030A006F052FC974B186800230022002106F019
S2140030B019FE954B1A78954B1A70924B1868002398
S2140030C00022002106F040FC8D4B1B78052B00F2F9
S2140030D0288201A252F823F023350000F1300000C8
S2140030E023350000593200002335000077340000F5
S2140030F07F4B1A787F4B1B781946104600F0E4FC8D
S2140031000346032B00F2A68001A252F823F000BF6C
S2140031102B32000021310000C7310000F9310000D9
S2140031207B4B01221A706E4B1B68184608F0CAFDCE
S2140031300346002B0CD16A4B1C6807F04BFC034679
S2140031401A460A23009300230221204608F0EEFACE
S214003150704B186800230022002106F0C3FD6E4B5A
S214003160186800230022002106F0BCFD6B4C684660
S21400317004F11003442219460BF043FD94E80F00B7
S21400318000F0D2FB0246654BDA62644C684604F1F6
S2140031901003442219460BF034FD94E80F0000F0AB
S2140031A0EBFB02465D4B1A635B4B1868002300225C
S2140031B0002106F0C9FB574B1868002300220021A7
S2140031C006F0C2FB47E0464B1B68184608F07AFD3F
S2140031D00346012B08D1424B18680A2300930023AC
S2140031E00022032108F0A2FA4D4B186800230322A0
S2140031F0AA2108F0FFF82EE0394B1B68184608F0A5
S21400320061FD0346012B08D1354B18680A2300934D
S21400321000230022032108F089FA414B1868002396
S2140032200322552108F0E6F815E02D4B1B681846DA
S21400323008F048FD0346012B08D1294B18680A23DD
S214003240009300230022032108F070FA304B00227E
S2140032501A7000E000BF64E1244B1B68184608F0B3
S21400326031FD0346002B0CD1204B1C6807F0B2FB47
S21400327003461A460A23009300230121204608F03D
S21400328055FA1B4B1A781B4B1B781946104600F054
S2140032901BFC0346022B45D0032B00F09680012B27
S2140032A040F0DF801A4B01221A700A4B1C6807F0A8
S2140032B091FB03461A460A23009300230221204668
S2140032C008F034FAD6E000BFD34D62108135000016
S2140032D080F70000D4010020D935000090F70000E8
S2140032E0D801002049360000A0F70000DC010020CD
S2140032F0E0010020E1010020608300205A00002049
S214003300E20100206C830020CF010020E3010020B2
S214003310E40100205C83002068830020F082002007
S214003320E8820020884B1B78002B08D0874B186853
S2140033300A23009300230022032108F0F7F9844BA8
S2140033401B78012B00F09180824B186800230A221C
S214003350002106F0C7FC0346012B40F088807E4B18
S2140033609B6818460BF070F875A3D3E900230AF0A3
S2140033700DFF03460C46184621464FF00002774BD9
S2140033800BF036FB0346002B13D0734B9B68184696
S2140033900BF05AF86AA3D3E900230AF0F7FE0346B7
S2140033A00C46184621460BF077FB02466A4B9A609D
S2140033B003E0694B4FF07E529A60664B1868002314
S2140033C00022002106F0C0FA51E05F4B1B78002B6C
S2140033D008D05E4B18680A230093002300220321BE
S2140033E008F0A4F95B4B186800230A22002106F0B7
S2140033F079FC0346012B3CD1574B9B6818460BF0D3
S21400340023F84FA3D3E900230AF0BEFE03460C467A
S214003410184621464FF00002514B0BF0F3FA0346D4
S214003420002B13D04C4B9B6818460BF00DF844A3AA
S214003430D3E900230AF0A8FE03460C4618462146A8
S2140034400BF02AFB0246444B9A6002E0424B454A88
S2140034509A60404B186800230022002106F074FA98
S21400346007E0394B00221A7004E000BF59E000BFA5
S21400347057E000BF55E0374B186800230A220021AA
S21400348006F030FC344B4FF000029A60324B0022BC
S2140034901A73314B00225A602F4B00221A602D4BB4
S2140034A0186800230022002106F04EFA2E4B1868FA
S2140034B000230A22002106F015FC2C4B00221A6578
S2140034C0294B186800230022002106F03DFA284BFD
S2140034D01A78284B1B781946104600F0F5FA034672
S2140034E0012B18D1184B01221A70234B1B68184663
S2140034F008F0E8FB0346002B11D11F4B1C6807F0B1
S21400350069FA03461A460A2300930023022120463E
S21400351008F00CF903E00C4B00221A7000E000BF24
S21400352000BF164B1B78012B04D17B89184607F089
S21400353001F899E5BB89184606F0FCFF94E500BF44
S2140035409A9999999999A93FE4010020D4010020FD
S214003550E3010020688300204C8300200000F03F39
S2140035600000F0BF000080BF5C830020F0820020D7
S214003570E0010020E1010020D8010020E201002047
S21400358080B582B000AF7860114B186800230A221D
S214003590002106F0A7FB0346012B15D10D4B1B7827
S2140035A0012B03D10B4B00221A7006E0094B1B7847
S2140035B0002B02D1074B01221A70054B1868002316
S2140035C00022002106F0C0F900BF0837BD4680BDC6
S2140035D06C830020CF01002080B584B000AF7860F7
S2140035E0144B186800230022002106F07BFB124BC8
S2140035F01B78FB730F4B186800230022002106F08F
S214003600A3F9FB7B012B07D10C4B18680023032280
S2140036100B4907F0EFFE09E0FB7B052B06D1074BB5
S214003620186800230322074907F0E4FE00BF10379E
S214003630BD4680BD608300205A000020E88200203E
S214003640F0DEBC0AB1CAED0FB0B598B016AF786020
S214003650254B186800230A22002106F043FB234B63
S214003660186800230A22002106F03CFB204B214A62
S2140036700192DA6800920ECB1F4800F0A5F91E4CA6
S2140036801B4B11AD0FCB85E80F00684604F1100305
S214003690442219460BF0B5FA94E80F0000F02EF815
S2140036A007EE900AFCEEE77A17EE902A104B1A60A7
S2140036B00F4B1A680E4B5B689A4203D90C4B1B687B
S2140036C00B4A5360084B186800230022002106F0BE
S2140036D03BF9064B186800230022002106F034F957
S2140036E000BF0837BD46B0BD5C830020688300205D
S2140036F04C8300209A99993EF082002084B02DE9F0
S214003700F0439DB016AF07F1380686E80F0097ED38
S214003710257AD7ED1E7A67EE277AC7ED037A11AEC3
S21400372007F18C030FCB86E80F00684607F14803C5
S214003730442219460BF065FA07F138030FCB00F068
S2140037409BF803463B663B6E7B61D7F88C30002BBC
S21400375008D0D7ED1A7A97ED057A77EE277AC7ED77
S214003760057A07E0D7ED197A97ED057A77EE277A8E
S214003770C7ED057AD7F88C3007EE903AF8EE677A00
S21400378097ED057A67EE277AC7ED057A394BBB6069
S2140037904FF000033B6197ED037AD7ED057A37EEDD
S2140037A0677AD7ED1D7A77EEA76AD7ED027A66EECE
S2140037B0A77AC7EE276A16EE900A0AF045FE02467A
S2140037C00B46C7E900234FF000024FF00003D7E98D
S2140037D000010BF021F90346002B14D0D7E90001B5
S2140037E009F058FC03460C46184621460BF054F9DF
S2140037F003463B6197ED047AD7ED027A67EE277AA7
S214003800C7ED047A22E0D7ED027AF1EE677A17EE7A
S214003810903A18460AF018FE804689463C687B684F
S21400382083F000452046294609F034FC03460C4642
S2140038301A462346404649460AF05EFE03460C46B4
S214003840184621460BF028F903463B61D7F88C3022
S21400385007EE903AF8EE677A97ED047A77EE277AD5
S214003860C7ED047A3B6918461C37BD46BDE8F043F1
S21400387004B070479A99993E84B0B0B582B000AF54
S21400388007F1180484E80F00B7F8523007EE903AB4
S214003890B8EEE77AD7ED0F7A67EE277AC7ED017AAA
S2140038A0FB6E18460AF0AEFD4FF000024FF0804364
S2140038B009F052FA04460D4678680AF0C5FD02463D
S2140038C00B46204629460AF061FC03460C4618467D
S2140038D021460BF0E1F803467B6078680AF0B4FDF9
S2140038E04FF033320E4B0AF007FE03460C461846DE
S2140038F021464FF000024FF080430AF027FF0346B0
S2140039000C46184621460BF0C7F803467B607B68DA
S21400391018460837BD46BDE8B04004B0704700BF43
S2140039203333F33F0000000084B098B500AF07F1D2
S214003930100484E80F0097ED0B7AD7ED137A67EE44
S214003940277A17EE900A0AF07FFD09A3D3E9002331
S2140039500AF0D2FD03460C46184621460BF09CF8AA
S21400396003461846BD46BDE8984004B0704700BF01
S2140039701F85EB51B89E234084B098B500AF07F181
S214003980100484E80F0097ED0C7AD7ED137A67EEF3
S214003990277A17EE900A0AF057FD09A3D3E9002309
S2140039A00AF0AAFD03460C46184621460BF074F8AA
S2140039B003461846BD46BDE8984004B0704700BFB1
S2140039C01F85EB51B89E234084B080B483B000AF0F
S2140039D0786007F1140080E80E007B681B6D07EE28
S2140039E0903AB8EE677A7B6907EE903AF8EE676A27
S2140039F0D7ED097A66EEA77A77EE277AFCEEE77AB5
S214003A0017EE902A7B681A6500BF0C37BD465DF836
S214003A10047B04B07047000080B500AF01210C485D
S214003A2000F008FD0021052001F04EFF00230122D2
S214003A300621052001F088FF0021052001F044FF43
S214003A40002301220721052001F07EFF00BF80BD74
S214003A5000350A0080B582B000AF06210520FFF7CA
S214003A608DFA0346002B0CBF01230023DBB27B60DC
S214003A707B68002B01D1002305E07B68002B01D07A
S214003A80012300E0012318460837BD4680BD80B5F7
S214003A9082B000AF07210520FFF770FA0346002B1F
S214003AA00CBF01230023DBB27B607B68002B01D1B7
S214003AB0002305E07B68002B01D0012300E00123F2
S214003AC018460837BD4680BD80B483B000AF0346B5
S214003AD00A46FB711346BB71FB79012B04D1BB79F7
S214003AE0012B01D1012310E0FB79012B04D1BB7916
S214003AF0002B01D1022308E0FB79002B04D1BB790F
S214003B00012B01D1032300E0002318460C37BD46E5
S214003B105DF8047B704780B500AF45F25550FFF75F
S214003B201DFA00BF80BD80B500AF4AF6AA20FFF799
S214003B3015FA00BF80BD000080B500AF3A493B488B
S214003B400BF0B5F8394B1422DA82384BDB8A1A466A
S214003B5013469B0013445B001A46344B9A61334B62
S214003B6000229A82314B324ADA61324932480BF0EF
S214003B709EF8314B3222DA822F4BDB8A1A461346E6
S214003B809B0013445B001A462B4B9A612A4B00227B
S214003B909A82502005F03AF90246274BDA61502205
S214003BA0234926480BF02DF8254926480BF07FF8C8
S214003BB0244B3222DA82234BDB8A1A4613469B00BA
S214003BC013445B001A461F4B9A611E4B00229A82D2
S214003BD0502005F01BF902461A4BDA6150221449B0
S214003BE019480BF00EF8194919480BF060F8184BF5
S214003BF03222DA82164BDB8A1A4613469B0013449F
S214003C005B001A46124B9A61114B00229A82502092
S214003C1005F0FCF802460E4BDA61502204490D48C6
S214003C200AF0EFFF00BF80BDB4F70000E8010020F7
S214003C305C000020C0F700000802002024020020DC
S214003C40D0F700002802002044020020D8F7000029
S214003C504802002064020020B0B582B000AF786051
S214003C600B46FB70FB78032B3ED801A252F823F0DC
S214003C70813C0000A73C0000BD3C0000D33C000097
S214003C807B68214A1C4615460FCD0FC495E80F00E9
S214003C9084E80F007B68D8691B4BDB690422194651
S214003CA00AF0AFFF2BE07B68174A1C4615460FCD7F
S214003CB00FC495E80F0084E80F0020E07B68124AE6
S214003CC01C4615460FCD0FC495E80F0084E80F007C
S214003CD015E07B680C4A1C4615460FCD0FC495E8C8
S214003CE00F0084E80F000AE07B68074A1C4615466A
S214003CF00FCD0FC495E80F0084E80F0000BF00BF8B
S214003D000837BD46B0BD00BFE801002080B487B0CC
S214003D1000AFF860B9607A60FB6803F10473DA00FC
S214003D20BB6813449B007B617B697A681A6000BF9E
S214003D301C37BD465DF8047B704780B485B000AF85
S214003D40786039607B6803F1C063FB60FB683A68A3
S214003D501A6000BF1437BD465DF8047B704780B418
S214003D6085B000AF786039607B6803F18063FB60E4
S214003D70FB683A681A6000BF1437BD465DF8047BDE
S214003D80704780B584B000AFF860B9607A60B968F3
S214003D90F868FFF7E4FF7968F868FFF7CEFF00BF22
S214003DA01037BD4680BD000080B582B000AF786099
S214003DB039607B68B3F1804F02D07B68194A934222
S214003DC000BF3B681B78DB071A463B685B681B0630
S214003DD0134343F400427B681A603B68DB681B04AD
S214003DE03A68127A1A437B689A623B681B691B041E
S214003DF03A68527A1A437B68DA623B689B7A1B07FA
S214003E0043F0806343F47D437A68536078683B6888
S214003E101B7D1A460021FFF779FF00BF0837BD4615
S214003E2080BD00BF0004004080B582B000AF78605F
S214003E300B46FB707B68B3F1804F02D07B68074A65
S214003E40934200BF7B680433FA78FF211846FFF7D9
S214003E5098FF00BF0837BD4680BD00BF0004004085
S214003E6080B483B000AF78607B68B3F1804F02D037
S214003E707B68074A934200BF7B681B6823F00102F9
S214003E807B681A6000BF0C37BD465DF8047B704740
S214003E900004004080B483B000AF78607B68B3F164
S214003EA0804F02D07B68074A934200BF7B681B683E
S214003EB043F001027B681A6000BF0C37BD465DF810
S214003EC0047B70470004004080B487B000AFF86001
S214003ED0B9607A60FB6803F10473DA00BB681344C8
S214003EE09B007B617B697A681A6000BF1C37BD4601
S214003EF05DF8047B704780B485B000AF78603960A9
S214003F007B6803F10473DA003B6813449B00FB6094
S214003F10FB681B6818461437BD465DF8047B70477F
S214003F2080B483B000AF786001227B6802FA03F3A6
S214003F3018460C37BD465DF8047B704780B582B0E6
S214003F4000AF78607868FFF7EBFF0346184608373F
S214003F50BD4680BD80B584B000AF78607B68013315
S214003F60B3FA83F3DBB2C3F11F03FB60F868FFF715
S214003F70D7FFFB6818461037BD4680BD80B500AF3A
S214003F8000BF12210348FFF7B6FF0346002BF8D107
S214003F9000BF80BD04300E4080B500AFFFF7EEFFD7
S214003FA0034B5B681B0C03F00303DBB2184680BDB3
S214003FB000300E4080B584B000AF78600123FB600F
S214003FC07B68124A934204D80023FB600023BB6040
S214003FD008E07B680E4A934202D80123BB6001E0EA
S214003FE00223BB60FA6810210A48FFF76DFF094BF1
S214003FF0D3F8003123F08072BB681B0605491343D3
S214004000C1F8003100BF1037BD4680BD0048E8014A
S2140040100090D00300400E4080B483B000AF054B44
S2140040201B687B607B6818460C37BD465DF8047BD2
S214004030704700BFAC00002080B582B000AF08F02B
S21400404013FE7860064BD3F800311B0A03F01F03FB
S21400405001337A6802FB03F318460837BD4680BD75
S21400406000400E4080B582B000AF0D4800F03CFD29
S2140040700346FB70FB78072B05D0092B07D108F009
S214004080F3FD786006E0FFF7C7FF786002E00023E4
S2140040907B6000BF7B6818460837BD4680BD00BF02
S2140040A006000E0080B584B000AF78607B68002BF9
S2140040B01CD11B4800F018FD0346FB7200BFFB7ABC
S2140040C0013B072B23D801A252F823F0F140000051
S2140040D00F4100000F410000FF4000000F410000AC
S2140040E00F410000F740000007410000002312E0E7
S2140040F00023FB600EE0FFF78FFFF8600AE008F091
S214004100EBFDF86006E0FFF797FFF86002E000239B
S214004110FB6000BFFB6818461037BD4680BD00BF79
S214004120B800320080B485B000AF786039601E4BAE
S2140041305B6803F04073FB600023BB6012E01B4A21
S214004140BB68DB0013441A793B68DBB29A4206D19F
S214004150164ABB6852F833307A689A4206D9BB686A
S2140041600133BB60BB68042BE9D900E000BFBB6825
S214004170052B02D10323FB6005E00C4ABB68DB007D
S21400418013445B79FB60FB681B06FB60064B5B68B1
S21400419023F040720449FB6813434B6000BF14379A
S2140041A0BD465DF8047B704700000E40E4F7000053
S2140041B080B582B000AF0E4B1B6C002B14BF0123E2
S2140041C00023FB710A4B41F671321A6408F042FD77
S2140041D0034600211846FFF7A5FFFB79002B02D007
S2140041E0034B00221A6400BF0837BD4680BD00BFDF
S2140041F000000E4080B584B000AF786039600C4B8C
S2140042001B6C002B14BF01230023FB73084B41F6E5
S21400421071321A6439687868FFF784FFFB7B002BDD
S21400422002D0034B00221A6400BF1037BD4680BD83
S21400423000000E4080B487B000AF78600F237B612B
S2140042407B6803333B617B69FB60FA683B6993429A
S21400425028BF1346BB60BB681B07BB60BB6818461D
S2140042601C37BD465DF8047B7047000080B400AF85
S214004270044B5B6A1B0903F003031846BD465DF852
S214004280047B704700400E4080B483B000AF786077
S214004290074B5B6A23F030027B681B01044913431B
S2140042A04B6200BF0C37BD465DF8047B704700BF0D
S2140042B000400E4090B585B000AF78600023BB602C
S2140042C07B68354A934206D0344A934203D0344A38
S2140042D0934200D000E000BF786800F005FC03467B
S2140042E0FB607B682C4A93420DD02C4A934211D037
S2140042F02B4A934200D014E02A4BD3F8803003F0C8
S2140043000703FB600DE0274BD3F8843003F0070368
S214004310FB6006E0234BD3F8883003F00703FB600E
S21400432000BFFB68042B2ED801A252F823F000BF72
S21400433081430000454300004D4300005D430000FC
S2140043405543000008F0EAFCB8601FE008F0F8FCEF
S214004350B8601BE008F0EBFCB86017E008F05AFC09
S2140043600446104BD3F800311B0E03F00103013353
S2140043701846FFF7E3FD0346B4FBF3F3BB6005E026
S2140043800023BB6002E00023BB6000BFBB6818468A
S2140043901437BD4690BD00BF030020000500240072
S2140043A002001E0000400E4080B483B000AF78606C
S2140043B00A4BD3F8443103F00103002B08D100BFA9
S2140043C0064BD3F840217B681340002BF8D100E061
S2140043D000BF0C37BD465DF8047B704700400E40BA
S2140043E080B400AF00BFBD465DF8047B704780B464
S2140043F000AF00BFBD465DF8047B704780B582B055
S21400440000AF7860786800F081F9034601331846FB
S2140044100837BD4680BD80B582B000AF7860396091
S2140044203B68013B1946786800F032FA00BF08374F
S214004430BD4680BD80B586B000AF78600B46FB7089
S21400444000233B617B681B0A03F00F03013B092B2B
S21400445044D801A252F823F0814400008D440000A5
S214004460DD440000DD440000874400009344000063
S2140044709D440000DD440000A7440000B344000053
S214004480184B7B6118E0184B7B6115E0174B7B617E
S21400449012E0174B7B6101233B610DE0154B7B61FE
S2140044A010233B6108E0144B7B614FF480333B6183
S2140044B002E0124B7B6100BF7B681B0B03F01F03FF
S2140044C0FB603B69002B02D03869FFF76DFFFB7875
S2140044D01A46F9687869FFF7F7FC00E000BF18375E
S2140044E0BD4680BD00400E40B0400E40C0400E406D
S2140044F0E0400E40E8400E40F0400E4050410E4076
S21400450080B584B000AF78607B6803F47813B3F5A9
S214004510A01F7DD0B3F5A01F1AD8B3F5202F50D01A
S214004520B3F5202F08D8B3F5003F4ED0B3F5802F53
S21400453038D0002B32D0D8E0B3F5602F00F0C8801A
S214004540B3F5801F00F0C880B3F5402F4CD0CCE008
S214004550B3F5001F00F08B80B3F5001F0AD8B3F543
S214004560D01F00F08980B3F5F01F4CD0B3F5B01F14
S2140045705CD0BAE0B3F5381F6AD0B3F5381F04D85C
S214004580B3F5101F00F09F80AFE0B3F5401F00F0BA
S2140045908680B3F5481F00F0A380A6E008F064FB11
S2140045A0F860A5E008F060FBF860544BD3F80C31D7
S2140045B01B0AC3F308030133FA68B2FBF3F3FB608C
S2140045C096E008F051FBF86092E008F04DFBF860CA
S2140045D04A4BD3F808311B0AC3F308030133FA68C1
S2140045E0B2FBF3F3FB6083E008F03EFBF860434B5E
S2140045F0D3F814311B0A03F01F030133FA68B2FB29
S214004600F3F3FB6074E03E48FFF754FEF8606FE09B
S2140046103C48FFF74FFEF860384BD3F8303103F0D4
S2140046200303FA6822FA03F3FB6061E03448FFF7FD
S21400463041FEF860314BD3F8203103F00F031846E3
S214004640FFF77CFC0246FB68B3FBF2F3FB604FE02F
S2140046502B48FFF72FFEF860284BD3F820311B09B4
S21400466003F00303FA6822FA03F3FB6040E02648EF
S214004670FFF720FEF8603BE02348FFF71BFEF860DC
S2140046801E4BD3F828311B0903F003031846FFF727
S21400469055FC0246FB68B3FBF2F3FB6028E01A48C1
S2140046A0FFF708FEF860154BD3F828311B0A03F015
S2140046B0030304331846FFF741FC0246FB68B3FBCE
S2140046C0F2F3FB6014E00F48FFF7F4FDF8600FE02C
S2140046D0FFF7C8FCF8600BE0FFF79EFCF86007E009
S2140046E00020FFF7DFFCF86002E00023FB6000BF5D
S2140046F0FB6818461037BD4680BD00BF00400E4020
S21400470002001E00050024000300200080B584B0CF
S21400471000AF78607B681B0903F00F03BB60BB68C3
S214004720013B092B00F2A08001A252F823F000BF43
S2140047305947000069470000794700008947000094
S214004740694800006948000099470000A947000032
S214004750F74700004B480000474BD3F800311B0AD0
S21400476003F01F03FB6082E0434BD3F814311B0AAF
S21400477003F01F03FB607AE03F4BD3F800311B0EBB
S21400478003F00103FB6072E03B4BD3F80C311B0ACD
S214004790C3F30803FB606AE0374BD3F808311B0A03
S2140047A0C3F30803FB6062E07B68344A934203D09D
S2140047B0334A93420DD01AE02F4BD3F8203103F042
S2140047C00F03FB60F868FFF7B9FB0346013BFB608D
S2140047D010E0294BD3F820311B0903F00303FB60DC
S2140047E0F868FFF7ABFB0346013BFB6002E00023E3
S2140047F0FB6000BF3BE07B68224A934203D0224A1C
S21400480093420ED01DE01C4BD3F828311B0903F051
S2140048100303FB60F868FFF791FB0346013BFB6070
S21400482012E0154BD3F828311B0A03F00303FB6094
S214004830FB6804331846FFF781FB0346013BFB6029
S21400484002E00023FB6000BF11E07B680F4A934242
S21400485006D1094BD3F8303103F00303FB6002E0C6
S2140048600023FB6000BF02E00023FB6000BFFB6884
S21400487018461037BD4680BD00400E408006160024
S21400488080162E0090171A0090273000A0091400FA
S21400489080B584B000AF786039607B681B0903F090
S2140048A00F03FB60FB68013B092B00F2078101A2A6
S2140048B052F823F0DD48000029490000BD4A0000F8
S2140048C041490000BD4A0000BD4A00005D490000A5
S2140048D0A5490000254A0000934A0000FFF768FC3F
S2140048E07948FFF767FBFFF77BFD784BD3F800317D
S2140048F023F4F8523B681B0274491343C1F8003195
S21400490008F088F9B860FFF747FB03461946B86811
S214004910FFF770FC6E48FFF7F3FD03461846FFF7F7
S21400492049FBFFF764FDCAE0684BD3F8143123F463
S214004930F8523B681B0265491343C1F81431BEE0C8
S214004940624BD3F80C3123F4FF3323F480733A68B8
S21400495012025E491343C1F80C31B0E0FFF728FCA1
S2140049605948FFF727FB594BD3F8083123F4FF3398
S21400497023F480733A68120254491343C1F808318D
S21400498008F048F9B860FFF707FB03461946B86811
S214004990FFF730FC4E48FFF7B3FD03461846FFF717
S2140049A009FB8CE07B684B4A934215D04A4A9342F7
S2140049B024D04A4A934200D033E04FF48020FFF7D9
S2140049C0F3FC424BD3F8303123F003023F493B68F7
S2140049D01343C1F8303124E03868FFF7BBFA38607B
S2140049E00420FFF7E1FC394BD3F8203123F00F0207
S2140049F036493B681343C1F8203112E03868FFF7A8
S214004A00A9FA38600420FFF7CFFC304BD3F82031EA
S214004A1023F030023B681B012C491343C1F82031B8
S214004A2000BF4CE07B682E4A934203D02D4A934247
S214004A3013D02DE03868FFF78DFA38604020FFF776
S214004A40B3FC224BD3F8283123F030023B681B011D
S214004A501E491343C1F828311AE03B687F2B02D861
S214004A603B680E2B00BF3868FFF774FA0346043B1A
S214004A703B604020FFF798FC144BD3F8283123F412
S214004A8040723B681B0211491343C1F8283100BF2E
S214004A9015E07B68114A934200D00EE04FF4802068
S214004AA0FFF782FC094BD3F8303123F003020749A5
S214004AB03B681343C1F8303100BF00E000BF00BFC1
S214004AC01037BD4680BD00BF0148E80100400E40DB
S214004AD000250A008006160080162E00A009140085
S214004AE090171A009027300080B485B000AF786029
S214004AF00123FB737B6803F00F03BB60BB68013BBD
S214004B00072B00F2C48001A252F823F02D4B0000C0
S214004B10834B0000B34B00008F4C0000F94B0000A5
S214004B20294C00008F4C00004D4C00005D4BD3F824
S214004B30943003F00703023B052B1ED801A252F85F
S214004B4023F000BF694B0000634B00005D4B000084
S214004B506F4B00007B4B0000754B00000223FB737D
S214004B600EE00323FB730BE00423FB7308E00B2328
S214004B70FB7305E00C23FB7302E00523FB7300BF09
S214004B8088E0484BD3F8803003F00703022B06D0AA
S214004B90042B07D0012B08D10323FB7308E0022364
S214004BA0FB7305E00A23FB7302E00123FB7300BFDF
S214004BB070E03C4BD3F8843003F00703013B032B33
S214004BC016D801A252F823F0D94B0000DF4B0000A4
S214004BD0EB4B0000E54B00000323FB730BE00223C6
S214004BE0FB7308E00A23FB7305E00623FB7302E071
S214004BF00123FB7300BF4DE02A4BD3F8883003F047
S214004C000703022B06D0042B07D0012B08D1032361
S214004C10FB7308E00223FB7305E00A23FB7302E044
S214004C200123FB7300BF35E01E4B1B6F03F001032F
S214004C30002B04D0012B05D10923FB7305E00723C5
S214004C40FB7302E00123FB7300BF23E0154BD3F890
S214004C505C3103F03003102B0CD0102B02D8002B45
S214004C6005D010E0202B08D0302B09D00BE0012314
S214004C70FB730BE00723FB7308E00423FB7305E0DC
S214004C800823FB7302E00123FB7300BF02E000234E
S214004C90FB7300BFFB7B18461437BD465DF8047BEC
S214004CA0704700BF00400E4080B58AB000AF786005
S214004CB00B46FB7003237B62032387F82330002315
S214004CC0BB6100237B617B68112B19D1FB78042B19
S214004CD003D108F001F878610BE0FB78052B08D1CA
S214004CE000F0C8F90246A44B9A4202D900F0C2F975
S214004CF078617B69002B03D00021786900F0BAFC4C
S214004D007B6803F00F033B613B69013B072B00F216
S214004D10298101A252F823F0394D00002D4E0000E3
S214004D203F4E0000654F0000314E0000D54E00009B
S214004D30654F0000F34E0000FB78023B0A2B00F2A2
S214004D40138101A252F823F0754D0000814D00003A
S214004D508D4D00009F4D0000694F0000694F000018
S214004D60694F0000694F0000694F0000B14D000018
S214004D70BD4D000004237B62002387F8233023E028
S214004D8003237B62012387F823301DE002237B6226
S214004D90022387F823307948FFF70CF914E0012343
S214004DA07B62032387F823307448FFF703F90BE090
S214004DB005237B62032387F8233005E007237B6205
S214004DC0062387F8233000BF97F82330062B06D03B
S214004DD097F8233001220121184600F0E9F9FFF781
S214004DE0E7F9FFF7FDFA7B69002B01D0FFF7C6F85D
S214004DF0634A7B6A53676348FFF782FB034618469D
S214004E00FFF7D8F807F006FFF860FFF7C5F8034687
S214004E101946F868FFF7EEF97B69002B03D10121EC
S214004E20002000F027FCFFF7E2FAA2E0564BBB6139
S214004E30BB69002B01D0BB6900E0544BBB61BB696A
S214004E40002B01D0BB6900E0514BBB61FB78013BF6
S214004E50092B00F28B8001A252F823F0854E000049
S214004E608B4E00009B4E00006D4F00006D4F000003
S214004E70AB4E00006D4F00006D4F00006D4F000000
S214004E80C74E00000023FB6120E001220121002024
S214004E9000F08EF90223FB6118E0012201210120B7
S214004EA000F086F90123FB6110E007F0B3FE03462D
S214004EB01846FFF77FF8012202213648FFF704F86C
S214004EC00323FB6102E00423FB6100BFBB69FA69B0
S214004ED01A604EE0FB78072B02D0092B04D048E07E
S214004EE0274B00221A6703E0254B01221A6700BFF2
S214004EF03FE0FB78013B072B3AD801A252F823F09B
S214004F00214F0000714F0000714F0000374F000026
S214004F10714F0000714F0000274F0000474F000000
S214004F200023FB6112E001220121042000F040F979
S214004F300123FB610AE001220121022000F038F97A
S214004F400223FB6102E00323FB6100BF0C4BD3F896
S214004F505C3123F03002FB691B0109491343C1F899
S214004F605C3106E000BF04E000BF02E000BF00E0E6
S214004F7000BF2837BD4680BD002D31010148E8013D
S214004F8000400E4000250A0080400E4088400E403B
S214004F9084400E40B0400E4080B483B000AF7860CE
S214004FA07B68294A93422FD0274A934210D8274A33
S214004FB0934221D0254A934203D8254A93421BD0D8
S214004FC03AE0244A934217D0234A934218D033E05B
S214004FD0224A934224D0214A934206D8204A93423A
S214004FE016D0204A934217D026E01F4A93421BD081
S214004FF01E4A93421CD01FE01D4BD3F880301CE0A5
S2140050001B4BD3F88C3018E0194BD3F8983014E0CB
S214005010174BD3F89C3010E0154BD3F8A0300CE0BB
S214005020134BD3F8A83008E0114BD3F8AC3004E0AB
S2140050300F4BD3F8B03000E0002318460C37BD46BF
S2140050405DF8047B704700BF405DC60080841E008C
S21400505040420F0000093D00C0CF6A0080BA8C01B4
S2140050600024F400C0EA21010048E80180D543028C
S214005070B081E00F80B400AF034B1B681846BD46F6
S2140050805DF8047B704700BFD000002080B586B076
S21400509000AF78607868FFF77FFF78617B69002B48
S2140050A003D07B69B3F1FF3F00BF3A4B1B683B61FF
S2140050B0384A7B6813601120FFF716FD0346052B60
S2140050C003D1FFF775F8FFF78BF900BF18213248B8
S2140050D0FEF711FF0346002BF8D17B682F4A934258
S2140050E00DD02F4A934211D02E4A934200D012E0A0
S2140050F07B6923F0C06343F080637B610BE07B69D0
S21400510023F0C06343F000737B6104E07B6923F007
S214005110C0637B6100BF1120FFF7E6FC0346052B4A
S21400512002D17868FEF746FF7A683B699A4203D94F
S2140051300121786800F09EFA1B4A7B6913611120F2
S214005140FFF7D2FC0346052B09D107F063FDF86094
S214005150FEF722FF03461946F868FFF74BF8134898
S214005160FFF7CEF903461846FEF724FF7A683B6938
S2140051709A4203D80121002000F07CFA1120FFF7A4
S214005180B3FC0346052B01D1FFF731F900BF1837F2
S214005190BD4680BDD000002040410E4080841E00E9
S2140051A000093D0040420F0000400E4000250A0066
S2140051B080B588B000AF0346FB710B46BB71134643
S2140051C07B71FB79042B00F2B88001A252F823F021
S2140051D02D5200001B520000F7510000E551000060
S2140051E00952000001237B6102233B610123FB611E
S2140051F00023BB6125E004237B6108233B61032376
S214005200FB610223BB611CE010237B6120233B6112
S2140052100523FB610423BB6113E040237B618023ED
S2140052203B610723FB610623BB610AE04FF48073F2
S2140052307B614FF400733B610923FB610823BB616C
S21400524000BFBB79002B5BD00023FB73FB79022BDE
S21400525011D1FFF70BF80346002B0CD1394BDB6B53
S2140052600123FB73384B5B6A03F00103012B02D169
S2140052700120FFF709F8344A7B69136600BFB96955
S2140052803248FEF738FE0346002BF8D07B79002B19
S21400529054D000BFF9692D48FEF72DFE0346002BBB
S2140052A0F8D0FB79022B49D1FB7B002B46D0264B4E
S2140052B05B6A03F00103012B05D1012220210220A5
S2140052C000F04AF903E00021022000F0FBF802207B
S2140052D000F03EF8B860012200210220FFF768FFC8
S2140052E0B968022000F06EF8174A7B69136600BFA3
S2140052F0F9691648FEF7FFFD0346002BF8D01DE0BF
S214005300114A3B69136600BF0F4BD3F8903001215A
S214005310BA6901FA02F21340002BF5D17B79002B13
S2140053200CD000BF084BD3F890300121FA6901FA7F
S21400533002F21340002BF5D100E000BF2037BD4637
S21400534080BD00BF00300E4000400E4090400E4032
S21400535080B485B000AF0346FB71FB79013B032B9D
S21400536023D801A252F823F0795300009D53000081
S2140053708553000091530000114B1B6AC3F30803CA
S214005380FB6015E00E4B1B6903F07F03FB600FE02C
S2140053900B4B9B6903F07F03FB6009E0084BD3F8D7
S2140053A09C30C3F30A03FB6002E00023FB6000BFEF
S2140053B0FB6818461437BD465DF8047B704700BF8F
S2140053C000400E4080B584B000AF03463960FB71E4
S2140053D0FB79013B032B6AD801A252F823F000BFE9
S2140053E0F1530000735400001F540000495400009D
S2140053F03B68C3F308033B6000BF1A212E48FEF744
S2140054007AFD0346002BF8D12C4B1B6A23F4FF735E
S21400541023F0010329493A6813430B6248E03B68CE
S21400542003F07F033B6000BF18212348FEF763FDAF
S2140054300346002BF8D1214B1B6923F07F021F493E
S2140054403B6813430B6133E03B6803F07F033B602C
S21400545000BF19211848FEF74EFD0346002BF8D171
S214005460164B9B6923F07F0214493B6813438B61FC
S2140054701EE0124BD3F89030104B5B6A23F03003DB
S2140054800E4A43F0100353623B68DB0903F00F0338
S2140054901846FEF7CFFEF860084B1A6B084B134011
S2140054A03A681A430549FB6813430B6300E000BFE4
S2140054B000BF1037BD4680BD40410E4000400E4044
S2140054C000F8FF0F80B584B000AF03460A46FB71B4
S2140054D01346BB71FEF7CAFE0346002B03D14FF4FA
S2140054E04003FB6016E0BB79202B04D0302B0AD09B
S2140054F0002B04D00BE04FF40003FB600AE04FF4EF
S2140055004003FB6006E04FF44003FB6002E0104BF4
S214005510FB6000BF00BF0F4BD3F89020FB68134022
S214005520FA689A42F7D1FB6803F48003002B0AD08E
S214005530084BD3F8A03003F48063002B14BF01237C
S2140055400023DBB200E0012318461037BD4680BDBD
S214005550FF33E10700400E4080B582B000AF03463F
S214005560FB710B46BB7113467B71FB79022B00D097
S21400557016E0BB79002B07D00C4B4FF48062C3F8C3
S214005580A8200A4ABB7953667B79002B07D0BA79E4
S214005590FB7911461846FFF795FF034601E000BF6A
S2140055A0012318460837BD4680BD00BF00400E40A8
S2140055B080B483B000AFEFF310833B603B687B6042
S2140055C072B67B6818460C37BD465DF8047B70479C
S2140055D080B483B000AF78607B68002B00D162B6E1
S2140055E000BF0C37BD465DF8047B704780B485B0BD
S2140055F000AF786039607B6803F10473DA003B68BB
S21400560013449B00FB60FB681B6818461437BD46B6
S2140056105DF8047B7047000080B500AF00BF122124
S2140056200348FFF7E3FF0346002BF8D100BF80BD19
S21400563004300E4080B500AFFFF7EEFF034B5B680B
S2140056401B0C03F00303DBB2184680BD00300E408F
S21400565080B483B000AF0346FB71FB79C3F102034D
S214005660102202FA03F318460C37BD465DF8047B99
S2140056707047000080B584B000AF78600B46FB70C2
S214005680154BD3F800311B0A03F01F030133BB6030
S2140056907B68002B07D107F0E7FA0246BB6802FBDF
S2140056A003F3FB6001E07B68FB600C4B1B78002B70
S2140056B009D0FB680A4A934205D8FB7819460220AF
S2140056C000F010F804E0FB781946002000F00AF815
S2140056D000BF1037BD4680BD00400E406802002067
S2140056E0FF2C310190B587B000AF03460A46FB7128
S2140056F01346BB711B4BD3F800311B0A03F01F0384
S21400570001337B6107F0B0FA3861FFF793FF034679
S214005710FB73FA7BFB799A421FD03B697A6902FBDE
S21400572003F3BB60FB79022B03D102213869FEF735
S21400573061FD0D4CFB791846FFF78AFF034623618F
S214005740BB79002B01D0FFF767FFFB79002B05D153
S21400575000213869FEF74EFD00E000BF1C37BD464D
S21400576090BD00BF00400E4000300E4080B485B0B3
S21400577000AF786039607B6803F1C063FB60FB684C
S2140057803A681A6000BF1437BD465DF8047B704760
S21400579080B485B000AF786039607B6803F18063C1
S2140057A0FB60FB683A681A6000BF1437BD465DF8B8
S2140057B0047B704780B584B000AFF860B9607A604B
S2140057C0B968F868FFF7E4FF7968F868FFF7CEFF76
S2140057D000BF1037BD4680BD80B582B000AF03461F
S2140057E03960FB71FB79002B1CD0FB79012B19D09B
S2140057F0FB79022B16D0FB79032B13D0FB79042BF5
S21400580010D0FB79052B0DD0FB79062B0AD0FB793F
S214005810072B07D0FB79082B04D0FB79092B01D086
S214005820FB790A2BFA7913465B0013441B010C33F1
S21400583003F1804303F5204301213A6801FA02F29E
S21400584011461846FFF7A4FF00BF0837BD4680BDC7
S21400585080B582B000AF03463960FB71FB79002B40
S2140058601CD0FB79012B19D0FB79022B16D0FB79C3
S214005870032B13D0FB79042B10D0FB79052B0DD00E
S214005880FB79062B0AD0FB79072B07D0FB79082B70
S21400589004D0FB79092B01D0FB790A2BFA79134641
S2140058A05B0013441B010C3303F1804303F52043D4
S2140058B001213A6801FA02F211461846FFF756FF30
