S01F00006A64616E69656C736B695F46696E616C5F50726F6A6563742E73333738
S2140000000000042051D900007DD900007DD90000F1
S2140000107DD900007DD900007DD900007DD9000083
S2140000207DD900007DD900007DD9000021A0000008
S2140000307DD900007CD9000031A2000099A2000002
S2140000407DD900007DD900007DD900007DD9000053
S2140000507DD900007DD900007DD900007DD9000043
S2140000607DD900007DD900001B450000D5CA0000E0
S2140000707DD900007DD900007DD900007DD9000023
S2140000807DD900007DD900002B4500007DD90000F9
S2140000907DD900007DD900007DD900007DD9000003
S2140000A07DD900007DD900007DD900007DD90000F3
S2140000B07DD900007DD900007DD900007DD90000E3
S2140000C07DD900007DD900007DD900007DD90000D3
S2140000D07DD900007DD900007DD900007DD90000C3
S2140000E07DD900007DD900007DD900007DD90000B3
S2140000F07DD900007DD900007DD900007DD90000A3
S2140001007DD900007DD900007DD9000010B5054CD2
S214000110237833B9044B13B10448AFF300800123AE
S214000120237010BD4C03002000000000A829010029
S21400013008B5034B1BB103490348AFF3008008BD65
S2140001400000000050030020A8290100154B002BDA
S21400015008BF134B9D46A3F5803A00218B460F46F9
S2140001601348144A121A10F0E9FF0F4B002B00D068
S21400017098470E4B002B00D0984700200021040023
S2140001800D000D48002802D00C48AFF3008010F098
S2140001907FFF2000290002F0C3FE10F065FF00BFBD
S2140001A0000008000000042000000000000000001E
S2140001B04C030020C897002000000000000000004C
S2140001C080B500AF05F034FE0346184680BD00003B
S2140001D080B500AF01220121032005F0C7FE0748C5
S2140001E005F032FEFFF7ECFF0121054805F000F8A8
S2140001F00121044804F0FCFF00BF80BD80D5430207
S2140002004041050000250A0080B582B000AF786046
S2140002107B6800221A757B681B49184610F0D9FFC8
S2140002207B6800225A757B6800229A757B680022DC
S21400023083F820207B68002283F820207B684FF01C
S2140002407E525A627B68114A9A627B68104A5A64E8
S2140002507B680A229A877B681222DA877B680A22E2
S214000260A3F840207B680B4A9A647B680222A3F8B6
S21400027042207B68084ADA627B684FF000021A6602
S21400028000BF0837BD4680BDDC1A01004260653CF1
S21400029000A0CD44000ECE471F856B3EB0B584B09F
S2140002A000AF78600B46FB707B68FA781A75FB78AF
S2140002B0032B47D801A252F823F000BFCD0200005E
S2140002C0EB02000009030000270300007B682449B6
S2140002D0184610F07EFF7B68224A03F13C04154660
S2140002E00FCD0FC42B68236036E07B681E49184686
S2140002F010F06FFF7B681D4A03F13C0415460FCDD6
S2140003000FC42B68236027E07B681949184610F055
S21400031060FF7B68174A03F13C0415460FCD0FC4F7
S2140003202B68236018E07B681349184610F051FFCD
S2140003307B68124A03F13C0415460FCD0FC42B68A8
S214000340236009E04FF0A00383F31188BFF36F8F9B
S214000350BFF34F8FFB60FEE700BF1037BD46B0BD52
S214000360DC1A010000000020E41A0100140000203E
S214000370EC1A010028000020F81A01003C000020BA
S21400038080B483B000AF78607B684FF000029A605C
S2140003907B6800221A6000BF0C37BD465DF8047B00
S2140003A0704780B483B000AF78607B6802221A7012
S2140003B07B6800225A707B684FF000025A6000BFCC
S2140003C00C37BD465DF8047B704780B483B000AF41
S2140003D078607B6800221A707B6800225A707B68FF
S2140003E000229A7000BF0C37BD465DF8047B70474C
S2140003F090B589B002AF7860C823FB810223FB75F5
S2140004007F4B0093002301224FF4C8717D480BF008
S214000410F3FF02467C4B1A607B4B1C680BF0A2F97C
S21400042003461A460A2300930023012120460CF0B7
S21400043033F80CF00DFC00F01BF903461A46734B1C
S2140004401A70734B1B78052B00F2D48001A252F869
S21400045023F000BFF50500006D040000F505000060
S214000460B3040000C3050000F5050000674B1A78CA
S214000470684B1B789A421AD0644B1A78654B1A70F0
S214000480624B1B78012B02D0042B08D010E0624B85
S214000490186800230322AD210BF04AFE08E05E4BED
S2140004A0186800230322DE210BF042FE00E000BFA6
S2140004B0A0E05A4B186800231E2200210AF0C4FA56
S2140004C00346002B09D0564B1B683B61534B1868FC
S2140004D00023002200210AF001F94C4B1B78013B57
S2140004E0032B1FD801A252F823F000BFFD04000022
S2140004F007050000110500001B0500000023FB7522
S2140005001E23BB7513E00123FB750F23BB750EE09E
S2140005100323FB75F123BB7509E00423FB75E22377
S214000520BB7504E00223FB750023BB7500BF3D4B83
S214000530186800231E2200210AF086FA3A4AFB7D3C
S21400054013703B69002B0DD0374B93ED017A97F96A
S214000550163007EE903AF8EEE77A77EE277A324BC7
S214000560C3ED017A304BD3ED017A9FED307AF4EE8D
S214000570C77AF1EE10FA0ADD2B4BD3ED017A9FED28
S2140005802B7A77EEC77A284BC3ED017A11E0264B1B
S214000590D3ED017AF5EEC07AF1EE10FA09D5224BCA
S2140005A0D3ED017A9FED217A77EE877A1E4BC3ED65
S2140005B0017A1C4B18680023002200210AF08EF8EE
S2140005C018E0184B186800230A2200210AF03CFAAB
S2140005D0154B02221A70144B00225A70124B4FF021
S2140005E000025A600F4B18680023002200210AF010
S2140005F075F800BFFB8918460AF028FE1BE700BF07
S21400060031060000FC1A01006C0300207003002075
S2140006106803002071030020CC9500205C96002023
S2140006204096002058960020689600200000B443AC
S21400063080B582B000AF78600A4B18680023642249
S21400064000210AF001FA084B1A78084B1A70054B7D
S21400065018680023002200210AF040F800BF08377F
S214000660BD4680BD54960020D203002068030020BB
S21400067090B583B000AF4FF0804004F0E9FA0CF07C
S214000680BDFA0023FB710023BB7119E0BC79BB796E
S21400069018460CF05DFA03461A4607F10803234491
S2140006A003F8082CBB7907F10802134413F8083C3A
S2140006B0002B02D0FB790133FB71BB790133BB7190
S2140006C0BB79032BE2D94FF0804004F0A7FAFB7900
S2140006D0002B02D0FB79012B01D9002315E0002363
S2140006E0BB710EE0BB7907F10802134413F8083C0F
S2140006F0002B03D0BB790133DBB206E0BB790133B4
S214000700BB71BB79032BEDD9002318460C37BD46C9
S21400071090BD0000F0B5A9B01AAF7860A64B1B6874
S2140007201B885B089AB2A54B1A800CF0F1FA386366
S2140007303B6B002B09D04FF0A00383F31188BFF367
S2140007406F8FBFF34F8F3B62FEE7002007F096FFE8
S21400075038633B6B002B09D04FF0A00383F311885E
S214000760BFF36F8FBFF34F8FFB61FEE7924808F031
S2140007707BFA38633B6B002B09D04FF0A00383F362
S2140007801188BFF36F8FBFF34F8FBB61FEE78A4BB5
S2140007906FF07F425A60884B00229A60884B198817
S2140007A0884B00930023002287480BF025FE024664
S2140007B0864B1A60824B1988854B009300230022D3
S2140007C084480BF019FE0246834B1A60834B198847
S2140007D0834B00930023002282480BF00DFE024656
S2140007E0814B1A60814B186800230A2200210AF008
S2140007F02BF97F4B1A787F4B1A707C4B18680023B6
S2140008000022002109F06AFF7A4B1B78052B00F2C4
S214000810168401A252F823F0310800006708000091
S214000820870B0000570C00001B0E00003F0F000057
S21400083000F06AFC08F072F9644B1B6818460CF06E
S214000840F7F80346002B40F0C883604B1C680AF09C
S21400085089FF03461A460A230093002301212046F7
S2140008600BF01AFEB9E3594B1B6818460CF0E0F87B
S2140008700346012B08D1554B18680A230093002322
S214000880002203210BF008FE5B4B1B7883F001036C
S214000890DBB2002B28D0594B186800230A2200210F
S2140008A00AF0D2F8564B1B78564C1693564A15ABA0
S2140008B01188927819809A70684604F110035422C1
S2140008C0194610F030FC94E80F0000F0EBFE4B4B9E
S2140008D0186800230022002109F000FF08F01EF926
S2140008E0454B01221A70AAE307F114024FF6FF7374
S2140008F04FF0FF314FF0FF300BF0B6FB7B69AD2BAE
S21400090000F01181AD2B06D8552B00F0B280AA2B33
S21400091000F0848093E3DE2B00F0D6803B4A9342BF
S21400092000D08CE3354B186800230A2200210AF019
S2140009308BF8344801F04AFB354B186800230A222E
S21400094000210AF081F8334B2F4A118892781980DB
S2140009509A702D4B1B7819462F4803F085FE2E4BB8
S2140009601B6A1B68274A93612B4B1B6A5B68254AE8
S214000970D361224B186800230022002109F0AEFE46
S214000980234B186800230022002109F0A7FE174B0E
S214000990186800230A2200210AF056F8144B022297
S2140009A01A70124B186800230022002109F096FEE8
S2140009B0114B00221A70E5E074030020AC030020FF
S2140009C050000020711000000C1B0100A003002046
S2140009D0B91000001C1B0100A403002052000020D8
S2140009E0E11000002C1B0100A803002054960020F4
S2140009F0D2030020AE030020AF0300205096002054
S214000A0054000020D4950020CC960020F0DEBC0ACE
S214000A103C960020B003002074960020A44800F006
S214000A20C5FEA44B186800230A2200210AF00CF821
S214000A309F4B1B78A04C1693A04A15AB1268114624
S214000A4019800233120C1A70684604F110035422FF
S214000A50194610F068FB94E80F0000F023FE954B53
S214000A60186800230022002109F038FE08F056F826
S214000A7088E08F4800F0C6FE8E4B186800230A22D6
S214000A80002109F0E1FF8A4B1B788B4C16938B4AAA
S214000A9015AB1268114619800233120C1A7068469C
S214000AA004F110035422194610F03DFB94E80F00A1
S214000AB000F0F8FD7F4B186800230022002109F0A3
S214000AC00DFE08F02BF85DE07A4B186800230A222A
S214000AD0002109F0B9FF764B1B78784A764918460C
S214000AE000F0BCFE724B1B78734C1693734A15AB22
S214000AF01268114619800233120C1A70684604F107
S214000B0010035422194610F00EFB94E80F0000F074
S214000B10C9FD684B186800230022002109F0DEFD9D
S214000B2007F0FCFF2EE0634B186800230A22002122
S214000B3009F08AFF5E4B1B78604A5F49184600F052
S214000B40BDFE5B4B1B785C4C16935C4A15AB12687B
S214000B50114619800233120C1A70684604F110030D
S214000B605422194610F0DFFA94E80F0000F09AFDC0
S214000B70504B186800230022002109F0AFFD07F053
S214000B80CDFF00BF5BE24E4B1B78013BDBB2184645
S214000B9000F0C0FF07F0C2FF494B1B78013BDAB2FA
S214000BA0474B1A70464B1B78002B40F01882444B7C
S214000BB004221A70434B186800230A22002109F009
S214000BC043FF0346002B0DD03F4B03221A703E4BCB
S214000BD01A783E4B1A703B4B1868002300220021FF
S214000BE009F07CFD3A4B186800230A22002109F020
S214000BF02BFF384B0022DA82374B1868002314226A
S214000C00002109F021FF0346002B15D0314C684621
S214000C1004F110034822194610F085FA94E80F00F4
S214000C2003F016FE02462D4B5A602B4B1868002325
S214000C300022002109F052FD254B186800230022EF
S214000C40002109F04BFD264B1B6818460AF042FCB3
S214000C500FF0B0FCC3E107F1100200234FF0FF31A4
S214000C604FF0FF300BF000FA0346012B3ED13B69F4
S214000C701C4A934240F0B581124B186800230A22A2
S214000C80002109F0E1FE104B04221A700E4B1A7870
S214000C900E4B1A700B4B186800230022002109F037
S214000CA01DFD114B1B6818460BF0E6FA99E100BFD4
S214000CB05400002050960020D4950020B003002059
S214000CC05500002054960020D2030020AE030020DA
S214000CD03C960020749600205896002068960020C7
S214000CE06496002021436587CC950020BE4B18688B
S214000CF000230A22002109F0A7FE0346002B0CD091
S214000D00BA4ABB4B14460FCB84E80F00B64B1868A4
S214000D1000230022002109F0E1FCB64B18680023EE
S214000D200A22002109F090FE0346002B0CD0B24B9D
S214000D30B24A92E8030083E80300AE4B186800232B
S214000D400022002109F0CAFCAD4B186800230A22D5
S214000D50002109F079FE0346002B41D0A94B186804
S214000D6000230A22002109F06FFE0346002B30D034
S214000D70A54DA14A04AB92E8030083E803009B4B11
S214000D806C460FCB84E80F0005F150030FCB00F044
S214000D9019FF9D4C954B16AD0FCB85E80F009B4B6E
S214000DA01593684604F110035422194610F0BBF957
S214000DB094E80F0001F03EF9034687F83730914B70
S214000DC0186800230022002109F088FC8F4B0122BE
S214000DD01A758B4B186800230022002109F07EFC50
S214000DE097F83730002B14D0894B186800230A2256
S214000DF0002109F029FE874B04221A70854B1A78C9
S214000E00854B1A70824B186800230022002109F0D7
S214000E1065FC07F083FE00BF11E10FF0E7FB7F4B98
S214000E201B6818460AF04CFA0346032B04D07B4B8B
S214000E301B6818460AF09CFA794B1B78002B05D0E5
S214000E4001F0B6FC764B00221A7004E001F05CFC60
S214000E50734B01221A7007F061FE724B1B6818462E
S214000E600BF0E6FD0346002B0CD16E4B1C680AF017
S214000E7079FC03461A460A230093002302212046E3
S214000E800BF00AFB07F10C0200234FF0FF314FF086
S214000E90FF300BF0E9F80346012B40F0CF80FB68EB
S214000EA0614A934240F0CA804F4B186800230522DF
S214000EB0002109F0C9FD4E4B5B68FB624A4B18687F
S214000EC000230022002109F009FC4E4B186800237D
S214000ED00522002109F0B8FD4B4BD3ED187AFCEE45
S214000EE0E77A17EE903ABB62464B1868002300225A
S214000EF0002109F0F3FB0FF08BFB03461A46B96A94
S214000F00F86A0FF037FB7862796A48480FF0F2FA11
S214000F103F4B186800230A22002109F095FD3D4B3F
S214000F2005221A703B4B1A783B4B1A70384B1868E0
S214000F3000230022002109F0D1FB00BF7EE03B4EDB
S214000F406D4606F110040FCC0FC594E8070085E83F
S214000F50070096E80F0001F07FFC07F0DFFD344B3A
S214000F601B6818460BF064FD0346002B0CD1304B73
S214000F701C680AF0F7FB03461A460A230093002370
S214000F80022120460BF088FA07F108024FF6FF739D
S214000F904FF0FF314FF0FF300BF066F8BB68254A84
S214000FA093424CD11A4B186800230A22002109F0FC
S214000FB04BFD184B00221A70164B1A78164B1A70F7
S214000FC0134B186800230022002109F087FB1A4BF8
S214000FD01B6818460BF050F931E000BF2FE000BF49
S214000FE02DE000BF2BE000BF5C960020B40300207D
S214000FF04096002058960020C403002068960020E3
S2140010003C96002050960020D49500207496002030
S21400101054960020D2030020AE03002064960020E1
S214001020CC030020A403002078563412D09600206B
S214001030A8030020B1CAED0FCC95002000BF094BD5
S2140010401B78022B06D1084B1B8818460AF0FEF8C0
S214001050FFF7C8BB054B1B8818460AF0F7F8FFF7E2
S214001060C1BB00BFAE030020560000205800002081
S21400107080B582B000AF78600D4B186800230A2256
S214001080002109F0E1FC0346012B0DD1094B1B782A
S214001090002B02D1074B01221A70054B186800235B
S2140010A00022002109F01AFB00BF0837BD4680BDAC
S2140010B054960020D203002080B582B000AF78603E
S2140010C0054B18680023032204490BF031F800BFD3
S2140010D00837BD4680BD00BFCC9500207856341238
S2140010E080B582B000AF7860054B186800230322F5
S2140010F004490BF01DF800BF0837BD4680BD00BF91
S214001100CC950020B1CAED0FF0B58FB002AF3748CE
S21400111007F03DFE3649354808F033FD3B46354A74
S2140011203021184610F012F83B46184610F059F8D1
S21400113006462E4B1B681B885B089BB21C462B4B37
S21400114093F824301A46294B93F8273013441D464B
S2140011503B46184610F045F8034603FB05F35B08CC
S214001160E31A1A46394600230193052300931346D3
S21400117032461E4808F09EFC3B461F4A3021184661
S2140011800FF0E4FF3B46184610F02BF80646174BC8
S2140011901B681B885B089BB21C46144B93F82430D4
S2140011A01A46124B93F8273013441D463B46184602
S2140011B010F017F8034603FB05F35B08E31A18461E
S2140011C00A4B93F825301A4613465B001344053342
S2140011D0394600220192009303463246034808F03F
S2140011E069FC00BF3437BD46F0BD00BF7403002065
S2140011F0182401003C1B0100481B010090B591B06B
S21400120002AF0346FB713549354808F0BAFC07F1D2
S2140012100803344A302118460FF098FF07F10803F8
S21400122018460FF0DEFF2E4B93F825309B0007F193
S21400123008010022019200930A230246284808F07B
S21400124039FCFB79032B2BD801A252F823F000BF00
S214001250611200007112000081120000911200005D
S21400126007F10803204A302118460FF06FFF17E0F9
S21400127007F108031D4A302118460FF067FF0FE0FC
S21400128007F108031A4A302118460FF05FFF07E0FF
S21400129007F10803174A302118460FF057FF00BF22
S2140012A007F1080318460FF09CFF04460C4B1B681A
S2140012B01B88A3F133000A4B93F825309B0007F1F7
S2140012C0080100220192009303462246044808F0D3
S2140012D0F1FB00BF3C37BD4690BD00BFE8200100D3
S2140012E074030020541B01005C1B0100641B0100FA
S2140012F06C1B0100741B010090B591B002AF034651
S214001300FB713749374808F03CFC07F10803364ABA
S214001310302118460FF01AFF07F1080318460FF0A1
S21400132060FF304B93F825301A4613469B00134453
S21400133007F108010022019200930A230246294879
S21400134008F0B8FBFB79032B2AD801A252F823F049
S2140013506113000071130000811300009113000058
S21400136007F10803214A302118460FF0EFFE17E078
S21400137007F108031E4A302118460FF0E7FE0FE07B
S21400138007F108031B4A302118460FF0DFFE07E07E
S21400139007F10803184A302118460FF0D7FE00BFA1
S2140013A007F1080318460FF01CFF04460D4B1B6898
S2140013B01B88A3F133000B4B93F825301A461346CF
S2140013C09B00134407F10801002201920093034694
S2140013D02246044808F06EFB00BF3C37BD4690BD71
S2140013E0E820010074030020841B0100901B01000C
S2140013F0981B0100A01B0100AC1B010090B591B02A
S21400140002AF0346FB713249324808F0BAFB07F1D7
S2140014100803314A302118460FF098FE07F10803FA
S21400142018460FF0DEFE2B4B93F825301A4613466F
S2140014305B0013445B001A4607F108010023019382
S21400144000920A230246234808F034FBFB79012B5E
S2140014500BD0022B11D0002B17D107F108031F4A1F
S214001460302118460FF072FE0FE007F108031C4A01
S214001470302118460FF06AFE07E007F10803194A04
S214001480302118460FF062FE00BF07F10803184629
S2140014900FF0A7FE04460F4B1B681B88A3F1330012
S2140014A00C4B93F825301A4613465B0013445B003A
S2140014B01A4607F1080100230193009203462246CC
S2140014C0044808F0F7FA00BF3C37BD4690BD00BFA1
S2140014D0E820010074030020B01B0100BC1B0100C3
S2140014E0C41B0100CC1B010090B591B002AF0346AF
S2140014F0FB713049304808F044FB07F108032F4AD7
S214001500302118460FF022FE07F1080318460FF0A8
S21400151068FE294B93F825301A461346DB009B1AC3
S21400152007F108010022019200930A23024622488E
S21400153008F0C0FAFB79012B0BD0022B11D0002B40
S21400154017D107F108031E4A302118460FF0FEFD9A
S2140015500FE007F108031B4A302118460FF0F6FD8E
S21400156007E007F10803184A302118460FF0EEFD91
S21400157000BF07F1080318460FF033FE04460E4B73
S2140015801B681B88A3F133000B4B93F825301A46D3
S2140015901346DB009B1A07F1080100220192009314
S2140015A003462246044808F085FA00BF3C37BD468D
S2140015B090BD00BFE820010074030020D41B01008A
S2140015C0E01B0100E81B0100CC1B010090B591B0A8
S2140015D002AF0346FB712D492D4808F0D2FA07F1F9
S2140015E008032C4A302118460FF0B0FD07F1080317
S2140015F018460FF0F6FD264B93F82530DB0007F172
S21400160008010022019200930A230246204808F0AF
S21400161051FAFB79012B0BD0022B11D0002B17D1DE
S21400162007F108031C4A302118460FF08FFD0FE023
S21400163007F10803194A302118460FF087FD07E026
S21400164007F10803164A302118460FF07FFD00BF49
S21400165007F1080318460FF0C4FD04460C4B1B6840
S2140016601B88A3F133000A4B93F82530DB0007F103
S214001670080100220192009303462246044808F01F
S21400168019FA00BF3C37BD4690BD00BFE8200100F8
S21400169074030020F01B0100F81B0100001C010071
S2140016A0081C010084B0F0B58FB002AF07F1480403
S2140016B084E80F003A4807F06AFB3A49384808F0D1
S2140016C060FA3B46384A302118460FF03FFD3B464D
S2140016D018460FF086FD0646314B1B681B885B08D4
S2140016E09BB21C462E4B93F824301A462C4B93F88C
S2140016F0273013441D463B4618460FF072FD03463E
S21400170003FB05F35B08E31A1A46394600230193E8
S2140017100523009313463246214808F0CBF9204BA8
S21400172093F825305A001E4B1B681B8819461C4B25
S21400173093F825305B0000930B464FF0FF311848B6
S21400174007F0CFFE97F8B030154A92F8252002FB36
S21400175003F3DA1C02230321114807F012FC97F862
S214001760AC301846FFF74AFD97F85C301846FFF78E
S214001770C3FD97F868301846FFF740FE97F85D30CF
S2140017801846FFF7B1FE97F85E301846FFF71EFFC3
S21400179000BF3437BD46BDE8F04004B0704700BF18
S2140017A07403002018240100101C010080B483B0CC
S2140017B000AF78607B681B78043B032B1AD801A225
S2140017C052F823F0D5170000DD170000E5170000DB
S2140017D0ED1700007B6805221A700CE07B68062275
S2140017E01A7008E07B6807221A7004E07B680822FB
S2140017F01A7000E000BF00BF0C37BD465DF8047BE2
S214001800704700BF80B483B000AF78607B681B78F9
S214001810053B032B1AD801A252F823F02D1800001E
S214001820351800003D180000451800007B680422AB
S2140018301A700CE07B6805221A7008E07B680622A6
S2140018401A7004E07B6807221A7000E000BF00BF31
S2140018500C37BD465DF8047B704700BF80B584B08A
S21400186000AF0346B9607A60FB73FB7B043B042B36
S21400187020D801A252F823F08D1800009518000019
S2140018809D180000A5180000AD180000786800F04C
S21400189045F80FE0B86800F06DF80BE0B86800F0A7
S2140018A0A9F807E0B86800F0DDF803E0B86800F0D3
S2140018B005F900BF00BF1037BD4680BD80B584B0B7
S2140018C000AF0346B9607A60FB73FB7B043B042BD6
S2140018D020D801A252F823F0ED180000F5180000F9
S2140018E0FD180000051900000D190000786800F0CA
S2140018F02BF80FE0B86800F05DF80BE0B86800F071
S21400190095F807E0B86800F0C3F803E0B86800F0A0
S214001910EBF800BF00BF1037BD4680BD80B483B073
S21400192000AF78607B681B78032B06D07B681B783B
S2140019300133DAB27B681A7000E000BF00BF0C37D4
S214001940BD465DF8047B704780B483B000AF786016
S2140019507B681B78002B06D07B681B78013BDAB2CD
S2140019607B681A7000E000BF00BF0C37BD465DF80C
S214001970047B704780B582B000AF78607B681B7DC3
S214001980012B09D0022B0CD0002B00D00EE0012139
S2140019907868FEF783FC09E002217868FEF77EFC93
S2140019A004E003217868FEF779FC00BF00BF083723
S2140019B0BD4680BD80B582B000AF78607B681B7D79
S2140019C0022B09D0032B0CD0012B00D00EE00021F7
S2140019D07868FEF763FC09E001217868FEF75EFC94
S2140019E004E002217868FEF759FC00BF00BF083704
S2140019F0BD4680BD80B483B000AF78607B6893F846
S214001A002030002B02D0012B05D009E07B68012294
S214001A1083F8202004E07B68022283F8202000BFA1
S214001A2000BF0C37BD465DF8047B704780B483B0BA
S214001A3000AF78607B6893F82030012B02D0022B31
S214001A4005D009E07B68002283F8202004E07B684C
S214001A50012283F8202000BF00BF0C37BD465DF88A
S214001A60047B704780B483B000AF78607B685B7D92
S214001A70022B06D07B685B7D0133DAB27B685A7531
S214001A8000E000BF00BF0C37BD465DF8047B704722
S214001A9080B483B000AF78607B685B7D002B06D097
S214001AA07B685B7D013BDAB27B685A7500E000BF5D
S214001AB000BF0C37BD465DF8047B704780B483B02A
S214001AC000AF78607B689B7D022B06D07B689B7D91
S214001AD00133DAB27B689A7500E000BF00BF0C37AE
S214001AE0BD465DF8047B704780B483B000AF786075
S214001AF07B689B7D002B06D07B689B7D013BDAB222
S214001B007B689A7500E000BF00BF0C37BD465DF8E5
S214001B10047B7047B0B592B002AF0346FB71FB7909
S214001B2007F10C010A2218460FF0D6FA234807F0F0
S214001B302EF92349214808F024F807F10C0207F192
S214001B401003302118460FF001FB07F1100318466A
S214001B500FF047FB0546194B1B681B885B089BB2BA
S214001B601C4607F1100318460FF03BFB0246134BCA
S214001B7093F824301946114B93F827300B4403FB97
S214001B8002F35B08E31A18460C4B1B685B885B087D
S214001B909BB21A46094B93F825305B08DBB2D31A82
S214001BA007F1100100220192009303462A460348DB
S214001BB007F080FF00BF4037BD46B0BD740300206D
S214001BC00826010090B587B002AF3C4684E80F00B7
S214001BD00B4807F0DCF807F120030FCB00F012F8F3
S214001BE06A4607F1300393E8030082E803003B46A9
S214001BF00FCB00F021F900BF1437BD4690BD00BFE3
S214001C007403002090B59DB002AF3C4684E80F00F8
S214001C1005237B650523BB65844B1B681B885B0817
S214001C209BB2FB65814B93F825303B66D7ED027A75
S214001C30F5EE407AF1EE10FA1AD17C4B1B681B8841
S214001C405B089BB20533DA0F13445B107B640523F5
S214001C50BB64764B1B681B885B089BB20533DA0FA8
S214001C6013445B10FB64714B93F825303B657AE0B8
S214001C70D7ED027AF5EEC07AF1EE10FA3DDB6B4B4B
S214001C801B681B885B089BB20533DA0F13445B1096
S214001C907B640523BB64654B1B681B885B089BB293
S214001CA00533DA0F13445B1007EE903AB8EEE77A86
S214001CB0D7ED026A5D4B1B681B885B089BB2194612
S214001CC05A4B1B681B885B089BB20533DA0F13441C
S214001CD05B105B420B4407EE903AF8EEE77A66EE4E
S214001CE0A77A77EE277AFDEEE77A17EE903AFB644E
S214001CF04E4B93F825303B6535E04C4B1B681B88F4
S214001D005B089BB20533DA0F13445B1007EE903A7C
S214001D10B8EEE77A454B1B681B885B089BB2053319
S214001D20DA0F13445B10053B07EE903AF8EEE76ACD
S214001D30D7ED027A66EEA77A77EE277AFDEEE77A97
S214001D4017EE903A7B640523BB64384B1B681B88F0
S214001D505B089BB20533DA0F13445B10FB64334B0E
S214001D6093F825303B6507F1540319462F4807F0D2
S214001D70CFFC07F1440319462C4807F03FFD2C4AD8
S214001D8007F1100392E80300186004331980023349
S214001D900A0C1A7007F117032922002118460FF0C3
S214001DA0CDF93B460FCB00F0A3FA78667B6E07F1C1
S214001DB040010A2218460FF08FF907F1400207F19A
S214001DC01003114618460FF0F5F91A49174807F0A0
S214001DD0D8FE07F1100318460FF003FA134B1B68E2
S214001DE01B88A3F1380207F1100100230193032397
S214001DF00093134602460D4807F05CFE0B4B93F823
S214001E0025305A00094B1B681B881946074B93F868
S214001E1025305B0000930B464FF0FF31034807F078
S214001E2060FB00BF6C37BD4690BD00BF740300204A
S214001E301C1C0100E820010090B587B002AF3C46AC
S214001E4084E80F0097F82030042B00F2B78001A238
S214001E5052F823F0C71E0000751E0000691E000021
S214001E60191F00006B1F00003B461946564807F036
S214001E704FFCA4E03B68991C7A683868FB680093BE
S214001E800346514807F02DFBBB68991C7A68B86872
S214001E90FB68009303464C4807F023FBB968FA68D2
S214001EA03868FB6800930346474807F01AFBBB6890
S214001EB0991C7A683B68981C7B68009303464248E6
S214001EC007F00FFB7BE03B68191D7A683868FB68F3
S214001ED0009303463C4807F004FBBB68191D7A686C
S214001EE0B868FB6800930346374807F0FAFAB96803
S214001EF0FA683868FB6800930346334807F0F1FA3F
S214001F00BB68191D7A683B68181D7B6800930346FA
S214001F102D4807F0E6FA52E03B68991E7A68386862
S214001F20FB6800930346284807F0DBFABB68991E57
S214001F307A68B868FB6800930346234807F0D1FA2E
S214001F40B968FA683868FB68009303461E4807F0CD
S214001F50C8FABB68991E7A683B68981E7B6800932F
S214001F600346194807F0BDFA29E03B68191F7A684E
S214001F703868FB6800930346134807F0B2FABB685C
S214001F80191F7A68B868FB68009303460E4807F086
S214001F90A8FAB968FA683868FB68009303460A48E6
S214001FA007F09FFABB68191F7A683B68181F7B68A2
S214001FB000930346044807F094FA00E000BF00BF11
S214001FC01437BD4690BD00BF7403002080B483B0B4
S214001FD000AF7860164B1B681B885B089BB21A46DE
S214001FE07B689B8F5B089BB21A447B689A65104B94
S214001FF01B681B885B089BB21A467B689B8F5B0836
S2140020009BB2D21A7B681A65094B1B685B889A1EBE
S2140020107B685A657B685B6D7A68D28F9A1A7B6894
S214002020DA6500BF0C37BD465DF8047B704700BF1D
S2140020307403002084B0B0B5C8B002AF07F594743E
S21400204084E80F00002387F816313EE1002387F866
S214002050173121E0D7F88C31196AD7F88C31DB8A32
S2140020601A4697F81731D01897F8162113465B00D2
S21400207013440344DB00CA1897F81731DB0007F552
S2140020808C710B44243B92E8030083E8030097F826
S2140020901731013387F8173197F81731032BD9D941
S2140020A03A1D07F1F4031146184600F045F90023DF
S2140020B087F817312BE097F8171197F81621134673
S2140020C09B0013445B0013440B4410335B00D7F8AB
S2140020D08C211344181D97F817313A1DDB00134462
S2140020E0196897F817313A1DDB00134404331B6850
S2140020F000930B4607F5A07206CA02F005FB0346DE
S214002100002B09D197F81731013387F8173197F864
S21400211017310A2BCFD900E000BF97F81731013BE3
S214002120DBB287F81531C6E097F9151197F8162136
S21400213013469B0013445B0013440B44D7F88C21D2
S21400214010335B0013441B791946674B1B681B88CA
S214002150013B664A82FB0302DB179B1AC81897F9F5
S214002160151197F8162113469B0013445B00134481
S2140021700B44D7F88C2110335B0013445B791D4663
S21400218097F9151197F8162113469B0013445B0028
S21400219013440B44013BD7F88C2110335B001344E7
S2140021A01B791946504B1B681B88013B4F4A82FB24
S2140021B00342DB179B1ACC1897F9151197F81621CE
S2140021C013469B0013445B0013440B44013BD7F8B3
S2140021D08C2110335B0013445B79009323462A4618
S2140021E00146414807F07DF997F9151197F8162131
S2140021F013469B0013445B0013440B44D7F88C2112
S21400220010335B0013441B791946374B1B681B8839
S214002210013B364A82FB0302DB17D31AC81897F92C
S214002220151197F8162113469B0013445B001344C0
S2140022300B44D7F88C2110335B0013445B791D46A2
S21400224097F9151197F8162113469B0013445B0067
S21400225013440B44013BD7F88C2110335B00134426
S2140022601B791946204B1B681B88013B1F4A82FBC3
S2140022700342DB17D31ACC1897F9151197F81621D5
S21400228013469B0013445B0013440B44013BD7F8F2
S2140022908C2110335B0013445B79009323462A4657
S2140022A00146114807F01DF997F91531DBB2013BDD
S2140022B0DBB287F8153197F91531002B3FF734AFAD
S2140022C097F81631013387F8163197F81631022B36
S2140022D07FF6BCAE0023184607F58C77BD46BDE8F2
S2140022E0B04004B0704700BF74030020ABAAAA2A0F
S2140022F090B585B000AF3C4684E80F003B6807EE1B
S214002300903AF8EE677A17EE900A0EF007FB08A3ED
S214002310D3E900230EF05AFB03460C461846214626
S2140023200EF02CFE034618461437BD4690BD00BF7F
S214002330F7E978CC40E501402DE9B0438AB000AF1C
S214002340786039604FF000034FF00004C7E90434AA
S2140023504FF000034FF00004C7E902344FF00003CB
S2140023604FF00004C7E908340023FB774FF0000362
S2140023704FF00004C7E90834B4E1D7E908234FF06A
S2140023800000D5490EF06AF903460C461846214669
S2140023904FF00002D14B0BF073FC04460D467B68F1
S2140023A01B6818460EF0BAFA02460B462046294627
S2140023B00EF00CFB03460C4625461C464FF000026A
S2140023C0C64BD7E908010EF001FB02460B469046C5
S2140023D09946D7E908234FF00000BF490EF03EF9B2
S2140023E002460B46104619464FF000024FF0804357
S2140023F00BF046FC02460B46404649460EF0E6FA0F
S21400240002460B46904699467B6808331B6818467A
S2140024100EF084FA02460B46404649460EF0D6FABF
S21400242002460B46204629460EF01AF903460C468D
S21400243025461C464FF000024FF08043D7E90801BE
S2140024400BF01EFC4FF00002A44B0EF0BFFA024643
S2140024500B4690469946D7E908234FF000009E4960
S2140024600EF0FCF802460B46404649460EF0AEFA21
S21400247002460B46904699467B6810331B68184602
S2140024800EF04CFA02460B46404649460EF09EFABF
S21400249002460B46204629460EF0E2F803460C4656
S2140024A025461C464FF000028C4BD7E908010BF07E
S2140024B0E7FB804689467B6818331B6818460EF093
S2140024C02DFA02460B46404649460EF07FFA024673
S2140024D00B46204629460EF0C3F803460C46C7E9CD
S2140024E00434D7E908234FF000007B490EF0B6F815
S2140024F003460C46184621464FF00002774B0BF079
S214002500BFFB04460D467B685B6818460EF006FA6D
S21400251002460B46204629460EF058FA03460C465D
S21400252025461C464FF000026C4BD7E908010EF01A
S2140025304DFA02460B4690469946D7E908234FF0D7
S214002540000065490EF08AF802460B46104619460A
S2140025504FF000024FF080430BF092FB02460B4612
S214002560404649460EF032FA02460B4690469946D9
S2140025707B6808335B6818460EF0D0F902460B46B7
S214002580404649460EF022FA02460B4620462946A9
S2140025900EF066F803460C4625461C464FF0000231
S2140025A04FF08043D7E908010BF06AFB4FF00002BA
S2140025B04A4B0EF00BFA02460B4690469946D7E970
S2140025C008234FF0000044490EF048F802460B4638
S2140025D0404649460EF0FAF902460B4690469946A2
S2140025E07B6810335B6818460EF098F902460B4677
S2140025F0404649460EF0EAF902460B462046294672
S2140026000EF02EF803460C4625461C464FF00002F8
S214002610324BD7E908010BF033FB804689467B68CE
S21400262018335B6818460EF079F902460B464046AA
S21400263049460EF0CBF902460B46204629460EF0D8
S2140026400FF803460C46C7E902344FF00002244B4D
S214002650D7E904010EF004F803460C461846214656
S2140026600EF08CFC0346D9B2FB7FDB003A681344BD
S21400267007EE901AF8EE677AC3ED007A4FF0000284
S214002680174BD7E902010DF0EBFF03460C46184640
S21400269021460EF073FC0346D9B2FB7FDB003A6896
S2140026A0134407EE901AF8EE677AC3ED017AFB7FC3
S2140026B00133FB7706A3D3E90023D7E908010DF021
S2140026C0CFFF03460C46C7E908340BE0AFF30080A3
S2140026D09A9999999999B93F0000F03F00000840EF
S2140026E00000E03F4FF00002064BD7E908010EF06D
S2140026F0E9FB0346002B7FF440AE00BF2837BD46FB
S214002700BDE8B0830000F03FF0B58FB002AF254BB8
S2140027106FF07F425A60234B00229A60214806F0F1
S21400272036FB21491F4807F02CFA3B461F4A30214A
S21400273018460EF00BFD3B4618460EF052FD0646B8
S214002740184B1B681B885B089BB21C46154B93F8FE
S21400275024301A46134B93F8273013441D463B4645
S21400276018460EF03EFD034603FB05F39B08E31AEE
S214002770053318460B4B1B685B885B089BB21A46F2
S214002780084B93F825305B00D31A39460022019295
S214002790009303463246034807F08CF900BF3437EF
S2140027A0BD46F0BD74030020182401004C1C010037
S2140027B0F0B58FB002AF254B00225A60234B6FF066
S2140027C07F429A60214806F0E2FA21491F4807F046
S2140027D0D8F93B461F4A302118460EF0B7FC3B4658
S2140027E018460EF0FEFC0646184B1B681B885B0856
S2140027F09BB21C46154B93F824301A46134B93F89D
S214002800273013441D463B4618460EF0EAFC0346A6
S21400281003FB05F39B08E31A053318460B4B1B68AE
S2140028205B885B089BB21A46084B93F825305B0022
S214002830D31A3946002201920093034632460348D3
S21400284007F038F900BF3437BD46F0BD74030020EA
S214002850182401004C1C010084B0F0B591B002AF02
S21400286007F1500484E80F00554B6FF07F425A6022
S214002870534B00229A60524806F089FA5149504854
S21400288007F07FF93B1D504A302118460EF05EFCDB
S2140028903B1D18460EF0A5FC0646494B1B681B88D8
S2140028A05B089BB21C46464B93F824301A46444BB2
S2140028B093F8273013441D463B1D18460EF091FC36
S2140028C0034603FB05F35B08E31A1A46391D00238B
S2140028D001930523009313463246394807F0EAF879
S2140028E0374B93F825305A00354B1B681B88194622
S2140028F0334B93F825305B0000930B464FF0FF31C7
S2140029002F4806F0EEFD31492D4807F03AF93B1DF9
S2140029102F4A302118460EF019FC3B1D18460EF0C3
S21400292060FC274B93F825309B00391D002201924E
S21400293000930A230246224807F0BCF83B1D254AAE
S214002940302118460EF002FC3B1D18460EF049FCDE
S21400295004461B4B1B681B88A3F13300184B93F8E7
S21400296025309B00391D0022019200930346224623
S214002970134807F09FF8002387F8373013E097F8DE
S21400298037300133DAB297F837309B0007F1500141
S2140029900B445B681946104600F01EF897F837306F
S2140029A0013387F8373097F8503097F837209A4237
S2140029B0E5D300BF3C37BD46BDE8F04004B07047E5
S2140029C07403002018240100581C0100E8200100B0
S2140029D0641C01006C1C010090B595B002AF034664
S2140029E03960FB71FB7907F114010A2218460EF0D4
S2140029F073FB07F114032A4918460EF0DBFB29493E
S214002A00294807F0BEF807F1140207F11803302131
S214002A1018460EF09BFB07F1180318460EF0E1FB74
S214002A20FB790533204A92F8252002FB03F307F1D1
S214002A3018010022019200930A2302461A4807F062
S214002A4039F83B6807F10C010A2218460EF044FBE1
S214002A5007F10C0207F11803302118460EF076FB3A
S214002A6007F1180318460EF0BCFB04460E4B1B6815
S214002A701B88A3F13300FB7905330B4A92F8252017
S214002A8002FB03F307F118010022019200930346AC
S214002A902246054807F00EF800BF4C37BD4690BDED
S214002AA0741C0100E82001007403002080B485B087
S214002AB000AF786039607B6803F1C063FB60FB6839
S214002AC03A681A6000BF1437BD465DF8047B70474D
S214002AD080B485B000AF786039607B6803F18063AE
S214002AE0FB60FB683A681A6000BF1437BD465DF8A5
S214002AF0047B704780B582B000AF03463960FB7137
S214002B00FB79002B1CD0FB79012B19D0FB79022B0B
S214002B1016D0FB79032B13D0FB79042B10D0FB794E
S214002B20052B0DD0FB79062B0AD0FB79072B07D097
S214002B30FB79082B04D0FB79092B01D0FB790A2BF3
S214002B40FA7913465B0013441B010C3303F18043F0
S214002B5003F5204301213A6801FA02F211461846AD
S214002B60FFF7B6FF00BF0837BD4680BD80B582B010
S214002B7000AF03463960FB71FB79002B1CD0FB7954
S214002B80012B19D0FB79022B16D0FB79032B13D01F
S214002B90FB79042B10D0FB79052B0DD0FB79062B87
S214002BA00AD0FB79072B07D0FB79082B04D0FB79DA
S214002BB0092B01D0FB790A2BFA7913465B001344E4
S214002BC01B010C3303F1804303F5204301213A68CF
S214002BD001FA02F211461846FFF768FF00BF0837F1
S214002BE0BD4680BD80B584B000AF78604FF4FA7300
S214002BF0FB816423BB8100F003F9794B186800233E
S214002C000022002107F020FF764B1A78764B1A70C8
S214002C10734B186800230022002107F05FFD724BFB
S214002C201B78052B00F2CD8001A252F823F000BFDE
S214002C30492C0000492C00008F2C0000B12C00000D
S214002C40372D00007D2D0000684B1B78184600F0DD
S214002C50F5F8674B1B78184600F005F9634B1B78B0
S214002C6083F00103DBB2002B14BF01230023DAB28A
S214002C705E4B1A705E4B1B7883F00103DBB2002BB1
S214002C8014BF01230023DAB2594B1A7099E0574B50
S214002C9000221A70564B00221A70544B1B781846A6
S214002CA000F0CCF8524B1B78184600F0DCF888E0B1
S214002CB0504B5B78002B03D04C4B01221A7013E06C
S214002CC04C4B1B78002B0CD0484B1B7883F0010331
S214002CD0DBB2002B14BF01230023DAB2434B1A7079
S214002CE002E0424B00221A70424BDB78002B03D0E6
S214002CF03F4B01221A7013E03E4B9B78002B0CD002
S214002D003B4B1B7883F00103DBB2002B14BF01237F
S214002D100023DAB2364B1A7002E0354B00221A70E6
S214002D20324B1B78184600F089F8314B1B78184652
S214002D3000F099F845E0304B1B78012B09D02B4B5F
S214002D4000221A702A4B01221A702B4B01221A708D
S214002D5009E0264B01221A70254B00221A70264BDA
S214002D6000221A7000BF214B1B78184600F066F848
S214002D701F4B1B78184600F076F822E01F4B1B7896
S214002D80012B09D0194B00221A70194B00221A7019
S214002D901A4B01221A7009E0144B01221A70144BC8
S214002DA001221A70154B00221A7000BF0F4B1B78B9
S214002DB0184600F043F80E4B1B78184600F053F800
S214002DC000BF094B1B78042B04D1BB89184608F0BA
S214002DD03DFA12E7FB89184608F038FA0DE700BFFF
S214002DE054960020D2030020CD030020CE030020FE
S214002DF0CF03002038960020D0030020D103002007
S214002E0080B500AF01210C4802F0F2F90021052040
S214002E1003F038FC002304220421052003F072FC92
S214002E200021052003F02EFC0023042205210520A6
S214002E3003F068FC00BF80BD00350A0080B582B094
S214002E4000AF0346FB71FB79002B04D0042105205C
S214002E50FFF78CFE03E004210520FFF74BFE00BFC2
S214002E600837BD4680BD80B582B000AF0346FB7113
S214002E70FB79002B04D005210520FFF777FE03E041
S214002E8005210520FFF736FE00BF0837BD4680BD8A
S214002E9080B400AF044BDB6C1B0EDBB21846BD469D
S214002EA05DF8047B704700BFB081E00F80B582B04C
S214002EB000AF164B01225A64FFF7EAFF0346FB7188
S214002EC0FB79002B0CD1124B4AF6E8521A60114BD4
S214002ED01B68104A43F0040313600D4B00221A606F
S214002EE0FB79012B05D80C4B1B680B4A43F40053A7
S214002EF013600A4B1B6A23F44413084A43F48813EE
S214002F00136200BF0837BD4680BD00BF00000E40FC
S214002F1090310E4098310E4064310E4000400E4015
S214002F2080B582B002AFFFF7C1FFFDF751F901F09F
S214002F3005FB3C48FDF768F93B48FDF721FA3B489E
S214002F40FDF72FFA3A48FDF740FA3A480DF0A6FA90
S214002F500AF0EAFC03220021012007F02EFB0246BD
S214002F60354B1A60012007F0A0FB0246334B1A606F
S214002F70012007F09AFB0246314B1A60012007F049
S214002F8094FB02462F4B1A60012007F08EFB024688
S214002F902D4B1A60012007F088FB02462B4B1A6067
S214002FA0012007F082FB0246294B1A60294B019349
S214002FB004230093002364222749284808F003F8D6
S214002FC0274B01930123009300234FF4AF7225494A
S214002FD0254807F0F8FF00230193022300930023FF
S214002FE0C8222249224807F0EEFF0023019302235D
S214002FF000930023C8221F491F4807F0E4FF1F4B19
S2140030000193012300930023C8221D491D4807F0A1
S214003010DAFF1A4B1B68184608F0AAF908F0B6FA49
S214003020FEE700BFD495002040960020689600205A
S214003030CC960020D0960020709600205C9600204B
S2140030405896002054960020609600205096002047
S2140030503C960020D0950020781C0100E52B00004F
S214003060CC950020801C0100150700008C1C010078
S214003070A1350000981C0100F103000064960020B2
S214003080A41C0100C130000080B483B000AF4FF034
S214003090A00383F31188BFF36F8FBFF34F8F7B605E
S2140030A0FEE780B485B000AF786039604FF0A003CB
S2140030B083F31188BFF36F8FBFF34F8FFB60FEE77C
S2140030C0B0B5A0B01AAF78603223BB827E4800F05D
S2140030D019F97E4B186800230A22002107F0B4FC79
S2140030E07B4B1A787B4B1A70784B186800230022AB
S2140030F0002107F0F3FA774B1B78042B05D17248B2
S21400310000F000F9744B00221A70744B1868002304
S2140031100A22002107F098FC0346002B5ED0704B75
S2140031201B7D002B53D06F4B186800230A2200210A
S21400313007F08AFC0346002B49D0694B93F82730EA
S214003140802B05D9664BDB8A01339AB2644BDA8250
S2140031500023FB7531E01523FB74FB7D604A1033BA
S2140031605B0013441B791A46FB7C1344FB60FB7D13
S2140031705B4A10335B0013441B791A46FB7CD31A58
S214003180BB60594B9B6DFA689A4207DA574B186832
S21400319000230322564908F0CBFF0BE0524B1B6D71
S2140031A0BA689A4206DD514B18680023032250493C
S2140031B008F0BEFFFB7D0133FB75FB7D052BCAD9EE
S2140031C0484B186800230022002107F087FA434B7B
S2140031D0186800230022002107F080FA454B186883
S2140031E000230A22002107F02FFC434B1B78022BFA
S2140031F03ED0424B186800230A22002107F024FC28
S2140032003F4B1B6818460DF067FB4FF000024FF06F
S21400321000030DF06BFE0346002B22D0314B1868DE
S21400322000230A22002107F00FFC2F4C344B15AD6B
S2140032300FCB85E80F00684604F1100354221946A8
S2140032400DF071FF94E80F0000F0CAF803461A4626
S214003250214B1A70234B186800230022002107F028
S2140032603DFA264B186800230022002107F036FAA4
S214003270204B186800230022002107F02FFA164B77
S2140032801B78012B04D0022B0ED0002B11D015E09A
S21400329002210D4800F04CF8144B18680023032256
S2140032A0134908F045FF09E00021074800F040F800
S2140032B004E00021044800F067F800BFBB8A184607
S2140032C007F0C4FF05E700BF38960020549600209C
S2140032D0D2030020D4030020D50300203C96002013
S2140032E07496002050960020D4950020CC9500209F
S2140032F02143658758960020689600205C9600203B
S2140033004096002080B483B000AF78607B680022CF
S2140033101A707B6800225A707B6800229A707B685D
S2140033200022DA7000BF0C37BD465DF8047B70479C
S21400333080B483B000AF78600B46FB70FB78032B3D
S2140033401AD801A252F823F0593300006133000066
S21400335069330000713300007B6801221A700CE0AC
S2140033607B6801229A7008E07B6801225A7004E0AC
S2140033707B680122DA7000E000BF00BF0C37BD4654
S2140033805DF8047B704700BF80B483B000AF786000
S2140033900B46FB70FB78032B1AD801A252F823F0D9
S2140033A0B1330000B9330000C1330000C933000058
S2140033B07B6800221A700CE07B6800229A7008E096
S2140033C07B6800225A7004E07B680022DA7000E016
S2140033D000BF00BF0C37BD465DF8047B704700BFDA
S2140033E084B0B0B582B000AF07F1180484E80F00CF
S2140033F0FB6F18460DF070FA4FF000024FF0804356
S2140034000AF03EFC04460D46B7F8583018460DF054
S21400341073FA02460B46204629460DF001FC034689
S2140034200C46184621464FF000022B4B0DF0F8FBD9
S21400343003460C46184621464FF000024FF08043E4
S2140034400AF01EFC03460C46184621460DF0B6FD53
S21400345003467B6078680DF061FA03460C46184612
S21400346021460AF0ABFD03460C46184621460DF0F1
S214003470A5FD03467B60D7ED147A97ED017AB4EE8E
S214003480E77AF1EE10FA01DB012319E078680DF017
S21400349045FA04460D463B6D18460DF03FFA0CA360
S2140034A0D3E900230DF092FA02460B462046294641
S2140034B00DF012FD0346002B01D0022300E000238E
S2140034C018460837BD46BDE8B04004B0704700BF98
S2140034D0333333333333EB3F0000E03F80B485B003
S2140034E000AF786039607B6803F10473DA003B68EC
S2140034F013449B00FB60FB681B6818461437BD46E8
S2140035005DF8047B7047000080B483B000AF78603D
S214003510044A7B68C2F8243400BF0C37BD465DF809
S214003520047B704700A0004080B582B000AF034621
S2140035303960FB71FB79002B1CD0FB79012B19D06D
S214003540FB79022B16D0FB79032B13D0FB79042BC7
S21400355010D0FB79052B0DD0FB79062B0AD0FB7912
S214003560072B07D0FB79082B04D0FB79092B01D059
S214003570FB790A2BFA7913465B0013441B011C33B4
S21400358003F1804303F5204339681846FFF7A6FF8A
S214003590034618460837BD4680BD00000000000000
S2140035A090B59FB016AF78603223FB77FB7F4FF461
S2140035B07A7202FB03F3B04A82FB03129211DB1706
S2140035C0D31ABB83C8237B834FF47A733B8300F004
S2140035D025FF398BA94B009300230022A84808F04A
S2140035E00BFF0246A74B1A60A74B0093002300224E
S2140035F04FF47A71A54808F0FFFE0246A44B1A6005
S214003600A44B0093002300224FF49671A24808F0C2
S214003610F3FE0246A14B1A6000F01EFF03461A4650
S2140036209F4B1A7000F035FF03461A469D4B1A70E2
S2140036309D4B186800230022002107F005FA9B4BDB
S2140036401A789B4B1A70984B1868002300220021AA
S21400365007F044F8974B186800230022002107F073
S214003660F3F9954B1A78954B1A70924B186800230D
S2140036700022002107F032F88D4B1B78052B00F254
S214003680F08201A252F823F0633C0000A13600004D
S214003690633C000009380000633C0000B53B0000B6
S2140036A07F4B1A787F4B1B781946104600F00EFFAA
S2140036B00346032B00F2A68001A252F823F000BFB7
S2140036C0DB370000D136000077370000A93700004E
S2140036D07B4B01221A706E4B1B68184609F0A8F93E
S2140036E00346002B0CD16A4B1C6808F03BF80346D7
S2140036F01A460A23009300230221204608F0CCFE37
S214003700704B186800230022002107F09DF96E4BCD
S214003710186800230022002107F096F96B4C6846D3
S21400372004F11003542219460DF0FDFC94E80F0036
S21400373000F002FE0246654B5A63644C684604F18C
S2140037401003542219460DF0EEFC94E80F0000F02A
S2140037501BFE02465D4B9A635B4B186800230022F3
S214003760002106F0BBFF574B1868002300220021FB
S21400377006F0B4FF47E0464B1B68184609F058F9B8
S2140037800346012B08D1424B18680A2300930023F6
S2140037900022032108F080FE4D4B18680023032208
S2140037A0AA2108F0C5FC2EE0394B1B68184609F024
S2140037B03FF90346012B08D1354B18680A230093BE
S2140037C000230022032108F067FE414B18680023FF
S2140037D00322552108F0ACFC15E02D4B1B6818465B
S2140037E009F026F90346012B08D1294B18680A234D
S2140037F0009300230022032108F04EFE304B0022E7
S2140038001A7000E000BF2CE2244B1B68184609F033
S2140038100FF90346002B0CD1204B1C6807F0A2FFC3
S21400382003461A460A23009300230121204608F087
S21400383033FE1B4B1A781B4B1B781946104600F0BC
S21400384045FE0346022B45D0032B00F0A180012B3A
S21400385040F0F5801A4B01221A700A4B1C6807F0DC
S21400386081FF03461A460A230093002302212046BE
S21400387008F012FEECE000BFD34D6210A53C00003D
S214003880B01C0100D8030020FD3C0000C01C010055
S214003890DC0300206D3D0000D01C0100E00300208A
S2140038A0E4030020E503002054960020D203002005
S2140038B0E603002060960020D3030020E7030020E4
S2140038C0E8030020509600205C960020D495002047
S2140038D0CC950020A84B1B78002B08D0A74B186867
S2140038E00A23009300230022032108F0D5FDA44BF1
S2140038F01B78012B00F0A780A24B186800230A2231
S214003900002107F0A1F80346012B40F09E809E4B55
S2140039109B6818460DF002F895A3D3E900230CF037
S2140039209FFE03460C46184621464FF00002974B72
S2140039300DF0C8FA0346002B13D0934B9B6818462D
S2140039400CF0ECFF8AA3D3E900230CF089FE0346B3
S2140039500C46184621460DF031FB02468A4B9A600B
S21400396003E0894B4FF07E529A60874BD3ED027A84
S214003970F5EEC07AF1EE10FA02DB834B00221A73E2
S214003980804B186800230022002106F0A7FE5CE0AA
S214003990794B1B78002B08D0784B18680A230093C5
S2140039A000230022032108F077FD764B18680023D9
S2140039B00A22002107F048F80346012B47D1724B34
S2140039C09B6818460CF0AAFF69A3D3E900230CF005
S2140039D045FE03460C46184621464FF000026C4B47
S2140039E00DF07AFA0346002B13D0674B9B681846F7
S2140039F00CF094FF5EA3D3E900230CF02FFE0346E1
S214003A000C46184621460DF0D9FA02465E4B9A60DF
S214003A1002E05D4B5F4A9A605B4BD3ED027AF5EEAF
S214003A20C07AF1EE10FA02D5574B01221A73554BA5
S214003A30186800230022002106F050FE07E04E4BD7
S214003A4000221A7004E000BF02E000BF00E000BFE2
S214003A504C4B186800230A22002106F0F5FF4A4B5B
S214003A601B687B61474B186800230022002106F084
S214003A7035FE494B186800230A22002106F0E4FFB1
S214003A80464B186800230A22002106F0DDFF444B4F
S214003A90444A00920CCB7969434800F08BFA3E4BBF
S214003AA0186800230022002106F018FE3F4B186815
S214003AB000230A22002106F0C7FF3D4B1A6A3C4B42
S214003AC0DB8ADB00134493ED007A394B1A6A384BD5
S214003AD0DB8A0133DB001344D3ED007A77EE677A96
S214003AE0C7ED047A324B1A6A314BDB8ADB0013448B
S214003AF093ED017A2E4B1A6A2D4BDB8A0133DB00DD
S214003B001344D3ED017A77EE677AC7ED037A97ED23
S214003B10047AD7ED047A27EE277AD7ED036AD7ED35
S214003B20037A66EEA77A77EE277A17EE900A0CF0FD
S214003B30F5FE03460C46184621460AF03FFA0346B1
S214003B400C46184621460DF039FA0346BB60134B67
S214003B50186800230022002106F0C0FD134B1868E9
S214003B6000230022002106F0B9FD7AE0AFF30080C2
S214003B709A9999999999A93FE8030020D8030020BB
S214003B80E70300205C960020409600200000F03FEF
S214003B900000F0BF000080BF58960020509600201E
S214003BA068960020CDCC4C3DD49500203C96002055
S214003BB074960020324B186800230A22002106F073
S214003BC043FF304B4FF000029A602E4B00221A73D0
S214003BD02C4B00225A602B4B00221A60284B186888
S214003BE000230022002106F079FD274B18680023E9
S214003BF00A22002106F028FF244B4FF000021A6626
S214003C00214B186800230022002106F067FD204B98
S214003C101A78204B1B781946104600F057FC0346CE
S214003C20012B18D11C4B01221A701C4B1B6818461E
S214003C3008F0FEFE0346002B11D1184B1C6807F057
S214003C4091FD03461A460A230093002302212046CC
S214003C5008F022FC03E0104B00221A7000E000BFC0
S214003C6000BF0F4B1B78012B04D17B8B184607F047
S214003C70EDFAD1E4BB8B184607F0E8FACCE400BFB7
S214003C805C9600204096002050960020D495002098
S214003C90E4030020E5030020E8030020DC03002006
S214003CA0E603002080B582B000AF7860114B18683C
S214003CB000230A22002106F0C7FE0346012B15D179
S214003CC00D4B1B78012B03D10B4B00221A7006E01C
S214003CD0094B1B78002B02D1074B01221A70054BAB
S214003CE0186800230022002106F0F8FC00BF083701
S214003CF0BD4680BD60960020D303002080B584B00A
S214003D0000AF7860144B186800230022002106F0EC
S214003D109BFE124B1B78FB730F4B18680023002288
S214003D20002106F0DBFCFB7B012B07D10C4B18684F
S214003D30002303220B4908F0FBF909E0FB7B052B67
S214003D4006D1074B186800230322074908F0F0F94C
S214003D5000BF1037BD4680BD54960020D203002019
S214003D60CC950020F0DEBC0AB1CAED0FB0B59CB011
S214003D701AAF7860254B186800230A22002106F047
S214003D8063FE234B186800230A22002106F05CFE1F
S214003D90204B214A0192DA6800920ECB1F4800F0B1
S214003DA01BFB1E4C1B4B15AD0FCB85E80F00684662
S214003DB004F11003542219460DF0B5F994E80F00EB
S214003DC000F02EF807EE900AFCEEE77A17EE902A3F
S214003DD0104B1A600F4B1A680E4B5B689A4203D959
S214003DE00C4B1B680B4A5360084B186800230022D4
S214003DF0002106F073FC064B186800230022002101
S214003E0006F06CFC00BF0837BD46B0BD50960020DB
S214003E105C960020409600209A99993ED495002002
S214003E2084B02DE9F043A1B01AAF07F1380686E852
S214003E300F0097ED297AD7ED207A67EE277AC7ED3F
S214003E40037A15AE07F19C030FCB86E80F00684691
S214003E5007F14803542219460DF065F907F13803B7
S214003E600FCB00F013FA0346BB66BB6E7B61D7F838
S214003E709C30002B08D0D7ED1C7A97ED057A77EEAC
S214003E80277AC7ED057A07E0D7ED1B7A97ED057A16
S214003E9077EE277AC7ED057A97F8A830002B07D07B
S214003EA0D7ED217A97ED057A77EE277AC7ED057A72
S214003EB0D7F89C3007EE903AF8EE677A97ED057AD9
S214003EC067EE277AC7ED057A394BBB604FF00003E3
S214003ED03B6197ED037AD7ED057A37EE677AD7ED33
S214003EE01F7A77EEA76AD7ED027A66EEA77AC7EE54
S214003EF0276A16EE900A0CF011FD02460B46C7E93B
S214003F0000234FF000024FF00003D7E900010CF049
S214003F10EDFF0346002B14D0D7E900010AF04EF857
S214003F2003460C46184621460DF048F803463B610A
S214003F3097ED047AD7ED027A67EE277AC7ED047A12
S214003F4022E0D7ED027AF1EE677A17EE903A18463D
S214003F500CF0E4FC804689463C687B6883F00045AC
S214003F60204629460AF02AF803460C461A462346F7
S214003F70404649460CF02AFD03460C4618462146A4
S214003F800DF01CF803463B61D7F89C3007EE903ADC
S214003F90F8EE677A97ED047A77EE277AC7ED047A1B
S214003FA03B6918461C37BD46BDE8F04304B0704771
S214003FB09A99993EB0B58CB000AFF860B9603946B2
S214003FC081E80C00AC4BFB614FF00003FB624FF046
S214003FD00003BB627B687B62D7ED097A9FEDA77A08
S214003FE0F4EEC77AF1EE10FA08D8D7ED097AF5EEB6
S214003FF0C07AF1EE10FA01DB012300E00023002B6B
S21400400009D14FF0A00383F31188BFF36F8FBFF37E
S2140040104F8FBB61FEE7002387F82330D7ED017A88
S214004020F5EEC07AF1EE10FA08DBD7ED017A9FEDD7
S214004030947AF4EEC77AF1EE10FA08D9D7ED017A41
S2140040409FED8E7AF4EE477AF1EE10FA03D1012353
S21400405087F8233058E0D7ED017A9FED897AF4EEA1
S214004060C77AF1EE10FA14DDD7ED017A9FED857A66
S214004070F4EEC77AF1EE10FA0BD8022387F8233055
S214004080D7ED097A9FED7E7A77EEC77AC7ED097A83
S2140040903AE0D7ED017A9FED7B7AF4EEC77AF1EE3F
S2140040A010FA14DDD7ED017A9FED777AF4EEC77A31
S2140040B0F1EE10FA0BD8032387F82330D7ED097AF0
S2140040C09FED707A77EEC77AC7ED097A1CE0D7EDD8
S2140040D0017A9FED6D7AF4EEC77AF1EE10FA13DDF1
S2140040E0D7ED017A9FED657AF4EEC77AF1EE10FA15
S2140040F00AD5042387F82330D7ED097A9FED627A34
S21400410077EEC77AC7ED097A97ED097AD7ED077A81
S21400411027EE277ADFED5B6AC7EE267AC7ED097AC7
S214004120BB6807EE903AB8EE677AD7ED107A67EE7E
S214004130277A17EE900A0CF0F1FB04460D46786AD3
S2140041400CF0ECFB02460B461046194609F002FD41
S21400415002460B46204629460CF038FC03460C4621
S214004160184621460CF02AFF0346FB62BB6807EEA2
S214004170903AB8EE677AD7ED107A67EE277A17EEA0
S214004180900A0CF0CBFB04460D46786A0CF0C6FB92
S21400419002460B461046194609F094FC02460B46AA
S2140041A0204629460CF012FC03460C4618462146CB
S2140041B00CF004FF0346BB6297F82330013B032B49
S2140041C025D801A252F823F0D9410000E7410000AB
S2140041D00142000023420000D7ED0B7AF1EE677A29
S2140041E0C7ED0B7A1EE0D7ED0B7AF1EE677AC7EDD6
S2140041F00B7AD7ED0A7AF1EE677AC7ED0A7A11E004
S214004200D7ED0A7AF1EE677AC7ED0A7A0AE04FF040
S214004210A00383F31188BFF36F8FBFF34F8F7B61CB
S214004220FEE700BFFB6893ED067AD7ED0B7A77EED4
S214004230277AFB68C3ED067AFB6893ED077AD7ED1D
S2140042400A7A77EE277AFB68C3ED077AFB6893ED68
S214004250187ABB6807EE903AF8EE676AD7ED107AE0
S21400426066EEA77A77EE277AFB68C3ED187A00BF6A
S2140042703037BD46B0BD00BFC3F548400000B4436C
S2140042800000B442000034430000874384B0B0B559
S21400429082B000AF07F1180484E80F00B7F85A3070
S2140042A007EE903AB8EEE77AD7ED117A67EE277AFE
S2140042B0C7ED017AFB6F18460CF00EFB4FF00002BC
S2140042C04FF0804309F0DCFC04460D4678680CF09D
S2140042D025FB02460B46204629460CF0C1F903464C
S2140042E00C46184621460CF069FE03467B6078684B
S2140042F00CF014FB4FF033320E4B0CF067FB03460A
S2140043000C46184621464FF000024FF080430CF052
S21400431087FC03460C46184621460CF04FFE034623
S2140043207B607B6818460837BD46BDE8B04004B0E1
S214004330704700BF3333F33F84B098B500AF07F142
S214004340100484E80F0097ED0D7AD7ED157A67EE26
S214004350277A17EE900A0CF0E1FA09A3D3E90023B6
S2140043600CF034FB03460C46184621460CF026FE9D
S21400437003461846BD46BDE8984004B0704700BFE7
S2140043801F85EB51B89E234084B098B500AF07F167
S214004390100484E80F0097ED0E7AD7ED157A67EED5
S2140043A0277A17EE900A0CF0B9FA09A3D3E900238E
S2140043B00CF00CFB03460C46184621460CF0FEFD9E
S2140043C003461846BD46BDE8984004B0704700BF97
S2140043D01F85EB51B89E234084B080B483B000AFF5
S2140043E0786007F1140080E80E007B6893ED187A79
S2140043F07B6907EE903AF8EE676AD7ED097A66EEC3
S214004400A77A77EE277A7B68C3ED187A00BF0C3759
S214004410BD465DF8047B04B07047000080B500AF71
S21400442001210C4800F0E4FE0021052002F02AF9E4
S214004430002301220621052002F064F90021052050
S21400444002F020F9002301220721052002F05AF984
S21400445000BF80BD00350A0080B582B000AF0621DF
S2140044600520FFF761F80346002B0CBF012300234D
S214004470DBB27B607B68002B01D1002305E07B6804
S214004480002B01D0012300E0012318460837BD4663
S21400449080BD80B582B000AF07210520FFF744F845
S2140044A00346002B0CBF01230023DBB27B607B6836
S2140044B0002B01D1002305E07B68002B01D00123EF
S2140044C000E0012318460837BD4680BD80B483B09F
S2140044D000AF03460A46FB711346BB71FB79012BFE
S2140044E004D1BB79012B01D1012310E0FB79012B0C
S2140044F004D1BB79002B01D1022308E0FB79002B05
S21400450004D1BB79012B01D1032300E00023184618
S2140045100C37BD465DF8047B704780B500AF45F2AA
S2140045205550FEF7F1FF00BF80BD80B500AF4AF6DC
S214004530AA20FEF7E9FF00BF80BD000080B500AFEF
S2140045403D493E480CF045FE3C4B4B221A833B4B04
S2140045501B8B1A4613469B0013445B001A46374BC8
S214004560DA61364B0122DA82344B354A1A62354913
S21400457035480CF02EFE344B32221A83324B1B8BFE
S2140045801A4613469B0013445B001A462E4BDA610C
S2140045902D4B0022DA824FF4167005F015FB02460A
S2140045A0294B1A624FF41672254928480CF0BBFDB9
S2140045B0274928480CF00DFE264B32221A83254B3D
S2140045C01B8B1A4613469B0013445B001A46214B6E
S2140045D0DA61204B0022DA824FF4167005F0F4FA06
S2140045E002461C4B1A624FF4167215491A480CF014
S2140045F09AFD1A491A480CF0ECFD194B32221A8320
S214004600174B1B8B1A4613469B0013445B001A4637
S214004610134BDA61124B0022DA824FF4167005F063
S214004620D3FA02460E4B1A624FF4167204490D482E
S2140046300CF079FD00BF80BDE41C0100EC030020F7
S2140046405C000020F01C01004404002064040020EC
S214004650001D01009C040020BC040020081D010071
S214004660F40400201405002080B582B000AF786006
S2140046700B46FB70FB78032B36D801A252F823F0CA
S21400468091460000B3460000C5460000D74600002D
S2140046907B681C4A1846114658231A460CF043FD00
S2140046A07B68186A174B1B6A042219460CF03BFD00
S2140046B023E07B68134A1846114658231A460CF026
S2140046C032FD1AE07B680F4A1846114658231A46F0
S2140046D00CF029FD11E07B680A4A1846114658235B
S2140046E01A460CF020FD08E07B68064A184611467C
S2140046F058231A460CF017FD00BF00BF0837BD460A
S21400470080BD00BFEC03002090B58DB000AF78618F
S21400471007F10C0080E80600BB60D7ED037A97ED42
S214004720027A77EE677AC7ED087AD7ED047A97EDC6
S214004730107A77EE677AC7ED097A97ED087ADFED9B
S2140047403F6AC7EE267AC7ED067A97ED097ADFED5F
S2140047503B6AC7EE267AC7ED077ABB6918460CF0A7
S214004760DDF84FF00002364B0BF07AFF03460C469E
S214004770184621464FF00002324B0CF027F903464C
S2140047800C46184621464FF000022D4B0BF068FFF2
S21400479003460C46184621460CF010FC0346FB6206
S2140047A0D7ED077A9FED287A67EE877A9FED267A0F
S2140047B077EE677AB6EE007A77EE877AC7ED0A7AF2
S2140047C0D7ED0B7AFCEEE77AC7ED017A3B79DAB2E1
S2140047D07B691A70D7ED0A7AFCEEE77AC7ED017AA4
S2140047E03B79DAB27B695A70D7ED0B7A9FED177A70
S2140047F0F4EEC77AF1EE10FA08DCD7ED0A7A9FEDF0
S214004800137AF4EEC77AF1EE10FA01DD012310E018
S214004810D7ED0B7AF5EEC07AF1EE10FA06D4D7EDA6
S2140048200A7AF5EEC07AF1EE10FA01D5012300E01F
S214004830002318463437BD4690BD00BF0000204216
S2140048400000E03F000060400000004300000A4314
S21400485084B090B58FB000AF07F1480484E80F002D
S2140048607F4B3B63BB6E1B687B61BB6E5B68BB614B
S214004870BB6E08331B68FB60BB6E08335B683B612E
S214004880BB6E1B687B60D7ED067AB2EE047A77EED5
S214004890877AC7ED027AF86839697A68BB6800F0EB
S2140048A0E7F807EE900AFCEEE77A17EE903AFB621E
S2140048B07869B9697A68BB6800F0DAF807EE900A9A
S2140048C0FCEEE77A17EE903ABB627869B9697A68C7
S2140048D0BB6800F0CDF807EE900AFCEEE77A17EE1C
S2140048E0903A7B62B86A0BF0F7FF03460C46184610
S2140048F0214609F063FB03460C46184621460CF099
S2140049005DFB03463B62786A0BF0E6FF03460C4607
S2140049101846214609F052FB03460C461846214627
S2140049200CF04CFB0346FB61BA6A7B6A1A44FB6ACE
S214004930D31A07EE903AB8EE677AD7ED087A77EE94
S214004940A76AD7ED077A66EEA77AC7EE276A16EE4D
S214004950900A0BF0E3FF03460C461846214609F082
S2140049603DF903460C46184621460CF027FB034645
S2140049707B63D7ED0D7A9FED3B7A67EE876A97EDFE
S2140049800C7AC6EE877AC7ED0D7ABB6E083393EDC8
S214004990007ABB6ED3ED007AB4EEE77AF1EE10FA49
S2140049A014DDBB6E083393ED017ABB6ED3ED017A4E
S2140049B0B4EEE77AF1EE10FA08DDD7ED0D7A9FED4A
S2140049C02A7A77EE877AC7ED0D7A40E0BB6E083319
S2140049D093ED007ABB6ED3ED007AB4EEE77AF1EE93
S2140049E010FA14DDBB6E083393ED017ABB6ED3ED7F
S2140049F0017AB4EEE77AF1EE10FA08D5D7ED0D7A23
S214004A009FED187A77EE877AC7ED0D7A1FE0BB6EBA
S214004A10083393ED007ABB6ED3ED007AB4EEE77AF6
S214004A20F1EE10FA13D5BB6E083393ED017ABB6E28
S214004A30D3ED017AB4EEE77AF1EE10FA07D5D7EDAA
S214004A400D7A9FED0A7A77EE877AC7ED0D7A7B6B43
S214004A5018463C37BD46BDE8904004B0704700BFDE
S214004A60C3F5484000003443000087430000B442CA
S214004A7080B487B000AFF860B9607A603B6097EDAD
S214004A80037AD7ED017A77EE677AC7ED057A97ED68
S214004A90027AD7ED007A77EE677AC7ED047A97ED5B
S214004AA0057AD7ED057A27EE277AD7ED046AD7ED93
S214004AB0047A66EEA77A77EE277A17EE903A1846CB
S214004AC01C37BD465DF8047B704780B487B000AFE6
S214004AD0F860B9607A60FB6803F10473DA00BB68BB
S214004AE013449B007B617B697A681A6000BF1C37A1
S214004AF0BD465DF8047B704780B485B000AF786033
S214004B0039607B6803F1C063FB60FB683A681A6033
S214004B1000BF1437BD465DF8047B704780B485B08F
S214004B2000AF786039607B6803F18063FB60FB68E8
S214004B303A681A6000BF1437BD465DF8047B7047BC
S214004B4080B584B000AFF860B9607A60B968F8687C
S214004B50FFF7E4FF7968F868FFF7CEFF00BF10376D
S214004B60BD4680BD80B582B000AF786039607B6896
S214004B70B3F1804F02D07B68194A934200BF3B686E
S214004B801B78DB071A463B685B681B06134343F437
S214004B9000427B681A603B68DB681B043A68127A3E
S214004BA01A437B689A623B681B691B043A68527A10
S214004BB01A437B68DA623B689B7A1B0743F0806384
S214004BC043F47D437A68536078683B681B7D1A46D9
S214004BD00021FFF77AFF00BF0837BD4680BD00BF43
S214004BE00004004080B582B000AF78600B46FB70D2
S214004BF07B68B3F1804F02D07B68074A934200BFC0
S214004C007B680433FA78FF211846FFF799FF00BF48
S214004C100837BD4680BD00BF0004004080B483B0A6
S214004C2000AF78607B68B3F1804F02D07B68074A9C
S214004C30934200BF7B681B6823F001027B681A6002
S214004C4000BF0C37BD465DF8047B7047000400408B
S214004C5080B483B000AF78607B68B3F1804F02D039
S214004C607B68074A934200BF7B681B6843F00102DB
S214004C707B681A6000BF0C37BD465DF8047B704742
S214004C800004004080B487B000AFF860B9607A6076
S214004C90FB6803F10473DA00BB6813449B007B6176
S214004CA07B697A681A6000BF1C37BD465DF8047BD6
S214004CB0704780B485B000AF786039607B6803F1D8
S214004CC00473DA003B6813449B00FB60FB681B68B8
S214004CD018461437BD465DF8047B704780B483B031
S214004CE000AF786001227B6802FA03F318460C379F
S214004CF0BD465DF8047B704780B582B000AF786033
S214004D007868FFF7EBFF034618460837BD4680BDB8
S214004D1080B584B000AF78607B680133B3FA83F364
S214004D20DBB2C3F11F03FB60F868FFF7D7FFFB6831
S214004D3018461037BD4680BD80B500AF00BF1221B3
S214004D400348FFF7B6FF0346002BF8D100BF80BD2F
S214004D5004300E4080B500AFFFF7EEFF034B5B68F4
S214004D601B0C03F00303DBB2184680BD00300E4078
S214004D7080B584B000AF78600123FB607B68124A80
S214004D80934204D80023FB600023BB6008E07B68E6
S214004D900E4A934202D80123BB6001E00223BB60A7
S214004DA0FA6810210A48FFF76DFF094BD3F8003167
S214004DB023F08072BB681B0605491343C1F8003117
S214004DC000BF1037BD4680BD0048E8010090D00304
S214004DD000400E4080B483B000AF054B1B687B607C
S214004DE07B6818460C37BD465DF8047B704700BFED
S214004DF0B402002080B582B000AF08F0EBFD78600A
S214004E00064BD3F800311B0A03F01F0301337A6800
S214004E1002FB03F318460837BD4680BD00400E402F
S214004E2080B582B000AF0D4800F03CFD0346FB7035
S214004E30FB78072B05D0092B07D108F0CBFD78604F
S214004E4006E0FFF7C7FF786002E000237B6000BF44
S214004E507B6818460837BD4680BD00BF06000E00BA
S214004E6080B584B000AF78607B68002B1CD11B48EF
S214004E7000F018FD0346FB7200BFFB7A013B072BD0
S214004E8023D801A252F823F0AD4E0000CB4E00000E
S214004E90CB4E0000BB4E0000CB4E0000CB4E0000B9
S214004EA0B34E0000C34E0000002312E00023FB6058
S214004EB00EE0FFF78FFFF8600AE008F0C3FDF86029
S214004EC006E0FFF797FFF86002E00023FB6000BFF4
S214004ED0FB6818461037BD4680BD00BFB8003200DC
S214004EE080B485B000AF786039601E4B5B6803F015
S214004EF04073FB600023BB6012E01B4ABB68DB000C
S214004F0013441A793B68DBB29A4206D1164ABB684C
S214004F1052F833307A689A4206D9BB680133BB60D0
S214004F20BB68042BE9D900E000BFBB68052B02D1A3
S214004F300323FB6005E00C4ABB68DB0013445B7987
S214004F40FB60FB681B06FB60064B5B6823F0407249
S214004F500449FB6813434B6000BF1437BD465DF839
S214004F60047B704700000E40141D010080B582B01F
S214004F7000AF0E4B1B6C002B14BF01230023FB71EC
S214004F800A4B41F671321A6408F01AFD03460021F6
S214004F901846FFF7A5FFFB79002B02D0034B002233
S214004FA01A6400BF0837BD4680BD00BF00000E4033
S214004FB080B584B000AF786039600C4B1B6C002B5A
S214004FC014BF01230023FB73084B41F671321A64A9
S214004FD039687868FFF784FFFB7B002B02D0034B11
S214004FE000221A6400BF1037BD4680BD00000E4088
S214004FF080B487B000AF78600F237B617B68033393
S2140050003B617B69FB60FA683B69934228BF1346A5
S214005010BB60BB681B07BB60BB6818461C37BD4639
S2140050205DF8047B7047000080B400AF044B5B6AF9
S2140050301B0903F003031846BD465DF8047B704762
S21400504000400E4080B483B000AF7860074B5B6AC8
S21400505023F030027B681B01044913434B6200BFF8
S2140050600C37BD465DF8047B704700BF00400E401D
S21400507090B585B000AF78600023BB607B68354A8A
S214005080934206D0344A934203D0344A934200D027
S21400509000E000BF786800F005FC0346FB607B6814
S2140050A02C4A93420DD02C4A934211D02B4A93425D
S2140050B000D014E02A4BD3F8803003F00703FB60DF
S2140050C00DE0274BD3F8843003F00703FB6006E0BF
S2140050D0234BD3F8883003F00703FB6000BFFB6860
S2140050E0042B2ED801A252F823F000BF3D51000039
S2140050F00151000009510000195100001151000033
S21400510008F0C2FCB8601FE008F0D0FCB8601BE0F6
S21400511008F0C3FCB86017E008F032FC0446104BF9
S214005120D3F800311B0E03F0010301331846FFF7D6
S214005130E3FD0346B4FBF3F3BB6005E00023BB606E
S21400514002E00023BB6000BFBB6818461437BD46AC
S21400515090BD00BF030020000500240002001E00D2
S21400516000400E4080B483B000AF78600A4BD3F89E
S214005170443103F00103002B08D100BF064BD3F8DF
S21400518040217B681340002BF8D100E000BF0C37AD
S214005190BD465DF8047B704700400E4080B400AF0B
S2140051A000BFBD465DF8047B704780B400AF00BF0B
S2140051B0BD465DF8047B704780B582B000AF78606E
S2140051C0786800F081F90346013318460837BD4673
S2140051D080BD80B582B000AF786039603B68013B27
S2140051E01946786800F032FA00BF0837BD4680BD21
S2140051F080B586B000AF78600B46FB7000233B613D
S2140052007B681B0A03F00F03013B092B44D801A25D
S21400521052F823F03D520000495200009952000017
S21400522099520000435200004F52000059520000AD
S21400523099520000635200006F520000184B7B61C9
S21400524018E0184B7B6115E0174B7B6112E0174B9B
S2140052507B6101233B610DE0154B7B6110233B61B5
S21400526008E0144B7B614FF480333B6102E0124B45
S2140052707B6100BF7B681B0B03F01F03FB603B6971
S214005280002B02D03869FFF76DFFFB781A46F968E5
S2140052907869FFF7F7FC00E000BF1837BD4680BD11
S2140052A000400E40B0400E40C0400E40E0400E4071
S2140052B0E8400E40F0400E4050410E4080B584B0AD
S2140052C000AF78607B6803F47813B3F5A01F7DD039
S2140052D0B3F5A01F1AD8B3F5202F50D0B3F5202F62
S2140052E008D8B3F5003F4ED0B3F5802F38D0002B4A
S2140052F032D0D8E0B3F5602F00F0C880B3F5801F39
S21400530000F0C880B3F5402F4CD0CCE0B3F5001FBA
S21400531000F08B80B3F5001F0AD8B3F5D01F00F05D
S2140053208980B3F5F01F4CD0B3F5B01F5CD0BAE05F
S214005330B3F5381F6AD0B3F5381F04D8B3F5101F7D
S21400534000F09F80AFE0B3F5401F00F08680B3F515
S214005350481F00F0A380A6E008F03CFBF860A5E03C
S21400536008F038FBF860544BD3F80C311B0AC3F333
S21400537008030133FA68B2FBF3F3FB6096E008F02B
S21400538029FBF86092E008F025FBF8604A4BD3F85A
S21400539008311B0AC3F308030133FA68B2FBF3F3C0
S2140053A0FB6083E008F016FBF860434BD3F814313B
S2140053B01B0A03F01F030133FA68B2FBF3F3FB602A
S2140053C074E03E48FFF754FEF8606FE03C48FFF795
S2140053D04FFEF860384BD3F8303103F00303FA6819
S2140053E022FA03F3FB6061E03448FFF741FEF86001
S2140053F0314BD3F8203103F00F031846FFF77CFC3F
S2140054000246FB68B3FBF2F3FB604FE02B48FFF766
S2140054102FFEF860284BD3F820311B0903F0030356
S214005420FA6822FA03F3FB6040E02648FFF720FE06
S214005430F8603BE02348FFF71BFEF8601E4BD3F8EE
S21400544028311B0903F003031846FFF755FC0246F4
S214005450FB68B3FBF2F3FB6028E01A48FFF708FE90
S214005460F860154BD3F828311B0A03F00303043306
S2140054701846FFF741FC0246FB68B3FBF2F3FB60FD
S21400548014E00F48FFF7F4FDF8600FE0FFF7C8FCE4
S214005490F8600BE0FFF79EFCF86007E00020FFF7DF
S2140054A0DFFCF86002E00023FB6000BFFB681846E4
S2140054B01037BD4680BD00BF00400E4002001E00F3
S2140054C0050024000300200080B584B000AF78609B
S2140054D07B681B0903F00F03BB60BB68013B092B0D
S2140054E000F2A08001A252F823F000BF155500007C
S2140054F0255500003555000045550000255600008E
S214005500255600005555000065550000B3550000AF
S21400551007560000474BD3F800311B0A03F01F0361
S214005520FB6082E0434BD3F814311B0A03F01F03E1
S214005530FB607AE03F4BD3F800311B0E03F001030B
S214005540FB6072E03B4BD3F80C311B0AC3F3080335
S214005550FB606AE0374BD3F808311B0AC3F3080335
S214005560FB6062E07B68344A934203D0334A93423E
S2140055700DD01AE02F4BD3F8203103F00F03FB6059
S214005580F868FFF7B9FB0346013BFB6010E0294BC8
S214005590D3F820311B0903F00303FB60F868FFF71C
S2140055A0ABFB0346013BFB6002E00023FB6000BF51
S2140055B03BE07B68224A934203D0224A93420ED0B5
S2140055C01DE01C4BD3F828311B0903F00303FB60D6
S2140055D0F868FFF791FB0346013BFB6012E0154BB2
S2140055E0D3F828311B0A03F00303FB60FB6804337F
S2140055F01846FFF781FB0346013BFB6002E00023F1
S214005600FB6000BF11E07B680F4A934206D1094B4E
S214005610D3F8303103F00303FB6002E00023FB60A5
S21400562000BF02E00023FB6000BFFB68184610378F
S214005630BD4680BD00400E408006160080162E0037
S21400564090171A0090273000A009140080B584B087
S21400565000AF786039607B681B0903F00F03FB60BE
S214005660FB68013B092B00F2078101A252F823F0E8
S21400567099560000E556000079580000FD560000D7
S214005680795800007958000019570000615700004B
S214005690E15700004F580000FFF768FC7948FFF715
S2140056A067FBFFF77BFD784BD3F8003123F4F85205
S2140056B03B681B0274491343C1F8003108F060F9D7
S2140056C0B860FFF747FB03461946B868FFF770FC5B
S2140056D06E48FFF7F3FD03461846FFF749FBFFF752
S2140056E064FDCAE0684BD3F8143123F4F8523B68E3
S2140056F01B0265491343C1F81431BEE0624BD3F870
S2140057000C3123F4FF3323F480733A6812025E49A7
S2140057101343C1F80C31B0E0FFF728FC5948FFF7F7
S21400572027FB594BD3F8083123F4FF3323F4807357
S2140057303A68120254491343C1F8083108F020F9B8
S214005740B860FFF707FB03461946B868FFF730FC5A
S2140057504E48FFF7B3FD03461846FFF709FB8CE0FB
S2140057607B684B4A934215D04A4A934224D04A4A11
S214005770934200D033E04FF48020FFF7F3FC424B17
S214005780D3F8303123F003023F493B681343C1F896
S214005790303124E03868FFF7BBFA38600420FFF7A2
S2140057A0E1FC394BD3F8203123F00F0236493B6831
S2140057B01343C1F8203112E03868FFF7A9FA3860C1
S2140057C00420FFF7CFFC304BD3F8203123F0300213
S2140057D03B681B012C491343C1F8203100BF4CE045
S2140057E07B682E4A934203D02D4A934213D02DE075
S2140057F03868FFF78DFA38604020FFF7B3FC224B7D
S214005800D3F8283123F030023B681B011E491343AE
S214005810C1F828311AE03B687F2B02D83B680E2B74
S21400582000BF3868FFF774FA0346043B3B6040202D
S214005830FFF798FC144BD3F8283123F440723B68EA
S2140058401B0211491343C1F8283100BF15E07B68DD
S214005850114A934200D00EE04FF48020FFF782FCFE
S214005860094BD3F8303123F0030207493B68134352
S214005870C1F8303100BF00E000BF00BF1037BD46A2
S21400588080BD00BF0148E80100400E4000250A0028
S2140058908006160080162E00A009140090171A0025
S2140058A09027300080B485B000AF78600123FB738A
S2140058B07B6803F00F03BB60BB68013B072B00F25D
