S01F00006A64616E69656C736B695F46696E616C5F50726F6A6563742E73333738
S2140000000000042071D900009DD900009DD9000091
S2140000109DD900009DD900009DD900009DD9000003
S2140000209DD900009DD900009DD9000041A0000088
S2140000309DD900009CD9000051A20000B9A2000082
S2140000409DD900009DD900009DD900009DD90000D3
S2140000509DD900009DD900009DD900009DD90000C3
S2140000609DD900009DD90000E3440000F5CA0000B9
S2140000709DD900009DD900009DD900009DD90000A3
S2140000809DD900009DD90000F34400009DD90000D2
S2140000909DD900009DD900009DD900009DD9000083
S2140000A09DD900009DD900009DD900009DD9000073
S2140000B09DD900009DD900009DD900009DD9000063
S2140000C09DD900009DD900009DD900009DD9000053
S2140000D09DD900009DD900009DD900009DD9000043
S2140000E09DD900009DD900009DD900009DD9000033
S2140000F09DD900009DD900009DD900009DD9000023
S2140001009DD900009DD900009DD9000010B5054C72
S214000110237833B9044B13B10448AFF300800123AE
S214000120237010BDD403002000000000D829010071
S21400013008B5034B1BB103490348AFF3008008BD65
S21400014000000000D8030020D8290100154B002B22
S21400015008BF134B9D46A3F5803A00218B460F46F9
S2140001601348144A121A11F001F80F4B002B00D056
S21400017098470E4B002B00D0984700200021040023
S2140001800D000D48002802D00C48AFF3008010F098
S21400019097FF2000290002F0C7FE10F07DFF00BF89
S2140001A0000008000000042000000000000000001E
S2140001B0D403002054980020000000000000000037
S2140001C080B500AF05F03EFE0346184680BD000031
S2140001D080B500AF01220121032005F0D1FE0748BB
S2140001E005F03CFEFFF7ECFF0121054805F00AF894
S2140001F00121044805F006F800BF80BD80D5430203
S2140002004041050000250A0080B582B000AF786046
S2140002107B6800221A757B681B49184610F0F1FFB0
S2140002207B6800225A757B6800229A757B680022DC
S21400023083F820207B68002283F820207B684FF01C
S2140002407E525A627B68114A9A627B68104A5A64E8
S2140002507B680A229A877B681222DA877B680A22E2
S214000260A3F840207B680B4A9A647B680222A3F8B6
S21400027042207B68084ADA627B684FF000021A6602
S21400028000BF0837BD4680BD0C1B01004260653CC0
S21400029000A0CD44000ECE471F856B3EB0B584B09F
S2140002A000AF78600B46FB707B68FA781A75FB78AF
S2140002B0032B47D801A252F823F000BFCD0200005E
S2140002C0EB02000009030000270300007B682449B6
S2140002D0184610F096FF7B68224A03F13C04154648
S2140002E00FCD0FC42B68236036E07B681E49184686
S2140002F010F087FF7B681D4A03F13C0415460FCDBE
S2140003000FC42B68236027E07B681949184610F055
S21400031078FF7B68174A03F13C0415460FCD0FC4DF
S2140003202B68236018E07B681349184610F069FFB5
S2140003307B68124A03F13C0415460FCD0FC42B68A8
S214000340236009E04FF0A00383F31188BFF36F8F9B
S214000350BFF34F8FFB60FEE700BF1037BD46B0BD52
S2140003600C1B010000000020141B010014000020DC
S2140003701C1B010028000020281B01003C00002058
S21400038080B483B000AF78607B684FF000029A605C
S2140003907B6800221A6000BF0C37BD465DF8047B00
S2140003A0704780B483B000AF78607B6802221A7012
S2140003B07B6800225A707B684FF000025A6000BFCC
S2140003C00C37BD465DF8047B704780B483B000AF41
S2140003D078607B6800221A707B6800225A707B68FF
S2140003E000229A7000BF0C37BD465DF8047B70474C
S2140003F090B589B002AF7860C823FB810223FB75F5
S2140004007F4B0093002301224FF4C8717D480CF007
S21400041003F802467C4B1A607B4B1C680BF0B2F963
S21400042003461A460A2300930023012120460CF0B7
S21400043043F80CF01DFC00F01BF903461A46734BFC
S2140004401A70734B1B78052B00F2D48001A252F869
S21400045023F000BFF50500006D040000F505000060
S214000460B3040000C3050000F5050000674B1A78CA
S214000470684B1B789A421AD0644B1A78654B1A70F0
S214000480624B1B78012B02D0042B08D010E0624B85
S214000490186800230322AD210BF05AFE08E05E4BDD
S2140004A0186800230322DE210BF052FE00E000BF96
S2140004B0A0E05A4B186800231E2200210AF0D4FA46
S2140004C00346002B09D0564B1B683B61534B1868FC
S2140004D00023002200210AF011F94C4B1B78013B47
S2140004E0032B1FD801A252F823F000BFFD04000022
S2140004F007050000110500001B0500000023FB7522
S2140005002D23BB7513E00123FB750F23BB750EE08F
S2140005100323FB75F123BB7509E00423FB75D32386
S214000520BB7504E00223FB750023BB7500BF3D4B83
S214000530186800231E2200210AF096FA3A4AFB7D2C
S21400054013703B69002B0DD0374B93ED017A97F96A
S214000550163007EE903AF8EEE77A77EE277A324BC7
S214000560C3ED017A304BD3ED017A9FED307AF4EE8D
S214000570C77AF1EE10FA0ADD2B4BD3ED017A9FED28
S2140005802B7A77EEC77A284BC3ED017A11E0264B1B
S214000590D3ED017AF5EEC07AF1EE10FA09D5224BCA
S2140005A0D3ED017A9FED217A77EE877A1E4BC3ED65
S2140005B0017A1C4B18680023002200210AF09EF8DE
S2140005C018E0184B186800230A2200210AF04CFA9B
S2140005D0154B02221A70144B00225A70124B4FF021
S2140005E000025A600F4B18680023002200210AF010
S2140005F085F800BFFB8918460AF038FE1BE700BFE7
S214000600310600002C1B0100F4030020F803002034
S214000610F0030020F903002058960020E8960020FA
S214000620CC960020E4960020F49600200000B44308
S21400063080B582B000AF78600A4B18680023642249
S21400064000210AF011FA084B1A78084B1A70054B6D
S21400065018680023002200210AF050F800BF08376F
S214000660BD4680BDE09600205E040020F00300201A
S21400067090B583B000AF4FF0804004F0F3FA0CF072
S214000680CDFA0023FB710023BB7119E0BC79BB795E
S21400069018460CF06DFA03461A4607F10803234481
S2140006A003F8082CBB7907F10802134413F8083C3A
S2140006B0002B02D0FB790133FB71BB790133BB7190
S2140006C0BB79032BE2D94FF0804004F0B1FAFB79F6
S2140006D0002B02D0FB79012B01D9002315E0002363
S2140006E0BB710EE0BB7907F10802134413F8083C0F
S2140006F0002B03D0BB790133DBB206E0BB790133B4
S214000700BB71BB79032BEDD9002318460C37BD46C9
S21400071090BD0000F0B5A9B01AAF7860A64B1B6874
S2140007201B885B089AB2A54B1A800CF001FB386355
S2140007303B6B002B09D04FF0A00383F31188BFF367
S2140007406F8FBFF34F8F3B62FEE7002007F0A0FFDE
S21400075038633B6B002B09D04FF0A00383F311885E
S214000760BFF36F8FBFF34F8FFB61FEE7924808F031
S21400077085FA38633B6B002B09D04FF0A00383F358
S2140007801188BFF36F8FBFF34F8FBB61FEE78A4BB5
S2140007906FF07F425A60884B00229A60884B198817
S2140007A0884B00930023002287480BF035FE024654
S2140007B0864B1A60824B1988854B009300230022D3
S2140007C084480BF029FE0246834B1A60834B198837
S2140007D0834B00930023002282480BF01DFE024646
S2140007E0814B1A60814B186800230A2200210AF008
S2140007F03BF97F4B1A787F4B1A707C4B18680023A6
S2140008000022002109F07AFF7A4B1B78052B00F2B4
S2140008101A8401A252F823F031080000670800008D
S214000820870B0000570C00001B0E0000470F00004F
S21400083000F06EFC08F07CF9644B1B6818460CF060
S21400084007F90346002B40F0CC83604B1C680AF087
S21400085099FF03461A460A230093002301212046E7
S2140008600BF02AFEBDE3594B1B6818460CF0F0F857
S2140008700346012B08D1554B18680A230093002322
S214000880002203210BF018FE5B4B1B7883F001035C
S214000890DBB2002B28D0594B186800230A2200210F
S2140008A00AF0E2F8564B1B78564C1693564A15AB90
S2140008B01188927819809A70684604F110035422C1
S2140008C0194610F048FC94E80F0000F0EFFE4B4B82
S2140008D0186800230022002109F010FF08F028F90C
S2140008E0454B01221A70AEE307F114024FF6FF7370
S2140008F04FF0FF314FF0FF300BF0C6FB7B69AD2B9E
S21400090000F01181AD2B06D8552B00F0B280AA2B33
S21400091000F0848097E3DE2B00F0D6803B4A9342BB
S21400092000D090E3354B186800230A2200210AF015
S2140009309BF8344801F04EFB354B186800230A221A
S21400094000210AF091F8304B324A118892781980CB
S2140009509A702D4B1B7819462F4803F047FE2E4BF6
S2140009601B6A1B68274A93612B4B1B6A5B68254AE8
S214000970D361224B186800230022002109F0BEFE36
S214000980234B186800230022002109F0B7FE174BFE
S214000990186800230A2200210AF066F8144B022287
S2140009A01A70124B186800230022002109F0A6FED8
S2140009B0114B00221A70E5E00C0400200804002009
S2140009C050000020791000003C1B0100FC030020B2
S2140009D0C11000004C1B0100000400205200002043
S2140009E0E91000005C1B010004040020E0960020D3
S2140009F05E0400203804002039040020DC96002025
S214000A00540000206096002058970020F0DEBC0AB4
S214000A10C89600203C04002000970020A44800F060
S214000A20C9FEA44B186800230A2200210AF01CF80D
S214000A309F4B1B78A04C1693A04A15AB1268114624
S214000A4019800233120C1A70684604F110035422FF
S214000A50194610F080FB94E80F0000F027FE954B37
S214000A60186800230022002109F048FE08F060F80C
S214000A7088E08F4800F0CAFE8E4B186800230A22D2
S214000A80002109F0F1FF8A4B1B788B4C16938B4A9A
S214000A9015AB1268114619800233120C1A7068469C
S214000AA004F110035422194610F055FB94E80F0089
S214000AB000F0FCFD7F4B186800230022002109F09F
S214000AC01DFE08F035F85DE07A4B186800230A2210
S214000AD0002109F0C9FF764B1B78784A76491846FC
S214000AE000F0C0FE724B1B78734C1693734A15AB1E
S214000AF01268114619800233120C1A70684604F107
S214000B0010035422194610F026FB94E80F0000F05C
S214000B10CDFD684B186800230022002109F0EEFD89
S214000B2008F006F82EE0634B186800230A2200211E
S214000B3009F09AFF5E4B1B78604A5F49184600F042
S214000B40C1FE5B4B1B785C4C16935C4A15AB126877
S214000B50114619800233120C1A70684604F110030D
S214000B605422194610F0F7FA94E80F0000F09EFDA4
S214000B70504B186800230022002109F0BFFD07F043
S214000B80D7FF00BF5FE24E4B1B78013BDBB2184637
S214000B9000F0C4FF07F0CCFF494B1B78013BDAB2EC
S214000BA0474B1A70464B1B78002B40F01C82444B78
S214000BB004221A70434B186800230A22002109F009
S214000BC053FF0346002B0DD03F4B03221A703E4BBB
S214000BD01A783E4B1A703B4B1868002300220021FF
S214000BE009F08CFD3A4B186800230A22002109F010
S214000BF03BFF384B0022DA82374B1868002314225A
S214000C00002109F031FF0346002B15D0314C684611
S214000C1004F110034822194610F09DFA94E80F00DC
S214000C2003F006FE02462D4B5A602B4B1868002335
S214000C300022002109F062FD254B186800230022DF
S214000C40002109F05BFD264B1B6818460AF052FC93
S214000C500FF0C0FCC7E107F1100200234FF0FF3190
S214000C604FF0FF300BF010FA0346012B3ED13B69E4
S214000C701C4A934240F0E481124B186800230A2273
S214000C80002109F0F1FE104B04221A700E4B1A7860
S214000C900E4B1A700B4B186800230022002109F037
S214000CA02DFD114B1B6818460BF0F6FAC8E100BF85
S214000CB054000020DC960020609600203C040020B3
S214000CC055000020E09600205E0400203804002036
S214000CD0C896002000970020E4960020F496002096
S214000CE0F09600202143658758960020BF4B186871
S214000CF000230A22002109F0B7FE0346002B0CD081
S214000D00BB4ABC4B14460FCB84E80F00B74B1868A1
S214000D1000230022002109F0F1FCB74B18680023DD
S214000D200A22002109F0A0FE0346002B0CD0B34B8C
S214000D30B34A92E8030083E80300AF4B1868002329
S214000D400022002109F0DAFCAE4B186800230A22C4
S214000D50002109F089FE0346002B41D0AA4B1868F3
S214000D6000230A22002109F07FFE0346002B30D024
S214000D70A64DA24A04AB92E8030083E803009C4B0E
S214000D806C460FCB84E80F0005F150030FCB00F044
S214000D901DFF9E4C964B16AD0FCB85E80F009C4B67
S214000DA01593684604F110035422194610F0D3F93F
S214000DB094E80F0001F042F9034687F83730924B6B
S214000DC0186800230022002109F098FC904B0122AD
S214000DD01A758C4B186800230022002109F08EFC3F
S214000DE097F83730002B14D08A4B186800230A2255
S214000DF0002109F039FE884B04221A70864B1A78B7
S214000E00864B1A70834B186800230022002109F0D5
S214000E1075FC07F08DFE00BF15E10FF0F7FB804B69
S214000E201B6818460AF05CFA0346032B04D07C4B7A
S214000E301B6818460AF0ACFA7A4B1B78002B05D0D4
S214000E4001F0BAFC774B00221A7004E001F060FC57
S214000E50744B01221A7007F06BFE734B1B68184622
S214000E600BF0F6FD0346002B0CD16F4B1C680AF006
S214000E7089FC03461A460A230093002302212046D3
S214000E800BF01AFB07F10C0200234FF0FF314FF076
S214000E90FF300BF0F9F80346012B40F0D380FB68D7
S214000EA0624A934248D1514B18680023052200211C
S214000EB009F0DAFD4F4B5B68FB624C4B1868002369
S214000EC00022002109F01AFC4F4B18680023052267
S214000ED0002109F0C9FD4D4BD3ED187AFCEEE77AF8
S214000EE017EE903ABB62484B186800230022002198
S214000EF009F004FC0FF0A4FB03461A46B96AF86A28
S214000F000FF048FB7862796A49480FF003FB414BC3
S214000F10186800230A22002109F0A6FD3E4B052290
S214000F201A703D4B1A783D4B1A703A4B18680023DE
S214000F300022002109F0E2FB3E4B1B6818460BF02E
S214000F40ABF900BF7EE03A4E6D4606F110040FCCBA
S214000F500FC594E8070085E8070096E80F0001F043
S214000F607FFC07F0E5FD344B1B6818460BF070FD60
S214000F700346002B0CD1304B1C680AF003FC0346DA
S214000F801A460A2300930023022120460BF094FA07
S214000F9007F108024FF6FF734FF0FF314FF0FF30B6
S214000FA00BF072F8BB68254A93424CD1194B18686F
S214000FB000230A22002109F057FD174B00221A7061
S214000FC0154B1A78154B1A70124B1868002300221E
S214000FD0002109F093FB174B1B6818460BF05CF9D1
S214000FE031E000BF2FE000BF2DE000BFE8960020F4
S214000FF040040020CC960020E496002050040020F8
S214001000F4960020C8960020DC960020609600200B
S21400101000970020E09600205E04002038040020A0
S214001020F096002058040020000400207856341261
S2140010305C9700205896002004040020B1CAED0FEB
S21400104000BF00E000BF094B1B78022B06D1084BFF
S2140010501B8818460AF00AF9FFF7C4BB054B1B8825
S21400106018460AF003F9FFF7BDBB00BF380400209E
S214001070560000205800002080B582B000AF78608F
S2140010800D4B186800230A22002109F0EDFC0346E8
S214001090012B0DD1094B1B78002B02D1074B0122E7
S2140010A01A70054B186800230022002109F026FB61
S2140010B000BF0837BD4680BDE09600205E040020D5
S2140010C080B582B000AF7860054B18680023032215
S2140010D004490BF03DF800BF0837BD4680BD00BF91
S2140010E0589600207856341280B582B000AF7860EB
S2140010F0054B18680023032204490BF029F800BFAB
S2140011000837BD4680BD00BF58960020B1CAED0F17
S214001110F0B58FB002AF374807F043FE3649354882
S21400112008F039FD3B46354A3021184610F026F8BF
S2140011303B46184610F06DF806462E4B1B681B887B
S2140011405B089BB21C462B4B93F824301A46294B5F
S21400115093F8273013441D463B46184610F059F8BE
S214001160034603FB05F35B08E31A1A4639460023D9
S214001170019305230093134632461E4808F0A4FC4C
S2140011803B461F4A302118460FF0F8FF3B461846EC
S21400119010F03FF80646174B1B681B885B089BB28F
S2140011A01C46144B93F824301A46124B93F82730FB
S2140011B013441D463B46184610F02BF8034603FB27
S2140011C005F35B08E31A18460A4B93F825301A46CF
S2140011D013465B0013440533394600220192009300
S2140011E003463246034808F06FFC00BF3437BD465E
S2140011F0F0BD00BF0C040020482401006C1B010059
S214001200781B010090B591B002AF0346FB713549DB
S214001210354808F0C0FC07F10803344A3021184668
S2140012200FF0ACFF07F1080318460FF0F2FF2E4B45
S21400123093F825309B0007F10801002201920093E5
S2140012400A230246284808F03FFCFB79032B2BD8DC
S21400125001A252F823F000BF6912000079120000C4
S214001260891200009912000007F10803204A302175
S21400127018460FF083FF17E007F108031D4A3021D8
S21400128018460FF07BFF0FE007F108031A4A3021DB
S21400129018460FF073FF07E007F10803174A3021DE
S2140012A018460FF06BFF00BF07F1080318460FF053
S2140012B0B0FF04460C4B1B681B88A3F133000A4B97
S2140012C093F825309B0007F1080100220192009355
S2140012D003462246044808F0F7FB00BF3C37BD46ED
S2140012E090BD00BF182101000C040020841B0100E3
S2140012F08C1B0100941B01009C1B0100A41B010019
S21400130090B591B002AF0346FB713749374808F0F5
S21400131042FC07F10803364A302118460FF02EFF2C
S21400132007F1080318460FF074FF304B93F825308A
S2140013301A4613469B00134407F108010022019247
S21400134000930A230246294808F0BEFBFB79032BCC
S2140013502AD801A252F823F069130000791300007E
S214001360891300009913000007F10803214A302171
S21400137018460FF003FF17E007F108031E4A302156
S21400138018460FF0FBFE0FE007F108031B4A30215A
S21400139018460FF0F3FE07E007F10803184A30215D
S2140013A018460FF0EBFE00BF07F1080318460FF0D3
S2140013B030FF04460D4B1B681B88A3F133000B4B14
S2140013C093F825301A4613469B00134407F108018C
S2140013D000220192009303462246044808F074FB5C
S2140013E000BF3C37BD4690BD182101000C0400200C
S2140013F0B41B0100C01B0100C81B0100D01B01006C
S214001400DC1B010090B591B002AF0346FB71324978
S214001410324808F0C0FB07F10803314A302118466D
S2140014200FF0ACFE07F1080318460FF0F2FE2B4B48
S21400143093F825301A4613465B0013445B001A46A1
S21400144007F108010023019300920A23024623486D
S21400145008F03AFBFB79012B0BD0022B11D0002BA6
S21400146017D107F108031F4A302118460FF086FEF1
S2140014700FE007F108031C4A302118460FF07EFEE5
S21400148007E007F10803194A302118460FF076FEE8
S21400149000BF07F1080318460FF0BBFE04460F4BCB
S2140014A01B681B88A3F133000C4B93F825301A46B3
S2140014B013465B0013445B001A4607F1080100233D
S2140014C00193009203462246044808F0FDFA00BF46
S2140014D03C37BD4690BD00BF182101000C0400201B
S2140014E0E01B0100EC1B0100F41B0100FC1B0100CB
S2140014F090B591B002AF0346FB713049304808F012
S2140015004AFB07F108032F4A302118460FF036FE33
S21400151007F1080318460FF07CFE294B93F8253098
S2140015201A461346DB009B1A07F1080100220192B7
S21400153000930A230246224808F0C6FAFB79012BDC
S2140015400BD0022B11D0002B17D107F108031E4A2F
S214001550302118460FF012FE0FE007F108031B4A71
S214001560302118460FF00AFE07E007F10803184A74
S214001570302118460FF002FE00BF07F10803184698
S2140015800FF047FE04460E4B1B681B88A3F1330082
S2140015900B4B93F825301A461346DB009B1A07F1CF
S2140015A0080100220192009303462246044808F0F0
S2140015B08BFA00BF3C37BD4690BD00BF1821010026
S2140015C00C040020041C0100101C0100181C010063
S2140015D0FC1B010090B591B002AF0346FB712D498C
S2140015E02D4808F0D8FA07F108032C4A302118468F
S2140015F00FF0C4FD07F1080318460FF00AFE264B4D
S21400160093F82530DB0007F10801002201920093D1
S2140016100A230246204808F057FAFB79012B0BD024
S214001620022B11D0002B17D107F108031C4A3021DA
S21400163018460FF0A3FD0FE007F10803194A302102
S21400164018460FF09BFD07E007F10803164A302105
S21400165018460FF093FD00BF07F1080318460FF079
S214001660D8FD04460C4B1B681B88A3F133000A4BBD
S21400167093F82530DB0007F1080100220192009361
S21400168003462246044808F01FFA00BF3C37BD4612
S21400169090BD00BF182101000C040020201C010092
S2140016A0281C0100301C0100381C010084B0F0B575
S2140016B08FB002AF07F1480484E80F003A4807F0FD
S2140016C070FB3A49384808F066FA3B46384A3021FB
S2140016D018460FF053FD3B4618460FF09AFD064697
S2140016E0314B1B681B885B089BB21C462E4B93F83D
S2140016F024301A462C4B93F8273013441D463B469D
S21400170018460FF086FD034603FB05F35B08E31A55
S2140017101A463946002301930523009313463246A2
S214001720214808F0D1F9204B93F825305A001E4B7B
S2140017301B681B8819461C4B93F825305B000093EA
S2140017400B464FF0FF31184807F0D5FE97F8B0303B
S214001750154A92F8252002FB03F3DA1C0223032124
S214001760114807F018FC97F8AC301846FFF74AFD0A
S21400177097F85C301846FFF7C3FD97F868301846B0
S214001780FFF740FE97F85D301846FFF7B1FE97F872
S2140017905E301846FFF71EFF00BF3437BD46BDE873
S2140017A0F04004B0704700BF0C040020482401003D
S2140017B0401C010080B483B000AF78607B681B7863
S2140017C0043B032B1AD801A252F823F0DD170000C1
S2140017D0E5170000ED170000F51700007B680522EE
S2140017E01A700CE07B6806221A7008E07B680722F5
S2140017F01A7004E07B6808221A7000E000BF00BF81
S2140018000C37BD465DF8047B704700BF80B483B0DC
S21400181000AF78607B681B78053B032B1AD801A2C3
S21400182052F823F0351800003D1800004518000057
S2140018304D1800007B6804221A700CE07B680522B5
S2140018401A7008E07B6806221A7004E07B6807229C
S2140018501A7000E000BF00BF0C37BD465DF8047B81
S214001860704700BF80B584B000AF0346B9607A60A9
S214001870FB73FB7B043B042B20D801A252F823F019
S214001880951800009D180000A5180000AD1800006F
S214001890B5180000786800F045F80FE0B86800F06A
S2140018A06DF80BE0B86800F0A9F807E0B86800F03B
S2140018B0DDF803E0B86800F005F900BF00BF103798
S2140018C0BD4680BD80B584B000AF0346B9607A607F
S2140018D0FB73FB7B043B042B20D801A252F823F0B9
S2140018E0F5180000FD180000051900000D1900008D
S2140018F015190000786800F02BF80FE0B86800F0C3
S2140019005DF80BE0B86800F095F807E0B86800F0FE
S214001910C3F803E0B86800F0EBF800BF00BF10376C
S214001920BD4680BD80B483B000AF78607B681B780E
S214001930032B06D07B681B780133DAB27B681A70FB
S21400194000E000BF00BF0C37BD465DF8047B704763
S21400195080B483B000AF78607B681B78002B06D01D
S2140019607B681B78013BDAB27B681A7000E000BF28
S21400197000BF0C37BD465DF8047B704780B582B06B
S21400198000AF78607B681B7D012B09D0022B0CD042
S214001990002B00D00EE001217868FEF77FFC09E0FE
S2140019A002217868FEF77AFC04E003217868FEF7E7
S2140019B075FC00BF00BF0837BD4680BD80B582B04D
S2140019C000AF78607B681B7D022B09D0032B0CD000
S2140019D0012B00D00EE000217868FEF75FFC09E0DE
S2140019E001217868FEF75AFC04E002217868FEF7C9
S2140019F055FC00BF00BF0837BD4680BD80B483B02D
S214001A0000AF78607B6893F82030002B02D0012B63
S214001A1005D009E07B68012283F8202004E07B687B
S214001A20022283F8202000BF00BF0C37BD465DF8B9
S214001A30047B704780B483B000AF78607B6893F80F
S214001A402030012B02D0022B05D009E07B68002253
S214001A5083F8202004E07B68012283F8202000BF62
S214001A6000BF0C37BD465DF8047B704780B483B07A
S214001A7000AF78607B685B7D022B06D07B685B7D61
S214001A800133DAB27B685A7500E000BF00BF0C373E
S214001A90BD465DF8047B704780B483B000AF7860C5
S214001AA07B685B7D002B06D07B685B7D013BDAB2F2
S214001AB07B685A7500E000BF00BF0C37BD465DF876
S214001AC0047B704780B483B000AF78607B689B7DF2
S214001AD0022B06D07B689B7D0133DAB27B689A7551
S214001AE000E000BF00BF0C37BD465DF8047B7047C2
S214001AF080B483B000AF78607B689B7D002B06D0F7
S214001B007B689B7D013BDAB27B689A7500E000BF7C
S214001B1000BF0C37BD465DF8047B7047B0B592B089
S214001B2002AF0346FB71FB7907F10C010A22184647
S214001B300FF0EAFA234807F034F92349214808F061
S214001B402AF807F10C0207F11003302118460FF0AF
S214001B5015FB07F1100318460FF05BFB0546194B03
S214001B601B681B885B089BB21C4607F110031846CF
S214001B700FF04FFB0246134B93F824301946114BD7
S214001B8093F827300B4403FB02F35B08E31A18466E
S214001B900C4B1B685B885B089BB21A46094B93F894
S214001BA025305B08DBB2D31A07F110010022019240
S214001BB0009303462A46034807F086FF00BF4037D7
S214001BC0BD46B0BD0C0400203826010090B587B095
S214001BD002AF3C4684E80F000B4807F0E2F807F136
S214001BE020030FCB00F012F86A4607F1300393E8A3
S214001BF0030082E803003B460FCB00F021F900BF4C
S214001C001437BD4690BD00BF0C04002090B59DB0B3
S214001C1002AF3C4684E80F0005237B650523BB65C1
S214001C20844B1B681B885B089BB2FB65814B93F853
S214001C3025303B66D7ED027AF5EE407AF1EE10FAE3
S214001C401AD17C4B1B681B885B089BB20533DA0FE6
S214001C5013445B107B640523BB64764B1B681B88B0
S214001C605B089BB20533DA0F13445B10FB64714BC1
S214001C7093F825303B657AE0D7ED027AF5EEC07A28
S214001C80F1EE10FA3DDB6B4B1B681B885B089BB2C2
S214001C900533DA0F13445B107B640523BB64654B86
S214001CA01B681B885B089BB20533DA0F13445B1076
S214001CB007EE903AB8EEE77AD7ED026A5D4B1B68FE
S214001CC01B885B089BB219465A4B1B681B885B082F
S214001CD09BB20533DA0F13445B105B420B4407EEEE
S214001CE0903AF8EEE77A66EEA77A77EE277AFDEE78
S214001CF0E77A17EE903AFB644E4B93F825303B6537
S214001D0035E04C4B1B681B885B089BB20533DA0F2B
S214001D1013445B1007EE903AB8EEE77A454B1B6823
S214001D201B885B089BB20533DA0F13445B10053B38
S214001D3007EE903AF8EEE76AD7ED027A66EEA77AF3
S214001D4077EE277AFDEEE77A17EE903A7B64052366
S214001D50BB64384B1B681B885B089BB20533DA0FE5
S214001D6013445B10FB64334B93F825303B6507F157
S214001D70540319462F4807F0D5FC07F144031946CB
S214001D802C4807F045FD2C4A07F1100392E80300A3
S214001D9018600433198002330A0C1A7007F117030F
S214001DA02922002118460FF0E1F93B460FCB00F040
S214001DB0A3FA78667B6E07F140010A2218460FF0F8
S214001DC0A3F907F1400207F11003114618460FF079
S214001DD009FA1A49174807F0DEFE07F110031846FD
S214001DE00FF017FA134B1B681B88A3F1380207F194
S214001DF010010023019303230093134602460D4867
S214001E0007F062FE0B4B93F825305A00094B1B680F
S214001E101B881946074B93F825305B0000930B464A
S214001E204FF0FF31034807F066FB00BF6C37BD4636
S214001E3090BD00BF0C0400204C1C010018210100BE
S214001E4090B587B002AF3C4684E80F0097F8203084
S214001E50042B00F2B78001A252F823F0CF1E000038
S214001E607D1E0000711E0000211F0000731F000071
S214001E703B461946564807F055FCA4E03B68991CBB
S214001E807A683868FB6800930346514807F033FBCE
S214001E90BB68991C7A68B868FB68009303464C4890
S214001EA007F029FBB968FA683868FB6800930346B0
S214001EB0474807F020FBBB68991C7A683B68981C6B
S214001EC07B6800930346424807F015FB7BE03B68BF
S214001ED0191D7A683868FB68009303463C4807F08B
S214001EE00AFBBB68191D7A68B868FB68009303464E
S214001EF0374807F000FBB968FA683868FB68009353
S214001F000346334807F0F7FABB68191D7A683B6842
S214001F10181D7B68009303462D4807F0ECFA52E044
S214001F203B68991E7A683868FB6800930346284821
S214001F3007F0E1FABB68991E7A68B868FB680093F8
S214001F400346234807F0D7FAB968FA683868FB688A
S214001F50009303461E4807F0CEFABB68991E7A68BF
S214001F603B68981E7B6800930346194807F0C3FA3F
S214001F7029E03B68191F7A683868FB6800930346B7
S214001F80134807F0B8FABB68191F7A68B868FB6888
S214001F90009303460E4807F0AEFAB968FA68386848
S214001FA0FB68009303460A4807F0A5FABB68191FAA
S214001FB07A683B68181F7B6800930346044807F05E
S214001FC09AFA00E000BF00BF1437BD4690BD00BFC0
S214001FD00C04002080B483B000AF7860164B1B68FA
S214001FE01B885B089BB21A467B689B8F5B089BB27C
S214001FF01A447B689A65104B1B681B885B089BB26B
S2140020001A467B689B8F5B089BB2D21A7B681A6560
S214002010094B1B685B889A1E7B685A657B685B6DFC
S2140020207A68D28F9A1A7B68DA6500BF0C37BD468D
S2140020305DF8047B704700BF0C04002084B0B0B588
S214002040C8B002AF07F5947484E80F00002387F841
S21400205016313EE1002387F8173121E0D7F88C319E
S214002060196AD7F88C31DB8A1A4697F81731D018D8
S21400207097F8162113465B0013440344DB00CA1886
S21400208097F81731DB0007F58C710B44243B92E878
S214002090030083E8030097F81731013387F81731F8
S2140020A097F81731032BD9D93A1D07F1F4031146D7
S2140020B0184600F045F9002387F817312BE097F80B
S2140020C0171197F8162113469B0013445B00134420
S2140020D00B4410335B00D7F88C211344181D97F877
S2140020E017313A1DDB001344196897F817313A1D6B
S2140020F0DB00134404331B6800930B4607F5A072FD
S21400210006CA02F0E9FA0346002B09D197F8173100
S214002110013387F8173197F817310A2BCFD900E02B
S21400212000BF97F81731013BDBB287F81531C6E0E0
S21400213097F9151197F8162113469B0013445B0078
S21400214013440B44D7F88C2110335B0013441B79DF
S2140021501946674B1B681B88013B664A82FB0302D5
S214002160DB179B1AC81897F9151197F8162113460E
S2140021709B0013445B0013440B44D7F88C211033A8
S2140021805B0013445B791D4697F9151197F81621E5
S21400219013469B0013445B0013440B44013BD7F8E3
S2140021A08C2110335B0013441B791946504B1B6877
S2140021B01B88013B4F4A82FB0342DB179B1ACC1855
S2140021C097F9151197F8162113469B0013445B00E8
S2140021D013440B44013BD7F88C2110335B001344A7
S2140021E05B79009323462A460146414807F083F967
S2140021F097F9151197F8162113469B0013445B00B8
S21400220013440B44D7F88C2110335B0013441B791E
S2140022101946374B1B681B88013B364A82FB030274
S214002220DB17D31AC81897F9151197F81621134615
S2140022309B0013445B0013440B44D7F88C211033E7
S2140022405B0013445B791D4697F9151197F8162124
S21400225013469B0013445B0013440B44013BD7F822
S2140022608C2110335B0013441B791946204B1B68E6
S2140022701B88013B1F4A82FB0342DB17D31ACC188C
S21400228097F9151197F8162113469B0013445B0027
S21400229013440B44013BD7F88C2110335B001344E6
S2140022A05B79009323462A460146114807F023F936
S2140022B097F91531DBB2013BDBB287F8153197F998
S2140022C01531002B3FF734AF97F81631013387F8F6
S2140022D0163197F81631022B7FF6BCAE002318464F
S2140022E007F58C77BD46BDE8B04004B0704700BF28
S2140022F00C040020ABAAAA2A90B585B000AF3C46D5
S21400230084E80F003B6807EE903AF8EE677A17EE1F
S214002310900A0EF01BFB08A3D3E900230EF06EFB19
S21400232003460C46184621460EF040FE0346184665
S2140023301437BD4690BD00BFF7E978CC40E50140B4
S2140023402DE9B0438AB000AF786039604FF00003E3
S2140023504FF00004C7E904344FF000034FF00004C8
S214002360C7E902344FF000034FF00004C7E9083411
S2140023700023FB774FF000034FF00004C7E9083452
S214002380B4E1D7E908234FF00000D5490EF07EF9F6
S21400239003460C46184621464FF00002D14B0BF080
S2140023A083FC04460D467B681B6818460EF0CEFA82
S2140023B002460B46204629460EF020FB03460C46F6
S2140023C025461C464FF00002C64BD7E908010EF022
S2140023D015FB02460B4690469946D7E908234FF070
S2140023E00000BF490EF052F902460B461046194649
S2140023F04FF000024FF080430BF056FC02460B46AF
S214002400404649460EF0FAFA02460B469046994672
S2140024107B6808331B6818460EF098FA02460B468F
S214002420404649460EF0EAFA02460B462046294642
S2140024300EF02EF903460C4625461C464FF00002C9
S2140024404FF08043D7E908010BF02EFC4FF0000256
S214002450A44B0EF0D3FA02460B4690469946D7E9AF
S21400246008234FF000009E490EF010F902460B4676
S214002470404649460EF0C2FA02460B46904699463A
S2140024807B6810331B6818460EF060FA02460B464F
S214002490404649460EF0B2FA02460B46204629460A
S2140024A00EF0F6F803460C4625461C464FF0000292
S2140024B08C4BD7E908010BF0F7FB804689467B6812
S2140024C018331B6818460EF041FA02460B46404683
S2140024D049460EF093FA02460B46204629460EF071
S2140024E0D7F803460C46C7E90434D7E908234FF06B
S2140024F000007B490EF0CAF803460C4618462146F3
S2140025004FF00002774B0BF0CFFB04460D467B687E
S2140025105B6818460EF01AFA02460B462046294615
S2140025200EF06CFA03460C4625461C464FF0000299
S2140025306C4BD7E908010EF061FA02460B4690464E
S2140025409946D7E908234FF0000065490EF09EF83B
S21400255002460B46104619464FF000024FF08043E5
S2140025600BF0A2FB02460B46404649460EF046FAE2
S21400257002460B46904699467B6808335B681846C9
S2140025800EF0E4F902460B46404649460EF036FA8F
S21400259002460B46204629460EF07AF803460C46BD
S2140025A025461C464FF000024FF08043D7E908014D
S2140025B00BF07AFB4FF000024A4B0EF01FFA024671
S2140025C00B4690469946D7E908234FF00000444949
S2140025D00EF05CF802460B46404649460EF00EFAF0
S2140025E002460B46904699467B6810335B68184651
S2140025F00EF0ACF902460B46404649460EF0FEF990
S21400260002460B46204629460EF042F803460C4684
S21400261025461C464FF00002324BD7E908010BF066
S21400262043FB804689467B6818335B6818460EF085
S2140026308DF902460B46404649460EF0DFF9024643
S2140026400B46204629460EF023F803460C46C7E9FB
S21400265002344FF00002244BD7E904010EF018F8BC
S21400266003460C46184621460EF0A0FC0346D9B297
S214002670FB7FDB003A68134407EE901AF8EE677AA1
S214002680C3ED007A4FF00002174BD7E902010DF0B8
S214002690FFFF03460C46184621460EF087FC03460D
S2140026A0D9B2FB7FDB003A68134407EE901AF8EEC7
S2140026B0677AC3ED017AFB7F0133FB7706A3D3E984
S2140026C00023D7E908010DF0E3FF03460C46C7E9EF
S2140026D008340BE0AFF300809A9999999999B93F1D
S2140026E00000F03F000008400000E03F4FF000020E
S2140026F0064BD7E908010EF0FDFB0346002B7FF4DE
S21400270040AE00BF2837BD46BDE8B0830000F03FAE
S214002710F0B58FB002AF254B6FF07F425A60234B67
S21400272000229A60214806F03CFB21491F4807F02A
S21400273032FA3B461F4A302118460EF01FFD3B4634
S21400274018460EF066FD0646184B1B681B885B088D
S2140027509BB21C46154B93F824301A46134B93F83D
S214002760273013441D463B4618460EF052FD0346DE
S21400277003FB05F39B08E31A053318460B4B1B684F
S2140027805B885B089BB21A46084B93F825305B00C3
S214002790D31A394600220192009303463246034874
S2140027A007F092F900BF3437BD46F0BD0C04002098
S2140027B0482401007C1C0100F0B58FB002AF254B09
S2140027C000225A60234B6FF07F429A60214806F041
S2140027D0E8FA21491F4807F0DEF93B461F4A302138
S2140027E018460EF0CBFC3B4618460EF012FD064689
S2140027F0184B1B681B885B089BB21C46154B93F84E
S21400280024301A46134B93F8273013441D463B4694
S21400281018460EF0FEFC034603FB05F39B08E31A7E
S214002820053318460B4B1B685B885B089BB21A4641
S214002830084B93F825305B00D31A394600220192E4
S214002840009303463246034807F03EF900BF34378C
S214002850BD46F0BD0C040020482401007C1C01008D
S21400286084B0F0B591B002AF07F1500484E80F00D1
S214002870554B6FF07F425A60534B00229A60524885
S21400288006F08FFA5149504807F085F93B1D504A2B
S214002890302118460EF072FC3B1D18460EF0B9FCAF
S2140028A00646494B1B681B885B089BB21C46464B7A
S2140028B093F824301A46444B93F8273013441D46A9
S2140028C03B1D18460EF0A5FC034603FB05F35B080C
S2140028D0E31A1A46391D0023019305230093134675
S2140028E03246394807F0F0F8374B93F825305A004F
S2140028F0354B1B681B881946334B93F825305B0015
S21400290000930B464FF0FF312F4806F0F4FD314997
S2140029102D4807F040F93B1D2F4A302118460EF08F
S2140029202DFC3B1D18460EF074FC274B93F8253003
S2140029309B00391D0022019200930A23024622487A
S21400294007F0C2F83B1D254A302118460EF016FC4B
S2140029503B1D18460EF05DFC04461B4B1B681B888F
S214002960A3F13300184B93F825309B00391D002245
S2140029700192009303462246134807F0A5F8002369
S21400298087F8373013E097F837300133DAB297F824
S21400299037309B0007F150010B445B681946104620
S2140029A000F01EF897F83730013387F8373097F87D
S2140029B0503097F837209A42E5D300BF3C37BD46E3
S2140029C0BDE8F04004B070470C0400204824010025
S2140029D0881C010018210100941C01009C1C0100A9
S2140029E090B595B002AF03463960FB71FB7907F1ED
S2140029F014010A2218460EF087FB07F114032A4931
S214002A0018460EF0EFFB2949294807F0C4F807F1ED
S214002A10140207F11803302118460EF0AFFB07F139
S214002A20180318460EF0F5FBFB790533204A92F89A
S214002A30252002FB03F307F1180100220192009300
S214002A400A2302461A4807F03FF83B6807F10C01D4
S214002A500A2218460EF058FB07F10C0207F118037D
S214002A60302118460EF08AFB07F1180318460EF0C0
S214002A70D0FB04460E4B1B681B88A3F13300FB7982
S214002A8005330B4A92F8252002FB03F307F11801E1
S214002A9000220192009303462246054807F014F8E8
S214002AA000BF4C37BD4690BDA41C01001821010094
S214002AB00C04002080B485B000AF786039607B6875
S214002AC003F1C063FB60FB683A681A6000BF143706
S214002AD0BD465DF8047B704780B485B000AF786073
S214002AE039607B6803F18063FB60FB683A681A60B4
S214002AF000BF1437BD465DF8047B704780B582B0D2
S214002B0000AF03463960FB71FB79002B1CD0FB79C4
S214002B10012B19D0FB79022B16D0FB79032B13D08F
S214002B20FB79042B10D0FB79052B0DD0FB79062BF7
S214002B300AD0FB79072B07D0FB79082B04D0FB794A
S214002B40092B01D0FB790A2BFA7913465B00134454
S214002B501B010C3303F1804303F5204301213A683F
S214002B6001FA02F211461846FFF7B6FF00BF083713
S214002B70BD4680BD80B582B000AF03463960FB71AC
S214002B80FB79002B1CD0FB79012B19D0FB79022B8B
S214002B9016D0FB79032B13D0FB79042B10D0FB79CE
S214002BA0052B0DD0FB79062B0AD0FB79072B07D017
S214002BB0FB79082B04D0FB79092B01D0FB790A2B73
S214002BC0FA7913465B0013441B010C3303F1804370
S214002BD003F5204301213A6801FA02F2114618462D
S214002BE0FFF768FF00BF0837BD4680BD80B584B0DC
S214002BF000AF78604FF4FA73FB816423BB8100F06A
S214002C0003F9794B186800230022002107F02CFFF7
S214002C10764B1A78764B1A70734B1868002300228E
S214002C20002107F06BFD724B1B78052B00F2CD8060
S214002C3001A252F823F000BF512C0000512C0000D6
S214002C40972C0000B92C00003F2D0000852D0000B9
S214002C50684B1B78184600F0F5F8674B1B7818464B
S214002C6000F005F9634B1B7883F00103DBB2002B01
S214002C7014BF01230023DAB25E4B1A705E4B1B783A
S214002C8083F00103DBB2002B14BF01230023DAB26A
S214002C90594B1A7099E0574B00221A70564B002277
S214002CA01A70544B1B78184600F0CCF8524B1B7821
S214002CB0184600F0DCF888E0504B5B78002B03D019
S214002CC04C4B01221A7013E04C4B1B78002B0CD097
S214002CD0484B1B7883F00103DBB2002B14BF0123A3
S214002CE00023DAB2434B1A7002E0424B00221A70FD
S214002CF0424BDB78002B03D03F4B01221A7013E0C7
S214002D003E4B9B78002B0CD03B4B1B7883F001038B
S214002D10DBB2002B14BF01230023DAB2364B1A7045
S214002D2002E0354B00221A70324B1B78184600F032
S214002D3089F8314B1B78184600F099F845E0304B7F
S214002D401B78012B09D02B4B00221A702A4B01222C
S214002D501A702B4B01221A7009E0264B01221A70BA
S214002D60254B00221A70264B00221A7000BF214BFA
S214002D701B78184600F066F81F4B1B78184600F0C4
S214002D8076F822E01F4B1B78012B09D0194B002246
S214002D901A70194B00221A701A4B01221A7009E099
S214002DA0144B01221A70144B01221A70154B002284
S214002DB01A7000BF0F4B1B78184600F043F80E4BF6
S214002DC01B78184600F053F800BF094B1B78042BFD
S214002DD004D1BB89184608F049FA12E7FB89184661
S214002DE008F044FA0DE700BFE09600205E040020DD
S214002DF0590400205A0400205B040020C4960020DA
S214002E005C0400205D04002080B500AF01210C4862
S214002E1002F0F8F90021052003F03EFC002304220E
S214002E200421052003F078FC0021052003F034FC83
S214002E30002304220521052003F06EFC00BF80BDA0
S214002E4000350A0080B582B000AF0346FB71FB79FF
S214002E50002B04D004210520FFF78CFE03E004219C
S214002E600520FFF74BFE00BF0837BD4680BD80B586
S214002E7082B000AF0346FB71FB79002B04D005211E
S214002E800520FFF777FE03E005210520FFF736FE55
S214002E9000BF0837BD4680BD80B400AF044BDB6C76
S214002EA01B0EDBB21846BD465DF8047B704700BFBC
S214002EB0B081E00F80B582B000AF164B01225A6495
S214002EC0FFF7EAFF0346FB71FB79002B0CD1124B90
S214002ED04AF6E8521A60114B1B68104A43F0040386
S214002EE013600D4B00221A60FB79012B05D80C4BA2
S214002EF01B680B4A43F4005313600A4B1B6A23F407
S214002F004413084A43F48813136200BF0837BD46CB
S214002F1080BD00BF00000E4090310E4098310E403C
S214002F2064310E4000400E4080B582B002AFFFF71D
S214002F30C1FFFDF74DF901F0E5FA3C48FDF764F9ED
S214002F403B48FDF71DFA3B48FDF72BFA3A48FDF7DC
S214002F503CFA3A480DF0B2FA0AF0F6FC03220021D9
S214002F60012007F03AFB0246354B1A60012007F0B5
S214002F70ACFB0246334B1A60012007F0A6FB024664
S214002F80314B1A60012007F0A0FB02462F4B1A6057
S214002F90012007F09AFB02462D4B1A60012007F02D
S214002FA094FB02462B4B1A60012007F08EFB02466C
S214002FB0294B1A60294B01930423009300236422B3
S214002FC02749284808F00FF8274B01930123009360
S214002FD000234FF4AF722549254808F004F8002373
S214002FE00193022300930023C8222249224807F0B7
S214002FF0FAFF00230193022300930023C8221F49EF
S2140030001F4807F0F0FF1F4B019301230093002396
S214003010C8221D491D4807F0E6FF1A4B1B681846D4
S21400302008F0B6F908F0C2FAFEE700BF6096002086
S214003030CC960020F4960020589700205C9700203D
S214003040FC960020E8960020E4960020E0960020FB
S214003050EC960020DC960020C89600205C960020A7
S214003060A81C0100ED2B000058960020B01C0100A3
S21400307015070000BC1C0100A9350000C81C010093
S214003080F1030000F0960020D41C0100C9300000B7
S21400309080B483B000AF4FF0A00383F31188BFF372
S2140030A06F8FBFF34F8F7B60FEE780B485B000AFB5
S2140030B0786039604FF0A00383F31188BFF36F8FF9
S2140030C0BFF34F8FFB60FEE7B0B5A0B01AAF7860D5
S2140030D03223BB827E4800F019F97E4B1868002325
S2140030E00A22002107F0C0FC7B4B1A787B4B1A7033
S2140030F0784B186800230022002107F0FFFA774B70
S2140031001B78042B05D1724800F000F9744B00229E
S2140031101A70744B186800230A22002107F0A4FCDA
S2140031200346002B5ED0704B1B7D002B53D06F4B9D
S214003130186800230A22002107F096FC0346002B9D
S21400314049D0694B93F82730802B05D9664BDB8A2C
S21400315001339AB2644BDA820023FB7531E0152303
S214003160FB74FB7D604A10335B0013441B791A46E0
S214003170FB7C1344FB60FB7D5B4A10335B0013440F
S2140031801B791A46FB7CD31ABB60594B9B6DFA68B9
S2140031909A4207DA574B186800230322564908F06C
S2140031A0D7FF0BE0524B1B6DBA689A4206DD514BB7
S2140031B0186800230322504908F0CAFFFB7D01333C
S2140031C0FB75FB7D052BCAD9484B186800230022E7
S2140031D0002107F093FA434B1868002300220021D1
S2140031E007F08CFA454B186800230A22002107F0E6
S2140031F03BFC434B1B78022B3ED0424B1868002307
S2140032000A22002107F030FC3F4B1B6818460DF0E1
S2140032107BFB4FF000024FF000030DF07FFE0346ED
S214003220002B22D0314B186800230A22002107F019
S2140032301BFC2F4C344B15AD0FCB85E80F006846B2
S21400324004F11003542219460DF085FF94E80F0090
S21400325000F0CAF803461A46214B1A70234B18682A
S21400326000230022002107F049FA264B18680023A5
S2140032700022002107F042FA204B186800230022A3
S214003280002107F03BFA164B1B78012B04D0022BCB
S2140032900ED0002B11D015E002210D4800F04CF89E
S2140032A0144B186800230322134908F051FF09E065
S2140032B00021074800F040F804E00021044800F030
S2140032C067F800BFBB8A184607F0D0FF05E700BFC7
S2140032D0C4960020E09600205E04002060040020D3
S2140032E061040020C896002000970020DC9600208D
S2140032F0609600205896002021436587E4960020BB
S214003300F4960020E8960020CC96002080B483B087
S21400331000AF78607B6800221A707B6800225A70C3
S2140033207B6800229A707B680022DA7000BF0C3738
S214003330BD465DF8047B704780B483B000AF78600C
S2140033400B46FB70FB78032B1AD801A252F823F029
S21400335061330000693300007133000079330000E8
S2140033607B6801221A700CE07B6801229A7008E0E4
S2140033707B6801225A7004E07B680122DA7000E064
S21400338000BF00BF0C37BD465DF8047B704700BF2A
S21400339080B483B000AF78600B46FB70FB78032BDD
S2140033A01AD801A252F823F0B9330000C133000046
S2140033B0C9330000D13300007B6800221A700CE08D
S2140033C07B6800229A7008E07B6800225A7004E04E
S2140033D07B680022DA7000E000BF00BF0C37BD46F5
S2140033E05DF8047B704700BF84B0B0B582B000AF14
S2140033F007F1180484E80F00FB6F18460DF084FAF6
S2140034004FF000024FF080430AF04EFC04460D4693
S214003410B7F8583018460DF087FA02460B46204695
S21400342029460DF015FC03460C46184621464FF07B
S21400343000022B4B0DF00CFC03460C4618462146AA
S2140034404FF000024FF080430AF02EFC03460C4675
S214003450184621460DF0CAFD03467B6078680DF0DD
S21400346075FA03460C46184621460AF0BBFD03468D
S2140034700C46184621460DF0B9FD03467B60D7ED95
S214003480147A97ED017AB4EEE77AF1EE10FA01DBE2
S214003490012319E078680DF059FA04460D463B6D95
S2140034A018460DF053FA0CA3D3E900230DF0A6FA44
S2140034B002460B46204629460DF026FD0346002B05
S2140034C001D0022300E0002318460837BD46BDE8B9
S2140034D0B04004B0704700BF333333333333EB3F71
S2140034E00000E03F80B485B000AF786039607B684C
S2140034F003F10473DA003B6813449B00FB60FB682F
S2140035001B6818461437BD465DF8047B70470000FC
S21400351080B483B000AF7860044A7B68C2F8243475
S21400352000BF0C37BD465DF8047B704700A0004026
S21400353080B582B000AF03463960FB71FB79002B83
S2140035401CD0FB79012B19D0FB79022B16D0FB7906
S214003550032B13D0FB79042B10D0FB79052B0DD051
S214003560FB79062B0AD0FB79072B07D0FB79082BB3
S21400357004D0FB79092B01D0FB790A2BFA79134684
S2140035805B0013441B011C3303F1804303F5204307
S21400359039681846FFF7A6FF034618460837BD46A3
S2140035A080BD00000000000090B59FB016AF7860A8
S2140035B03223FB77FB7F4FF47A7202FB03F3B04AA9
S2140035C082FB03129211DB17D31ABB83C8237B83BB
S2140035D04FF47A733B8300F005FF398BA94B0093B9
S2140035E000230022A84808F017FF0246A74B1A60DF
S2140035F0A74B0093002300224FF47A71A54808F0E9
S2140036000BFF0246A44B1A60A44B00930023002233
S2140036104FF49671A24808F0FFFE0246A14B1A60CE
S21400362000F0FEFE03461A469F4B1A7000F015FF88
S21400363003461A469D4B1A709D4B186800230022BD
S214003640002107F011FA9B4B1A789B4B1A70984B87
S214003650186800230022002107F050F8974B1868DE
S21400366000230022002107F0FFF9954B1A78954BAE
S2140036701A70924B186800230022002107F03EF8CB
S2140036808D4B1B78052B00F2D08201A252F823F056
S2140036902B3C0000A93600002B3C0000113800002F
S2140036A02B3C00007D3B00007F4B1A787F4B1B783D
S2140036B01946104600F0EEFE0346032B00F2A680E5
S2140036C001A252F823F000BFE3370000D93600000D
S2140036D07F370000B13700007B4B01221A706E4B1B
S2140036E01B68184609F0B4F90346002B0CD16A4B48
S2140036F01C6808F047F803461A460A23009300237E
S2140037000221204608F0D8FE704B186800230022DD
S214003710002107F0A9F96E4B18680023002200214B
S21400372007F0A2F96B4C684604F1100354221946C0
S2140037300DF011FD94E80F0000F0E2FD0246654B27
S2140037405A63644C684604F11003542219460DF07F
S21400375002FD94E80F0000F0FBFD02465D4B9A6305
S2140037605B4B186800230022002106F0C7FF574B6A
S214003770186800230022002106F0C0FF47E0464BF1
S2140037801B68184609F064F90346012B08D1424B22
S21400379018680A23009300230022032108F08CFEF9
S2140037A04D4B186800230322AA2108F0D1FC2EE016
S2140037B0394B1B68184609F04BF90346012B08D114
S2140037C0354B18680A23009300230022032108F0D3
S2140037D073FE414B186800230322552108F0B8FCFD
S2140037E015E02D4B1B68184609F032F90346012BED
S2140037F008D1294B18680A230093002300220321CE
S21400380008F05AFE304B00221A7000E000BF0CE2AF
S214003810244B1B68184609F01BF90346002B0CD1F5
S214003820204B1C6807F0AEFF03461A460A23009397
S21400383000230121204608F03FFE1B4B1A781B4B45
S2140038401B781946104600F025FE0346022B45D08D
S214003850032B00F0A180012B40F0F5801A4B0122CB
S2140038601A700A4B1C6807F08DFF03461A460A2397
S214003870009300230221204608F01EFEECE000BF65
S214003880D34D62106D3C0000E01C01006404002073
S214003890C53C0000F01C010068040020353D000017
S2140038A0001D01006C04002070040020710400203C
S2140038B0E09600205E04002072040020EC960020B3
S2140038C05F0400207304002074040020DC960020AF
S2140038D0E89600206096002058960020984B1B78AB
S2140038E0002B08D0974B18680A2300930023002269
S2140038F0032108F0E1FD944B1B78012B00F0A78014
S214003900924B186800230A22002107F0ADF8034600
S214003910012B40F09E808E4B9B6818460DF016F8E3
S21400392085A3D3E900230CF0B3FE03460C461846E5
S21400393021464FF00002874B0DF0DCFA0346002BC1
S21400394013D0834B9B6818460DF000F87AA3D3E992
S21400395000230CF09DFE03460C46184621460DF04B
S21400396045FB02467A4B9A6003E0794B4FF07E5255
S2140039709A60774BD3ED027AF5EEC07AF1EE10FA44
S21400398002DB734B00221A73704B18680023002268
S214003990002106F0B3FE5CE0694B1B78002B08D0D4
S2140039A0684B18680A23009300230022032108F0BE
S2140039B083FD664B186800230A22002107F054F89E
S2140039C00346012B47D1624B9B6818460CF0BEFF9E
S2140039D059A3D3E900230CF059FE03460C461846BB
S2140039E021464FF000025C4B0DF08EFA0346002B8A
S2140039F013D0574B9B6818460CF0A8FF4EA3D3E98C
S214003A0000230CF043FE03460C46184621460DF0F4
S214003A10EDFA02464E4B9A6002E04D4B4F4A9A60D2
S214003A204B4BD3ED027AF5EEC07AF1EE10FA02D5E2
S214003A30474B01221A73454B1868002300220021C9
S214003A4006F05CFE07E03E4B00221A7004E000BF62
S214003A5002E000BF00E000BF3C4B186800230A22CB
S214003A60002107F001F83A4B1B687B61374B18685A
S214003A7000230022002106F041FE394B186800237F
S214003A800A22002106F0F0FF364B186800230A22AF
S214003A90002106F0E9FF344B344A00920CCB7969DA
S214003AA0334800F06BFA2E4B1868002300220021E2
S214003AB006F024FE2F4B186800230A22002106F089
S214003AC0D3FF2D4B1A6A2C4BDB8ADB00134493ED95
S214003AD0007A294B1A6A284BDB8A0133DB00134431
S214003AE0D3ED007A77EE677AC7ED047A224B1A6A2E
S214003AF0214BDB8ADB00134493ED017A1E4B1A6AD6
S214003B001D4BDB8A0133DB001344D3ED017A77EEDD
S214003B10677AC7ED037A134B18680023002200214A
S214003B2006F0ECFD134B186800230022002106F077
S214003B30E5FD7AE0AFF300809A9999999999A93FA3
S214003B40740400206404002073040020E89600201B
S214003B50CC9600200000F03F0000F0BF000080BFC1
S214003B60E4960020DC960020F4960020CDCC4C3D58
S214003B7060960020C896002000970020324B1868F8
S214003B8000230A22002106F06FFF304B4FF00002A0
S214003B909A602E4B00221A732C4B00225A602B4B35
S214003BA000221A60284B186800230022002106F025
S214003BB0A5FD274B186800230A22002106F054FFB3
S214003BC0244B4FF000021A66214B1868002300228F
S214003BD0002106F093FD204B1A78204B1B781946DF
S214003BE0104600F057FC0346012B18D11C4B01224F
S214003BF01A701C4B1B68184608F02AFF0346002B59
S214003C0011D1184B1C6807F0BDFD03461A460A235F
S214003C10009300230221204608F04EFC03E0104BE0
S214003C2000221A7000E000BF00BF0F4B1B78012B6C
S214003C3004D17B8B184607F019FBF1E4BB8B1846C2
S214003C4007F014FBECE400BFE8960020CC960020BA
S214003C50DC9600206096002070040020710400208E
S214003C6074040020680400207204002080B582B02E
S214003C7000AF7860114B186800230A22002106F076
S214003C80F3FE0346012B15D10D4B1B78012B03D1F8
S214003C900B4B00221A7006E0094B1B78002B02D152
S214003CA0074B01221A70054B1868002300220021DA
S214003CB006F024FD00BF0837BD4680BDEC96002008
S214003CC05F04002080B584B000AF7860144B18689D
S214003CD000230022002106F0C7FE124B1B78FB7360
S214003CE00F4B186800230022002106F007FDFB7B1F
S214003CF0012B07D10C4B1868002303220B4908F050
S214003D0027FA09E0FB7B052B06D1074B1868002332
S214003D100322074908F01CFA00BF1037BD4680BDD5
S214003D20E09600205E04002058960020F0DEBC0AD4
S214003D30B1CAED0FB0B59CB01AAF7860254B1868C5
S214003D4000230A22002106F08FFE234B186800236A
S214003D500A22002106F088FE204B214A0192DA68EA
S214003D6000920ECB1F4800F01BFB1E4C1B4B15ADE4
S214003D700FCB85E80F00684604F11003542219465D
S214003D800DF0E9F994E80F0000F02EF807EE900A1F
S214003D90FCEEE77A17EE902A104B1A600F4B1A6863
S214003DA00E4B5B689A4203D90C4B1B680B4A536058
S214003DB0084B186800230022002106F09FFC064BE3
S214003DC0186800230022002106F098FC00BF083780
S214003DD0BD46B0BDDC960020E8960020CC960020BC
S214003DE09A99993E6096002084B02DE9F043A1B0E0
S214003DF01AAF07F1380686E80F0097ED297AD7ED57
S214003E00207A67EE277AC7ED037A15AE07F19C0392
S214003E100FCB86E80F00684607F148035422194680
S214003E200DF099F907F138030FCB00F013FA0346AB
S214003E30BB66BB6E7B61D7F89C30002B08D0D7EDF5
S214003E401C7A97ED057A77EE277AC7ED057A07E0B4
S214003E50D7ED1B7A97ED057A77EE277AC7ED057AC8
S214003E6097F8A830002B07D0D7ED217A97ED057A82
S214003E7077EE277AC7ED057AD7F89C3007EE903AAA
S214003E80F8EE677A97ED057A67EE277AC7ED057A3A
S214003E90394BBB604FF000033B6197ED037AD7EDDB
S214003EA0057A37EE677AD7ED1F7A77EEA76AD7EDF1
S214003EB0027A66EEA77AC7EE276A16EE900A0CF02C
S214003EC045FD02460B46C7E900234FF000024FF0BF
S214003ED00003D7E900010DF021F80346002B14D0AB
S214003EE0D7E900010AF07EF803460C46184621463C
S214003EF00DF07CF803463B6197ED047AD7ED027A25
S214003F0067EE277AC7ED047A22E0D7ED027AF1EE63
S214003F10677A17EE903A18460CF018FD80468946E8
S214003F203C687B6883F00045204629460AF05AF82C
S214003F3003460C461A462346404649460CF05EFDAC
S214003F4003460C46184621460DF050F803463B61E2
S214003F50D7F89C3007EE903AF8EE677A97ED047A39
S214003F6077EE277AC7ED047A3B6918461C37BD46BC
S214003F70BDE8F04304B070479A99993EB0B58CB04E
S214003F8000AFF860B960394681E80C00AC4BFB61C5
S214003F904FF00003FB624FF00003BB627B687B625E
S214003FA0D7ED097A9FEDA77AF4EEC77AF1EE10FA0C
S214003FB008D8D7ED097AF5EEC07AF1EE10FA01DBF3
S214003FC0012300E00023002B09D14FF0A00383F368
S214003FD01188BFF36F8FBFF34F8FBB61FEE70023DF
S214003FE087F82330D7ED017AF5EEC07AF1EE10FAB5
S214003FF008DBD7ED017A9FED947AF4EEC77AF1EEFE
S21400400010FA08D9D7ED017A9FED8E7AF4EE477A4A
S214004010F1EE10FA03D1012387F8233058E0D7EDEC
S214004020017A9FED897AF4EEC77AF1EE10FA14DD84
S214004030D7ED017A9FED857AF4EEC77AF1EE10FAA5
S2140040400BD8022387F82330D7ED097A9FED7E7AC6
S21400405077EEC77AC7ED097A3AE0D7ED017A9FED99
S2140040607B7AF4EEC77AF1EE10FA14DDD7ED017A1A
S2140040709FED777AF4EEC77AF1EE10FA0BD80323A9
S21400408087F82330D7ED097A9FED707A77EEC77AF6
S214004090C7ED097A1CE0D7ED017A9FED6D7AF4EE54
S2140040A0C77AF1EE10FA13DDD7ED017A9FED657A47
S2140040B0F4EEC77AF1EE10FA0AD5042387F8233017
S2140040C0D7ED097A9FED627A77EEC77AC7ED097A5F
S2140040D097ED097AD7ED077A27EE277ADFED5B6A48
S2140040E0C7EE267AC7ED097ABB6807EE903AB8EEB7
S2140040F0677AD7ED107A67EE277A17EE900A0CF0FB
S21400410025FC04460D46786A0CF020FC02460B4659
S2140041101046194609F032FD02460B46204629464F
S2140041200CF06CFC03460C46184621460CF05EFF6D
S2140041300346FB62BB6807EE903AB8EE677AD7EDA7
S214004140107A67EE277A17EE900A0CF0FFFB04460B
S2140041500D46786A0CF0FAFB02460B4610461946E6
S21400416009F0C0FC02460B46204629460CF046FCE9
S21400417003460C46184621460CF038FF0346BB6241
S21400418097F82330013B032B25D801A252F823F0E1
S214004190A1410000AF410000C9410000EB41000012
S2140041A0D7ED0B7AF1EE677AC7ED0B7A1EE0D7ED06
S2140041B00B7AF1EE677AC7ED0B7AD7ED0A7AF1EE55
S2140041C0677AC7ED0A7A11E0D7ED0A7AF1EE677AD8
S2140041D0C7ED0A7A0AE04FF0A00383F31188BFF315
S2140041E06F8FBFF34F8F7B61FEE700BFFB6893EDD9
S2140041F0067AD7ED0B7A77EE277AFB68C3ED067A58
S214004200FB6893ED077AD7ED0A7A77EE277AFB6894
S214004210C3ED077AFB6893ED187ABB6807EE903A11
S214004220F8EE676AD7ED107A66EEA77A77EE277A09
S214004230FB68C3ED187A00BF3037BD46B0BD00BF7F
S214004240C3F548400000B4430000B44200003443C5
S2140042500000874384B0B0B582B000AF07F1180401
S21400426084E80F00B7F85A3007EE903AB8EEE77ACF
S214004270D7ED117A67EE277AC7ED017AFB6F1846FD
S2140042800CF042FB4FF000024FF0804309F00CFDAB
S21400429004460D4678680CF059FB02460B4620464D
S2140042A029460CF0F5F903460C46184621460CF054
S2140042B09DFE03467B6078680CF048FB4FF0333277
S2140042C00E4B0CF09BFB03460C46184621464FF05F
S2140042D000024FF080430CF0BBFC03460C46184629
S2140042E021460CF083FE03467B607B681846083741
S2140042F0BD46BDE8B04004B0704700BF3333F33F5F
S21400430084B098B500AF07F1100484E80F0097ED6D
S2140043100D7AD7ED157A67EE277A17EE900A0CF02D
S21400432015FB09A3D3E900230CF068FB03460C46F3
S214004330184621460CF05AFE03461846BD46BDE810
S214004340984004B0704700BF1F85EB51B89E2340CD
S21400435084B098B500AF07F1100484E80F0097ED1D
S2140043600E7AD7ED157A67EE277A17EE900A0CF0DC
S214004370EDFA09A3D3E900230CF040FB03460C46F4
S214004380184621460CF032FE03461846BD46BDE8E8
S214004390984004B0704700BF1F85EB51B89E23407D
S2140043A084B080B483B000AF786007F1140080E872
S2140043B00E007B6893ED187A7B6907EE903AF8EE6C
S2140043C0676AD7ED097A66EEA77A77EE277A7B6872
S2140043D0C3ED187A00BF0C37BD465DF8047B04B009
S2140043E07047000080B500AF01210C4800F00AFFBE
S2140043F00021052002F050F90023012206210520A5
S21400440002F08AF90021052002F046F90023012275
S2140044100721052002F080F900BF80BD00350A00A4
S21400442080B582B000AF06210520FFF781F803466D
S214004430002B0CBF01230023DBB27B607B68002BC4
S21400444001D1002305E07B68002B01D0012300E0AA
S214004450012318460837BD4680BD80B582B000AF40
S21400446007210520FFF764F80346002B0CBF012345
S2140044700023DBB27B607B68002B01D1002305E0C4
S2140044807B68002B01D0012300E001231846083783
S214004490BD4680BD80B483B000AF03460A46FB71BC
S2140044A01346BB71FB79012B04D1BB79012B01D1DB
S2140044B0012310E0FB79012B04D1BB79002B01D13D
S2140044C0022308E0FB79002B04D1BB79012B01D134
S2140044D0032300E0002318460C37BD465DF8047B36
S2140044E0704780B500AF45F25550FFF711F800BF92
S2140044F080BD80B500AF4AF6AA20FFF709F800BFD6
S21400450080BD000080B500AF2E492F480CF079FE24
S2140045102D4B4B221A832C4B1B8B1A4613469B00A3
S21400452013445B001A46284BDA61274B0122DA82D5
S214004530254B264A1A62264926480CF062FE254B71
S21400454011221A83234B1B8B1A4613469B001344D7
S2140045505B001A461F4BDA611E4B0022DA821D4BA7
S2140045601D4A1A621D491E480CF04BFE1C4B1122B8
S2140045701A831B4B1B8B1A4613469B0013445B0087
S2140045801A46174BDA61164B0022DA82144B124A8F
S2140045901A62144914480CF034FE134B32221A8364
S2140045A0114B1B8B1A4613469B0013445B001A469E
S2140045B00D4BDA610C4B0022DA820B4B034A1A626F
S2140045C000BF80BD141D0100780400205C000020A0
S2140045D0201D0100D0040020B4020020301D010080
S2140045E028050020381D01008005002080B584B015
S2140045F000AF78600B46FB70FB78032B4ED801A209
S21400460052F823F0154600003746000059460000D1
S2140046107B4600007B682C4A1846114658231A46EB
S2140046200CF099FD7B68186A274B1B6A0422194612
S2140046300CF091FD44E07B68244A18461146582346
S2140046401A460CF088FD7B68186A204B1B6A042209
S21400465019460CF080FD33E07B681D4A184611466B
S21400466058231A460CF077FD7B68186A184B1B6AAD
S214004670042219460CF06FFD22E07B68154A1846A6
S214004680114658231A460CF066FD7B68186A114BD3
S2140046901B6A042219460CF05EFD11E07B680A4A8C
S2140046A01846114658231A460CF055FD4FF0A00345
S2140046B083F31188BFF36F8FBFF34F8FFB60FEE766
S2140046C000BF1037BD4680BD78040020D00400200F
S2140046D0280500208005002090B58DB000AF7861D9
S2140046E007F10C0080E80600BB60D7ED037A97ED73
S2140046F0027A77EE677AC7ED087AD7ED047A97EDF7
S214004700107A77EE677AC7ED097A97ED087ADFEDCB
S214004710436AC7EE267AC7ED067A97ED097ADFED8B
S2140047203F6AC7EE267AC7ED077ABB6918460CF0D3
S2140047300DF94FF000023A4B0BF0AAFF03460C4669
S214004740184621464FF00002364B0CF057F9034648
S2140047500C46184621460CF049FC0346FB62D7ED92
S214004760077A9FED317A67EE877A17EE900A0CF09B
S214004770EDF803460C461846214609F0FBF90346B9
S2140047800C461A4623464FF0000026490BF07EFFE3
S21400479003460C46184621460CF028FC0346BB622E
S2140047A0D7ED0B7AFCEEE77AC7ED017A3B79DAB201
S2140047B07B691A70D7ED0A7AFCEEE77AC7ED017AC4
S2140047C03B79DAB27B695A70D7ED0B7A9FED177A90
S2140047D0F4EEC77AF1EE10FA08DCD7ED0A7A9FED10
S2140047E0137AF4EEC77AF1EE10FA01DD012310E039
S2140047F0D7ED0B7AF5EEC07AF1EE10FA06D4D7EDC7
S2140048000A7AF5EEC07AF1EE10FA01D5012300E03F
S214004810002318463437BD4690BD00BF0000204236
S2140048200000E03F000060400000004300000A4334
S21400483084B090B58FB000AF07F1480484E80F004D
S2140048408B4B3B63BB6E1B687B61BB6E5B68BB615F
S214004850BB6E08331B68FB60BB6E08335B683B614E
S2140048607B697B60D7ED067AB2EE047A77EE877ABC
S214004870C7ED027AF86839697A68BB6800F002F911
S21400488007EE900AFCEEE77A17EE903AFB6278693C
S214004890B9697A68BB6800F0F5F807EE900AFCEE96
S2140048A0E77A17EE903ABB627869B9697A68BB68AE
S2140048B000F0E8F807EE900AFCEEE77A17EE903A7A
S2140048C07B62B86A0CF020F803460C461846214670
S2140048D009F088FB03460C46184621460CF086FB7A
S2140048E003463B62786A0CF00FF803460C461846FF
S2140048F0214609F077FB03460C46184621460CF085
S21400490075FB0346FB6197ED057AD7ED037AB4EEA7
S214004910677AF1EE10FA03D14FF000037B633CE0B8
S21400492097ED067AD7ED047AB4EE677AF1EE10FAD0
S21400493002D1504B7B6330E0BA6A7B6A1A44FB6A4A
S214004940D31A07EE903AB8EE677AD7ED087A77EE84
S214004950A76AD7ED077A66EEA77AC7EE276A16EE3D
S214004960900A0BF0F3FF03460C461846214609F062
S21400497049F903460C46184621460CF037FB034619
S2140049807B63D7ED0D7A9FED3C7A67EE876A97EDED
S2140049900C7AC6EE877AC7ED0D7ABB6E083393EDB8
S2140049A0007ABB6ED3ED007AB4EEE77AF1EE10FA39
S2140049B014DDBB6E083393ED017ABB6ED3ED017A3E
S2140049C0B4EEE77AF1EE10FA08DDD7ED0D7A9FED3A
S2140049D02B7A77EE877AC7ED0D7A40E0BB6E083308
S2140049E093ED007ABB6ED3ED007AB4EEE77AF1EE83
S2140049F010FA14DDBB6E083393ED017ABB6ED3ED6F
S214004A00017AB4EEE77AF1EE10FA08D5D7ED0D7A12
S214004A109FED197A77EE877AC7ED0D7A1FE0BB6EA9
S214004A20083393ED007ABB6ED3ED007AB4EEE77AE6
S214004A30F1EE10FA13D5BB6E083393ED017ABB6E18
S214004A40D3ED017AB4EEE77AF1EE10FA07D5D7ED9A
S214004A500D7A9FED0B7A77EE877AC7ED0D7A7B6B32
S214004A6018463C37BD46BDE8904004B0704700BFCE
S214004A70C3F548400000B4420000344300008743BA
S214004A800000B44280B487B000AFF860B9607A60C6
S214004A903B6097ED037AD7ED017A77EE677AC7ED3C
S214004AA0057A97ED027AD7ED007A77EE677AC7ED4A
S214004AB0047A97ED057AD7ED057A27EE277AD7EDB3
S214004AC0046AD7ED047A66EEA77A77EE277A17EEB1
S214004AD0903A18461C37BD465DF8047B704780B494
S214004AE087B000AFF860B9607A60FB6803F10473C2
S214004AF0DA00BB6813449B007B617B697A681A60A6
S214004B0000BF1C37BD465DF8047B704780B485B097
S214004B1000AF786039607B6803F1C063FB60FB68B8
S214004B203A681A6000BF1437BD465DF8047B7047CC
S214004B3080B485B000AF786039607B6803F180632D
S214004B40FB60FB683A681A6000BF1437BD465DF824
S214004B50047B704780B584B000AFF860B9607A60B7
S214004B60B968F868FFF7E4FF7968F868FFF7CEFFE2
S214004B7000BF1037BD4680BD80B582B000AF7860FC
S214004B8039607B68B3F1804F02D07B68194A934244
S214004B9000BF3B681B78DB071A463B685B681B0652
S214004BA0134343F400427B681A603B68DB681B04CF
S214004BB03A68127A1A437B689A623B681B691B0440
S214004BC03A68527A1A437B68DA623B689B7A1B071C
S214004BD043F0806343F47D437A68536078683B68AB
S214004BE01B7D1A460021FFF77AFF00BF0837BD4637
S214004BF080BD00BF0004004080B582B000AF786082
S214004C000B46FB707B68B3F1804F02D07B68074A87
S214004C10934200BF7B680433FA78FF211846FFF7FB
S214004C2099FF00BF0837BD4680BD00BF00040040A6
S214004C3080B483B000AF78607B68B3F1804F02D059
S214004C407B68074A934200BF7B681B6823F001021B
S214004C507B681A6000BF0C37BD465DF8047B704762
S214004C600004004080B483B000AF78607B68B3F186
S214004C70804F02D07B68074A934200BF7B681B6860
S214004C8043F001027B681A6000BF0C37BD465DF832
S214004C90047B70470004004080B487B000AFF86023
S214004CA0B9607A60FB6803F10473DA00BB681344EA
S214004CB09B007B617B697A681A6000BF1C37BD4623
S214004CC05DF8047B704780B485B000AF78603960CB
S214004CD07B6803F10473DA003B6813449B00FB60B7
S214004CE0FB681B6818461437BD465DF8047B7047A2
S214004CF080B483B000AF786001227B6802FA03F3C9
S214004D0018460C37BD465DF8047B704780B582B008
S214004D1000AF78607868FFF7EBFF03461846083761
S214004D20BD4680BD80B584B000AF78607B68013337
S214004D30B3FA83F3DBB2C3F11F03FB60F868FFF737
S214004D40D7FFFB6818461037BD4680BD80B500AF5C
S214004D5000BF12210348FFF7B6FF0346002BF8D129
S214004D6000BF80BD04300E4080B500AFFFF7EEFFF9
S214004D70034B5B681B0C03F00303DBB2184680BDD5
S214004D8000300E4080B584B000AF78600123FB6031
S214004D907B68124A934204D80023FB600023BB6062
S214004DA008E07B680E4A934202D80123BB6001E00C
S214004DB00223BB60FA6810210A48FFF76DFF094B13
S214004DC0D3F8003123F08072BB681B0605491343F5
S214004DD0C1F8003100BF1037BD4680BD0048E8016D
S214004DE00090D00300400E4080B483B000AF054B67
S214004DF01B687B607B6818460C37BD465DF8047BF5
S214004E00704700BF3C03002080B582B000AF08F0BA
S214004E10F1FD7860064BD3F800311B0A03F01F0340
S214004E2001337A6802FB03F318460837BD4680BD97
S214004E3000400E4080B582B000AF0D4800F03CFD4B
S214004E400346FB70FB78072B05D0092B07D108F02B
S214004E50D1FD786006E0FFF7C7FF786002E0002328
S214004E607B6000BF7B6818460837BD4680BD00BF24
S214004E7006000E0080B584B000AF78607B68002B1B
S214004E801CD11B4800F018FD0346FB7200BFFB7ADE
S214004E90013B072B23D801A252F823F0C14E000095
S214004EA0DF4E0000DF4E0000CF4E0000DF4E000059
S214004EB0DF4E0000C74E0000D74E0000002312E071
S214004EC00023FB600EE0FFF78FFFF8600AE008F0B3
S214004ED0C9FDF86006E0FFF797FFF86002E00023E0
S214004EE0FB6000BFFB6818461037BD4680BD00BF9C
S214004EF0B800320080B485B000AF786039601E4BD1
S214004F005B6803F04073FB600023BB6012E01B4A43
S214004F10BB68DB0013441A793B68DBB29A4206D1C1
S214004F20164ABB6852F833307A689A4206D9BB688C
S214004F300133BB60BB68042BE9D900E000BFBB6847
S214004F40052B02D10323FB6005E00C4ABB68DB009F
S214004F5013445B79FB60FB681B06FB60064B5B68D3
S214004F6023F040720449FB6813434B6000BF1437BC
S214004F70BD465DF8047B704700000E40441D0100EE
S214004F8080B582B000AF0E4B1B6C002B14BF012304
S214004F900023FB710A4B41F671321A6408F020FDBB
S214004FA0034600211846FFF7A5FFFB79002B02D029
S214004FB0034B00221A6400BF0837BD4680BD00BF01
S214004FC000000E4080B584B000AF786039600C4BAE
S214004FD01B6C002B14BF01230023FB73084B41F608
S214004FE071321A6439687868FFF784FFFB7B002B00
S214004FF002D0034B00221A6400BF1037BD4680BDA6
S21400500000000E4080B487B000AF78600F237B614D
S2140050107B6803333B617B69FB60FA683B699342BC
S21400502028BF1346BB60BB681B07BB60BB6818463F
S2140050301C37BD465DF8047B7047000080B400AFA7
S214005040044B5B6A1B0903F003031846BD465DF874
S214005050047B704700400E4080B483B000AF786099
S214005060074B5B6A23F030027B681B01044913433D
S2140050704B6200BF0C37BD465DF8047B704700BF2F
S21400508000400E4090B585B000AF78600023BB604E
S2140050907B68354A934206D0344A934203D0344A5A
S2140050A0934200D000E000BF786800F005FC03469D
S2140050B0FB607B682C4A93420DD02C4A934211D059
S2140050C02B4A934200D014E02A4BD3F8803003F0EA
S2140050D00703FB600DE0274BD3F8843003F007038B
S2140050E0FB6006E0234BD3F8883003F00703FB6031
S2140050F000BFFB68042B2ED801A252F823F000BF95
S21400510051510000155100001D5100002D510000A6
S2140051102551000008F0C8FCB8601FE008F0D6FC77
S214005120B8601BE008F0C9FCB86017E008F038FC6F
S2140051300446104BD3F800311B0E03F00103013375
S2140051401846FFF7E3FD0346B4FBF3F3BB6005E048
S2140051500023BB6002E00023BB6000BFBB681846AC
S2140051601437BD4690BD00BF030020000500240094
S21400517002001E0000400E4080B483B000AF78608E
S2140051800A4BD3F8443103F00103002B08D100BFCB
S214005190064BD3F840217B681340002BF8D100E083
S2140051A000BF0C37BD465DF8047B704700400E40DC
S2140051B080B400AF00BFBD465DF8047B704780B486
S2140051C000AF00BFBD465DF8047B704780B582B077
S2140051D000AF7860786800F081F90346013318461E
S2140051E00837BD4680BD80B582B000AF78603960B4
S2140051F03B68013B1946786800F032FA00BF083772
S214005200BD4680BD80B586B000AF78600B46FB70AB
S21400521000233B617B681B0A03F00F03013B092B4D
S21400522044D801A252F823F0515200005D5200000B
S214005230AD520000AD52000057520000635200000D
S2140052406D520000AD5200007752000083520000FD
S214005250184B7B6118E0184B7B6115E0174B7B61A0
S21400526012E0174B7B6101233B610DE0154B7B6120
S21400527010233B6108E0144B7B614FF480333B61A5
S21400528002E0124B7B6100BF7B681B0B03F01F0321
S214005290FB603B69002B02D03869FFF76DFFFB7897
S2140052A01A46F9687869FFF7F7FC00E000BF183780
S2140052B0BD4680BD00400E40B0400E40C0400E408F
S2140052C0E0400E40E8400E40F0400E4050410E4098
S2140052D080B584B000AF78607B6803F47813B3F5CC
S2140052E0A01F7DD0B3F5A01F1AD8B3F5202F50D03D
S2140052F0B3F5202F08D8B3F5003F4ED0B3F5802F76
S21400530038D0002B32D0D8E0B3F5602F00F0C8803C
S214005310B3F5801F00F0C880B3F5402F4CD0CCE02A
S214005320B3F5001F00F08B80B3F5001F0AD8B3F565
S214005330D01F00F08980B3F5F01F4CD0B3F5B01F36
S2140053405CD0BAE0B3F5381F6AD0B3F5381F04D87E
S214005350B3F5101F00F09F80AFE0B3F5401F00F0DC
S2140053608680B3F5481F00F0A380A6E008F042FB55
S214005370F860A5E008F03EFBF860544BD3F80C311B
S2140053801B0AC3F308030133FA68B2FBF3F3FB60AE
S21400539096E008F02FFBF86092E008F02BFBF86030
S2140053A04A4BD3F808311B0AC3F308030133FA68E3
S2140053B0B2FBF3F3FB6083E008F01CFBF860434BA2
S2140053C0D3F814311B0A03F01F030133FA68B2FB4B
S2140053D0F3F3FB6074E03E48FFF754FEF8606FE0BE
S2140053E03C48FFF74FFEF860384BD3F8303103F0F7
S2140053F00303FA6822FA03F3FB6061E03448FFF720
S21400540041FEF860314BD3F8203103F00F03184605
S214005410FFF77CFC0246FB68B3FBF2F3FB604FE051
S2140054202B48FFF72FFEF860284BD3F820311B09D6
S21400543003F00303FA6822FA03F3FB6040E0264811
S214005440FFF720FEF8603BE02348FFF71BFEF860FE
S2140054501E4BD3F828311B0903F003031846FFF749
S21400546055FC0246FB68B3FBF2F3FB6028E01A48E3
S214005470FFF708FEF860154BD3F828311B0A03F037
S214005480030304331846FFF741FC0246FB68B3FBF0
S214005490F2F3FB6014E00F48FFF7F4FDF8600FE04E
S2140054A0FFF7C8FCF8600BE0FFF79EFCF86007E02B
S2140054B00020FFF7DFFCF86002E00023FB6000BF7F
S2140054C0FB6818461037BD4680BD00BF00400E4042
S2140054D002001E00050024000300200080B584B0F2
S2140054E000AF78607B681B0903F00F03BB60BB68E6
S2140054F0013B092B00F2A08001A252F823F000BF66
S214005500295500003955000049550000595500003E
S21400551039560000395600006955000079550000DC
S214005520C75500001B560000474BD3F800311B0A36
S21400553003F01F03FB6082E0434BD3F814311B0AD1
S21400554003F01F03FB607AE03F4BD3F800311B0EDD
S21400555003F00103FB6072E03B4BD3F80C311B0AEF
S214005560C3F30803FB606AE0374BD3F808311B0A25
S214005570C3F30803FB6062E07B68344A934203D0BF
S214005580334A93420DD01AE02F4BD3F8203103F064
S2140055900F03FB60F868FFF7B9FB0346013BFB60AF
S2140055A010E0294BD3F820311B0903F00303FB60FE
S2140055B0F868FFF7ABFB0346013BFB6002E0002305
S2140055C0FB6000BF3BE07B68224A934203D0224A3E
S2140055D093420ED01DE01C4BD3F828311B0903F074
S2140055E00303FB60F868FFF791FB0346013BFB6093
S2140055F012E0154BD3F828311B0A03F00303FB60B7
S214005600FB6804331846FFF781FB0346013BFB604B
S21400561002E00023FB6000BF11E07B680F4A934264
S21400562006D1094BD3F8303103F00303FB6002E0E8
S2140056300023FB6000BF02E00023FB6000BFFB68A6
S21400564018461037BD4680BD00400E408006160046
S21400565080162E0090171A0090273000A00914001C
S21400566080B584B000AF786039607B681B0903F0B2
S2140056700F03FB60FB68013B092B00F2078101A2C8
S21400568052F823F0AD560000F95600008D58000081
S214005690115700008D5800008D5800002D5700004F
S2140056A075570000F557000063580000FFF768FCC8
S2140056B07948FFF767FBFFF77BFD784BD3F800319F
S2140056C023F4F8523B681B0274491343C1F80031B7
S2140056D008F066F9B860FFF747FB03461946B86856
S2140056E0FFF770FC6E48FFF7F3FD03461846FFF71A
S2140056F049FBFFF764FDCAE0684BD3F8143123F486
S214005700F8523B681B0265491343C1F81431BEE0EA
S214005710624BD3F80C3123F4FF3323F480733A68DA
S21400572012025E491343C1F80C31B0E0FFF728FCC3
S2140057305948FFF727FB594BD3F8083123F4FF33BA
S21400574023F480733A68120254491343C1F80831AF
S21400575008F026F9B860FFF707FB03461946B86855
S214005760FFF730FC4E48FFF7B3FD03461846FFF739
S21400577009FB8CE07B684B4A934215D04A4A934219
S21400578024D04A4A934200D033E04FF48020FFF7FB
S214005790F3FC424BD3F8303123F003023F493B6819
S2140057A01343C1F8303124E03868FFF7BBFA38609D
S2140057B00420FFF7E1FC394BD3F8203123F00F0229
S2140057C036493B681343C1F8203112E03868FFF7CA
S2140057D0A9FA38600420FFF7CFFC304BD3F820310D
S2140057E023F030023B681B012C491343C1F82031DB
S2140057F000BF4CE07B682E4A934203D02D4A93426A
S21400580013D02DE03868FFF78DFA38604020FFF798
S214005810B3FC224BD3F8283123F030023B681B013F
S2140058201E491343C1F828311AE03B687F2B02D883
S2140058303B680E2B00BF3868FFF774FA0346043B3C
S2140058403B604020FFF798FC144BD3F8283123F434
S21400585040723B681B0211491343C1F8283100BF50
S21400586015E07B68114A934200D00EE04FF480208A
S214005870FFF782FC094BD3F8303123F003020749C7
S2140058803B681343C1F8303100BF00E000BF00BFE3
S2140058901037BD4680BD00BF0148E80100400E40FD
S2140058A000250A008006160080162E00A0091400A7
S2140058B090171A009027300080B485B000AF78604B
