:100000000000042051CC00007DCC00007DCC00001D
:100010007DCC00007DCC00007DCC00007DCC0000BC
:100020007DCC00007DCC00007DCC000091920000D2
:100030007DCC00007CCC0000A1940000099500005C
:100040007DCC00007DCC00007DCC00007DCC00008C
:100050007DCC00007DCC00007DCC00007DCC00007C
:100060007DCC00007DCC0000373B0000D5BD0000FA
:100070007DCC00007DCC00007DCC00007DCC00005C
:100080007DCC00007DCC0000473B00007DCC000013
:100090007DCC00007DCC00007DCC00007DCC00003C
:1000A0007DCC00007DCC00007DCC00007DCC00002C
:1000B0007DCC00007DCC00007DCC00007DCC00001C
:1000C0007DCC00007DCC00007DCC00007DCC00000C
:1000D0007DCC00007DCC00007DCC00007DCC0000FC
:1000E0007DCC00007DCC00007DCC00007DCC0000EC
:1000F0007DCC00007DCC00007DCC00007DCC0000DC
:100100007DCC00007DCC00007DCC000010B5054CFE
:10011000237833B9044B13B10448AFF300800123B3
:10012000237010BD440100200000000008030100FE
:1001300008B5034B1BB103490348AFF3008008BD6A
:10014000000000004801002008030100154B002BAF
:1001500008BF134B9D46A3F5803A00218B460F46FE
:100160001348144A121A0EF08FFD0F4B002B00D0CB
:1001700098470E4B002B00D0984700200021040028
:100180000D000D48002802D00C48AFF300800EF09F
:1001900025FD2000290002F05FFC0EF00BFD00BFE2
:1001A0000000080000000420000000000000000023
:1001B000440100209884002000000000000000009E
:1001C00080B500AF04F066FF0346184680BD00000E
:1001D00080B500AF01220121032004F0F9FF074898
:1001E00004F064FFFFF7ECFF0121054804F032F949
:1001F0000121044804F02EF900BF80BD80D54302E0
:100200004041050000250A0080B582B000AF78604B
:100210007B6800221A757B68194918460EF07FFD2D
:100220007B6800225A757B6800229A757B680022E1
:100230001A767B6800221A767B684FF07E52DA616C
:100240007B68104A1A627B680F4ADA637B680A226D
:100250009A867B681222DA867B680A221A877B6874
:100260000A4A1A647B6802225A877B68084A5A62E3
:100270007B6800221A6500BF0837BD4680BD00BFFD
:100280002CF600004260653C00A0CD44000ECE4735
:100290001F856B3EB0B584B000AF78600B46FB7035
:1002A0007B68FA781A75FB78032B47D801A252F8BD
:1002B00023F000BFC5020000E302000001030000BC
:1002C0001F0300007B68244918460EF028FD7B6858
:1002D000224A03F1340415460FCD0FC42B68236066
:1002E00036E07B681E4918460EF019FD7B681D4AF2
:1002F00003F1340415460FCD0FC42B68236027E0AB
:100300007B68194918460EF00AFD7B68174A03F10D
:10031000340415460FCD0FC42B68236018E07B68AA
:10032000134918460EF0FBFC7B68124A03F13404B3
:1003300015460FCD0FC42B68236009E04FF0A003D2
:1003400083F31188BFF36F8FBFF34F8FFB60FEE71E
:1003500000BF1037BD46B0BD2CF6000000000020E5
:1003600034F60000140000203CF6000028000020B5
:1003700048F600003C00002080B483B000AF7860F5
:100380007B684FF000029A607B6800221A6000BF11
:100390000C37BD465DF8047B704780B483B000AF76
:1003A00078607B6802221A707B6800225A707B6832
:1003B00000229A7000BF0C37BD465DF8047B704781
:1003C00080B483B000AF78607B6800221A707B68CD
:1003D00000225A707B6800229A7000BF0C37BD461D
:1003E0005DF8047B7047000080B584B000AF786092
:1003F0003223BB810223FB730BF0AAFD00F0BAF895
:1004000003461A46534B1A70534B186800230A22AE
:10041000002109F077FC514B1A78514B1A704E4B62
:10042000186800230022002109F09EFA4C4B1B782B
:10043000052B00F2898001A252F823F04905000043
:1004400055040000490500009B0400001905000048
:10045000490500003F4B1A78424B1B789A421AD04C
:100460003C4B1A783F4B1A703A4B1B78012B02D049
:10047000042B08D010E03C4B186800230322AD2168
:100480000AF0C8FF08E0384B186800230322DE2179
:100490000AF0C0FF00E000BF56E02E4B1B78013B86
:1004A000032B1FD801A252F823F000BFBD040000A7
:1004B000C7040000D1040000DB0400000023FB732C
:1004C000C423BB7313E00123FB73E223BB730EE071
:1004D0000323FB731E23BB7309E00423FB733C233C
:1004E000BB7304E00223FB730023BB7300BF1F4BED
:1004F000186800230A22002109F004FC1C4AFB7B37
:100500001370BA7B1A4B9A70184B1868002300229C
:10051000002109F029FA17E0144B186800230A2279
:10052000002109F0EFFB124B02221A70104B00223F
:100530005A700F4B00229A700C4B1868002300224F
:10054000002109F011FA00BFBB8918460AF002F831
:1005500054E700BF6001002060830020CF0100202D
:100560006101002062010020E882002064830020F5
:100570007483002090B583B000AF4FF0804003F04B
:1005800099FC0BF0BBFC0023FB710023BB7119E04D
:10059000BC79BB7918460BF05BFC03461A4607F1A1
:1005A0000803234403F8082CBB7907F1080213441D
:1005B00013F8083C002B02D0FB790133FB71BB79A7
:1005C0000133BB71BB79032BE2D94FF0804003F0BC
:1005D00057FCFB79002B02D0FB79012B01D90023BA
:1005E00015E00023BB710EE0BB7907F1080213444C
:1005F00013F8083C002B03D0BB790133DBB206E0D3
:10060000BB790133BB71BB79032BEDD900231846AD
:100610000C37BD4690BD0000F0B5ADB01EAF7860A0
:10062000AD4B1B681B885B089AB2AC4B1A800BF071
:10063000EFFC78637B6B002B09D04FF0A00383F3B2
:100640001188BFF36F8FBFF34F8F3B62FEE700202F
:1006500007F046F978637B6B002B09D04FF0A003BD
:1006600083F31188BFF36F8FBFF34F8FFB61FEE7FA
:10067000994807F02BFC78637B6B002B09D04FF077
:10068000A00383F31188BFF36F8FBFF34F8FBB615C
:10069000FEE7914B6FF07F425A608F4B00229A60C9
:1006A0008F4B19888F4B0093002300228E480BF04C
:1006B00023F802468D4B1A60894B19888C4B0093A6
:1006C000002300228B480BF017F802468A4B1A6071
:1006D0008A4B19888A4B00930023002289480BF02B
:1006E0000BF80246884B1A60884B186800230A22D0
:1006F000002109F007FB864B1A78864B1A70834B52
:10070000186800230022002109F02EF9814B1B7884
:10071000052B00F2B48301A252F823F03507000044
:100720006B070000AB0A0000350B0000D50C000081
:10073000D50D000000F02EFC07F022FB6B4B1B6870
:1007400018460BF0F5FA0346002B40F09183674BF7
:100750001C680AF04FF903461A460A230093002347
:10076000012120460BF018F882E3604B1B68184605
:100770000BF0DEFA0346012B08D15C4B18680A2304
:1007800000930023002203210BF006F8624B1B7834
:1007900083F00103DBB2002B28D0604B18680023E4
:1007A0000A22002109F0AEFA5D4B1B785D4C1293D2
:1007B0005D4A11AB1188927819809A70684604F1ED
:1007C0001003442219460EF054FA94E80F0000F08A
:1007D000AFFE524B186800230022002109F0C4F834
:1007E00007F0CEFA4C4B01221A7048E307F11402CD
:1007F0004FF6FF734FF0FF314FF0FF300AF0A6FDC8
:100800007B69AD2B00F02181AD2B06D8552B00F074
:10081000C280AA2B00F0948031E3DE2B00F0E6804A
:10082000424A934200D02AE33C4B186800230A2234
:10083000002109F067FA3B4C3D4B1193684604F1E7
:100840001003442219460EF014FA94E80F0001F048
:10085000D9FB214B1B681B885B089AB2314B9B8EDE
:100860005B089BB2D31A9AB21C4B1A802B4B1868A8
:1008700000230022002109F077F82E4B186800238E
:100880000A22002109F03EFA2B4B274A1188927860
:1008900019809A70244B1B781946284803F0ECF90C
:1008A000244B186800230022002109F05DF8174B43
:1008B000186800230A22002109F024FA144B0222AE
:1008C0001A70124B186800230022002109F04CF81E
:1008D000114B00221A70E7E070010020AC010020EB
:1008E00050000020FD0E00004CF6000064010020C6
:1008F000450F00005CF60000680100205200002057
:100900006D0F00006CF600006C0100206083002079
:10091000CF010020AE010020AF0100205C83002049
:1009200054000020F08200209C830020F0DEBC0AEE
:100930009C01002048830020B00100207C8300201F
:10094000904800F079FE904B186800230A2200219D
:1009500009F0D8F98B4B1B788C4C12938C4A11AB55
:100960001268114619800233120C1A70684604F19D
:100970001003442219460EF07CF994E80F0000F0B1
:10098000D7FD814B186800230022002108F0ECFFFE
:1009900007F0F6F988E07B4800F07AFE7A4B186899
:1009A00000230A22002109F0ADF9764B1B78774C21
:1009B0001293774A11AB1268114619800233120C58
:1009C0001A70684604F11003442219460EF051F9DA
:1009D00094E80F0000F0ACFD6B4B18680023002278
:1009E000002108F0C1FF07F0CBF95DE0664B186805
:1009F00000230A22002109F085F9624B1B78644A22
:100A00006249184600F070FE5E4B1B785F4C1293F3
:100A10005F4A11AB1268114619800233120C1A702A
:100A2000684604F11003442219460EF022F994E8B6
:100A30000F0000F07DFD544B1868002300220021B8
:100A400008F092FF07F09CF92EE04F4B1868002346
:100A50000A22002109F056F94A4B1B784C4A4B49AF
:100A6000184600F071FE474B1B78484C1293484AD9
:100A700011AB1268114619800233120C1A706846C5
:100A800004F11003442219460EF0F3F894E80F0025
:100A900000F04EFD3C4B186800230022002108F0B6
:100AA00063FF07F06DF900BFE9E13A4B1B78013BAA
:100AB000DBB2184600F06EFF07F062F9354B1B7889
:100AC000013BDAB2334B1A70324B1B78002B40F0EB
:100AD000D181304B04221A702F4B186800230A2250
:100AE000002109F00FF92D4B03221A702B4B1A78B5
:100AF0002B4B1A70284B186800230022002108F0A5
:100B000033FF284B186800230A22002109F0FAF865
:100B1000254B00229A82234B1868002300220021D3
:100B200008F022FF214B1B68184609F0FFFD0DF06D
:100B30000FFB9FE107F1100200234FF0FF314FF050
:100B4000FF300AF003FC0346012B33D13B69184AFE
:100B5000934240F09181104B186800230A22002133
:100B600009F0D0F80D4B04221A700C4B1A780C4B7C
:100B70001A70094B186800230022002108F0F4FEC7
:100B80007AE100BF540000205C830020F082002046
:100B9000B00100205500002060830020CF0100201C
:100BA000AE010020488300207C8300207083002059
:100BB00021436587BA4B186800230522002109F0FC
:100BC000A1F8B84AB84B14460FCB84E80F00B44BD9
:100BD000186800230022002108F0C6FEB34B1868F5
:100BE00000230522002109F08DF8B14BB14A11888C
:100BF000927819809A70AD4B18680023002200216A
:100C000008F0B2FEAC4CAA4A04AB12681146198037
:100C10000233120C1A70A34B6D460FCB85E80F0000
:100C200094E80F0000F00EFFA44B18680023052283
:100C3000002109F067F8A24B186800230522002163
:100C400009F060F89F4E974B19AC0FCB84E80F006A
:100C50009D4B11AC1D460FCD0FC495E80F0084E8E5
:100C60000F00684606F11003442219460EF001F801
:100C700096E80F0001F0ECF9034687F827308F4B18
:100C8000186800230022002108F06EFE8C4B1868C3
:100C900000230022002108F067FE97F82730002B80
:100CA00014D08A4B186800230A22002109F02AF880
:100CB000874B04221A70864B1A78864B1A70834B26
:100CC000186800230022002108F04EFE07F058F8B3
:100CD00000BFD4E00DF058FA7F4B1B78002B05D0F5
:100CE00001F002FB7C4B00221A7004E001F0A8FA2C
:100CF000794B01221A7007F043F8784B1B681846AD
:100D00000BF016F80346002B0CD1744B1C6809F04D
:100D100071FE03461A460A2300930023022120464F
:100D20000AF03AFD07F10C0200234FF0FF314FF0BB
:100D3000FF300AF00BFB0346012B40F09F80FB685D
:100D4000674A934240F09A80554B18680023052269
:100D5000002108F0D7FF544B5B683B63504B186889
:100D600000230022002108F0FFFD554B18680023E6
:100D70000522002108F0C6FF524B1B6DFB62504B51
:100D8000186800230022002108F0EEFD0DF00EFA95
:100D900003461A46F96A386B0DF0B8F9B862B96AB9
:100DA00050480DF073F9494B186800230A220021BE
:100DB00008F0A8FF464B05221A70454B1A78454BA0
:100DC0001A70424B186800230022002108F0CCFD65
:100DD00000BF53E0434E6D4606F110040FCC0FC523
:100DE00094E8070085E8070096E80F0001F0D0FAC4
:100DF00006F0C6FF3C4B1B6818460AF099FF0346F5
:100E0000002B0CD1384B1C6809F0F4FD03461A4640
:100E10000A2300930023022120460AF0BDFC07F1BB
:100E200008024FF6FF734FF0FF314FF0FF300AF02A
:100E30008DFABB682D4A934221D1244B18680023B8
:100E40000A22002108F05EFF214B00221A70204B7D
:100E50001A78204B1A701D4B1868002300220021BD
:100E600008F082FD224B1B6818460AF085FB06E05D
:100E700000BF04E000BF02E000BF00E000BF154B70
:100E80001B78022B05D11B4B1B88184609F062FB0F
:100E90002AE4194B1B88184609F05CFB24E400BFC8
:100EA00068830020B40100204C830020648300206C
:100EB000C4010020748300209C010020488300208E
:100EC0005C830020F08200207C830020608300206F
:100ED000CF010020AE010020C701002068010020E2
:100EE00078563412A08300206C010020B1CAED0FA7
:100EF000E8820020560000205800002080B582B013
:100F000000AF78600D4B186800230A22002108F01A
:100F1000F9FE0346012B0DD1094B1B78002B02D1A2
:100F2000074B01221A70054B18680023002200218C
:100F300008F01AFD00BF0837BD4680BD6083002061
:100F4000CF01002080B582B000AF7860054B1868F3
:100F50000023032204490AF05DFA00BF0837BD46AA
:100F600080BD00BFE88200207856341280B582B080
:100F700000AF7860054B18680023032204490AF08B
:100F800049FA00BF0837BD4680BD00BFE882002097
:100F9000B1CAED0FF0B58FB002AF374807F029F8AE
:100FA0003649354807F01FFF3B46354A3021184681
:100FB0000DF072FE3B4618460DF0B9FE06462E4B6C
:100FC0001B681B885B089BB21C462B4B93F8243094
:100FD0001A46294B93F8273013441D463B461846C2
:100FE0000DF0A5FE034603FB05F35B08E31A1A4662
:100FF00039460023019305230093134632461E48C9
:1010000007F08AFE3B461F4A302118460DF044FE89
:101010003B4618460DF08BFE0646174B1B681B8897
:101020005B089BB21C46144B93F824301A46124BB3
:1010300093F8273013441D463B4618460DF077FEC3
:10104000034603FB05F35B08E31A18460A4B93F8C3
:1010500025301A4613465B001344053339460022F7
:101060000192009303463246034807F055FE00BF45
:101070003437BD46F0BD00BF7001002058FF0000AE
:101080007CF6000088F6000090B591B002AF0346F0
:10109000FB713549354807F0A6FE07F10803344ACD
:1010A000302118460DF0F8FD07F1080318460DF041
:1010B0003EFE2E4B93F825309B0007F108010022DD
:1010C000019200930A230246284807F025FEFB7987
:1010D000032B2BD801A252F823F000BFED10000023
:1010E000FD1000000D1100001D11000007F10803A4
:1010F000204A302118460DF0CFFD17E007F1080314
:101100001D4A302118460DF0C7FD0FE007F1080316
:101110001A4A302118460DF0BFFD07E007F1080319
:10112000174A302118460DF0B7FD00BF07F108033C
:1011300018460DF0FCFD04460C4B1B681B88A3F100
:1011400033000A4B93F825309B0007F10801002279
:101150000192009303462246044807F0DDFD00BFDC
:101160003C37BD4690BD00BF28FC00007001002048
:1011700094F600009CF60000A4F60000ACF6000017
:10118000B4F6000090B591B002AF0346FB71374949
:10119000374807F028FE07F10803364A3021184681
:1011A0000DF07AFD07F1080318460DF0C0FD304B35
:1011B00093F825301A4613469B00134407F10801A3
:1011C0000022019200930A230246294807F0A4FD59
:1011D000FB79032B2AD801A252F823F0ED1100006D
:1011E000FD1100000D1200001D12000007F10803A0
:1011F000214A302118460DF04FFD17E007F1080392
:101200001E4A302118460DF047FD0FE007F1080394
:101210001B4A302118460DF03FFD07E007F1080397
:10122000184A302118460DF037FD00BF07F10803BA
:1012300018460DF07CFD04460D4B1B681B88A3F17E
:1012400033000B4B93F825301A4613469B0013448A
:1012500007F1080100220192009303462246044848
:1012600007F05AFD00BF3C37BD4690BD28FC00008A
:1012700070010020C4F60000D0F60000D8F600008F
:10128000E0F60000ECF6000090B591B002AF034626
:10129000FB713249324807F0A6FD07F10803314AD5
:1012A000302118460DF0F8FC07F1080318460DF040
:1012B0003EFD2B4B93F825301A4613465B00134432
:1012C0005B001A4607F108010023019300920A23EC
:1012D0000246234807F020FDFB79012B0BD0022B9F
:1012E00011D0002B17D107F108031F4A30211846EF
:1012F0000DF0D2FC0FE007F108031C4A302118461C
:101300000DF0CAFC07E007F10803194A302118461E
:101310000DF0C2FC00BF07F1080318460DF007FDF1
:1013200004460F4B1B681B88A3F133000C4B93F84A
:1013300025301A4613465B0013445B001A4607F13A
:10134000080100230193009203462246044807F057
:10135000E3FC00BF3C37BD4690BD00BF28FC000049
:1013600070010020F0F60000FCF6000004F7000019
:101370000CF7000090B591B002AF0346FB71304905
:10138000304807F030FD07F108032F4A3021184696
:101390000DF082FC07F1080318460DF0C8FC294B3C
:1013A00093F825301A461346DB009B1A07F1080113
:1013B0000022019200930A230246224807F0ACFC67
:1013C000FB79012B0BD0022B11D0002B17D107F189
:1013D00008031E4A302118460DF05EFC0FE007F1AD
:1013E00008031B4A302118460DF056FC07E007F1B0
:1013F0000803184A302118460DF04EFC00BF07F1D3
:10140000080318460DF093FC04460E4B1B681B881E
:10141000A3F133000B4B93F825301A461346DB003B
:101420009B1A07F10801002201920093034622460D
:10143000044807F071FC00BF3C37BD4690BD00BFBB
:1014400028FC00007001002014F7000020F70000C5
:1014500028F700000CF7000090B591B002AF0346EA
:10146000FB712D492D4807F0BEFC07F108032C4AFB
:10147000302118460DF010FC07F1080318460DF056
:1014800056FC264B93F82530DB0007F108010022BB
:10149000019200930A230246204807F03DFCFB79A5
:1014A000012B0BD0022B11D0002B17D107F1080311
:1014B0001C4A302118460DF0EFFB0FE007F108033E
:1014C000194A302118460DF0E7FB07E007F1080341
:1014D000164A302118460DF0DFFB00BF07F1080364
:1014E00018460DF024FC04460C4B1B681B88A3F126
:1014F00033000A4B93F82530DB0007F10801002286
:101500000192009303462246044807F005FC00BF01
:101510003C37BD4690BD00BF28FC00007001002094
:1015200030F7000038F7000040F7000048F70000EF
:1015300084B0F0B58FB002AF07F1480484E80F0023
:101540003A4806F056FD3A49384807F04CFC3B460D
:10155000384A302118460DF09FFB3B4618460DF0E7
:10156000E6FB0646314B1B681B885B089BB21C469A
:101570002E4B93F824301A462C4B93F82730134403
:101580001D463B4618460DF0D2FB034603FB05F310
:101590005B08E31A1A46394600230193052300939A
:1015A00013463246214807F0B7FB204B93F825300D
:1015B0005A001E4B1B681B8819461C4B93F825309C
:1015C0005B0000930B464FF0FF31184807F0BBF863
:1015D00097F8A030154A92F8252002FB03F3DA1C95
:1015E00002230321114806F0FEFD97F89C301846AF
:1015F000FFF74AFD97F85C301846FFF7C3FD97F8F0
:1016000060301846FFF740FE97F85D301846FFF748
:10161000B1FE97F85E301846FFF71EFF00BF343763
:10162000BD46BDE8F04004B0704700BF7001002027
:1016300058FF000050F7000080B483B000AF78601E
:101640007B681B78043B032B1AD801A252F823F0C5
:10165000611600006916000071160000791600007E
:101660007B6805221A700CE07B6806221A7008E07D
:101670007B6807221A7004E07B6808221A7000E079
:1016800000BF00BF0C37BD465DF8047B704700BF4C
:1016900080B483B000AF78607B681B78053B032B78
:1016A0001AD801A252F823F0B9160000C1160000A2
:1016B000C9160000D11600007B6804221A700CE0E5
:1016C0007B6805221A7008E07B6806221A7004E025
:1016D0007B6807221A7000E000BF00BF0C37BD46D0
:1016E0005DF8047B704700BF80B584B000AF03464F
:1016F000B9607A60FB73FB7B043B042B20D801A20A
:1017000052F823F0191700002117000029170000D4
:101710003117000039170000786800F045F80FE035
:10172000B86800F06DF80BE0B86800F0A9F807E0C1
:10173000B86800F0D7F803E0B86800F0FFF800BF21
:1017400000BF1037BD4680BD80B584B000AF0346F2
:10175000B9607A60FB73FB7B043B042B20D801A2A9
:1017600052F823F079170000811700008917000054
:101770009117000099170000786800F02BF80FE02F
:10178000B86800F05DF80BE0B86800F092F807E088
:10179000B86800F0BDF803E0B86800F0E5F800BFF5
:1017A00000BF1037BD4680BD80B483B000AF786005
:1017B0007B681B78032B06D07B681B780133DAB279
:1017C0007B681A7000E000BF00BF0C37BD465DF8B3
:1017D000047B704780B483B000AF78607B681B786F
:1017E000002B06D07B681B78013BDAB27B681A704D
:1017F00000E000BF00BF0C37BD465DF8047B7047BA
:1018000080B582B000AF78607B681B7D012B09D06A
:10181000022B0CD0002B00D00EE001217868FEF7DF
:1018200039FD09E002217868FEF734FD04E0032168
:101830007868FEF72FFD00BF00BF0837BD4680BDAA
:1018400080B582B000AF78607B681B7D022B09D029
:10185000032B0CD0012B00D00EE000217868FEF79E
:1018600019FD09E001217868FEF714FD04E002216A
:101870007868FEF70FFD00BF00BF0837BD4680BD8A
:1018800080B483B000AF78607B681B7E002B02D0F1
:10189000012B04D007E07B6801221A7603E07B6805
:1018A00002221A7600BF00BF0C37BD465DF8047BEC
:1018B000704780B483B000AF78607B681B7E012BDB
:1018C00002D0022B04D007E07B6800221A7603E0E6
:1018D0007B6801221A7600BF00BF0C37BD465DF859
:1018E000047B704780B483B000AF78607B685B7D19
:1018F000022B06D07B685B7D0133DAB27B685A75B8
:1019000000E000BF00BF0C37BD465DF8047B7047A8
:1019100080B483B000AF78607B685B7D002B06D01D
:101920007B685B7D013BDAB27B685A7500E000BFE3
:1019300000BF0C37BD465DF8047B704780B483B0B0
:1019400000AF78607B689B7D022B06D07B689B7D17
:101950000133DAB27B689A7500E000BF00BF0C3734
:10196000BD465DF8047B704780B483B000AF7860FB
:101970007B689B7D002B06D07B689B7D013BDAB2A8
:101980007B689A7500E000BF00BF0C37BD465DF86C
:10199000047B7047B0B592B002AF0346FB71FB7990
:1019A00007F10C010A2218460DF03CF9234806F015
:1019B00020FB2349214807F016FA07F10C0207F132
:1019C0001003302118460DF067F907F1100318468F
:1019D0000DF0ADF90546194B1B681B885B089BB2DF
:1019E0001C4607F1100318460DF0A1F90246134BEF
:1019F00093F824301946114B93F827300B4403FB1E
:101A000002F35B08E31A18460C4B1B685B885B0803
:101A10009BB21A46094B93F825305B08DBB2D31A08
:101A200007F1100100220192009303462A46034861
:101A300007F072F900BF4037BD46B0BD700100200D
:101A40004801010090B587B002AF3C4684E80F0022
:101A50000C4806F0CEFA07F120030FCB00F014F883
:101A60006B4607F130021268114619800233120CDE
:101A70001A703B460FCB00F021F900BF1437BD466A
:101A800090BD00BF7001002090B59DB002AF3C46F4
:101A900084E80F0005237B650523BB65844B1B6829
:101AA0001B885B089BB2FB65814B93F825303B6636
:101AB000D7ED027AF5EE407AF1EE10FA1AD17C4BAE
:101AC0001B681B885B089BB20533DA0F13445B105D
:101AD0007B640523BB64764B1B681B885B089BB249
:101AE0000533DA0F13445B10FB64714B93F8253018
:101AF0003B657AE0D7ED027AF5EEC07AF1EE10FAA6
:101B00003DDB6B4B1B681B885B089BB20533DA0F10
:101B100013445B107B640523BB64654B1B681B8807
:101B20005B089BB20533DA0F13445B1007EE903A63
:101B3000B8EEE77AD7ED026A5D4B1B681B885B083D
:101B40009BB219465A4B1B681B885B089BB2053336
:101B5000DA0F13445B105B420B4407EE903AF8EE49
:101B6000E77A66EEA77A77EE277AFDEEE77A17EE48
:101B7000903AFB644E4B93F825303B6535E04C4B77
:101B80001B681B885B089BB20533DA0F13445B109C
:101B900007EE903AB8EEE77A454B1B681B885B0866
:101BA0009BB20533DA0F13445B10053B07EE903A06
:101BB000F8EEE76AD7ED027A66EEA77A77EE277A33
:101BC000FDEEE77A17EE903A7B640523BB64384B51
:101BD0001B681B885B089BB20533DA0F13445B104C
:101BE000FB64334B93F825303B6507F154031946EA
:101BF0002F4806F0BFFE07F1440319462C4806F0B3
:101C00002FFF2C4A07F1100392E8030018600433F9
:101C1000198002330A0C1A7007F1170329220021D8
:101C200018460DF031F83B460FCB00F0E5FA786628
:101C30007B6E07F140010A2218460CF0F3FF07F112
:101C4000400207F11003114618460DF059F81A49E1
:101C5000174807F0C8F807F1100318460DF067F8A9
:101C6000134B1B681B88A3F1380207F110010023F6
:101C7000019303230093134602460D4807F04CF8E6
:101C80000B4B93F825305A00094B1B681B881946EB
:101C9000074B93F825305B0000930B464FF0FF3164
:101CA000034806F050FD00BF6C37BD4690BD00BF35
:101CB000700100205CF7000028FC000090B58BB09C
:101CC00002AF3C4684E80F0097F83030022B29D150
:101CD00007F110043B460FCB84E80F00BB69964A1E
:101CE00012881344BB61BA69944B1B681B88023B82
:101CF0009A420BDD914B1B681B88023BBB61BA69A2
:101D0000B9683B68CB1AD31A3B6104E03B698A4A45
:101D1000128813443B6107F110031946874806F007
:101D200029FE67E197F83030042B00F2628101A2AE
:101D300052F823F0E71D0000491D0000F31F0000CA
:101D4000851E0000411F00007B4B1B88022B05D91C
:101D5000794B1B88013B9AB2774B1A803B68764AD5
:101D600012881344991C78683B68734A12881A4495
:101D7000FB68009313460246704806F0E4FCBB681B
:101D80006D4A12881344991C7868BB686A4A1288A5
:101D90001A44FB68009313460246684806F0D3FCD9
:101DA000BB68654A12889918F8683B68624A1288CD
:101DB0001A44FB68009313460246604806F0C3FCD1
:101DC000BB685D4A12881344991C78683B685A4A7C
:101DD000128813449A1C7B680093134602465748A6
:101DE00006F0B1FC06E1544B1B88042B05D9524B7D
:101DF0001B88033B9AB2504B1A803B684E4A1288AC
:101E00001344191D78683B684B4A12881A44FB68D2
:101E1000009313460246494806F095FCBB68464AC3
:101E200012881344191D7868BB68434A12881A4403
:101E3000FB68009313460246404806F084FCBB68EA
:101E40003D4A12889918F8683B683B4A12881A4440
:101E5000FB68009313460246384806F074FCBB68E2
:101E6000354A12881344191D78683B68324A128833
:101E700013441A1D7B680093134602462F4806F050
:101E800062FCB7E02C4B1B8818462C4B1B681B8848
:101E90005A1EB9683B68CB1AD31A023B984205DA3E
:101EA000254B1B8801339AB2234B1A803B68224A88
:101EB00012881344991E78683B681F4A12881A4496
:101EC000FB680093134602461C4806F03CFCBB68C6
:101ED000194A12881344991E7868BB68164A1288FA
:101EE0001A44FB68009313460246144806F02BFC84
:101EF000BB68114A12889918F8683B680E4A128824
:101F00001A44FB680093134602460C4806F01BFC7B
:101F1000BB68094A12881344991E78683B68064AD0
:101F2000128813449A1E7B680093134602460348A6
:101F300006F009FC5EE000BFAC010020700100204B
:101F40002E4B1B8818462E4B1B681B885A1EB968DF
:101F50003B68CB1AD31A043B984205DA274B1B88FF
:101F600003339AB2254B1A803B68244A12881344E3
:101F7000191F78683B68214A12881A44FB6800934D
:101F8000134602461E4806F0DEFBBB681B4A128859
:101F90001344191F7868BB68184A12881A44FB68F2
:101FA000009313460246164806F0CDFBBB68134A61
:101FB00012889918F8683B68104A12881A44FB681E
:101FC0000093134602460E4806F0BDFBBB680B4A61
:101FD00012881344191F78683B68084A1288134412
:101FE0001A1F7B68009313460246054806F0ABFBB8
:101FF00000E000BF00BF2437BD4690BDAC0100200B
:102000007001002084B090B400AF07F1080484E8A8
:102010000F00BB8F1A46FB6D9A600B4B1B885A1E34
:10202000FB6D1A60094B1B685B889A1EFB6D5A603A
:10203000FB6D5B68FA8F9A1AFB6DDA6000BFBD46D4
:1020400090BC04B0704700BFAC01002070010020BC
:1020500084B080B582B000AF07F1100C8CE80F009F
:102060002D4B1B681B885B089BB2DAB22A4B1B689E
:102070001B88013B294981FB03018910DB175B1A8F
:10208000DBB21344DAB2264B1A70234B1B685B8811
:10209000DBB2013BDAB2234B1A70D7F88020B7F8D5
:1020A00078309B0013441B881A46FB6F9A4229D252
:1020B0000023FB7112E0D7F88020B7F8783019467A
:1020C000FB790B449B00134493F902301A461549DF
:1020D000134800F029F8FB790133FB71FB79052BDC
:1020E000E9D93B6ED7F88010B7F8782092000A44FF
:1020F0001288934208D9B7F8783001339BB2A7F819
:10210000783001E0012300E0002318460837BD467F
:10211000BDE8804004B070477001002067666666C5
:10212000C8010020C901002090B589B002AFF86055
:10213000B9601346FB71BB681B78143BFB75FA7DD5
:102140002B4B93F825305B009A4204DA284B93F826
:1021500025305B00FB75FB681B781946BB681B7854
:102160001846FB681B781A4697F907301A44FB7D1E
:102170000093134602461E4806F0E5FAFB681B78FA
:1021800019461B4B1B681B88013B1A4A82FB030242
:102190005210DB17D31A1944BB681B781C46FB6826
:1021A0001B781846124B1B681B88013B114A82FBA7
:1021B00003C25210DB17D31AC21897F907301A441A
:1021C000FB7D009313462246094806F0BCFAFB68E3
:1021D0001A78FB791344DAB2FB681A70BB681B7873
:1021E000143BDAB2BB681A7000BF1C37BD4690BD05
:1021F000700100206766666690B585B000AF3C460A
:1022000084E80F003B6807EE903AF8EE677A17EE25
:10221000900A0CF051F908A3D3E900230CF0A4F9BB
:1022200003460C46184621460CF04EFC0346184661
:102230001437BD4690BD00BFF7E978CC40E50140BA
:10224000F0B58FB002AF254B6FF07F425A60234B41
:1022500000229A60214805F0CCFE21491F4806F073
:10226000C2FD3B461F4A302118460CF015FD3B4687
:1022700018460CF05CFD0646184B1B681B885B0873
:102280009BB21C46154B93F824301A46134B93F817
:10229000273013441D463B4618460CF048FD0346C4
:1022A00003FB05F39B08E31A053318460B4B1B6829
:1022B0005B885B089BB21A46084B93F825305B009D
:1022C000D31A39460022019200930346324603484E
:1022D00006F022FD00BF3437BD46F0BD700100207E
:1022E00058FF00008CF70000F0B58FB002AF254B0F
:1022F00000225A60234B6FF07F429A60214805F01C
:1023000078FE21491F4806F06EFD3B461F4A3021EA
:1023100018460CF0C1FC3B4618460CF008FD06467A
:10232000184B1B681B885B089BB21C46154B93F827
:1023300024301A46134B93F8273013441D463B466E
:1023400018460CF0F4FC034603FB05F39B08E31A64
:10235000053318460B4B1B685B885B089BB21A461B
:10236000084B93F825305B00D31A394600220192BE
:10237000009303463246034806F0CEFC00BF3437D4
:10238000BD46F0BD7001002058FF00008CF7000032
:1023900084B0F0B591B002AF07F1500484E80F00AB
:1023A000554B6FF07F425A60534B00229A6052485F
:1023B00005F01FFE5149504806F015FD3B1D504ADF
:1023C000302118460CF068FC3B1D18460CF0AFFCA1
:1023D0000646494B1B681B885B089BB21C46464B54
:1023E00093F824301A46444B93F8273013441D4683
:1023F0003B1D18460CF09BFC034603FB05F35B08F2
:10240000E31A1A46391D002301930523009313464E
:102410003246394806F080FC374B93F825305A0095
:10242000354B1B681B881946334B93F825305B00EE
:1024300000930B464FF0FF312F4806F084F93149E5
:102440002D4806F0D0FC3B1D2F4A302118460CF0D9
:1024500023FC3B1D18460CF06AFC274B93F82530F3
:102460009B00391D0022019200930A230246224854
:1024700006F052FC3B1D254A302118460CF00CFC9E
:102480003B1D18460CF053FC04461B4B1B681B8875
:10249000A3F13300184B93F825309B00391D00221F
:1024A0000192009303462246134806F035FC0023B0
:1024B00087F8373013E097F837300133DAB297F8FE
:1024C00037309B0007F150010B445B6819461046FA
:1024D00000F01EF897F83730013387F8373097F857
:1024E000503097F837209A42E5D300BF3C37BD46BD
:1024F000BDE8F04004B070477001002058FF0000B4
:1025000098F7000028FC0000A4F70000ACF70000DA
:1025100090B595B002AF03463960FB71FB7907F1C6
:1025200014010A2218460CF07DFB07F114032A4916
:1025300018460CF0E5FB2949294806F054FC07F140
:10254000140207F11803302118460CF0A5FB07F11F
:10255000180318460CF0EBFBFB790533204A92F880
:10256000252002FB03F307F11801002201920093DA
:102570000A2302461A4806F0CFFB3B6807F10C011C
:102580000A2218460CF04EFB07F10C0207F1180363
:10259000302118460CF080FB07F1180318460CF0A8
:1025A000C6FB04460E4B1B681B88A3F13300FB7966
:1025B00005330B4A92F8252002FB03F307F11801BB
:1025C00000220192009303462246054806F0A4FB30
:1025D00000BF4C37BD4690BDB4F7000028FC00009A
:1025E0007001002080B485B000AF786039607B68EE
:1025F00003F1C063FB60FB683A681A6000BF1437E0
:10260000BD465DF8047B704780B485B000AF78604C
:1026100039607B6803F18063FB60FB683A681A608D
:1026200000BF1437BD465DF8047B704780B582B0AB
:1026300000AF03463960FB71FB79002B1CD0FB799E
:10264000012B19D0FB79022B16D0FB79032B13D069
:10265000FB79042B10D0FB79052B0DD0FB79062BD1
:102660000AD0FB79072B07D0FB79082B04D0FB7924
:10267000092B01D0FB790A2BFA7913465B0013442E
:102680001B010C3303F1804303F5204301213A6819
:1026900001FA02F211461846FFF7B6FF00BF0837ED
:1026A000BD4680BD80B582B000AF03463960FB7186
:1026B000FB79002B1CD0FB79012B19D0FB79022B65
:1026C00016D0FB79032B13D0FB79042B10D0FB79A8
:1026D000052B0DD0FB79062B0AD0FB79072B07D0F1
:1026E000FB79082B04D0FB79092B01D0FB790A2B4D
:1026F000FA7913465B0013441B010C3303F180434A
:1027000003F5204301213A6801FA02F21146184606
:10271000FFF768FF00BF0837BD4680BD80B584B0B5
:1027200000AF78604FF4FA73FB816423BB8100F043
:1027300003F9794B186800230022002107F0E2FA20
:10274000764B1A78764B1A70734B18680023002268
:10275000002107F009F9724B1B78052B00F2CD80A0
:1027600001A252F823F000BF81270000812700005A
:10277000C7270000E92700006F280000B5280000E7
:10278000684B1B78184600F0F5F8674B1B78184625
:1027900000F005F9634B1B7883F00103DBB2002BDB
:1027A00014BF01230023DAB25E4B1A705E4B1B7814
:1027B00083F00103DBB2002B14BF01230023DAB244
:1027C000594B1A7099E0574B00221A70564B002251
:1027D0001A70544B1B78184600F0CCF8524B1B78FB
:1027E000184600F0DCF888E0504B5B78002B03D0F3
:1027F0004C4B01221A7013E04C4B1B78002B0CD071
:10280000484B1B7883F00103DBB2002B14BF01237C
:102810000023DAB2434B1A7002E0424B00221A70D6
:10282000424BDB78002B03D03F4B01221A7013E0A0
:102830003E4B9B78002B0CD03B4B1B7883F0010365
:10284000DBB2002B14BF01230023DAB2364B1A701F
:1028500002E0354B00221A70324B1B78184600F00C
:1028600089F8314B1B78184600F099F845E0304B59
:102870001B78012B09D02B4B00221A702A4B012206
:102880001A702B4B01221A7009E0264B01221A7094
:10289000254B00221A70264B00221A7000BF214BD4
:1028A0001B78184600F066F81F4B1B78184600F09E
:1028B00076F822E01F4B1B78012B09D0194B002220
:1028C0001A70194B00221A701A4B01221A7009E073
:1028D000144B01221A70144B01221A70154B00225E
:1028E0001A7000BF0F4B1B78184600F043F80E4BD0
:1028F0001B78184600F053F800BF094B1B78042BD7
:1029000004D1BB89184607F025FE12E7FB8918465B
:1029100007F020FE0DE700BF60830020CF010020FC
:10292000CA010020CB010020CC01002044830020FC
:10293000CD010020CE01002080B500AF01210C4860
:1029400001F088FD0021052002F0CEFF00230422C3
:102950000421052003F008F80021052002F0C4FF3F
:10296000002304220521052002F0FEFF00BF80BDE8
:1029700000350A0080B582B000AF0346FB71FB79D9
:10298000002B04D004210520FFF78CFE03E0042176
:102990000520FFF74BFE00BF0837BD4680BD80B560
:1029A00082B000AF0346FB71FB79002B04D00521F8
:1029B0000520FFF777FE03E005210520FFF736FE2F
:1029C00000BF0837BD4680BD80B400AF044BDB6C50
:1029D0001B0EDBB21846BD465DF8047B704700BF96
:1029E000B081E00F80B582B000AF164B01225A646F
:1029F000FFF7EAFF0346FB71FB79002B0CD1124B6A
:102A00004AF6E8521A60114B1B68104A43F004035F
:102A100013600D4B00221A60FB79012B05D80C4B7B
:102A20001B680B4A43F4005313600A4B1B6A23F4E0
:102A30004413084A43F48813136200BF0837BD46A5
:102A400080BD00BF00000E4090310E4098310E4016
:102A500064310E4000400E4080B582B002AFFFF7F7
:102A6000C1FFFDF7B5FB01F077F83C48FDF7CCFB63
:102A70003B48FDF781FC3B48FDF78FFC3A48FDF7EA
:102A80009FFC3A480BF0D6FA0AF0CEF80322002158
:102A9000012006F0D9FE0246354B1A60012006F0EF
:102AA0004BFF0246334B1A60012006F045FF0246F9
:102AB000314B1A60012006F03FFF02462F4B1A608F
:102AC000012006F039FF02462D4B1A60012006F066
:102AD00033FF02462B4B1A60012006F02DFF024601
:102AE000294B1A60294B019304230093002364228D
:102AF0002749284807F0DBFB274B0193012300936C
:102B000000234FF4AF722549254807F0D0FB00237E
:102B10000193022300930023C8222249224807F090
:102B2000C6FB00230193022300930023C8221F4900
:102B30001F4807F0BCFB1F4B0193012300930023A8
:102B4000C8221D491D4807F0B2FB1A4B1B681846E6
:102B500007F03AFD07F054FEFEE700BFF0820020C8
:102B60004C830020748300209C830020A0830020DD
:102B70007883002068830020648300206083002025
:102B80006C8300205C83002048830020EC820020BE
:102B9000B8F700001D270000E8820020C0F7000001
:102BA00019060000CCF7000011300000D8F7000033
:102BB000E903000070830020E4F70000F92B000017
:102BC00080B483B000AF4FF0A00383F31188BFF34C
:102BD0006F8FBFF34F8F7B60FEE780B485B000AF8F
:102BE000786039604FF0A00383F31188BFF36F8FD3
:102BF000BFF34F8FFB60FEE7B0B59AB016AF7860B9
:102C00003223FB81514800F0BDF8514B1868002376
:102C10000A22002107F076F84E4B1A784E4B1A70B4
:102C20004B4B186800230022002106F09DFE4A4B02
:102C30001B78042B02D1454800F0A4F8474BDA6911
:102C4000464B9B8A9B0013441B881A46444B1B6DC2
:102C50009A4214D2414B9B8A01339AB23F4B9A82DB
:102C60003E4B9B8A1A463D4BDB8A03339A4206DD74
:102C70003C4B1868002303223B4908F0CBFB3B4B3D
:102C8000186800230A22002107F03CF8384B9B7893
:102C9000002B3ED0374B186800230A22002107F092
:102CA00031F8354B1B6818460BF0E4FB4FF000027F
:102CB0004FF000030BF0E8FE0346002B22D02F4B11
:102CC000186800230A22002107F01CF8244C2A4B24
:102CD00011AD0FCB85E80F00684604F110034422C4
:102CE00019460BF0C6FF94E80F0000F08DF803467C
:102CF0001A46234B1A70214B18680023002200212A
:102D000006F032FE1B4B186800230022002106F05B
:102D10002BFE164B186800230022002106F024FE2B
:102D2000174B1B78012B02D0022B05D009E00221A2
:102D3000064800F03DF804E00021044800F038F8AF
:102D400000BFFB89184607F005FC5EE744830020BE
:102D500060830020CF010020D10100207C8300206F
:102D6000F0820020E88200202143658764830020F0
:102D700074830020688300204C8300205C83002043
:102D8000D201002080B483B000AF78607B6800225D
:102D90001A707B6800225A707B6800229A707B68E8
:102DA0000022DA7000BF0C37BD465DF8047B704727
:102DB00080B483B000AF78600B46FB70FB78032BC8
:102DC0001AD801A252F823F0D92D0000E12D0000FD
:102DD000E92D0000F12D00007B6801221A700CE043
:102DE0007B6801229A7008E07B6801225A7004E037
:102DF0007B680122DA7000E000BF00BF0C37BD46DF
:102E00005DF8047B704700BF84B0B0B582B000AFFE
:102E100007F1180484E80F0097ED1D7AD7ED167AB4
:102E200067EE277A17EE900A0BF046FB4FF0000290
:102E30004FF0804309F0C8FF03460C461846214670
:102E40000BF062FE03467B60FB6E18460BF012FB34
:102E50004FF000024FF0804309F0B6FF04460D46E4
:102E6000B7F8503018460BF015FB02460B462046CB
:102E700029460BF0A3FC03460C461846214630A316
:102E8000D3E900230BF09AFC03460C461846214672
:102E90004FF000024FF0804309F096FF04460D46C4
:102EA00078680BF009FB02460B46204629460BF0DA
:102EB000A5F903460C46184621460BF025FE0346AD
:102EC0007B6078680BF0F8FA03460C4618462146FA
:102ED0000AF018F903460C46184621460BF014FE7A
:102EE00003467B60D7ED127A97ED017AB4EEE77A6C
:102EF000F1EE10FA01DB012319E078680BF0DCFA3F
:102F000004460D46BB6C18460BF0D6FA0EA3D3E967
:102F100000230BF029FB02460B46204629460BF006
:102F2000A9FD0346002B01D0022300E00023184630
:102F30000837BD46BDE8B04004B07047AFF300802D
:102F40009A9999999999B93F333333333333EB3F96
:102F500080B485B000AF786039607B6803F104739A
:102F6000DA003B6813449B00FB60FB681B68184653
:102F70001437BD465DF8047B7047000080B483B011
:102F800000AF7860044A7B68C2F8243400BF0C3775
:102F9000BD465DF8047B704700A0004080B582B05C
:102FA00000AF03463960FB71FB79002B1CD0FB7925
:102FB000012B19D0FB79022B16D0FB79032B13D0F0
:102FC000FB79042B10D0FB79052B0DD0FB79062B58
:102FD0000AD0FB79072B07D0FB79082B04D0FB79AB
:102FE000092B01D0FB790A2BFA7913465B001344B5
:102FF0001B011C3303F1804303F520433968184655
:10300000FFF7A6FF034618460837BD4680BD0000FF
:1030100090B597B012AF78603223FB73FB7B4FF40F
:103020007A7202FB03F3B04A82FB03129211DB17A0
:10303000D31ABB81C8237B814FF47A733B8100F0A4
:10304000FBFC3989A94B009300230022A84808F013
:1030500053FB0246A74B1A60A74B009300230022A4
:103060004FF47A71A54808F047FB0246A44B1A605A
:10307000A44B0093002300224FF49671A24808F05D
:103080003BFB0246A14B1A6000F0F4FC03461A46D3
:103090009F4B1A7000F00BFD03461A469D4B1A70A9
:1030A0009D4B186800230022002106F02BFE9B4B4D
:1030B0001A789B4B1A70984B186800230022002145
:1030C00006F052FC974B186800230022002106F0FE
:1030D00019FE954B1A78954B1A70924B186800237D
:1030E0000022002106F040FC8D4B1B78052B00F2DE
:1030F000288201A252F823F043350000113100006C
:103100004335000079320000433500009734000059
:103110007F4B1A787F4B1B781946104600F0E4FC71
:103120000346032B00F2A68001A252F823F000BF51
:103130004B32000041310000E7310000193200003D
:103140007B4B01221A706E4B1B68184608F0F0FD8D
:103150000346002B0CD16A4B1C6807F04BFC03465E
:103160001A460A23009300230221204608F014FB8C
:10317000704B186800230022002106F0C3FD6E4B3F
:10318000186800230022002106F0BCFD6B4C684645
:1031900004F11003442219460BF06BFD94E80F0074
:1031A00000F0D2FB0246654BDA62644C684604F1DB
:1031B0001003442219460BF05CFD94E80F0000F068
:1031C000EBFB02465D4B1A635B4B18680023002241
:1031D000002106F0C9FB574B18680023002200218C
:1031E00006F0C2FB47E0464B1B68184608F0A0FDFE
:1031F0000346012B08D1424B18680A230093002391
:103200000022032108F0C8FA4D4B1868002303225E
:10321000AA2108F0FFF82EE0394B1B68184608F089
:1032200087FD0346012B08D1354B18680A2300930C
:1032300000230022032108F0AFFA414B1868002355
:103240000322552108F0E6F815E02D4B1B681846BF
:1032500008F06EFD0346012B08D1294B18680A239C
:10326000009300230022032108F096FA304B00223D
:103270001A7000E000BF64E1244B1B68184608F098
:1032800057FD0346002B0CD1204B1C6807F0B2FB06
:1032900003461A460A23009300230121204608F022
:1032A0007BFA1B4B1A781B4B1B781946104600F013
:1032B0001BFC0346022B45D0032B00F09680012B0C
:1032C00040F0DF801A4B01221A700A4B1C6807F08D
:1032D00091FB03461A460A2300930023022120464D
:1032E00008F05AFAD6E000BFD34D6210A1350000B5
:1032F000F0F70000D4010020F935000000F80000CC
:10330000D80100206936000010F80000DC01002020
:10331000E0010020E101002060830020CF010020B7
:10332000E20100206C830020D0010020E301002096
:10333000E40100205C83002068830020F0820020EC
:10334000E8820020884B1B78002B08D0874B186838
:103350000A23009300230022032108F01DFA844B66
:103360001B78012B00F09180824B186800230A2201
:10337000002106F0C7FC0346012B40F088807E4BFD
:103380009B6818460BF098F875A3D3E900230AF060
:1033900035FF03460C46184621464FF00002774B96
:1033A0000BF05EFB0346002B13D0734B9B68184653
:1033B0000BF082F86AA3D3E900230AF01FFF03464B
:1033C0000C46184621460BF09FFB02466A4B9A605A
:1033D00003E0694B4FF07E529A60664B18680023F9
:1033E0000022002106F0C0FA51E05F4B1B78002B51
:1033F00008D05E4B18680A230093002300220321A3
:1034000008F0CAF95B4B186800230A22002106F075
:1034100079FC0346012B3CD1574B9B6818460BF0B7
:103420004BF84FA3D3E900230AF0E6FE03460C460F
:10343000184621464FF00002514B0BF01BFB034690
:10344000002B13D04C4B9B6818460BF035F844A367
:10345000D3E900230AF0D0FE03460C461846214665
:103460000BF052FB0246444B9A6002E0424B454A45
:103470009A60404B186800230022002106F074FA7D
:1034800007E0394B00221A7004E000BF59E000BF8A
:1034900057E000BF55E0374B186800230A2200218F
:1034A00006F030FC344B4FF000029A60324B0022A1
:1034B0001A73314B00225A602F4B00221A602D4B99
:1034C000186800230022002106F04EFA2E4B1868DF
:1034D00000230A22002106F015FC2C4B00221A655D
:1034E000294B186800230022002106F03DFA284BE2
:1034F0001A78284B1B781946104600F0F5FA034657
:10350000012B18D1184B01221A70234B1B68184647
:1035100008F00EFC0346002B11D11F4B1C6807F06E
:1035200069FA03461A460A23009300230221204623
:1035300008F032F903E00C4B00221A7000E000BFE3
:1035400000BF164B1B78012B04D17B89184607F06E
:1035500001F899E5BB89184606F0FCFF94E500BF29
:103560009A9999999999A93FE4010020D4010020E2
:10357000E3010020688300204C8300200000F03F1E
:103580000000F0BF000080BF5C830020F0820020BC
:10359000E0010020E1010020D8010020E20100202C
:1035A00080B582B000AF7860114B186800230A2202
:1035B000002106F0A7FB0346012B15D10D4B1B780C
:1035C000012B03D10B4B00221A7006E0094B1B782C
:1035D000002B02D1074B01221A70054B18680023FB
:1035E0000022002106F0C0F900BF0837BD4680BDAB
:1035F0006C830020D001002080B584B000AF7860DB
:10360000144B186800230022002106F07BFB124BAC
:103610001B78FB730F4B186800230022002106F073
:10362000A3F9FB7B012B07D10C4B18680023032265
:103630000B4907F0EFFE09E0FB7B052B06D1074B9A
:10364000186800230322074907F0E4FE00BF103783
:10365000BD4680BD60830020CF010020E8820020AD
:10366000F0DEBC0AB1CAED0FB0B598B016AF786005
:10367000254B186800230A22002106F043FB234B48
:10368000186800230A22002106F03CFB204B214A47
:103690000192DA6800920ECB1F4800F0A5F91E4C8B
:1036A0001B4B11AD0FCB85E80F00684604F11003EA
:1036B000442219460BF0DDFA94E80F0000F02EF8D2
:1036C00007EE900AFCEEE77A17EE902A104B1A608C
:1036D0000F4B1A680E4B5B689A4203D90C4B1B6860
:1036E0000B4A5360084B186800230022002106F0A3
:1036F0003BF9064B186800230022002106F034F93C
:1037000000BF0837BD46B0BD5C8300206883002041
:103710004C8300209A99993EF082002084B02DE9D4
:10372000F0439DB016AF07F1380686E80F0097ED1D
:10373000257AD7ED1E7A67EE277AC7ED037A11AEA8
:1037400007F18C030FCB86E80F00684607F14803AA
:10375000442219460BF08DFA07F138030FCB00F025
:103760009BF803463B663B6E7B61D7F88C30002BA1
:1037700008D0D7ED1A7A97ED057A77EE277AC7ED5C
:10378000057A07E0D7ED197A97ED057A77EE277A73
:10379000C7ED057AD7F88C3007EE903AF8EE677AE5
:1037A00097ED057A67EE277AC7ED057A394BBB604E
:1037B0004FF000033B6197ED037AD7ED057A37EEC2
:1037C000677AD7ED1D7A77EEA76AD7ED027A66EEB3
:1037D000A77AC7EE276A16EE900A0AF06DFE024637
:1037E0000B46C7E900234FF000024FF00003D7E972
:1037F00000010BF049F90346002B14D0D7E9000172
:1038000009F080FC03460C46184621460BF07CF973
:1038100003463B6197ED047AD7ED027A67EE277A8B
:10382000C7ED047A22E0D7ED027AF1EE677A17EE5F
:10383000903A18460AF040FE804689463C687B680C
:1038400083F000452046294609F05CFC03460C46FF
:103850001A462346404649460AF086FE03460C4671
:10386000184621460BF050F903463B61D7F88C30DF
:1038700007EE903AF8EE677A97ED047A77EE277ABA
:10388000C7ED047A3B6918461C37BD46BDE8F043D6
:1038900004B070479A99993E84B0B0B582B000AF39
:1038A00007F1180484E80F00B7F8523007EE903A99
:1038B000B8EEE77AD7ED0F7A67EE277AC7ED017A8F
:1038C000FB6E18460AF0D6FD4FF000024FF0804321
:1038D00009F07AFA04460D4678680AF0EDFD0246D2
:1038E0000B46204629460AF089FC03460C4618463A
:1038F00021460BF009F903467B6078680AF0DCFD8D
:103900004FF033320E4B0AF02FFE03460C4618469A
:1039100021464FF000024FF080430AF04FFF03466C
:103920000C46184621460BF0EFF803467B607B6897
:1039300018460837BD46BDE8B04004B0704700BF28
:103940003333F33F0000000084B098B500AF07F1B7
:10395000100484E80F0097ED0B7AD7ED137A67EE29
:10396000277A17EE900A0AF0A7FD09A3D3E90023EE
:103970000AF0FAFD03460C46184621460BF0C4F83F
:1039800003461846BD46BDE8984004B0704700BFE6
:103990001F85EB51B89E234084B098B500AF07F166
:1039A000100484E80F0097ED0C7AD7ED137A67EED8
:1039B000277A17EE900A0AF07FFD09A3D3E90023C6
:1039C0000AF0D2FD03460C46184621460BF09CF83F
:1039D00003461846BD46BDE8984004B0704700BF96
:1039E0001F85EB51B89E234084B080B483B000AFF4
:1039F000786007F1140080E80E007B681B6D07EE0D
:103A0000903AB8EE677A7B6907EE903AF8EE676A0B
:103A1000D7ED097A66EEA77A77EE277AFCEEE77A99
:103A200017EE902A7B681A6500BF0C37BD465DF81B
:103A3000047B04B07047000080B500AF01210C4842
:103A400000F008FD0021052001F04EFF00230122B7
:103A50000621052001F088FF0021052001F044FF28
:103A6000002301220721052001F07EFF00BF80BD59
:103A700000350A0080B582B000AF06210520FFF7AF
:103A80008DFA0346002B0CBF01230023DBB27B60C1
:103A90007B68002B01D1002305E07B68002B01D05F
:103AA000012300E0012318460837BD4680BD80B5DC
:103AB00082B000AF07210520FFF770FA0346002B04
:103AC0000CBF01230023DBB27B607B68002B01D19C
:103AD000002305E07B68002B01D0012300E00123D7
:103AE00018460837BD4680BD80B483B000AF03469A
:103AF0000A46FB711346BB71FB79012B04D1BB79DC
:103B0000012B01D1012310E0FB79012B04D1BB79FA
:103B1000002B01D1022308E0FB79002B04D1BB79F3
:103B2000012B01D1032300E0002318460C37BD46CA
:103B30005DF8047B704780B500AF45F25550FFF744
:103B40001DFA00BF80BD80B500AF4AF6AA20FFF77E
:103B500015FA00BF80BD000080B500AF3A493B4870
:103B60000BF0DDF8394B1422DA82384BDB8A1A4627
:103B700013469B0013445B001A46344B9A61334B47
:103B800000229A82314B324ADA61324932480BF0D4
:103B9000C6F8314B3222DA822F4BDB8A1A461346A3
:103BA0009B0013445B001A462B4B9A612A4B002260
:103BB0009A82502005F03AF90246274BDA615022EA
:103BC000234926480BF055F8254926480BF0A7F85D
:103BD000244B3222DA82234BDB8A1A4613469B009F
:103BE00013445B001A461F4B9A611E4B00229A82B7
:103BF000502005F01BF902461A4BDA615022144995
:103C000019480BF036F8194919480BF088F8184B89
:103C10003222DA82164BDB8A1A4613469B00134483
:103C20005B001A46124B9A61114B00229A82502077
:103C300005F0FCF802460E4BDA61502204490D48AB
:103C40000BF017F800BF80BD24F80000E801002049
:103C50005C00002030F80000080200202402002050
:103C600040F80000280200204402002048F800002C
:103C70004802002064020020B0B582B000AF786036
:103C80000B46FB70FB78032B3ED801A252F823F0C1
:103C9000A13C0000C73C0000DD3C0000F33C0000FC
:103CA0007B68214A1C4615460FCD0FC495E80F00CE
:103CB00084E80F007B68D8691B4BDB690422194636
:103CC0000AF0D7FF2BE07B68174A1C4615460FCD3C
:103CD0000FC495E80F0084E80F0020E07B68124ACB
:103CE0001C4615460FCD0FC495E80F0084E80F0061
:103CF00015E07B680C4A1C4615460FCD0FC495E8AD
:103D00000F0084E80F000AE07B68074A1C4615464E
:103D10000FCD0FC495E80F0084E80F0000BF00BF6F
:103D20000837BD46B0BD00BFE801002080B487B0B1
:103D300000AFF860B9607A60FB6803F10473DA00E1
:103D4000BB6813449B007B617B697A681A6000BF83
:103D50001C37BD465DF8047B704780B485B000AF6A
:103D6000786039607B6803F1C063FB60FB683A6888
:103D70001A6000BF1437BD465DF8047B704780B4FD
:103D800085B000AF786039607B6803F18063FB60C9
:103D9000FB683A681A6000BF1437BD465DF8047BC3
:103DA000704780B584B000AFF860B9607A60B968D8
:103DB000F868FFF7E4FF7968F868FFF7CEFF00BF07
:103DC0001037BD4680BD000080B582B000AF78607E
:103DD00039607B68B3F1804F02D07B68194A934207
:103DE00000BF3B681B78DB071A463B685B681B0615
:103DF000134343F400427B681A603B68DB681B0492
:103E00003A68127A1A437B689A623B681B691B0402
:103E10003A68527A1A437B68DA623B689B7A1B07DE
:103E200043F0806343F47D437A68536078683B686D
:103E30001B7D1A460021FFF779FF00BF0837BD46FA
:103E400080BD00BF0004004080B582B000AF786044
:103E50000B46FB707B68B3F1804F02D07B68074A4A
:103E6000934200BF7B680433FA78FF211846FFF7BE
:103E700098FF00BF0837BD4680BD00BF000400406A
:103E800080B483B000AF78607B68B3F1804F02D01C
:103E90007B68074A934200BF7B681B6823F00102DE
:103EA0007B681A6000BF0C37BD465DF8047B704725
:103EB0000004004080B483B000AF78607B68B3F149
:103EC000804F02D07B68074A934200BF7B681B6823
:103ED00043F001027B681A6000BF0C37BD465DF8F5
:103EE000047B70470004004080B487B000AFF860E6
:103EF000B9607A60FB6803F10473DA00BB681344AD
:103F00009B007B617B697A681A6000BF1C37BD46E5
:103F10005DF8047B704780B485B000AF786039608D
:103F20007B6803F10473DA003B6813449B00FB6079
:103F3000FB681B6818461437BD465DF8047B704764
:103F400080B483B000AF786001227B6802FA03F38B
:103F500018460C37BD465DF8047B704780B582B0CB
:103F600000AF78607868FFF7EBFF03461846083724
:103F7000BD4680BD80B584B000AF78607B680133FA
:103F8000B3FA83F3DBB2C3F11F03FB60F868FFF7FA
:103F9000D7FFFB6818461037BD4680BD80B500AF1F
:103FA00000BF12210348FFF7B6FF0346002BF8D1EC
:103FB00000BF80BD04300E4080B500AFFFF7EEFFBC
:103FC000034B5B681B0C03F00303DBB2184680BD98
:103FD00000300E4080B584B000AF78600123FB60F4
:103FE0007B68124A934204D80023FB600023BB6025
:103FF00008E07B680E4A934202D80123BB6001E0CF
:104000000223BB60FA6810210A48FFF76DFF094BD5
:10401000D3F8003123F08072BB681B0605491343B7
:10402000C1F8003100BF1037BD4680BD0048E8012F
:104030000090D00300400E4080B483B000AF054B29
:104040001B687B607B6818460C37BD465DF8047BB7
:10405000704700BFAC00002080B582B000AF08F010
:1040600039FE7860064BD3F800311B0A03F01F03BA
:1040700001337A6802FB03F318460837BD4680BD5A
:1040800000400E4080B582B000AF0D4800F03CFD0E
:104090000346FB70FB78072B05D0092B07D108F0EE
:1040A00019FE786006E0FFF7C7FF786002E00023A2
:1040B0007B6000BF7B6818460837BD4680BD00BFE7
:1040C00006000E0080B584B000AF78607B68002BDE
:1040D0001CD11B4800F018FD0346FB7200BFFB7AA1
:1040E000013B072B23D801A252F823F01141000015
:1040F0002F4100002F4100001F4100002F41000010
:104100002F4100001741000027410000002312E06A
:104110000023FB600EE0FFF78FFFF8600AE008F075
:1041200011FEF86006E0FFF797FFF86002E0002359
:10413000FB6000BFFB6818461037BD4680BD00BF5E
:10414000B800320080B485B000AF786039601E4B93
:104150005B6803F04073FB600023BB6012E01B4A06
:10416000BB68DB0013441A793B68DBB29A4206D184
:10417000164ABB6852F833307A689A4206D9BB684F
:104180000133BB60BB68042BE9D900E000BFBB680A
:10419000052B02D10323FB6005E00C4ABB68DB0062
:1041A00013445B79FB60FB681B06FB60064B5B6896
:1041B00023F040720449FB6813434B6000BF14377F
:1041C000BD465DF8047B704700000E4054F80000C7
:1041D00080B582B000AF0E4B1B6C002B14BF0123C7
:1041E0000023FB710A4B41F671321A6408F068FD36
:1041F000034600211846FFF7A5FFFB79002B02D0EC
:10420000034B00221A6400BF0837BD4680BD00BFC3
:1042100000000E4080B584B000AF786039600C4B70
:104220001B6C002B14BF01230023FB73084B41F6CA
:1042300071321A6439687868FFF784FFFB7B002BC2
:1042400002D0034B00221A6400BF1037BD4680BD68
:1042500000000E4080B487B000AF78600F237B6110
:104260007B6803333B617B69FB60FA683B6993427F
:1042700028BF1346BB60BB681B07BB60BB68184602
:104280001C37BD465DF8047B7047000080B400AF6A
:10429000044B5B6A1B0903F003031846BD465DF837
:1042A000047B704700400E4080B483B000AF78605C
:1042B000074B5B6A23F030027B681B010449134300
:1042C0004B6200BF0C37BD465DF8047B704700BFF2
:1042D00000400E4090B585B000AF78600023BB6011
:1042E0007B68354A934206D0344A934203D0344A1D
:1042F000934200D000E000BF786800F005FC034660
:10430000FB607B682C4A93420DD02C4A934211D01B
:104310002B4A934200D014E02A4BD3F8803003F0AC
:104320000703FB600DE0274BD3F8843003F007034D
:10433000FB6006E0234BD3F8883003F00703FB60F3
:1043400000BFFB68042B2ED801A252F823F000BF57
:10435000A1430000654300006D4300007D43000061
:104360007543000008F010FDB8601FE008F01EFD66
:10437000B8601BE008F011FDB86017E008F080FCA1
:104380000446104BD3F800311B0E03F00103013338
:104390001846FFF7E3FD0346B4FBF3F3BB6005E00B
:1043A0000023BB6002E00023BB6000BFBB6818466F
:1043B0001437BD4690BD00BF030020000500240057
:1043C00002001E0000400E4080B483B000AF786051
:1043D0000A4BD3F8443103F00103002B08D100BF8E
:1043E000064BD3F840217B681340002BF8D100E046
:1043F00000BF0C37BD465DF8047B704700400E409F
:1044000080B400AF00BFBD465DF8047B704780B448
:1044100000AF00BFBD465DF8047B704780B582B039
:1044200000AF7860786800F081F9034601331846E0
:104430000837BD4680BD80B582B000AF7860396076
:104440003B68013B1946786800F032FA00BF083734
:10445000BD4680BD80B586B000AF78600B46FB706E
:1044600000233B617B681B0A03F00F03013B092B10
:1044700044D801A252F823F0A1440000AD4400004A
:10448000FD440000FD440000A7440000B3440000C8
:10449000BD440000FD440000C7440000D3440000B8
:1044A000184B7B6118E0184B7B6115E0174B7B6163
:1044B00012E0174B7B6101233B610DE0154B7B61E3
:1044C00010233B6108E0144B7B614FF480333B6168
:1044D00002E0124B7B6100BF7B681B0B03F01F03E4
:1044E000FB603B69002B02D03869FFF76DFFFB785A
:1044F0001A46F9687869FFF7F7FC00E000BF183743
:10450000BD4680BD00400E40B0400E40C0400E4051
:10451000E0400E40E8400E40F0400E4050410E405A
:1045200080B584B000AF78607B6803F47813B3F58E
:10453000A01F7DD0B3F5A01F1AD8B3F5202F50D0FF
:10454000B3F5202F08D8B3F5003F4ED0B3F5802F38
:1045500038D0002B32D0D8E0B3F5602F00F0C880FF
:10456000B3F5801F00F0C880B3F5402F4CD0CCE0ED
:10457000B3F5001F00F08B80B3F5001F0AD8B3F528
:10458000D01F00F08980B3F5F01F4CD0B3F5B01FF9
:104590005CD0BAE0B3F5381F6AD0B3F5381F04D841
:1045A000B3F5101F00F09F80AFE0B3F5401F00F09F
:1045B0008680B3F5481F00F0A380A6E008F08AFBD0
:1045C000F860A5E008F086FBF860544BD3F80C3196
:1045D0001B0AC3F308030133FA68B2FBF3F3FB6071
:1045E00096E008F077FBF86092E008F073FBF86063
:1045F0004A4BD3F808311B0AC3F308030133FA68A6
:10460000B2FBF3F3FB6083E008F064FBF860434B1C
:10461000D3F814311B0A03F01F030133FA68B2FB0D
:10462000F3F3FB6074E03E48FFF754FEF8606FE080
:104630003C48FFF74FFEF860384BD3F8303103F0B9
:104640000303FA6822FA03F3FB6061E03448FFF7E2
:1046500041FEF860314BD3F8203103F00F031846C8
:10466000FFF77CFC0246FB68B3FBF2F3FB604FE014
:104670002B48FFF72FFEF860284BD3F820311B0999
:1046800003F00303FA6822FA03F3FB6040E02648D4
:10469000FFF720FEF8603BE02348FFF71BFEF860C1
:1046A0001E4BD3F828311B0903F003031846FFF70C
:1046B00055FC0246FB68B3FBF2F3FB6028E01A48A6
:1046C000FFF708FEF860154BD3F828311B0A03F0FA
:1046D000030304331846FFF741FC0246FB68B3FBB3
:1046E000F2F3FB6014E00F48FFF7F4FDF8600FE011
:1046F000FFF7C8FCF8600BE0FFF79EFCF86007E0EE
:104700000020FFF7DFFCF86002E00023FB6000BF41
:10471000FB6818461037BD4680BD00BF00400E4004
:1047200002001E00050024000300200080B584B0B4
:1047300000AF78607B681B0903F00F03BB60BB68A8
:10474000013B092B00F2A08001A252F823F000BF28
:10475000794700008947000099470000A9470000F9
:104760008948000089480000B9470000C947000097
:10477000174800006B480000474BD3F800311B0A74
:1047800003F01F03FB6082E0434BD3F814311B0A94
:1047900003F01F03FB607AE03F4BD3F800311B0EA0
:1047A00003F00103FB6072E03B4BD3F80C311B0AB2
:1047B000C3F30803FB606AE0374BD3F808311B0AE8
:1047C000C3F30803FB6062E07B68344A934203D082
:1047D000334A93420DD01AE02F4BD3F8203103F027
:1047E0000F03FB60F868FFF7B9FB0346013BFB6072
:1047F00010E0294BD3F820311B0903F00303FB60C1
:10480000F868FFF7ABFB0346013BFB6002E00023C7
:10481000FB6000BF3BE07B68224A934203D0224A00
:1048200093420ED01DE01C4BD3F828311B0903F036
:104830000303FB60F868FFF791FB0346013BFB6055
:1048400012E0154BD3F828311B0A03F00303FB6079
:10485000FB6804331846FFF781FB0346013BFB600E
:1048600002E00023FB6000BF11E07B680F4A934227
:1048700006D1094BD3F8303103F00303FB6002E0AB
:104880000023FB6000BF02E00023FB6000BFFB6869
:1048900018461037BD4680BD00400E408006160009
:1048A00080162E0090171A0090273000A0091400DF
:1048B00080B584B000AF786039607B681B0903F075
:1048C0000F03FB60FB68013B092B00F2078101A28B
:1048D00052F823F0FD48000049490000DD4A00007D
:1048E00061490000DD4A0000DD4A00007D4900000A
:1048F000C5490000454A0000B34A0000FFF768FCC4
:104900007948FFF767FBFFF77BFD784BD3F8003161
:1049100023F4F8523B681B0274491343C1F8003179
:1049200008F0AEF9B860FFF747FB03461946B868D0
:10493000FFF770FC6E48FFF7F3FD03461846FFF7DC
:1049400049FBFFF764FDCAE0684BD3F8143123F448
:10495000F8523B681B0265491343C1F81431BEE0AD
:10496000624BD3F80C3123F4FF3323F480733A689D
:1049700012025E491343C1F80C31B0E0FFF728FC86
:104980005948FFF727FB594BD3F8083123F4FF337D
:1049900023F480733A68120254491343C1F8083172
:1049A00008F06EF9B860FFF707FB03461946B868D0
:1049B000FFF730FC4E48FFF7B3FD03461846FFF7FC
:1049C00009FB8CE07B684B4A934215D04A4A9342DC
:1049D00024D04A4A934200D033E04FF48020FFF7BE
:1049E000F3FC424BD3F8303123F003023F493B68DC
:1049F0001343C1F8303124E03868FFF7BBFA386060
:104A00000420FFF7E1FC394BD3F8203123F00F02EB
:104A100036493B681343C1F8203112E03868FFF78C
:104A2000A9FA38600420FFF7CFFC304BD3F82031CF
:104A300023F030023B681B012C491343C1F820319D
:104A400000BF4CE07B682E4A934203D02D4A93422C
:104A500013D02DE03868FFF78DFA38604020FFF75B
:104A6000B3FC224BD3F8283123F030023B681B0102
:104A70001E491343C1F828311AE03B687F2B02D846
:104A80003B680E2B00BF3868FFF774FA0346043BFF
:104A90003B604020FFF798FC144BD3F8283123F4F7
:104AA00040723B681B0211491343C1F8283100BF13
:104AB00015E07B68114A934200D00EE04FF480204D
:104AC000FFF782FC094BD3F8303123F0030207498A
:104AD0003B681343C1F8303100BF00E000BF00BFA6
:104AE0001037BD4680BD00BF0148E80100400E40C0
:104AF00000250A008006160080162E00A00914006A
:104B000090171A009027300080B485B000AF78600D
:104B10000123FB737B6803F00F03BB60BB68013BA1
:104B2000072B00F2C48001A252F823F04D4B000085
:104B3000A34B0000D34B0000AF4C0000194C000009
:104B4000494C0000AF4C00006D4C00005D4BD3F8A9
:104B5000943003F00703023B052B1ED801A252F844
:104B600023F000BF894B0000834B00007D4B000009
:104B70008F4B00009B4B0000954B00000223FB7302
:104B80000EE00323FB730BE00423FB7308E00B230D
:104B9000FB7305E00C23FB7302E00523FB7300BFEE
:104BA00088E0484BD3F8803003F00703022B06D08F
:104BB000042B07D0012B08D10323FB7308E0022349
:104BC000FB7305E00A23FB7302E00123FB7300BFC4
:104BD00070E03C4BD3F8843003F00703013B032B18
:104BE00016D801A252F823F0F94B0000FF4B000049
:104BF0000B4C0000054C00000323FB730BE0022369
:104C0000FB7308E00A23FB7305E00623FB7302E055
:104C10000123FB7300BF4DE02A4BD3F8883003F02B
:104C20000703022B06D0042B07D0012B08D1032346
:104C3000FB7308E00223FB7305E00A23FB7302E029
:104C40000123FB7300BF35E01E4B1B6F03F0010314
:104C5000002B04D0012B05D10923FB7305E00723AA
:104C6000FB7302E00123FB7300BF23E0154BD3F875
:104C70005C3103F03003102B0CD0102B02D8002B2A
:104C800005D010E0202B08D0302B09D00BE00123F9
:104C9000FB730BE00723FB7308E00423FB7305E0C1
:104CA0000823FB7302E00123FB7300BF02E0002333
:104CB000FB7300BFFB7B18461437BD465DF8047BD1
:104CC000704700BF00400E4080B58AB000AF7860EA
:104CD0000B46FB7003237B62032387F823300023FA
:104CE000BB6100237B617B68112B19D1FB78042BFE
:104CF00003D108F027F878610BE0FB78052B08D189
:104D000000F0C8F90246A44B9A4202D900F0C2F959
:104D100078617B69002B03D00021786900F0BAFC30
:104D20007B6803F00F033B613B69013B072B00F2FB
:104D3000298101A252F823F0594D00004D4E000088
:104D40005F4E0000854F0000514E0000F54E000000
:104D5000854F0000134F0000FB78023B0A2B00F246
:104D6000138101A252F823F0954D0000A14D0000DF
:104D7000AD4D0000BF4D0000894F0000894F00007D
:104D8000894F0000894F0000894F0000D14D00007D
:104D9000DD4D000004237B62002387F8233023E0ED
:104DA00003237B62012387F823301DE002237B620B
:104DB000022387F823307948FFF70CF914E0012328
:104DC0007B62032387F823307448FFF703F90BE075
:104DD00005237B62032387F8233005E007237B62EA
:104DE000062387F8233000BF97F82330062B06D020
:104DF00097F8233001220121184600F0E9F9FFF766
:104E0000E7F9FFF7FDFA7B69002B01D0FFF7C6F841
:104E1000634A7B6A53676348FFF782FB0346184681
:104E2000FFF7D8F807F02CFFF860FFF7C5F8034646
:104E30001946F868FFF7EEF97B69002B03D10121D1
:104E4000002000F027FCFFF7E2FAA2E0564BBB611E
:104E5000BB69002B01D0BB6900E0544BBB61BB694F
:104E6000002B01D0BB6900E0514BBB61FB78013BDB
:104E7000092B00F28B8001A252F823F0A54E00000E
:104E8000AB4E0000BB4E00008D4F00008D4F000068
:104E9000CB4E00008D4F00008D4F00008D4F000065
:104EA000E74E00000023FB6120E0012201210020E9
:104EB00000F08EF90223FB6118E00122012101209C
:104EC00000F086F90123FB6110E007F0D9FE0346EC
:104ED0001846FFF77FF8012202213648FFF704F851
:104EE0000323FB6102E00423FB6100BFBB69FA6995
:104EF0001A604EE0FB78072B02D0092B04D048E063
:104F0000274B00221A6703E0254B01221A6700BFD6
:104F10003FE0FB78013B072B3AD801A252F823F07F
:104F2000414F0000914F0000914F0000574F00008B
:104F3000914F0000914F0000474F0000674F000065
:104F40000023FB6112E001220121042000F040F95E
:104F50000123FB610AE001220121022000F038F95F
:104F60000223FB6102E00323FB6100BF0C4BD3F87B
:104F70005C3123F03002FB691B0109491343C1F87E
:104F80005C3106E000BF04E000BF02E000BF00E0CB
:104F900000BF2837BD4680BD002D31010148E80122
:104FA00000400E4000250A0080400E4088400E4020
:104FB00084400E40B0400E4080B483B000AF7860B3
:104FC0007B68294A93422FD0274A934210D8274A18
:104FD000934221D0254A934203D8254A93421BD0BD
:104FE0003AE0244A934217D0234A934218D033E040
:104FF000224A934224D0214A934206D8204A93421F
:1050000016D0204A934217D026E01F4A93421BD065
:105010001E4A93421CD01FE01D4BD3F880301CE089
:105020001B4BD3F88C3018E0194BD3F8983014E0B0
:10503000174BD3F89C3010E0154BD3F8A0300CE0A0
:10504000134BD3F8A83008E0114BD3F8AC3004E090
:105050000F4BD3F8B03000E0002318460C37BD46A4
:105060005DF8047B704700BF405DC60080841E0071
:1050700040420F0000093D00C0CF6A0080BA8C0199
:105080000024F400C0EA21010048E80180D5430271
:10509000B081E00F80B400AF034B1B681846BD46DB
:1050A0005DF8047B704700BFD000002080B586B05B
:1050B00000AF78607868FFF77FFF78617B69002B2D
:1050C00003D07B69B3F1FF3F00BF3A4B1B683B61E4
:1050D000384A7B6813601120FFF716FD0346052B45
:1050E00003D1FFF775F8FFF78BF900BF182132489D
:1050F000FEF711FF0346002BF8D17B682F4A93423D
:105100000DD02F4A934211D02E4A934200D012E084
:105110007B6923F0C06343F080637B610BE07B69B4
:1051200023F0C06343F000737B6104E07B6923F0EC
:10513000C0637B6100BF1120FFF7E6FC0346052B2F
:1051400002D17868FEF746FF7A683B699A4203D934
:105150000121786800F09EFA1B4A7B6913611120D7
:10516000FFF7D2FC0346052B09D107F089FDF86053
:10517000FEF722FF03461946F868FFF74BF813487D
:10518000FFF7CEF903461846FEF724FF7A683B691D
:105190009A4203D80121002000F07CFA1120FFF789
:1051A000B3FC0346052B01D1FFF731F900BF1837D7
:1051B000BD4680BDD000002040410E4080841E00CE
:1051C00000093D0040420F0000400E4000250A004B
:1051D00080B588B000AF0346FB710B46BB71134628
:1051E0007B71FB79042B00F2B88001A252F823F006
:1051F0004D5200003B5200001752000005520000C3
:105200002952000001237B6102233B610123FB61E2
:105210000023BB6125E004237B6108233B6103235A
:10522000FB610223BB611CE010237B6120233B61F7
:105230000523FB610423BB6113E040237B618023D2
:105240003B610723FB610623BB610AE04FF48073D7
:105250007B614FF400733B610923FB610823BB6151
:1052600000BFBB79002B5BD00023FB73FB79022BC3
:1052700011D1FFF70BF80346002B0CD1394BDB6B38
:105280000123FB73384B5B6A03F00103012B02D14E
:105290000120FFF709F8344A7B69136600BFB9693A
:1052A0003248FEF738FE0346002BF8D07B79002BFE
:1052B00054D000BFF9692D48FEF72DFE0346002BA0
:1052C000F8D0FB79022B49D1FB7B002B46D0264B33
:1052D0005B6A03F00103012B05D10122202102208A
:1052E00000F04AF903E00021022000F0FBF8022060
:1052F00000F03EF8B860012200210220FFF768FFAD
:10530000B968022000F06EF8174A7B69136600BF87
:10531000F9691648FEF7FFFD0346002BF8D01DE0A3
:10532000114A3B69136600BF0F4BD3F8903001213F
:10533000BA6901FA02F21340002BF5D17B79002BF8
:105340000CD000BF084BD3F890300121FA6901FA64
:1053500002F21340002BF5D100E000BF2037BD461C
:1053600080BD00BF00300E4000400E4090400E4017
:1053700080B485B000AF0346FB71FB79013B032B82
:1053800023D801A252F823F099530000BD53000026
:10539000A5530000B1530000114B1B6AC3F308036F
:1053A000FB6015E00E4B1B6903F07F03FB600FE011
:1053B0000B4B9B6903F07F03FB6009E0084BD3F8BC
:1053C0009C30C3F30A03FB6002E00023FB6000BFD4
:1053D000FB6818461437BD465DF8047B704700BF74
:1053E00000400E4080B584B000AF03463960FB71C9
:1053F000FB79013B032B6AD801A252F823F000BFCE
:1054000011540000935400003F5400006954000000
:105410003B68C3F308033B6000BF1A212E48FEF728
:105420007AFD0346002BF8D12C4B1B6A23F4FF7343
:1054300023F0010329493A6813430B6248E03B68B3
:1054400003F07F033B6000BF18212348FEF763FD94
:105450000346002BF8D1214B1B6923F07F021F4923
:105460003B6813430B6133E03B6803F07F033B6011
:1054700000BF19211848FEF74EFD0346002BF8D156
:10548000164B9B6923F07F0214493B6813438B61E1
:105490001EE0124BD3F89030104B5B6A23F03003C0
:1054A0000E4A43F0100353623B68DB0903F00F031D
:1054B0001846FEF7CFFEF860084B1A6B084B1340F6
:1054C0003A681A430549FB6813430B6300E000BFC9
:1054D00000BF1037BD4680BD40410E4000400E4029
:1054E00000F8FF0F80B584B000AF03460A46FB7199
:1054F0001346BB71FEF7CAFE0346002B03D14FF4DF
:105500004003FB6016E0BB79202B04D0302B0AD07F
:10551000002B04D00BE04FF40003FB600AE04FF4D3
:105520004003FB6006E04FF44003FB6002E0104BD9
:10553000FB6000BF00BF0F4BD3F89020FB68134007
:10554000FA689A42F7D1FB6803F48003002B0AD073
:10555000084BD3F8A03003F48063002B14BF012361
:105560000023DBB200E0012318461037BD4680BDA2
:10557000FF33E10700400E4080B582B000AF034624
:10558000FB710B46BB7113467B71FB79022B00D07C
:1055900016E0BB79002B07D00C4B4FF48062C3F8A8
:1055A000A8200A4ABB7953667B79002B07D0BA79C9
:1055B000FB7911461846FFF795FF034601E000BF4F
:1055C000012318460837BD4680BD00BF00400E408D
:1055D00080B483B000AFEFF310833B603B687B6027
:1055E00072B67B6818460C37BD465DF8047B704781
:1055F00080B483B000AF78607B68002B00D162B6C6
:1056000000BF0C37BD465DF8047B704780B485B0A1
:1056100000AF786039607B6803F10473DA003B689F
:1056200013449B00FB60FB681B6818461437BD469B
:105630005DF8047B7047000080B500AF00BF122109
:105640000348FFF7E3FF0346002BF8D100BF80BDFE
:1056500004300E4080B500AFFFF7EEFF034B5B68F0
:105660001B0C03F00303DBB2184680BD00300E4074
:1056700080B483B000AF0346FB71FB79C3F1020332
:10568000102202FA03F318460C37BD465DF8047B7E
:105690007047000080B584B000AF78600B46FB70A7
:1056A000154BD3F800311B0A03F01F030133BB6015
:1056B0007B68002B07D107F00DFB0246BB6802FB9D
:1056C00003F3FB6001E07B68FB600C4B1B78002B55
:1056D00009D0FB680A4A934205D8FB781946022094
:1056E00000F010F804E0FB781946002000F00AF8FA
:1056F00000BF1037BD4680BD00400E40680200204C
:10570000FF2C310190B587B000AF03460A46FB710C
:105710001346BB711B4BD3F800311B0A03F01F0368
:1057200001337B6107F0D6FA3861FFF793FF034638
:10573000FB73FA7BFB799A421FD03B697A6902FBC3
:1057400003F3BB60FB79022B03D102213869FEF71A
:1057500061FD0D4CFB791846FFF78AFF0346236174
:10576000BB79002B01D0FFF767FFFB79002B05D138
:1057700000213869FEF74EFD00E000BF1C37BD4632
:1057800090BD00BF00400E4000300E4080B485B098
:1057900000AF786039607B6803F1C063FB60FB6831
:1057A0003A681A6000BF1437BD465DF8047B704745
:1057B00080B485B000AF786039607B6803F18063A6
:1057C000FB60FB683A681A6000BF1437BD465DF89D
:1057D000047B704780B584B000AFF860B9607A6030
:1057E000B968F868FFF7E4FF7968F868FFF7CEFF5B
:1057F00000BF1037BD4680BD80B582B000AF034604
:105800003960FB71FB79002B1CD0FB79012B19D07F
:10581000FB79022B16D0FB79032B13D0FB79042BD9
:1058200010D0FB79052B0DD0FB79062B0AD0FB7924
:10583000072B07D0FB79082B04D0FB79092B01D06B
:10584000FB790A2BFA7913465B0013441B010C33D6
:1058500003F1804303F5204301213A6801FA02F283
:1058600011461846FFF7A4FF00BF0837BD4680BDAC
:1058700080B582B000AF03463960FB71FB79002B25
:105880001CD0FB79012B19D0FB79022B16D0FB79A8
:10589000032B13D0FB79042B10D0FB79052B0DD0F3
:1058A000FB79062B0AD0FB79072B07D0FB79082B55
:1058B00004D0FB79092B01D0FB790A2BFA79134626
:1058C0005B0013441B010C3303F1804303F52043B9
:1058D00001213A6801FA02F211461846FFF756FF15
:1058E00000BF0837BD4680BD80B582B000AF03461B
:1058F0003960FB71FB79002B1DD0FB79012B1AD08D
:10590000FB79022B17D0FB79032B14D0FB79042BE6
:1059100016D0FB79052B0ED0FB79062B10D0FB7926
:10592000072B0DD0FB79082B05D0FB79092B02D072
:10593000FB790A2B04D13B6823F00113002B00BF35
:10594000FA7913465B0013441B0103F1804303F50E
:1059500020433A684FF001111846FFF73BFF00BFA4
:105960000837BD4680BD000080B584B000AFB96087
:105970007B600346FB731346BB73FB7B002B1CD081
:10598000FB7B012B19D0FB7B022B16D0FB7B032B5F
:1059900013D0FB7B042B10D0FB7B052B0DD0FB7BA6
:1059A000062B0AD0FB7B072B07D0FB7B082B04D0F0
:1059B000FB7B092B01D0FB7B0A2BBB7B002B0DD083
:1059C0007B68002B05D0FB7BB9681846FFF750FFBA
:1059D00004E0FB7BB9681846FFF70EFFBB68072B96
:1059E00020D82E49FA7B13465B0013441B010B445D
:1059F00004331A68BB689B000F2101FA03F3DB43F1
:105A00001340B97BBA68920001FA02F211462348AA
:105A1000FA7B194313465B0013441B010344043310
:105A2000196025E01D49FA7B13465B0013441B01F6
:105A30000B4408331A68BB6803F18043083B9B00A2
:105A40000F2101FA03F3DB4302EA0301BA7BBB68CF
:105A500003F18043083B9B0002FA03F30F48FA7BF3
:105A6000194313465B0013441B01034408331960B8
:105A7000BB7B002B0DD17B68002B05D0FB7BB9686D
:105A80001846FFF7F5FE04E0FB7BB9681846FFF700
:105A9000B3FE00BF1037BD4680BD00BF00A0004070
:105AA00080B584B000AFF860B9607A60BB689AB224
:105AB0007B689BB213439BB21A460021F86800F042
:105AC00005F800BF1037BD4680BD000080B485B02A
:105AD00000AF78600B46FB7013463B803A8847F670
