:1000000000000420E1D300000DD400000DD4000056
:100010000DD400000DD400000DD400000DD400005C
:100020000DD400000DD400000DD40000619B000031
:100030000DD400000CD40000719D0000D99D00007B
:100040000DD400000DD400000DD400000DD400002C
:100050000DD400000DD400000DD400000DD400001C
:100060000DD400000DD400007B40000065C50000E9
:100070000DD400000DD400000DD400000DD40000FC
:100080000DD400000DD400008B4000000DD4000002
:100090000DD400000DD400000DD400000DD40000DC
:1000A0000DD400000DD400000DD400000DD40000CC
:1000B0000DD400000DD400000DD400000DD40000BC
:1000C0000DD400000DD400000DD400000DD40000AC
:1000D0000DD400000DD400000DD400000DD400009C
:1000E0000DD400000DD400000DD400000DD400008C
:1000F0000DD400000DD400000DD400000DD400007C
:100100000DD400000DD400000DD4000010B5054C36
:10011000237833B9044B13B10448AFF300800123B3
:10012000237010BD4C030020000000004824010093
:1001300008B5034B1BB103490348AFF3008008BD6A
:10014000000000005003002048240100154B002B44
:1001500008BF134B9D46A3F5803A00218B460F46FE
:100160001348144A121A10F033FD0F4B002B00D025
:1001700098470E4B002B00D0984700200021040028
:100180000D000D48002802D00C48AFF3008010F09D
:10019000C9FC2000290002F01BFC10F0AFFC00BFDE
:1001A0000000080000000420000000000000000023
:1001B0004C030020B8860020000000000000000072
:1001C00080B500AF05F0D2FB0346184680BD0000A5
:1001D00080B500AF01220121032005F065FC07482E
:1001E00005F0D0FBFFF7ECFF0121054804F09EFD70
:1001F0000121044804F09AFD00BF80BD80D5430270
:100200004041050000250A0080B582B000AF78604B
:100210007B6800221A757B681B49184610F023FD85
:100220007B6800225A757B6800229A757B680022E1
:1002300083F820207B68002283F820207B684FF021
:100240007E525A627B68114A9A627B68104A5A64ED
:100250007B680A229A877B681222DA877B680A22E7
:10026000A3F840207B680B4A9A647B680222A3F8BB
:1002700042207B68084ADA627B684FF000029A6588
:1002800000BF0837BD4680BD7C1501004260653C5B
:1002900000A0CD44000ECE471F856B3EB0B584B0A4
:1002A00000AF78600B46FB707B68FA781A75FB78B4
:1002B000032B47D801A252F823F000BFCD02000063
:1002C000EB02000009030000270300007B682449BB
:1002D000184610F0C8FC7B68224A03F13C0415461E
:1002E0000FCD0FC42B68236036E07B681E4918468B
:1002F00010F0B9FC7B681D4A03F13C0415460FCD94
:100300000FC42B68236027E07B681949184610F05A
:10031000AAFC7B68174A03F13C0415460FCD0FC4B5
:100320002B68236018E07B681349184610F09BFC8B
:100330007B68124A03F13C0415460FCD0FC42B68AD
:10034000236009E04FF0A00383F31188BFF36F8FA0
:10035000BFF34F8FFB60FEE700BF1037BD46B0BD57
:100360007C1501000000002084150100140000200D
:100370008C15010028000020981501003C00002089
:1003800080B483B000AF78607B684FF000029A6061
:100390007B6800221A6000BF0C37BD465DF8047B05
:1003A000704780B483B000AF78607B6802221A7017
:1003B0007B6800225A707B684FF000025A6000BFD1
:1003C0000C37BD465DF8047B704780B483B000AF46
:1003D00078607B6800221A707B6800225A707B6804
:1003E00000229A7000BF0C37BD465DF8047B704751
:1003F00090B587B002AF78603223BB810223FB73D4
:10040000734B0093002301224FF4C87171480BF025
:100410003BFD0246704B1A606F4B1C680AF0EAFE07
:1004200003461A460A2300930023012120460BF0BD
:100430007BFD0CF055F900F0FFF803461A46674BB8
:100440001A70674B1B78052B00F2BD8001A252F891
:1004500023F000BFC70500006D040000C7050000C1
:10046000B304000095050000C70500005B4B1A7837
:100470005C4B1B789A421AD0584B1A78594B1A7019
:10048000564B1B78012B02D0042B08D010E0564BA2
:10049000186800230322AD210BF092FB08E0524BB9
:1004A000186800230322DE210BF08AFB00E000BF66
:1004B00089E04A4B1B78013B032B1FD801A252F85D
:1004C00023F000BFD5040000DF040000E9040000B1
:1004D000F30400000023FB730223BB7313E001232A
:1004E000FB730123BB730EE00323FB73FF23BB737A
:1004F00009E00423FB73FE23BB7304E00223FB73B8
:100500000023BB7300BF394B186800231E22002153
:100510000AF03AF8364AFB7B1370354B93ED017ABB
:1005200097F90E3007EE903AF8EEE77A77EE277AF1
:100530002F4BC3ED017A2E4BD3ED017A9FED2D7A2F
:10054000F4EEC77AF1EE10FA0ADD294BD3ED017A09
:100550009FED287A77EEC77A254BC3ED017A11E03B
:10056000234BD3ED017AF5EEC07AF1EE10FA09D5FE
:100570001F4BD3ED017A9FED1F7A77EE877A1C4BE4
:10058000C3ED017A194B186800230022002109F0FD
:1005900045FE18E0154B186800230A22002109F0D7
:1005A000F3FF134B02221A70114B00225A70104BAA
:1005B0004FF000025A600D4B186800230022002102
:1005C00009F02CFE00BFBB8918460AF0DFFB32E7BA
:1005D000F90500009C1501006C0300207003002049
:1005E0006803002071030020FC8400208085002027
:1005F000908500200000B44380B582B000AF7860E1
:100600000A4B186800236422002109F0BDFF084B43
:100610001A78084B1A70054B186800230022002135
:1006200009F0FCFD00BF0837BD4680BD7C85002079
:10063000E20300206803002090B583B000AF4FF0C4
:10064000804004F0A3F80CF021F80023FB71002394
:10065000BB7119E0BC79BB7918460BF0C1FF0346AA
:100660001A4607F10803234403F8082CBB7907F165
:100670000802134413F8083C002B02D0FB79013325
:10068000FB71BB790133BB71BB79032BE2D94FF00E
:10069000804004F061F8FB79002B02D0FB79012B3C
:1006A00001D9002315E00023BB710EE0BB7907F1EF
:1006B0000802134413F8083C002B03D0BB79013324
:1006C000DBB206E0BB790133BB71BB79032BEDD9FB
:1006D000002318460C37BD4690BD0000F0B5AFB002
:1006E00020AF7860AC4B1B681B885B089AB2AB4BA1
:1006F0001A800CF055F838633B6B002B09D04FF093
:10070000A00383F31188BFF36F8FBFF34F8F3B625A
:10071000FEE7002007F050FD38633B6B002B09D04B
:100720004FF0A00383F31188BFF36F8FBFF34F8F98
:10073000FB61FEE7984808F035F838633B6B002B07
:1007400009D04FF0A00383F31188BFF36F8FBFF37D
:100750004F8FBB61FEE7904B6FF07F425A608E4B2C
:1007600000229A608E4B19888E4B00930023002242
:100770008D480BF089FB02468C4B1A60884B198818
:100780008B4B0093002300228A480BF07DFB02462E
:10079000894B1A60894B1988894B009300230022EA
:1007A00088480BF071FB0246874B1A60874B18682C
:1007B00000230A22002109F0E7FE854B1A78854BB9
:1007C0001A70824B186800230022002109F026FDD0
:1007D000804B1B78052B00F2E78301A252F823F02F
:1007E000F90700002F0800006B0B0000390C000017
:1007F000F50D0000FF0E000000F064FC07F02CFF78
:100800006A4B1B6818460BF05BFE0346002B40F05A
:10081000C483664B1C680AF0EDFC03461A460A23A3
:1008200000930023012120460BF07EFBB5E35F4BD4
:100830001B6818460BF044FE0346012B08D15B4BA6
:1008400018680A2300930023002203210BF06CFB9D
:10085000614B1B7883F00103DBB2002B28D05F4B88
:10086000186800230A22002109F08EFE5C4B1B78D9
:100870005C4C14935C4A13AB1188927819809A707F
:10088000684604F110034C22194610F096F994E8DA
:100890000F0000F0E5FE514B1868002300220021F4
:1008A00009F0BCFC07F0D8FE4B4B01221A707BE329
:1008B00007F114024FF6FF734FF0FF314FF0FF3096
:1008C0000BF01AF97B69AD2B00F01F81AD2B06D818
:1008D000552B00F0C080AA2B00F0928064E3DE2B41
:1008E00000F0E480414A934200D05DE33B4B18683E
:1008F00000230A22002109F047FE3A4C3C4B139397
:10090000684604F110034C22194610F056F994E899
:100910000F0001F039FB374B186800230A22002131
:1009200009F032FE344B304A1188927819809A705F
:100930002D4B1B781946314803F046FC2F4BDB69E1
:100940001B68284A93612D4BDB695B68254AD3619C
:10095000224B186800230022002109F05FFC254B80
:10096000186800230022002109F058FC174B186872
:1009700000230A22002109F007FE154B02221A70FB
:10098000124B186800230022002109F047FC124B8B
:1009900000221A70E8E000BF74030020BC030020AE
:1009A000500000202D100000AC150100A003002015
:1009B00075100000BC150100A403002052000020A7
:1009C0009D100000CC150100A80300207C850020AC
:1009D000E2030020BE030020BF0300207885002032
:1009E0005400002004850020BC850020F0DEBC0AF5
:1009F000AC03002064850020C00300209C850020FB
:100A0000A14800F0B1FEA14B186800230A22002182
:100A100009F0BAFD9C4B1B789D4C14939D4A13AB77
:100A20001268114619800233120C1A70684604F1DC
:100A300010034C22194610F0C0F894E80F0000F0A3
:100A40000FFE924B186800230022002109F0E6FBFC
:100A500007F002FE88E08C4800F0B2FE8B4B18686D
:100A600000230A22002109F08FFD874B1B78884C58
:100A70001493884A13AB1268114619800233120C82
:100A80001A70684604F110034C22194610F095F8CC
:100A900094E80F0000F0E4FD7C4B1868002300226E
:100AA000002109F0BBFB07F0D7FD5DE0774B18682C
:100AB00000230A22002109F067FD734B1B78754A59
:100AC0007349184600F0A8FE6F4B1B78704C1493C6
:100AD000704A13AB1268114619800233120C1A7057
:100AE000684604F110034C22194610F066F894E8A9
:100AF0000F0000F0B5FD654B1868002300220021AF
:100B000009F08CFB07F0A8FD2EE0604B186800236D
:100B10000A22002109F038FD5B4B1B785D4A5C49D5
:100B2000184600F0A9FE584B1B78594C1493594AAB
:100B300013AB1268114619800233120C1A70684602
:100B400004F110034C22194610F037F894E80F0016
:100B500000F086FD4D4B186800230022002109F0AB
:100B60005DFB07F079FD00BF1EE24B4B1B78013B9C
:100B7000DBB2184600F0ACFF07F06EFD464B1B7869
:100B8000013BDAB2444B1A70434B1B78002B40F008
:100B90000682414B04221A70404B186800230A2237
:100BA000002109F0F1FC0346002B0DD03C4B032241
:100BB0001A703B4B1A783B4B1A70384B186800235D
:100BC0000022002109F02AFB374B186800230A2273
:100BD000002109F0D9FC354B00229A82344B186869
:100BE00000231422002109F0CFFC0346002B14D06F
:100BF0002E4C6D4604F110030FCB85E80F0094E8EE
:100C00000F0003F0B3FB02462A4B5A60284B1868CA
:100C100000230022002109F001FB234B1868002368
:100C20000022002109F0FAFA234B1B6818460AF04B
:100C300099F90FF009FAB2E107F1100200234FF021
:100C4000FF314FF0FF300AF057FF0346012B37D139
:100C50003B691A4A934240F0A481104B1868002364
:100C60000A22002109F090FC0D4B04221A700C4B53
:100C70001A780C4B1A70094B1868002300220021C7
:100C800009F0CCFA8DE100BF5400002078850020E7
:100C900004850020C0030020550000207C85002032
:100CA000E2030020BE030020648500209C85002014
:100CB00080850020908500208C8500202143658759
:100CC000BF4B186800230A22002109F05DFC03468F
:100CD000002B0CD0BB4ABC4B14460FCB84E80F0052
:100CE000B74B186800230022002109F097FAB74B90
:100CF000186800230A22002109F046FC0346002B55
:100D00000CD0B34BB34A92E8030083E80300AF4B27
:100D1000186800230022002109F080FAAE4CAC4A8A
:100D200004AB92E8030083E80300A64B6D460FCBAB
:100D300085E80F0094E80F0000F022FFA74B186829
:100D400000230A22002109F01FFC0346002B34D0A7
:100D5000A34B186800230A22002109F015FC034662
:100D6000002B23D09F4E974B1BAC0FCB84E80F007A
:100D70009D4B13AC1D460FCD0FC495E80F0084E8C2
:100D80000F00684606F110034C2219460FF015FFBC
:100D900096E80F0001F02EF9034687F83730904BA4
:100DA000186800230022002109F038FA8B4B1868DC
:100DB00000230022002109F031FA97F83730002B88
:100DC00014D08A4B186800230A22002109F0DCFBAA
:100DD000874B04221A70864B1A78864B1A70834B05
:100DE000186800230022002109F018FA07F034FCEB
:100DF00000BFD9E00FF044F97F4B1B78002B05D0E2
:100E000001F02EFA7C4B00221A7004E001F0D4F9B4
:100E1000794B01221A7007F01FFC784B1B681846AB
:100E20000BF04EFB0346002B0CD1744B1C680AF0F0
:100E3000E1F903461A460A230093002302212046C3
:100E40000BF072F807F10C0200234FF0FF314FF066
:100E5000FF300AF051FE0346012B40F0A480FB68EE
:100E6000674A934240F09F80554B18680023052243
:100E7000002109F089FB544B5B68FB62504B1868FA
:100E800000230022002109F0C9F9554B18680023FE
:100E90000522002109F078FB524BD3ED167AFCEEC7
:100EA000E77A17EE903ABB624D4B18680023002298
:100EB000002109F0B3F90FF0F5F803461A46B96AB4
:100EC000F86A0FF09FF87862796A4E480FF05AF886
:100ED000464B186800230A22002109F055FB444BB9
:100EE00005221A70424B1A78424B1A703F4B186811
:100EF00000230022002109F091F900BF53E0414E88
:100F00006D4606F110040FCC0FC594E8070085E884
:100F1000070096E80F0001F0F7F907F09DFB3A4B48
:100F20001B6818460BF0CCFA0346002B0CD1364B4D
:100F30001C680AF05FF903461A460A23009300234F
:100F4000022120460AF0F0FF07F108024FF6FF7376
:100F50004FF0FF314FF0FF300AF0CEFDBB682B4A57
:100F6000934221D1214B186800230A22002109F065
:100F70000BFB1F4B00221A701D4B1A781D4B1A7069
:100F80001A4B186800230022002109F047F9204B72
:100F90001B6818460AF0B8FE06E000BF04E000BF78
:100FA00002E000BF00E000BF124B1B78022B33D1E0
:100FB000184B1B88184609F0E9FEFFF7F7BB00BF86
:100FC00084850020C40300206885002080850020DF
:100FD000D403002090850020AC030020648500200D
:100FE00078850020048500209C8500207C850020D9
:100FF000E2030020BE030020DC030020A403002045
:1010000078563412C0850020A8030020B1CAED0F25
:10101000FC84002056000020034B1B88184609F072
:10102000B5FEFFF7C3BB00BF5800002080B582B0FB
:1010300000AF78600D4B186800230A22002109F0E8
:10104000A3FA0346012B0DD1094B1B78002B02D1CB
:10105000074B01221A70054B18680023002200215B
:1010600009F0DCF800BF0837BD4680BD7C85002054
:10107000E203002080B582B000AF7860054B1868AD
:101080000023032204490AF09BFD00BF0837BD4638
:1010900080BD00BFFC8400207856341280B582B039
:1010A00000AF7860054B18680023032204490AF05A
:1010B00087FD00BF0837BD4680BD00BFFC8400200F
:1010C000B1CAED0FF0B58FB002AF374807F0FDFBA6
:1010D0003649354808F0F3FA3B46354A3021184680
:1010E0000FF07EFD3B4618460FF0C5FD06462E4B21
:1010F0001B681B885B089BB21C462B4B93F8243063
:101100001A46294B93F8273013441D463B46184690
:101110000FF0B1FD034603FB05F35B08E31A1A4623
:1011200039460023019305230093134632461E4897
:1011300008F05EFA3B461F4A302118460FF050FD7A
:101140003B4618460FF097FD0646174B1B681B8859
:101150005B089BB21C46144B93F824301A46124B82
:1011600093F8273013441D463B4618460FF083FD85
:10117000034603FB05F35B08E31A18460A4B93F892
:1011800025301A4613465B001344053339460022C6
:101190000192009303463246034808F029FA00BF43
:1011A0003437BD46F0BD00BF74030020B81E0100F7
:1011B000DC150100E815010090B591B002AF0346BF
:1011C000FB713549354808F07AFA07F10803344ACB
:1011D000302118460FF004FD07F1080318460FF000
:1011E0004AFD2E4B93F825309B0007F108010022A1
:1011F000019200930A230246284808F0F9F9FB7986
:10120000032B2BD801A252F823F000BF1D120000BF
:101210002D1200003D1200004D12000007F10803DE
:10122000204A302118460FF0DBFC17E007F10803D5
:101230001D4A302118460FF0D3FC0FE007F10803D8
:101240001A4A302118460FF0CBFC07E007F10803DB
:10125000174A302118460FF0C3FC00BF07F10803FE
:1012600018460FF008FD04460C4B1B681B88A3F1C1
:1012700033000A4B93F825309B0007F10801002248
:101280000192009303462246044808F0B1F900BFDA
:101290003C37BD4690BD00BF881B01007403002091
:1012A000F4150100FC150100041601000C160100E4
:1012B0001416010090B591B002AF0346FB71374997
:1012C000374808F0FCF907F10803364A3021184680
:1012D0000FF086FC07F1080318460FF0CCFC304BEA
:1012E00093F825301A4613469B00134407F1080172
:1012F0000022019200930A230246294808F078F957
:10130000FB79032B2AD801A252F823F01D13000009
:101310002D1300003D1300004D13000007F10803DA
:10132000214A302118460FF05BFC17E007F1080353
:101330001E4A302118460FF053FC0FE007F1080356
:101340001B4A302118460FF04BFC07E007F1080359
:10135000184A302118460FF043FC00BF07F108037C
:1013600018460FF088FC04460D4B1B681B88A3F140
:1013700033000B4B93F825301A4613469B00134459
:1013800007F1080100220192009303462246044817
:1013900008F02EF900BF3C37BD4690BD881B010008
:1013A00074030020241601003016010038160100D5
:1013B000401601004C16010090B591B002AF0346F3
:1013C000FB713249324808F07AF907F10803314AD3
:1013D000302118460FF004FC07F1080318460FF0FF
:1013E0004AFC2B4B93F825301A4613465B001344F6
:1013F0005B001A4607F108010023019300920A23BB
:101400000246234808F0F4F8FB79012B0BD0022B9D
:1014100011D0002B17D107F108031F4A30211846BD
:101420000FF0DEFB0FE007F108031C4A30211846DD
:101430000FF0D6FB07E007F10803194A30211846E0
:101440000FF0CEFB00BF07F1080318460FF013FCA6
:1014500004460F4B1B681B88A3F133000C4B93F819
:1014600025301A4613465B0013445B001A4607F109
:10147000080100230193009203462246044808F025
:10148000B7F800BF3C37BD4690BD00BF881B0100C8
:1014900074030020501601005C1601006416010060
:1014A0006C16010090B591B002AF0346FB71304954
:1014B000304808F004F907F108032F4A3021184694
:1014C0000FF08EFB07F1080318460FF0D4FB294BF1
:1014D00093F825301A461346DB009B1A07F10801E2
:1014E0000022019200930A230246224808F080F865
:1014F000FB79012B0BD0022B11D0002B17D107F158
:1015000008031E4A302118460FF06AFB0FE007F16E
:1015100008031B4A302118460FF062FB07E007F171
:101520000803184A302118460FF05AFB00BF07F194
:10153000080318460FF09FFB04460E4B1B681B88E0
:10154000A3F133000B4B93F825301A461346DB000A
:101550009B1A07F1080100220192009303462246DC
:10156000044808F045F800BF3C37BD4690BD00BFB9
:10157000881B01007403002074160100801601000E
:10158000881601006C16010090B591B002AF0346B9
:10159000FB712D492D4808F092F807F108032C4AF9
:1015A000302118460FF01CFB07F1080318460FF016
:1015B00062FB264B93F82530DB0007F1080100227F
:1015C000019200930A230246204808F011F8FB79A3
:1015D000012B0BD0022B11D0002B17D107F10803E0
:1015E0001C4A302118460FF0FBFA0FE007F1080300
:1015F000194A302118460FF0F3FA07E007F1080303
:10160000164A302118460FF0EBFA00BF07F1080325
:1016100018460FF030FB04460C4B1B681B88A3F1E7
:1016200033000A4B93F82530DB0007F10801002254
:101630000192009303462246044807F0D9FF00BFF9
:101640003C37BD4690BD00BF881B010074030020DD
:101650009016010098160100A0160100A8160100BE
:1016600084B0F0B58FB002AF07F1480484E80F00F2
:101670003A4807F02AF93A49384808F020F83B463A
:10168000384A302118460FF0ABFA3B4618460FF0A7
:10169000F2FA0646314B1B681B885B089BB21C465E
:1016A0002E4B93F824301A462C4B93F827301344D2
:1016B0001D463B4618460FF0DEFA034603FB05F3D2
:1016C0005B08E31A1A463946002301930523009369
:1016D00013463246214807F08BFF204B93F8253004
:1016E0005A001E4B1B681B8819461C4B93F825306B
:1016F0005B0000930B464FF0FF31184807F08FFC5A
:1017000097F8A830154A92F8252002FB03F3DA1C5B
:1017100002230321114807F0D2F997F8A4301846A4
:10172000FFF74AFD97F85C301846FFF7C3FD97F8BE
:1017300068301846FFF740FE97F85D301846FFF70F
:10174000B1FE97F85E301846FFF71EFF00BF343732
:10175000BD46BDE8F04004B0704700BF74030020F0
:10176000B81E0100B016010080B483B000AF7860ED
:101770007B681B78043B032B1AD801A252F823F094
:101780009117000099170000A1170000A917000089
:101790007B6805221A700CE07B6806221A7008E04C
:1017A0007B6807221A7004E07B6808221A7000E048
:1017B00000BF00BF0C37BD465DF8047B704700BF1B
:1017C00080B483B000AF78607B681B78053B032B47
:1017D0001AD801A252F823F0E9170000F11700000F
:1017E000F9170000011800007B6804221A700CE051
:1017F0007B6805221A7008E07B6806221A7004E0F4
:101800007B6807221A7000E000BF00BF0C37BD469E
:101810005DF8047B704700BF80B584B000AF03461D
:10182000B9607A60FB73FB7B043B042B20D801A2D8
:1018300052F823F049180000511800005918000010
:101840006118000069180000786800F045F80FE0A2
:10185000B86800F06DF80BE0B86800F0A9F807E090
:10186000B86800F0DDF803E0B86800F005F900BFE3
:1018700000BF1037BD4680BD80B584B000AF0346C1
:10188000B9607A60FB73FB7B043B042B20D801A278
:1018900052F823F0A9180000B1180000B918000090
:1018A000C1180000C9180000786800F02BF80FE09C
:1018B000B86800F05DF80BE0B86800F095F807E054
:1018C000B86800F0C3F803E0B86800F0EBF800BFB8
:1018D00000BF1037BD4680BD80B483B000AF7860D4
:1018E0007B681B78032B06D07B681B780133DAB248
:1018F0007B681A7000E000BF00BF0C37BD465DF882
:10190000047B704780B483B000AF78607B681B783D
:10191000002B06D07B681B78013BDAB27B681A701B
:1019200000E000BF00BF0C37BD465DF8047B704788
:1019300080B582B000AF78607B681B7D012B09D039
:10194000022B0CD0002B00D00EE001217868FEF7AE
:10195000A5FC09E002217868FEF7A0FC04E0032161
:101960007868FEF79BFC00BF00BF0837BD4680BD0E
:1019700080B582B000AF78607B681B7D022B09D0F8
:10198000032B0CD0012B00D00EE000217868FEF76D
:1019900085FC09E001217868FEF780FC04E0022163
:1019A0007868FEF77BFC00BF00BF0837BD4680BDEE
:1019B00080B483B000AF78607B6893F82030002B50
:1019C00002D0012B05D009E07B68012283F820209A
:1019D00004E07B68022283F8202000BF00BF0C37A0
:1019E000BD465DF8047B704780B483B000AF78607B
:1019F0007B6893F82030012B02D0022B05D009E040
:101A00007B68002283F8202004E07B68012283F8B1
:101A1000202000BF00BF0C37BD465DF8047B704737
:101A200080B483B000AF78607B685B7D022B06D00A
:101A30007B685B7D0133DAB27B685A7500E000BFDA
:101A400000BF0C37BD465DF8047B704780B483B09F
:101A500000AF78607B685B7D002B06D07B685B7D88
:101A6000013BDAB27B685A7500E000BF00BF0C375B
:101A7000BD465DF8047B704780B483B000AF7860EA
:101A80007B689B7D022B06D07B689B7D0133DAB29D
:101A90007B689A7500E000BF00BF0C37BD465DF85B
:101AA000047B704780B483B000AF78607B689B7D17
:101AB000002B06D07B689B7D013BDAB27B689A7570
:101AC00000E000BF00BF0C37BD465DF8047B7047E7
:101AD000B0B592B002AF0346FB71FB7907F10C0180
:101AE0000A2218460FF042F8234806F0EEFE23497A
:101AF000214807F0E4FD07F10C0207F11003302143
:101B000018460FF06DF807F1100318460FF0B3F800
:101B10000546194B1B681B885B089BB21C4607F1E6
:101B2000100318460FF0A7F80246134B93F8243021
:101B30001946114B93F827300B4403FB02F35B0863
:101B4000E31A18460C4B1B685B885B089BB21A466D
:101B5000094B93F825305B08DBB2D31A07F110016B
:101B600000220192009303462A46034807F040FDF5
:101B700000BF4037BD46B0BD74030020A82001005F
:101B800090B587B002AF3C4684E80F000B4806F0E2
:101B90009CFE07F120030FCB00F012F86A4607F114
:101BA000300393E8030082E803003B460FCB00F0CC
:101BB00021F900BF1437BD4690BD00BF740300205B
:101BC00090B59DB002AF3C4684E80F0005237B65CD
:101BD0000523BB65844B1B681B885B089BB2FB65B8
:101BE000814B93F825303B66D7ED027AF5EE407ACB
:101BF000F1EE10FA1AD17C4B1B681B885B089BB274
:101C00000533DA0F13445B107B640523BB64764B0A
:101C10001B681B885B089BB20533DA0F13445B100B
:101C2000FB64714B93F825303B657AE0D7ED027A7F
:101C3000F5EEC07AF1EE10FA3DDB6B4B1B681B88AA
:101C40005B089BB20533DA0F13445B107B640523FA
:101C5000BB64654B1B681B885B089BB20533DA0FBE
:101C600013445B1007EE903AB8EEE77AD7ED026ABC
:101C70005D4B1B681B885B089BB219465A4B1B685F
:101C80001B885B089BB20533DA0F13445B105B4281
:101C90000B4407EE903AF8EEE77A66EEA77A77EE15
:101CA000277AFDEEE77A17EE903AFB644E4B93F8F5
:101CB00025303B6535E04C4B1B681B885B089BB2AD
:101CC0000533DA0F13445B1007EE903AB8EEE77A6B
:101CD000454B1B681B885B089BB20533DA0F134426
:101CE0005B10053B07EE903AF8EEE76AD7ED027A13
:101CF00066EEA77A77EE277AFDEEE77A17EE903A4E
:101D00007B640523BB64384B1B681B885B089BB254
:101D10000533DA0F13445B10FB64334B93F8253023
:101D20003B6507F1540319462F4807F08FFA07F176
:101D3000440319462C4807F0FFFA2C4A07F1100318
:101D400092E8030018600433198002330A0C1A70F9
:101D500007F117032922002118460EF039FF3B46F0
:101D60000FCB00F005FA78667B6E07F140010A227E
:101D700018460EF0FBFE07F1400207F11003114672
:101D800018460EF061FF1A49174807F098FC07F152
:101D9000100318460EF06FFF134B1B681B88A3F14E
:101DA000380207F110010023019303230093134627
:101DB00002460D4807F01CFC0B4B93F825305A00E7
:101DC000094B1B681B881946074B93F825305B00AD
:101DD00000930B464FF0FF31034807F020F900BF96
:101DE0006C37BD4690BD00BF74030020BC160100D7
:101DF000881B010090B587B002AF3C4684E80F0015
:101E000097F82030042B00F2B78001A252F823F09B
:101E1000831E0000311E0000251E0000D51E00009C
:101E2000271F00003B461946564807F00FFAA4E06A
:101E30003B68991C7A683868FB68009303465148F0
:101E400007F0EDF8BB68991C7A68B868FB680093E6
:101E500003464C4807F0E3F8B968FA683868FB684D
:101E600000930346474807F0DAF8BB68991C7A6884
:101E70003B68981C7B6800930346424807F0CFF804
:101E80007BE03B68191D7A683868FB68009303465D
:101E90003C4807F0C4F8BB68191D7A68B868FB684D
:101EA00000930346374807F0BAF8B968FA6838680B
:101EB000FB6800930346334807F0B1F8BB68191D6F
:101EC0007A683B68181D7B68009303462D4807F02D
:101ED000A6F852E03B68991E7A683868FB68009360
:101EE0000346284807F09BF8BB68991E7A68B868D3
:101EF000FB6800930346234807F091F8B968FA6835
:101F00003868FB68009303461E4807F088F8BB68F2
:101F1000991E7A683B68981E7B68009303461948AF
:101F200007F07DF829E03B68191F7A683868FB687C
:101F300000930346134807F072F8BB68191F7A68CC
:101F4000B868FB68009303460E4807F068F8B96864
:101F5000FA683868FB68009303460A4807F05FF8A0
:101F6000BB68191F7A683B68181F7B68009303469B
:101F7000044807F054F800E000BF00BF1437BD4626
:101F800090BD00BF7403002084B090B400AF07F18F
:101F9000080484E80F00164B1B681B885B089BB283
:101FA0001A46B7F844305B089BB21A447B6E9A60BD
:101FB0000F4B1B681B885B089BB21A46B7F844306E
:101FC0005B089BB2D21A7B6E1A60094B1B685B8858
:101FD0009A1E7B6E5A607B6E5B68B7F846209A1A31
:101FE0007B6EDA6000BFBD4690BC04B0704700BF96
:101FF0007403002084B090B589B002AF07F12804C3
:1020000084E80F000023FB7525E0D7F8A020B7F87F
:1020100098301946FB7D0B44DB0013441968D7F850
:10202000A020B7F898301846FB7D0344DB0013442A
:102030005A68FB7D5C0007F118031C4413460A46EE
:1020400007F1400103C902F019F9034624F8183CCE
:10205000FB7D0133FB75FB7D062BD6D90623FB7573
:1020600076E0FB7D5B0007F11802134413F8183C7F
:102070001A463D4B1B681B88013B002B00DA0733D7
:10208000DB105B42D118FB7D5B0007F118021344A3
:1020900013F8173C1846FB7D013B5B0007F1180263
:1020A000134413F8183C1A462F4B1B681B88013B3E
:1020B000002B00DA0733DB105B421A44FB7D013B47
:1020C0005B0007F11804234413F8173C00931346F0
:1020D0000246254806F0A3FFFB7D5B0007F11802CE
:1020E000134413F8183C1A461F4B1B681B88013B0E
:1020F000002B00DA0733DB10D118FB7D5B0007F102
:102100001802134413F8173C1846FB7D013B5B0093
:1021100007F11802134413F8183C1A46124B1B68B7
:102120001B88013B002B00DA0733DB101A44FB7DD0
:10213000013B5B0007F11804234413F8173C00939C
:1021400013460246084806F06AFFFB7D013BFB751B
:10215000FB7D002B85D1002318461C37BD46BDE80A
:10216000904004B0704700BF7403002000000000DE
:1021700090B585B000AF3C4684E80F003B6807EEA1
:10218000903AF8EE677A17EE900A0EF011F908A36C
:10219000D3E900230EF064F903460C4618462146A5
:1021A0000EF036FC034618461437BD4690BD00BFFE
:1021B000F7E978CC40E50140F0B58FB002AF254B90
:1021C0006FF07F425A60234B00229A60214806F04C
:1021D0007CFB21491F4807F072FA3B461F4A302119
:1021E00018460EF0FDFC3B4618460EF044FD064630
:1021F000184B1B681B885B089BB21C46154B93F859
:1022000024301A46134B93F8273013441D463B469F
:1022100018460EF030FD034603FB05F39B08E31A56
:10222000053318460B4B1B685B885B089BB21A464C
:10223000084B93F825305B00D31A394600220192EF
:10224000009303463246034807F0D2F900BF343703
:10225000BD46F0BD74030020B81E0100EC1601005D
:10226000F0B58FB002AF254B00225A60234B6FF0C0
:102270007F429A60214806F028FB21491F4807F059
:102280001EFA3B461F4A302118460EF0A9FC3B4679
:1022900018460EF0F0FC0646184B1B681B885B08BE
:1022A0009BB21C46154B93F824301A46134B93F8F7
:1022B000273013441D463B4618460EF0DCFC03460F
:1022C00003FB05F39B08E31A053318460B4B1B6809
:1022D0005B885B089BB21A46084B93F825305B007D
:1022E000D31A39460022019200930346324603482E
:1022F00007F07EF900BF3437BD46F0BD74030020FF
:10230000B81E0100EC16010084B0F0B591B002AF28
:1023100007F1500484E80F00554B6FF07F425A607C
:10232000534B00229A60524806F0CFFA5149504868
:1023300007F0C5F93B1D504A302118460EF050FCFD
:102340003B1D18460EF097FC0646494B1B681B8840
:102350005B089BB21C46464B93F824301A46444B0C
:1023600093F8273013441D463B1D18460EF083FC9E
:10237000034603FB05F35B08E31A1A46391D0023E5
:1023800001930523009313463246394807F030F98C
:10239000374B93F825305A00354B1B681B8819467C
:1023A000334B93F825305B0000930B464FF0FF3121
:1023B0002F4806F034FE31492D4807F080F93B1DC7
:1023C0002F4A302118460EF00BFC3B1D18460EF02C
:1023D00052FC274B93F825309B00391D00220192B7
:1023E00000930A230246224807F002F93B1D254AC2
:1023F000302118460EF0F4FB3B1D18460EF03BFC56
:1024000004461B4B1B681B88A3F13300184B93F841
:1024100025309B00391D002201920093034622467D
:10242000134807F0E5F8002387F8373013E097F8F2
:1024300037300133DAB297F837309B0007F150019B
:102440000B445B681946104600F01EF897F83730C9
:10245000013387F8373097F8503097F837209A4291
:10246000E5D300BF3C37BD46BDE8F04004B070473F
:1024700074030020B81E0100F8160100881B01003B
:10248000041701000C17010090B595B002AF034688
:102490003960FB71FB7907F114010A2218460EF02E
:1024A00065FB07F114032A4918460EF0CDFB2949B4
:1024B000294807F004F907F1140207F11803302145
:1024C00018460EF08DFB07F1180318460EF0D3FBEB
:1024D000FB790533204A92F8252002FB03F307F12C
:1024E00018010022019200930A2302461A4807F0BD
:1024F0007FF83B6807F10C010A2218460EF036FB04
:1025000007F10C0207F11803302118460EF068FBA2
:1025100007F1180318460EF0AEFB04460E4B1B687D
:102520001B88A3F13300FB7905330B4A92F8252071
:1025300002FB03F307F11801002201920093034606
:102540002246054807F054F800BF4C37BD4690BD01
:1025500014170100881B01007403002080B485B0AB
:1025600000AF786039607B6803F1C063FB60FB6893
:102570003A681A6000BF1437BD465DF8047B7047A7
:1025800080B485B000AF786039607B6803F1806308
:10259000FB60FB683A681A6000BF1437BD465DF8FF
:1025A000047B704780B582B000AF03463960FB7191
:1025B000FB79002B1CD0FB79012B19D0FB79022B66
:1025C00016D0FB79032B13D0FB79042B10D0FB79A9
:1025D000052B0DD0FB79062B0AD0FB79072B07D0F2
:1025E000FB79082B04D0FB79092B01D0FB790A2B4E
:1025F000FA7913465B0013441B010C3303F180434B
:1026000003F5204301213A6801FA02F21146184607
:10261000FFF7B6FF00BF0837BD4680BD80B582B06A
:1026200000AF03463960FB71FB79002B1CD0FB79AE
:10263000012B19D0FB79022B16D0FB79032B13D079
:10264000FB79042B10D0FB79052B0DD0FB79062BE1
:102650000AD0FB79072B07D0FB79082B04D0FB7934
:10266000092B01D0FB790A2BFA7913465B0013443E
:102670001B010C3303F1804303F5204301213A6829
:1026800001FA02F211461846FFF768FF00BF08374B
:10269000BD4680BD80B584B000AF78604FF4FA735A
:1026A000FB816423BB8100F003F9794B1868002398
:1026B0000022002107F068FF764B1A78764B1A70DB
:1026C000734B186800230022002107F0A7FD724B0E
:1026D0001B78052B00F2CD8001A252F823F000BF39
:1026E000F9260000F92600003F27000061270000BE
:1026F000E72700002D280000684B1B78184600F0E3
:10270000F5F8674B1B78184600F005F9634B1B780A
:1027100083F00103DBB2002B14BF01230023DAB2E4
:102720005E4B1A705E4B1B7883F00103DBB2002B0B
:1027300014BF01230023DAB2594B1A7099E0574BAA
:1027400000221A70564B00221A70544B1B78184600
:1027500000F0CCF8524B1B78184600F0DCF888E00B
:10276000504B5B78002B03D04C4B01221A7013E0C6
:102770004C4B1B78002B0CD0484B1B7883F001038B
:10278000DBB2002B14BF01230023DAB2434B1A70D3
:1027900002E0424B00221A70424BDB78002B03D040
:1027A0003F4B01221A7013E03E4B9B78002B0CD05C
:1027B0003B4B1B7883F00103DBB2002B14BF0123DA
:1027C0000023DAB2364B1A7002E0354B00221A7041
:1027D000324B1B78184600F089F8314B1B781846AD
:1027E00000F099F845E0304B1B78012B09D02B4BBA
:1027F00000221A702A4B01221A702B4B01221A70E8
:1028000009E0264B01221A70254B00221A70264B34
:1028100000221A7000BF214B1B78184600F066F8A2
:102820001F4B1B78184600F076F822E01F4B1B78F0
:10283000012B09D0194B00221A70194B00221A7073
:102840001A4B01221A7009E0144B01221A70144B22
:1028500001221A70154B00221A7000BF0F4B1B7813
:10286000184600F043F80E4B1B78184600F053F85A
:1028700000BF094B1B78042B04D1BB89184608F014
:1028800085FA12E7FB89184608F080FA0DE700BFC9
:102890007C850020E2030020DD030020DE03002011
:1028A000DF03002060850020E0030020E10300201A
:1028B00080B500AF01210C4802F038FA0021052054
:1028C00003F07EFC002304220421052003F0B8FC61
:1028D0000021052003F074FC0023042205210520BB
:1028E00003F0AEFC00BF80BD00350A0080B582B0A9
:1028F00000AF0346FB71FB79002B04D004210520B7
:10290000FFF78CFE03E004210520FFF74BFE00BF1C
:102910000837BD4680BD80B582B000AF0346FB716D
:10292000FB79002B04D005210520FFF777FE03E09B
:1029300005210520FFF736FE00BF0837BD4680BDE4
:1029400080B400AF044BDB6C1B0EDBB21846BD46F7
:102950005DF8047B704700BFB081E00F80B582B0A6
:1029600000AF164B01225A64FFF7EAFF0346FB71E2
:10297000FB79002B0CD1124B4AF6E8521A60114B2E
:102980001B68104A43F0040313600D4B00221A60C9
:10299000FB79012B05D80C4B1B680B4A43F4005301
:1029A00013600A4B1B6A23F44413084A43F4881348
:1029B000136200BF0837BD4680BD00BF00000E4057
:1029C00090310E4098310E4064310E4000400E4070
:1029D00080B582B002AFFFF7C1FFFDF7F9FB01F050
:1029E0005DFB3C48FDF710FC3B48FDF7C9FC3B484C
:1029F000FDF7D7FC3A48FDF7E8FC3A480DF096FAA7
:102A00000AF0DAFC03220021012007F076FB0246DF
:102A1000354B1A60012007F0E8FB0246334B1A6081
:102A2000012007F0E2FB0246314B1A60012007F05B
:102A3000DCFB02462F4B1A60012007F0D6FB024652
:102A40002D4B1A60012007F0D0FB02462B4B1A6079
:102A5000012007F0CAFB0246294B1A60294B01935B
:102A600004230093002364222749284808F04BF8E8
:102A7000274B01930123009300234FF4AF722549A4
:102A8000254808F040F80023019302230093002317
:102A9000C8222249224808F036F800230193022375
:102AA00000930023C8221F491F4808F02CF81F4B31
:102AB0000193012300930023C8221D491D4808F0FB
:102AC00022F81A4B1B68184608F09AF908F0A6FA83
:102AD000FEE700BF04850020688500209085002067
:102AE000BC850020C08500209885002084850020BA
:102AF000808500207C850020888500207885002046
:102B0000648500200085002018170100952600002C
:102B1000FC84002020170100DD0600002C170100B6
:102B2000592F000038170100F10300008C850020A8
:102B300044170100712B000080B483B000AF4FF048
:102B4000A00383F31188BFF36F8FBFF34F8F7B60B8
:102B5000FEE780B485B000AF786039604FF0A00325
:102B600083F31188BFF36F8FBFF34F8FFB60FEE7D6
:102B7000B0B59CB018AF78603223FB81444800F0B8
:102B80009DF8444B186800230A22002107F0FCFC42
:102B9000414B1A78414B1A703E4B186800230022B3
:102BA000002107F03BFB3D4B1B78042B02D138483A
:102BB00000F084F83A4B186800230A22002107F03D
:102BC000E3FC384B1B78022B3ED0374B18680023B0
:102BD0000A22002107F0D8FC344B1B6818460DF080
:102BE000C5FB4FF000024FF000030DF0C9FE034695
:102BF000002B22D02E4B186800230A22002107F058
:102C0000C3FC2C4C294B13AD0FCB85E80F00684655
:102C100004F110034C2219460DF0CFFF94E80F0089
:102C200000F0BAF803461A46234B1A70204B186876
:102C300000230022002107F0F1FA1B4B1868002343
:102C40000022002107F0EAFA154B18680023002241
:102C5000002107F0E3FA184B1B78012B04D0022B5C
:102C600007D0002B0AD00EE00221094800F03CF802
:102C700009E00021064800F037F804E0002104488C
:102C800000F05EF800BFFB89184608F07FF878E78F
:102C9000608500207C850020E2030020E403002002
:102CA0008085002090850020848500206885002094
:102CB0007885002004850020E503002080B483B0DF
:102CC00000AF78607B6800221A707B6800225A701F
:102CD0007B6800229A707B680022DA7000BF0C3794
:102CE000BD465DF8047B704780B483B000AF786068
:102CF0000B46FB70FB78032B1AD801A252F823F085
:102D0000112D0000192D0000212D0000292D00009B
:102D10007B6801221A700CE07B6801229A7008E03F
:102D20007B6801225A7004E07B680122DA7000E0BF
:102D300000BF00BF0C37BD465DF8047B704700BF85
:102D400080B483B000AF78600B46FB70FB78032B38
:102D50001AD801A252F823F0692D0000712D00004D
:102D6000792D0000812D00007B6800221A700CE094
:102D70007B6800229A7008E07B6800225A7004E0A9
:102D80007B680022DA7000E000BF00BF0C37BD4650
:102D90005DF8047B704700BF84B0B0B582B000AF6F
:102DA00007F1180484E80F007B6F18460DF0DEFA77
:102DB0004FF000024FF080430AF0AAFC04460D4693
:102DC000B7F8583018460DF0E1FA02460B46204697
:102DD00029460DF06FFC03460C46184621464FF07D
:102DE00000022B4B0DF066FC03460C4618462146AC
:102DF0004FF000024FF080430AF08AFC03460C4675
:102E0000184621460DF024FE03467B6078680DF0DD
:102E1000CFFA03460C46184621460AF017FE034631
:102E20000C46184621460DF013FE03467B60D7ED95
:102E3000147A97ED017AB4EEE77AF1EE10FA01DB3D
:102E4000012319E078680DF0B3FA04460D463B6D96
:102E500018460DF0ADFA0CA3D3E900230DF000FBEA
:102E600002460B46204629460DF080FD0346002B06
:102E700001D0022300E0002318460837BD46BDE814
:102E8000B04004B0704700BF333333333333EB3FCC
:102E90000000E03F80B485B000AF786039607B68A7
:102EA00003F10473DA003B6813449B00FB60FB688A
:102EB0001B6818461437BD465DF8047B7047000058
:102EC00080B483B000AF7860044A7B68C2F82434D1
:102ED00000BF0C37BD465DF8047B704700A0004082
:102EE00080B582B000AF03463960FB71FB79002BDF
:102EF0001CD0FB79012B19D0FB79022B16D0FB7962
:102F0000032B13D0FB79042B10D0FB79052B0DD0AC
:102F1000FB79062B0AD0FB79072B07D0FB79082B0E
:102F200004D0FB79092B01D0FB790A2BFA791346DF
:102F30005B0013441B011C3303F1804303F5204362
:102F400039681846FFF7A6FF034618460837BD46FE
:102F500080BD00000000000090B59DB014AF786007
:102F60003223FB77FB7F4FF47A7202FB03F3B04A04
:102F700082FB03129211DB17D31ABB83C8237B8316
:102F80004FF47A733B8300F0F9FF398BA94B009320
:102F900000230022A84808F077FF0246A74B1A60DA
:102FA000A74B0093002300224FF47A71A54808F044
:102FB0006BFF0246A44B1A60A44B0093002300222F
:102FC0004FF49671A24808F05FFF0246A14B1A60C9
:102FD00000F0F2FF03461A469F4B1A7001F009F801
:102FE00003461A469D4B1A709D4B18680023002219
:102FF000002107F0C9FA9B4B1A789B4B1A70984B2B
:10300000186800230022002107F008F9974B186880
:1030100000230022002107F0B7FA954B1A78954B50
:103020001A70924B186800230022002107F0F6F86E
:103030008D4B1B78052B00F2F08201A252F823F091
:103040001B360000593000001B360000C131000063
:103050001B3600006D3500007F4B1A787F4B1B78C4
:103060001946104600F0E2FF0346032B00F2A6804B
:1030700001A252F823F000BF933100008930000014
:103080002F310000613100007B4B01221A706E4B22
:103090001B68184609F014FA0346002B0CD16A4B42
:1030A0001C6808F0A7F803461A460A230093002379
:1030B0000221204608F038FF704B186800230022D8
:1030C000002107F061FA6E4B1868002300220021EE
:1030D00007F05AFA6B4C684604F110034C2219466B
:1030E0000DF06BFD94E80F0000F0D6FE0246654B34
:1030F0005A63644C684604F110034C2219460DF0E3
:103100005CFD94E80F0000F0EFFE02465D4B9A6311
:103110005B4B186800230022002107F07FF8574B13
:10312000186800230022002107F078F847E0464B9A
:103130001B68184609F0C4F90346012B08D1424B1D
:1031400018680A23009300230022032108F0ECFEF4
:103150004D4B186800230322AA2108F031FD2EE010
:10316000394B1B68184609F0ABF90346012B08D10F
:10317000354B18680A23009300230022032108F02E
:10318000D3FE414B186800230322552108F018FD97
:1031900015E02D4B1B68184609F092F90346012BE8
:1031A00008D1294B18680A23009300230022032129
:1031B00008F0BAFE304B00221A7000E000BF2CE28B
:1031C000244B1B68184609F07BF90346002B0CD1F1
:1031D000204B1C6808F00EF803461A460A23009399
:1031E00000230121204608F09FFE1B4B1A781B4B41
:1031F0001B781946104600F019FF0346022B45D0F4
:10320000032B00F0A180012B40F0F5801A4B012226
:103210001A700A4B1C6807F0EDFF03461A460A2392
:10322000009300230221204608F07EFEECE000BF60
:10323000D34D62105D36000050170100E8030020F6
:10324000B536000060170100EC03002025370000B0
:1032500070170100F0030020F4030020F5030020A4
:103260007C850020E2030020F603002088850020F2
:10327000E3030020F7030020F803002078850020F6
:103280008485002004850020FC840020A84B1B7846
:10329000002B08D0A74B18680A23009300230022B4
:1032A000032108F041FEA44B1B78012B00F0A780FE
:1032B000A24B186800230A22002107F065F9034693
:1032C000012B40F09E809E4B9B6818460DF070F8D5
:1032D00095A3D3E900230CF00DFF03460C461846D6
:1032E00021464FF00002974B0DF036FB0346002BB2
:1032F00013D0934B9B6818460DF05AF88AA3D3E974
:1033000000230CF0F7FE03460C46184621460DF04C
:103310009FFB02468A4B9A6003E0894B4FF07E5236
:103320009A60874BD3ED027AF5EEC07AF1EE10FA8F
:1033300002DB834B00221A73804B186800230022A3
:10334000002106F06BFF5CE0794B1B78002B08D066
:10335000784B18680A23009300230022032108F009
:10336000E3FD764B186800230A22002107F00CF9D0
:103370000346012B47D1724B9B6818460DF018F895
:1033800069A3D3E900230CF0B3FE03460C461846AC
:1033900021464FF000026C4B0DF0E8FA0346002B7B
:1033A00013D0674B9B6818460DF002F85EA3D3E973
:1033B00000230CF09DFE03460C46184621460DF0F6
:1033C00047FB02465E4B9A6002E05D4B5F4A9A60A3
:1033D0005B4BD3ED027AF5EEC07AF1EE10FA02D52E
:1033E000574B01221A73554B186800230022002105
:1033F00006F014FF07E04E4B00221A7004E000BFF5
:1034000002E000BF00E000BF4C4B186800230A2216
:10341000002107F0B9F84A4B1B687B61474B1868DD
:1034200000230022002106F0F9FE494B1868002312
:103430000A22002107F0A8F8464B186800230A2248
:10344000002107F0A1F8444B444A00920CCB796963
:10345000434800F08BFA3E4B1868002300220021FD
:1034600006F0DCFE3F4B186800230A22002107F01B
:103470008BF83D4BDA693C4B9B8ADB00134493EDA0
:10348000007A394BDA69384B9B8A0133DB001344ED
:10349000D3ED007A77EE677AC7ED047A324BDA69BA
:1034A000314B9B8ADB00134493ED017A2E4BDA6992
:1034B0002D4B9B8A0133DB001344D3ED017A77EE69
:1034C000677AC7ED037A97ED047AD7ED047A27EE91
:1034D000277AD7ED036AD7ED037A66EEA77A77EEFF
:1034E000277A17EE900A0CF063FF03460C46184645
:1034F00021460AF0ABFA03460C46184621460DF069
:10350000A7FA0346BB60134B186800230022002172
:1035100006F084FE134B186800230022002106F0F9
:103520007DFE7AE0AFF300809A9999999999A93F25
:10353000F8030020E8030020F70300208485002022
:10354000688500200000F03F0000F0BF000080BF51
:10355000808500207885002090850020CDCC4C3DD2
:1035600004850020648500209C850020324B18686B
:1035700000230A22002107F007F8304B4FF0000229
:103580009A602E4B00221A732C4B00225A602B4B50
:1035900000221A60284B186800230022002106F040
:1035A0003DFE274B186800230A22002106F0ECFF9D
:1035B000244B4FF000029A65214B1868002300222B
:1035C000002106F02BFE204B1A78204B1B78194661
:1035D000104600F02BFD0346012B18D11C4B012295
:1035E0001A701C4B1B68184608F06AFF0346002B34
:1035F00011D1184B1C6807F0FDFD03461A460A233B
:10360000009300230221204608F08EFC03E0104BBB
:1036100000221A7000E000BF00BF0F4B1B78012B87
:1036200004D17B8B184607F0B1FBD1E4BB8B184665
:1036300007F0ACFBCCE400BF848500206885002047
:103640007885002004850020F4030020F503002085
:10365000F8030020EC030020F603002080B582B0C0
:1036600000AF7860114B186800230A22002106F091
:103670008BFF0346012B15D10D4B1B78012B03D17A
:103680000B4B00221A7006E0094B1B78002B02D16D
:10369000074B01221A70054B1868002300220021F5
:1036A00006F0BCFD00BF0837BD4680BD8885002000
:1036B000E303002080B584B000AF7860144B186835
:1036C00000230022002106F05FFF124B1B78FB73E2
:1036D0000F4B186800230022002106F09FFDFB7BA2
:1036E000012B07D10C4B1868002303220B4908F06B
:1036F00067FA09E0FB7B052B06D1074B186800230E
:103700000322074908F05CFA00BF1037BD4680BDB0
:103710007C850020E2030020FC840020F0DEBC0A4F
:10372000B1CAED0FB0B59AB018AF7860254B1868E4
:1037300000230A22002106F027FF234B18680023EC
:103740000A22002106F020FF204B214A0192DA686C
:1037500000920ECB1F4800F0EFFB1E4C1B4B13AD2D
:103760000FCB85E80F00684604F110034C22194680
:103770000DF023FA94E80F0000F02EF807EE900AFF
:10378000FCEEE77A17EE902A104B1A600F4B1A687E
:103790000E4B5B689A4203D90C4B1B680B4A536073
:1037A000084B186800230022002106F037FD064B65
:1037B000186800230022002106F030FD00BF083702
:1037C000BD46B0BD78850020848500206885002036
:1037D0009A99993E0485002084B02DE9F0439FB06A
:1037E00018AF07F1380686E80F0097ED277AD7ED76
:1037F000207A67EE277AC7ED037A13AE07F19403B8
:103800000FCB86E80F00684607F148034C221946A3
:103810000DF0D3F907F138030FCB00F0E5FA0346BA
:10382000BB66BB6E7B61D7F89430002B08D0D7ED18
:103830001C7A97ED057A77EE277AC7ED057A07E0CF
:10384000D7ED1B7A97ED057A77EE277AC7ED057AE3
:1038500097F8A030002B07D0D7ED217A97ED057AA5
:1038600077EE277AC7ED057AD7F8943007EE903ACD
:10387000F8EE677A97ED057A67EE277AC7ED057A55
:10388000394BBB604FF000033B6197ED037AD7EDF6
:10389000057A37EE677AD7ED1F7A77EEA76AD7ED0C
:1038A000027A66EEA77AC7EE276A16EE900A0CF047
:1038B0007FFD02460B46C7E900234FF000024FF0A0
:1038C0000003D7E900010DF05BF80346002B14D08C
:1038D000D7E900010AF0BAF803460C46184621461B
:1038E0000DF0B6F803463B6197ED047AD7ED027A06
:1038F00067EE277AC7ED047A22E0D7ED027AF1EE7F
:10390000677A17EE903A18460CF052FD80468946C9
:103910003C687B6883F00045204629460AF096F80B
:1039200003460C461A462346404649460CF098FD8D
:1039300003460C46184621460DF08AF803463B61C3
:10394000D7F8943007EE903AF8EE677A97ED047A5C
:1039500077EE277AC7ED047A3B6918461C37BD46D7
:10396000BDE8F04304B070479A99993EB0B58CB069
:1039700000AFF860B960394681E80C00D54BFB61B7
:103980004FF00003FB624FF00003BB627B687B6279
:10399000D7ED097A9FEDD07AF4EEC77AF1EE10FAFE
:1039A00008D8D7ED097AF5EEC07AF1EE10FA01DB0E
:1039B000012300E00023002B09D14FF0A00383F383
:1039C0001188BFF36F8FBFF34F8FBB61FEE70023FA
:1039D00087F82330D7ED017AF5EEC07AF1EE10FAD0
:1039E00008DBD7ED017A9FEDBD7AF4EEC77AF1EEF0
:1039F00010FA08D9D7ED017A9FEDB77AF4EE477A3D
:103A0000F1EE10FA03D1012387F8233058E0D7ED07
:103A1000017A9FEDB27AF4EEC77AF1EE10FA14DD76
:103A2000D7ED017A9FEDAE7AF4EEC77AF1EE10FA97
:103A30000BD8022387F82330D7ED097A9FEDA77AB8
:103A400077EEC77AC7ED097A3AE0D7ED017A9FEDB4
:103A5000A47AF4EEC77AF1EE10FA14DDD7ED017A0C
:103A60009FEDA07AF4EEC77AF1EE10FA0BD803239B
:103A700087F82330D7ED097A9FED997A77EEC77AE8
:103A8000C7ED097A1CE0D7ED017A9FED967AF4EE46
:103A9000C77AF1EE10FA13DDD7ED017A9FED8E7A39
:103AA000F4EEC77AF1EE10FA0AD5042387F8233032
:103AB000D7ED097A9FED8B7A77EEC77AC7ED097A51
:103AC00097ED097AD7ED077A27EE277ADFED846A3A
:103AD000C7EE267AC7ED097A97F82330013B032B0E
:103AE00000F24F8101A252F823F000BFFD3A00001E
:103AF000993B0000373C0000E93C0000BB685B429A
:103B000007EE903AB8EE677AD7ED107A67EE277A2B
:103B100017EE900A0CF04CFC04460D46786A0CF047
:103B200047FC02460B461046194609F05BFD02466B
:103B30000B46204629460CF093FC03460C461846DB
:103B400021460CF085FF0346FB62BB6807EE903A06
:103B5000B8EE677AD7ED107A67EE277A17EE900AFB
:103B60000CF026FC04460D46786A0CF021FC024657
:103B70000B461046194609F0EDFC02460B4620465E
:103B800029460CF06DFC03460C46184621460CF005
:103B90005FFF0346BB62FEE0BB685B4207EE903A04
:103BA000B8EE677AD7ED107A67EE277A17EE900AAB
:103BB0000CF0FEFB04460D46786A0CF0F9FB024659
:103BC0000B461046194609F00DFD02460B462046ED
:103BD00029460CF045FC03460C46184621460CF0DD
:103BE00037FF0346FB62BB685B4207EE903AB8EED4
:103BF000677AD7ED107A67EE277A17EE900A0CF005
:103C0000D7FB04460D46786A0CF0D2FB02460B4601
:103C10001046194609F09EFC02460B4620462946EE
:103C20000CF01EFC03460C46184621460CF010FF13
:103C30000346BB62AFE0BB6807EE903AB8EE677A26
:103C4000D7ED107A67EE277A17EE900A0CF0B0FBEA
:103C500004460D46786A0CF0ABFB02460B46104654
:103C6000194609F0BFFC02460B46204629460CF0D7
:103C7000F7FB03460C46184621460CF0E9FE0346C6
:103C8000FB62BB685B4207EE903AB8EE677AD7ED0D
:103C9000107A67EE277A17EE900A0CF089FB04463B
:103CA0000D46786A0CF084FB02460B461046194616
:103CB00009F050FC02460B46204629460CF0D0FB8A
:103CC00003460C46184621460CF0C2FE0346BB6272
:103CD00061E000BFC3F548400000B4430000B442B7
:103CE0000000344300008743BB6807EE903AB8EE0B
:103CF000677AD7ED107A67EE277A17EE900A0CF004
:103D000057FB04460D46786A0CF052FB02460B4600
:103D10001046194609F066FC02460B462046294625
:103D20000CF09EFB03460C46184621460CF090FE14
:103D30000346FB62BB6807EE903AB8EE677AD7EDB0
:103D4000107A67EE277A17EE900A0CF031FB0446E2
:103D50000D46786A0CF02CFB02460B4610461946BD
:103D600009F0F8FB02460B46204629460CF078FB8A
:103D700003460C46184621460CF06AFE0346BB6219
:103D800009E04FF0A00383F31188BFF36F8FBFF3F7
:103D90004F8F7B61FEE7FB6893ED067AD7ED0B7AD8
:103DA00077EE277AFB68C3ED067AFB6893ED077A16
:103DB000D7ED0A7A77EE277AFB68C3ED077AFB68BE
:103DC00093ED167ABB6807EE903AF8EE676AD7ED86
:103DD000107A66EEA77A77EE277AFB68C3ED167A3B
:103DE00000BF3037BD46B0BD84B0B0B582B000AFC3
:103DF00007F1180484E80F00B7F85A3007EE903A3C
:103E0000B8EEE77AD7ED117A67EE277AC7ED017A37
:103E10007B6F18460CF0AAFA4FF000024FF0804377
:103E200009F076FC04460D4678680CF0C1FA0246AB
:103E30000B46204629460CF05DF903460C46184611
:103E400021460CF005FE03467B6078680CF0B0FA62
:103E50004FF033320E4B0CF003FB03460C46184672
:103E600021464FF000024FF080430CF023FC034644
:103E70000C46184621460CF0EBFD03467B607B6840
:103E800018460837BD46BDE8B04004B0704700BFD3
:103E90003333F33F0000000084B098B500AF07F162
:103EA000100484E80F0097ED0D7AD7ED157A67EED0
:103EB000277A17EE900A0CF07BFA09A3D3E90023C6
:103EC0000CF0CEFA03460C46184621460CF0C0FD15
:103ED00003461846BD46BDE8984004B0704700BF91
:103EE0001F85EB51B89E234084B098B500AF07F111
:103EF000100484E80F0097ED0E7AD7ED157A67EE7F
:103F0000277A17EE900A0CF053FA09A3D3E900239D
:103F10000CF0A6FA03460C46184621460CF098FD14
:103F200003461846BD46BDE8984004B0704700BF40
:103F30001F85EB51B89E234084B080B483B000AF9E
:103F4000786007F1140080E80E007B6893ED167A24
:103F50007B6907EE903AF8EE676AD7ED097A66EE6C
:103F6000A77A77EE277A7B68C3ED167A00BF0C3705
:103F7000BD465DF8047B04B07047000080B500AF1B
:103F800001210C4800F0D2FE0021052002F018F9B2
:103F9000002301220621052002F052F9002105200C
:103FA00002F00EF9002301220721052002F048F952
:103FB00000BF80BD00350A0080B582B000AF062189
:103FC0000520FEF78DFF0346002B0CBF01230023C5
:103FD000DBB27B607B68002B01D1002305E07B68AE
:103FE000002B01D0012300E0012318460837BD460D
:103FF00080BD80B582B000AF07210520FEF770FFBD
:104000000346002B0CBF01230023DBB27B607B68DF
:10401000002B01D1002305E07B68002B01D0012398
:1040200000E0012318460837BD4680BD80B483B048
:1040300000AF03460A46FB711346BB71FB79012BA7
:1040400004D1BB79012B01D1012310E0FB79012BB5
:1040500004D1BB79002B01D1022308E0FB79002BAE
:1040600004D1BB79012B01D1032300E000231846C2
:104070000C37BD465DF8047B704780B500AF45F254
:104080005550FEF71DFF00BF80BD80B500AF4AF65A
:10409000AA20FEF715FF00BF80BD000080B500AF6D
:1040A0003D493E480CF0DFFD3C4B4B22DA823B4B56
:1040B000DB8A1A4613469B0013445B001A46374BB3
:1040C0009A61364B00229A82344B354ADA6135497F
:1040D00035480CF0C8FD344B3222DA82324BDB8A91
:1040E0001A4613469B0013445B001A462E4B9A61F6
:1040F0002D4B00229A824FF4167005F003FB024606
:10410000294BDA614FF41672254928480CF055FD09
:10411000274928480CF0A7FD264B3222DA82254B8E
:10412000DB8A1A4613469B0013445B001A46214B58
:104130009A61204B00229A824FF4167005F0E2FA41
:1041400002461C4BDA614FF4167215491A480CF0FE
:1041500034FD1A491A480CF086FD194B3222DA82D6
:10416000174BDB8A1A4613469B0013445B001A4622
:10417000134B9A61124B00229A824FF4167005F08D
:10418000C1FA02460E4BDA614FF4167204490D482B
:104190000CF013FD00BF80BD84170100FC0300205C
:1041A0005C000020901701001C040020380400204F
:1041B000A01701003C04002058040020A8170100AB
:1041C0005C04002078040020B0B582B000AF7860B5
:1041D0000B46FB70FB78032B3ED801A252F823F06C
:1041E000F1410000174200002D4200004342000050
:1041F0007B68214A1C4615460FCD0FC495E80F0079
:1042000084E80F007B68D8691B4BDB6904221946E0
:104210000CF0D3FC2BE07B68174A1C4615460FCDEB
:104220000FC495E80F0084E80F0020E07B68124A75
:104230001C4615460FCD0FC495E80F0084E80F000B
:1042400015E07B680C4A1C4615460FCD0FC495E857
:104250000F0084E80F000AE07B68074A1C461546F9
:104260000FCD0FC495E80F0084E80F0000BF00BF1A
:104270000837BD46B0BD00BFFC03002090B58FB02D
:1042800000AF07F1100484E80300FA60BB60D7EDCB
:10429000047A97ED037A77EE677AC7ED097AD7ED5E
:1042A000057A97ED027A77EE677AC7ED0A7A97ED8D
:1042B000097ADFED2A6AC7EE267AC7ED077A97ED0D
:1042C0000A7ADFED266AC7EE267AC7ED087AFB691F
:1042D00018460CF06DF84FF00002214B0BF00AFF6E
:1042E00003460C46184621464FF000021D4B0CF0C9
:1042F000B7F803460C46184621460CF0A9FB0346C6
:104300007B63D7ED087A9FED187A67EE877A9FED89
:10431000167A77EE677AC7ED0C7AD7ED0D7AFCEE58
:10432000E77AC7ED017A3B79DBB23B76D7ED0C7AC1
:10433000FCEEE77AC7ED017A3B79DBB27B763B8B0B
:10434000BB85002397F82C2062F3070397F82D20F4
:1043500062F30F2318463C37BD4690BD0000204253
:104360000000E03F000060400000004384B090B5D2
:104370008FB000AF07F1480484E80F00874B3B6320
:104380007B6E1B683B617B6E5B687B617B6E083379
:104390001B68BB607B6E08335B68FB607B6E1B68D1
:1043A0003B60D7ED057AB2EE047A77EE877AC7EDF7
:1043B000017AB868F9683A687B6800F0F7F807EEA8
:1043C000900AFCEEE77A17EE903AFB623869796959
:1043D0003A687B6800F0EAF807EE900AFCEEE77AAC
:1043E00017EE903ABB62386979693A687B6800F0E9
:1043F000DDF807EE900AFCEEE77A17EE903A7B6262
:10440000F86A0BF0B3FF03460C461846214609F044
:104410001DFB03460C46184621460CF019FB0346CB
:104420003B62B86A0BF0A2FF03460C4618462146D1
:1044300009F00CFB03460C46184621460CF008FB1D
:104440000346FB61786A0BF091FF03460C46184661
:10445000214609F0FBFA03460C46184621460CF0AB
:10446000F7FA0346BB61BA6A7B6A1A44FB6AD31A3D
:1044700007EE903AB8EE677AD7ED077A77EEA76A3B
:10448000D7ED067A66EEA77AC7EE276A16EE900A8F
:104490000BF08EFF03460C461846214609F0E6F85D
:1044A00003460C46184621460CF0D2FA03467B63BD
:1044B000D7ED0D7A9FED3A7A67EE876A97ED0C7A21
:1044C000C6EE877AC7ED0D7A7B6E083393ED007ADE
:1044D0007B6ED3ED007AB4EEE77AF1EE10FA14DDDC
:1044E0007B6E083393ED017A7B6ED3ED017AB4EEE7
:1044F000E77AF1EE10FA08DDD7ED0D7A9FED297A13
:1045000077EE877AC7ED0D7A40E07B6E083393ED46
:10451000007A7B6ED3ED007AB4EEE77AF1EE10FA12
:1045200014DD7B6E083393ED017A7B6ED3ED017A57
:10453000B4EEE77AF1EE10FA08D5D7ED0D7A9FEDDB
:10454000187A77EE877AC7ED0D7A1FE07B6E083315
:1045500093ED007A7B6ED3ED007AB4EEE77AF1EE5C
:1045600010FA13D57B6E083393ED017A7B6ED3ED91
:10457000017AB4EEE77AF1EE10FA07D5D7ED0D7AAD
:104580009FED097A77EE877AC7ED0D7A7B6B184637
:104590003C37BD46BDE8904004B07047C3F5484085
:1045A00000003443000087430000B44280B487B069
:1045B00000AFF860B9607A603B6097ED037AD7EDA1
:1045C000017A77EE677AC7ED057A97ED027AD7ED33
:1045D000007A77EE677AC7ED047A97ED057AD7ED22
:1045E000057A27EE277AD7ED046AD7ED047A66EECE
:1045F000A77A77EE277A17EE903A18461C37BD4611
:104600005DF8047B704780B487B000AFF860B96094
:104610007A60FB6803F10473DA00BB6813449B0003
:104620007B617B697A681A6000BF1C37BD465DF804
:10463000047B704780B485B000AF786039607B68D8
:1046400003F1C063FB60FB683A681A6000BF14376F
:10465000BD465DF8047B704780B485B000AF7860DC
:1046600039607B6803F18063FB60FB683A681A601D
:1046700000BF1437BD465DF8047B704780B584B039
:1046800000AFF860B9607A60B968F868FFF7E4FFD6
:104690007968F868FFF7CEFF00BF1037BD4680BDD0
:1046A00080B582B000AF786039607B68B3F1804F2D
:1046B00002D07B68194A934200BF3B681B78DB0736
:1046C0001A463B685B681B06134343F400427B6851
:1046D0001A603B68DB681B043A68127A1A437B68ED
:1046E0009A623B681B691B043A68527A1A437B68DA
:1046F000DA623B689B7A1B0743F0806343F47D4397
:104700007A68536078683B681B7D1A460021FFF782
:104710007AFF00BF0837BD4680BD00BF00040040DF
:1047200080B582B000AF78600B46FB707B68B3F158
:10473000804F02D07B68074A934200BF7B680433F6
:10474000FA78FF211846FFF799FF00BF0837BD46EA
:1047500080BD00BF0004004080B483B000AF78602B
:104760007B68B3F1804F02D07B68074A934200BF59
:104770007B681B6823F001027B681A6000BF0C375E
:10478000BD465DF8047B70470004004080B483B0F0
:1047900000AF78607B68B3F1804F02D07B68074A36
:1047A000934200BF7B681B6843F001027B681A607C
:1047B00000BF0C37BD465DF8047B70470004004025
:1047C00080B487B000AFF860B9607A60FB6803F12D
:1047D0000473DA00BB6813449B007B617B697A68D1
:1047E0001A6000BF1C37BD465DF8047B704780B47B
:1047F00085B000AF786039607B6803F10473DA003C
:104800003B6813449B00FB60FB681B681846143729
:10481000BD465DF8047B704780B483B000AF78601C
:1048200001227B6802FA03F318460C37BD465DF897
:10483000047B704780B582B000AF78607868FFF77E
:10484000EBFF034618460837BD4680BD80B584B0EF
:1048500000AF78607B680133B3FA83F3DBB2C3F156
:104860001F03FB60F868FFF7D7FFFB681846103797
:10487000BD4680BD80B500AF00BF12210348FFF7E1
:10488000B6FF0346002BF8D100BF80BD04300E40B8
:1048900080B500AFFFF7EEFF034B5B681B0C03F026
:1048A0000303DBB2184680BD00300E4080B584B0F3
:1048B00000AF78600123FB607B68124A934204D802
:1048C0000023FB600023BB6008E07B680E4A934234
:1048D00002D80123BB6001E00223BB60FA6810210B
:1048E0000A48FFF76DFF094BD3F8003123F08072BF
:1048F000BB681B0605491343C1F8003100BF1037E0
:10490000BD4680BD0048E8010090D00300400E4045
:1049100080B483B000AF054B1B687B607B68184692
:104920000C37BD465DF8047B704700BFB402002021
:1049300080B582B000AF08F095FD7860064BD3F8E3
:1049400000311B0A03F01F0301337A6802FB03F3F3
:1049500018460837BD4680BD00400E4080B582B085
:1049600000AF0D4800F03CFD0346FB70FB78072BC1
:1049700005D0092B07D108F075FD786006E0FFF738
:10498000C7FF786002E000237B6000BF7B681846A9
:104990000837BD4680BD00BF06000E0080B584B05C
:1049A00000AF78607B68002B1CD11B4800F018FD1D
:1049B0000346FB7200BFFB7A013B072B23D801A201
:1049C00052F823F0E9490000074A0000074A0000B6
:1049D000F7490000074A0000074A0000EF490000BD
:1049E000FF490000002312E00023FB600EE0FFF708
:1049F0008FFFF8600AE008F06DFDF86006E0FFF751
:104A000097FFF86002E00023FB6000BFFB681846D8
:104A10001037BD4680BD00BFB800320080B485B0FD
:104A200000AF786039601E4B5B6803F04073FB6039
:104A30000023BB6012E01B4ABB68DB0013441A79F9
:104A40003B68DBB29A4206D1164ABB6852F8333053
:104A50007A689A4206D9BB680133BB60BB68042BF5
:104A6000E9D900E000BFBB68052B02D10323FB603E
:104A700005E00C4ABB68DB0013445B79FB60FB6814
:104A80001B06FB60064B5B6823F040720449FB6821
:104A900013434B6000BF1437BD465DF8047B70477D
:104AA00000000E40B417010080B582B000AF0E4B7D
:104AB0001B6C002B14BF01230023FB710A4B41F632
:104AC00071321A6408F0C4FC034600211846FFF74F
:104AD000A5FFFB79002B02D0034B00221A6400BF14
:104AE0000837BD4680BD00BF00000E4080B584B0D1
:104AF00000AF786039600C4B1B6C002B14BF012396
:104B00000023FB73084B41F671321A6439687868E8
:104B1000FFF784FFFB7B002B02D0034B00221A64BB
:104B200000BF1037BD4680BD00000E4080B487B086
:104B300000AF78600F237B617B6803333B617B6947
:104B4000FB60FA683B69934228BF1346BB60BB68B1
:104B50001B07BB60BB6818461C37BD465DF8047B6D
:104B60007047000080B400AF044B5B6A1B0903F080
:104B700003031846BD465DF8047B704700400E40B5
:104B800080B483B000AF7860074B5B6A23F03002DB
:104B90007B681B01044913434B6200BF0C37BD46C1
:104BA0005DF8047B704700BF00400E4090B585B0B3
:104BB00000AF78600023BB607B68354A934206D023
:104BC000344A934203D0344A934200D000E000BFFD
:104BD000786800F005FC0346FB607B682C4A934232
:104BE0000DD02C4A934211D02B4A934200D014E0AE
:104BF0002A4BD3F8803003F00703FB600DE0274B0E
:104C0000D3F8843003F00703FB6006E0234BD3F8AE
:104C1000883003F00703FB6000BFFB68042B2ED82D
:104C200001A252F823F000BF794C00003D4C000077
:104C3000454C0000554C00004D4C000008F06CFC49
:104C4000B8601FE008F07AFCB8601BE008F06DFC6B
:104C5000B86017E008F0DCFB0446104BD3F80031D5
:104C60001B0E03F0010301331846FFF7E3FD034673
:104C7000B4FBF3F3BB6005E00023BB6002E000235C
:104C8000BB6000BFBB6818461437BD4690BD00BF6F
:104C9000030020000500240002001E0000400E401A
:104CA00080B483B000AF78600A4BD3F8443103F08E
:104CB0000103002B08D100BF064BD3F840217B68CD
:104CC0001340002BF8D100E000BF0C37BD465DF863
:104CD000047B704700400E4080B400AF00BFBD466B
:104CE0005DF8047B704780B400AF00BFBD465DF83F
:104CF000047B704780B582B000AF7860786800F0C0
:104D000081F90346013318460837BD4680BD80B59A
:104D100082B000AF786039603B68013B1946786823
:104D200000F032FA00BF0837BD4680BD80B586B0BE
:104D300000AF78600B46FB7000233B617B681B0A69
:104D400003F00F03013B092B44D801A252F823F0D2
:104D5000794D0000854D0000D54D0000D54D000077
:104D60007F4D00008B4D0000954D0000D54D00009B
:104D70009F4D0000AB4D0000184B7B6118E0184BB5
:104D80007B6115E0174B7B6112E0174B7B610123C0
:104D90003B610DE0154B7B6110233B6108E0144B38
:104DA0007B614FF480333B6102E0124B7B6100BFBB
:104DB0007B681B0B03F01F03FB603B69002B02D0D9
:104DC0003869FFF76DFFFB781A46F9687869FFF7D5
:104DD000F7FC00E000BF1837BD4680BD00400E4024
:104DE000B0400E40C0400E40E0400E40E8400E4053
:104DF000F0400E4050410E4080B584B000AF786066
:104E00007B6803F47813B3F5A01F7DD0B3F5A01F22
:104E10001AD8B3F5202F50D0B3F5202F08D8B3F50A
:104E2000003F4ED0B3F5802F38D0002B32D0D8E0E1
:104E3000B3F5602F00F0C880B3F5801F00F0C88084
:104E4000B3F5402F4CD0CCE0B3F5001F00F08B80C1
:104E5000B3F5001F0AD8B3F5D01F00F08980B3F571
:104E6000F01F4CD0B3F5B01F5CD0BAE0B3F5381FDB
:104E70006AD0B3F5381F04D8B3F5101F00F09F8037
:104E8000AFE0B3F5401F00F08680B3F5481F00F097
:104E9000A380A6E008F0E6FAF860A5E008F0E2FAE0
:104EA000F860544BD3F80C311B0AC3F308030133E9
:104EB000FA68B2FBF3F3FB6096E008F0D3FAF8600F
:104EC00092E008F0CFFAF8604A4BD3F808311B0A99
:104ED000C3F308030133FA68B2FBF3F3FB6083E02A
:104EE00008F0C0FAF860434BD3F814311B0A03F002
:104EF0001F030133FA68B2FBF3F3FB6074E03E4832
:104F0000FFF754FEF8606FE03C48FFF74FFEF86093
:104F1000384BD3F8303103F00303FA6822FA03F375
:104F2000FB6061E03448FFF741FEF860314BD3F895
:104F3000203103F00F031846FFF77CFC0246FB68A4
:104F4000B3FBF2F3FB604FE02B48FFF72FFEF86056
:104F5000284BD3F820311B0903F00303FA6822FA27
:104F600003F3FB6040E02648FFF720FEF8603BE0DB
:104F70002348FFF71BFEF8601E4BD3F828311B09AE
:104F800003F003031846FFF755FC0246FB68B3FB2A
:104F9000F2F3FB6028E01A48FFF708FEF860154BB3
:104FA000D3F828311B0A03F0030304331846FFF734
:104FB00041FC0246FB68B3FBF2F3FB6014E00F48D0
:104FC000FFF7F4FDF8600FE0FFF7C8FCF8600BE0B6
:104FD000FFF79EFCF86007E00020FFF7DFFCF860B9
:104FE00002E00023FB6000BFFB6818461037BD4697
:104FF00080BD00BF00400E4002001E0005002400DE
:105000000300200080B584B000AF78607B681B0986
:1050100003F00F03BB60BB68013B092B00F2A080CB
:1050200001A252F823F000BF51500000615000006F
:10503000715000008150000061510000615100007A
:1050400091500000A1500000EF50000043510000BB
:10505000474BD3F800311B0A03F01F03FB6082E0CB
:10506000434BD3F814311B0A03F01F03FB607AE0B3
:105070003F4BD3F800311B0E03F00103FB6072E0DD
:105080003B4BD3F80C311B0AC3F30803FB606AE007
:10509000374BD3F808311B0AC3F30803FB6062E007
:1050A0007B68344A934203D0334A93420DD01AE0CE
:1050B0002F4BD3F8203103F00F03FB60F868FFF7A4
:1050C000B9FB0346013BFB6010E0294BD3F82031CC
:1050D0001B0903F00303FB60F868FFF7ABFB034613
:1050E000013BFB6002E00023FB6000BF3BE07B680C
:1050F000224A934203D0224A93420ED01DE01C4B19
:10510000D3F828311B0903F00303FB60F868FFF7AD
:1051100091FB0346013BFB6012E0154BD3F82831AD
:105120001B0A03F00303FB60FB6804331846FFF718
:1051300081FB0346013BFB6002E00023FB6000BFF4
:1051400011E07B680F4A934206D1094BD3F8303106
:1051500003F00303FB6002E00023FB6000BF02E0FA
:105160000023FB6000BFFB6818461037BD4680BDBA
:1051700000400E408006160080162E0090171A0080
:1051800090273000A009140080B584B000AF78608B
:1051900039607B681B0903F00F03FB60FB68013B70
:1051A000092B00F2078101A252F823F0D55100002B
:1051B00021520000B553000039520000B5530000E1
:1051C000B5530000555200009D5200001D530000D1
:1051D0008B530000FFF768FC7948FFF767FBFFF788
:1051E0007BFD784BD3F8003123F4F8523B681B0267
:1051F00074491343C1F8003108F00AF9B860FFF7A9
:1052000047FB03461946B868FFF770FC6E48FFF786
:10521000F3FD03461846FFF749FBFFF764FDCAE0BC
:10522000684BD3F8143123F4F8523B681B026549EC
:105230001343C1F81431BEE0624BD3F80C3123F4B0
:10524000FF3323F480733A6812025E491343C1F8B6
:105250000C31B0E0FFF728FC5948FFF727FB594B0A
:10526000D3F8083123F4FF3323F480733A68120231
:1052700054491343C1F8083108F0CAF8B860FFF781
:1052800007FB03461946B868FFF730FC4E48FFF7A6
:10529000B3FD03461846FFF709FB8CE07B684B4AD9
:1052A000934215D04A4A934224D04A4A934200D0AE
:1052B00033E04FF48020FFF7F3FC424BD3F830315A
:1052C00023F003023F493B681343C1F8303124E027
:1052D0003868FFF7BBFA38600420FFF7E1FC394B70
:1052E000D3F8203123F00F0236493B681343C1F84D
:1052F000203112E03868FFF7A9FA38600420FFF780
:10530000CFFC304BD3F8203123F030023B681B0137
:105310002C491343C1F8203100BF4CE07B682E4A72
:10532000934203D02D4A934213D02DE03868FFF703
:105330008DFA38604020FFF7B3FC224BD3F82831B8
:1053400023F030023B681B011E491343C1F828318A
:105350001AE03B687F2B02D83B680E2B00BF3868F1
:10536000FFF774FA0346043B3B604020FFF798FCCC
:10537000144BD3F8283123F440723B681B021149C7
:105380001343C1F8283100BF15E07B68114A9342EE
:1053900000D00EE04FF48020FFF782FC094BD3F8D9
:1053A000303123F0030207493B681343C1F8303121
:1053B00000BF00E000BF00BF1037BD4680BD00BF8A
:1053C0000148E80100400E4000250A008006160052
:1053D00080162E00A009140090171A0090273000A4
:1053E00080B485B000AF78600123FB737B6803F065
:1053F0000F03BB60BB68013B072B00F2C48001A216
:1054000052F823F0255400007B540000AB540000F8
:1054100087550000F1540000215500008755000019
:10542000455500005D4BD3F8943003F00703023B71
:10543000052B1ED801A252F823F000BF61540000D2
:105440005B54000055540000675400007354000082
:105450006D5400000223FB730EE00323FB730BE08B
:105460000423FB7308E00B23FB7305E00C23FB73A1
:1054700002E00523FB7300BF88E0484BD3F880307F
:1054800003F00703022B06D0042B07D0012B08D111
:105490000323FB7308E00223FB7305E00A23FB737D
:1054A00002E00123FB7300BF70E03C4BD3F8843073
:1054B00003F00703013B032B16D801A252F823F097
:1054C000D1540000D7540000E3540000DD54000024
:1054D0000323FB730BE00223FB7308E00A23FB7337
:1054E00005E00623FB7302E00123FB7300BF4DE0E0
:1054F0002A4BD3F8883003F00703022B06D0042B85
:1055000007D0012B08D10323FB7308E00223FB73B0
:1055100005E00A23FB7302E00123FB7300BF35E0C3
:105520001E4B1B6F03F00103002B04D0012B05D190
:105530000923FB7305E00723FB7302E00123FB73E0
:1055400000BF23E0154BD3F85C3103F03003102B80
:105550000CD0102B02D8002B05D010E0202B08D047
:10556000302B09D00BE00123FB730BE00723FB7307
:1055700008E00423FB7305E00823FB7302E001232A
:10558000FB7300BF02E00023FB7300BFFB7B1846E8
:105590001437BD465DF8047B704700BF00400E40E5
:1055A00080B58AB000AF78600B46FB7003237B6246
:1055B000032387F823300023BB6100237B617B68D2
:1055C000112B19D1FB78042B03D107F083FF7861ED
:1055D0000BE0FB78052B08D100F0C8F90246A44B7C
:1055E0009A4202D900F0C2F978617B69002B03D09E
:1055F0000021786900F0BAFC7B6803F00F033B617F
:105600003B69013B072B00F2298101A252F823F0EC
:105610003156000025570000375700005D58000044
:1056200029570000CD5700005D580000EB570000DF
:10563000FB78023B0A2B00F2138101A252F823F0FF
:105640006D56000079560000855600009756000000
:105650006158000061580000615800006158000066
:1056600061580000A9560000B556000004237B6273
:10567000002387F8233023E003237B62012387F88C
:1056800023301DE002237B62022387F82330794810
:10569000FFF70CF914E001237B62032387F8233022
:1056A0007448FFF703F90BE005237B62032387F8B7
:1056B000233005E007237B62062387F8233000BFF1
:1056C00097F82330062B06D097F8233001220121CA
:1056D000184600F0E9F9FFF7E7F9FFF7FDFA7B69F3
:1056E000002B01D0FFF7C6F8634A7B6A5367634813
:1056F000FFF782FB03461846FFF7D8F807F088FE4D
:10570000F860FFF7C5F803461946F868FFF7EEF9A9
:105710007B69002B03D10121002000F027FCFFF75B
:10572000E2FAA2E0564BBB61BB69002B01D0BB691A
:1057300000E0544BBB61BB69002B01D0BB6900E0AA
:10574000514BBB61FB78013B092B00F28B8001A21E
:1057500052F823F07D570000835700009357000054
:105760006558000065580000A35700006558000008
:105770006558000065580000BF5700000023FB611A
:1057800020E001220121002000F08EF90223FB61BC
:1057900018E001220121012000F086F90123FB61BC
:1057A00010E007F035FE03461846FFF77FF80122A8
:1057B00002213648FFF704F80323FB6102E00423CB
:1057C000FB6100BFBB69FA691A604EE0FB78072BEA
:1057D00002D0092B04D048E0274B00221A6703E0CF
:1057E000254B01221A6700BF3FE0FB78013B072BE6
:1057F0003AD801A252F823F0195800006958000065
:10580000695800002F5800006958000069580000CE
:105810001F5800003F5800000023FB6112E00122E6
:105820000121042000F040F90123FB610AE001227C
:105830000121022000F038F90223FB6102E003237A
:10584000FB6100BF0C4BD3F85C3123F03002FB69E5
:105850001B0109491343C1F85C3106E000BF04E0B5
:1058600000BF02E000BF00E000BF2837BD4680BD9A
:10587000002D31010148E80100400E4000250A00DA
:1058800080400E4088400E4084400E40B0400E40A4
:1058900080B483B000AF78607B68294A93422FD0F0
:1058A000274A934210D8274A934221D0254A93424F
:1058B00003D8254A93421BD03AE0244A934217D09A
:1058C000234A934218D033E0224A934224D0214AFB
:1058D000934206D8204A934216D0204A934217D0CA
:1058E00026E01F4A93421BD01E4A93421CD01FE061
:1058F0001D4BD3F880301CE01B4BD3F88C3018E0E4
:10590000194BD3F8983014E0174BD3F89C3010E0C3
:10591000154BD3F8A0300CE0134BD3F8A83008E0B7
:10592000114BD3F8AC3004E00F4BD3F8B03000E0AB
:10593000002318460C37BD465DF8047B704700BF56
:10594000405DC60080841E0040420F0000093D00FB
:10595000C0CF6A0080BA8C010024F400C0EA2101A3
:105960000048E80180D54302B081E00F80B400AF69
:10597000034B1B681846BD465DF8047B704700BFAB
:10598000D802002080B586B000AF78607868FFF755
:105990007FFF78617B69002B03D07B69B3F1FF3F08
:1059A00000BF3A4B1B683B61384A7B68136011208B
:1059B000FFF716FD0346052B03D1FFF775F8FFF738
:1059C0008BF900BF18213248FEF711FF0346002B68
:1059D000F8D17B682F4A93420DD02F4A934211D0C1
:1059E0002E4A934200D012E07B6923F0C06343F05B
:1059F00080637B610BE07B6923F0C06343F000733D
:105A00007B6104E07B6923F0C0637B6100BF1120F0
:105A1000FFF7E6FC0346052B02D17868FEF746FF48
:105A20007A683B699A4203D90121786800F09EFAAE
:105A30001B4A7B6913611120FFF7D2FC0346052B3B
:105A400009D107F0E5FCF860FEF722FF034619468E
:105A5000F868FFF74BF81348FFF7CEF903461846EE
:105A6000FEF724FF7A683B699A4203D8012100209F
:105A700000F07CFA1120FFF7B3FC0346052B01D19F
:105A8000FFF731F900BF1837BD4680BDD8020020AE
:105A900040410E4080841E0000093D0040420F003E
:105AA00000400E4000250A0080B588B000AF0346D4
:105AB000FB710B46BB7113467B71FB79042B00F223
:105AC000B88001A252F823F0255B0000135B0000B0
:105AD000EF5A0000DD5A0000015B000001237B61EA
