S01F00006A64616E69656C736B695F46696E616C5F50726F6A6563742E73333738
S2140000000000042011DC00003DDC00003DDC0000A8
S2140000103DDC00003DDC00003DDC00003DDC000077
S2140000203DDC00003DDC00003DDC0000E1A20000FD
S2140000303DDC00003CDC0000F1A4000059A50000F7
S2140000403DDC00003DDC00003DDC00003DDC000047
S2140000503DDC00003DDC00003DDC00003DDC000037
S2140000603DDC00003DDC00005346000095CD00005E
S2140000703DDC00003DDC00003DDC00003DDC000017
S2140000803DDC00003DDC0000634600003DDC000077
S2140000903DDC00003DDC00003DDC00003DDC0000F7
S2140000A03DDC00003DDC00003DDC00003DDC0000E7
S2140000B03DDC00003DDC00003DDC00003DDC0000D7
S2140000C03DDC00003DDC00003DDC00003DDC0000C7
S2140000D03DDC00003DDC00003DDC00003DDC0000B7
S2140000E03DDC00003DDC00003DDC00003DDC0000A7
S2140000F03DDC00003DDC00003DDC00003DDC000097
S2140001003DDC00003DDC00003DDC000010B5054C89
S214000110237833B9044B13B10448AFF300800123AE
S214000120237010BDEC03002000000000782C0100B6
S21400013008B5034B1BB103490348AFF3008008BD65
S21400014000000000F0030020782C0100154B002B67
S21400015008BF134B9D46A3F5803A00218B460F46F9
S2140001601348144A121A11F051F90F4B002B00D005
S21400017098470E4B002B00D0984700200021040023
S2140001800D000D48002802D00C48AFF3008011F097
S214000190E7F82000290002F023FF11F0CDF800BF99
S2140001A0000008000000042000000000000000001E
S2140001B0EC03002008A20020000000000000000061
S2140001C080B500AF05F08EFF0346184680BD0000E0
S2140001D080B500AF01220121032006F021F8074870
S2140001E005F08CFFFFF7ECFF0121054805F05AF9F2
S2140001F00121044805F056F900BF80BD80D54302B2
S2140002004041050000250A0080B582B000AF786046
S2140002107B6800221A757B681B49184611F041F965
S2140002207B6800225A757B6800229A757B680022DC
S21400023083F820207B68002283F820207B684FF01C
S2140002407E525A627B68114A9A627B68104A5A64E8
S2140002507B680A229A877B681222DA877B680A22E2
S214000260A3F840207B680B4A9A647B680222A3F8B6
S21400027042207B68084ADA627B684FF000021A6602
S21400028000BF0837BD4680BDAC1D01004260653C1E
S21400029000A0CD44AB5E09471F856B3EB0B584B069
S2140002A000AF78600B46FB707B68FA781A75FB78AF
S2140002B0032B47D801A252F823F000BFCD0200005E
S2140002C0EB02000009030000270300007B682449B6
S2140002D0184611F0E6F87B68224A03F13C041546FE
S2140002E00FCD0FC42B68236036E07B681E49184686
S2140002F011F0D7F87B681D4A03F13C0415460FCD74
S2140003000FC42B68236027E07B681949184611F054
S214000310C8F87B68174A03F13C0415460FCD0FC496
S2140003202B68236018E07B681349184611F0B9F86B
S2140003307B68124A03F13C0415460FCD0FC42B68A8
S214000340236009E04FF0A00383F31188BFF36F8F9B
S214000350BFF34F8FFB60FEE700BF1037BD46B0BD52
S214000360AC1D010000000020B41D01001400002098
S214000370BC1D010028000020C81D01003C00002014
S21400038080B483B000AF78607B684FF000029A605C
S2140003907B6800221A6000BF0C37BD465DF8047B00
S2140003A0704780B483B000AF78607B6802221A7012
S2140003B07B6800225A707B684FF000025A6000BFCC
S2140003C00C37BD465DF8047B704780B483B000AF41
S2140003D078607B6800221A707B6800225A707B68FF
S2140003E000229A7000BF0C37BD465DF8047B70474C
S2140003F0B0B588B002AF78606423FB810223FB753A
S2140004000223BB75CD4B0093002301224FF4C87125
S214000410CB480CF051F90246CA4B1A60C94B1C680F
S2140004200BF000FB03461A460A2300930023012123
S21400043020460CF091F90CF06BFD00F0F9F903463C
S2140004401A46C14B1A70C14B1B78052B00F2C581AA
S21400045001A252F823F000BFDB0700007104000081
S214000460DB070000B7040000A9070000DB07000058
S214000470B54B1A78B64B1B789A421AD0B24B1A78FC
S214000480B34B1A70B04B1B78012B02D0042B08D04C
S21400049010E0B04B186800230322AD210BF0A8FF34
S2140004A008E0AC4B186800230322DE210BF0A0FF07
S2140004B000E000BF91E1A84B186800231E2200212F
S2140004C00AF022FC0346002B09D0A44B1B683B61B4
S2140004D0A14B18680023002200210AF05FFA9A4B0D
S2140004E01B78013B032B1FD801A252F823F000BF54
S2140004F0010500000B050000150500001F050000A3
S2140005000023FB7502237B75E2E00123FB750123C4
S2140005107B75DDE00323FB75FF237B75D8E00423A2
S214000520FB75FE237B75D3E00223FB75BB7D002B9A
S21400053031D197F91530184610F046FB04460D46A3
S214000540386910F031FB4FF000024FF0404310F0D6
S214000550A5FB02460B46104619464FF00002804B9C
S21400056010F0C6FC02460B46104619464FF0000235
S2140005704FF0804310F0DCF902460B462046294631
S21400058010F0D4F903460C461846214610F036FE05
S21400059003467B759BE0BB7D012B30D197F9153068
S2140005A0184610F011FB04460D46386910F0FCFAA8
S2140005B04FF000024FF0404310F070FB02460B462F
S2140005C0104619464FF00002654B10F091FC0246AB
S2140005D00B46104619464FF00002624B10F0A8F981
S2140005E002460B462046294610F0A0F903460C4664
S2140005F01846214610F002FE03467B7567E0BB7D79
S214000600032B30D197F91530184610F0DDFA044662
S2140006100D46386910F0C8FA4FF000024FF040431C
S21400062010F03CFB02460B46104619464FF00002FF
S2140006304B4B10F05DFC02460B46104619464FF039
S2140006400002484B10F072F902460B462046294637
S21400065010F06CF903460C461846214610F0CEFD05
S21400066003467B7533E0BB7D042B30D197F91530FC
S214000670184610F0A9FA04460D46386910F094FAA8
S2140006804FF000024FF0404310F008FB02460B46C6
S214000690104619464FF00002314B10F029FC024676
S2140006A00B46104619464FF000024FF0804310F0FC
S2140006B03DF902460B462046294610F037F9034618
S2140006C00C461846214610F099FD03467B7500BF80
S2140006D0254B186800231E2200210AF015FB234A2A
S2140006E0FB7D1370FB7DBB753B69002B11D0FB7D3A
S2140006F0022B0ED01D4B93ED017A97F915305B0057
S21400070007EE903AF8EEE77A77EE277A174BC3EDC6
S214000710017A164BD3ED017A9FED157AF4EEC77A7F
S214000720F1EE10FA26DD114BD3ED017A9FED107A2B
S21400073077EEC77A0D4BC3ED017A2DE0F107000086
S214000740CC1D01000C04002010040020080400202A
S2140007501104002000A0002090A0002074A000201B
S21400076000002E400000F03F8CA000209CA000203F
S2140007700000B4431B4BD3ED017AF5EEC07AF1EEE0
S21400078010FA09D5174BD3ED017A9FED177A77EE5D
S214000790877A144BC3ED017A144B186800230022A5
S2140007A000210AF0FBF818E0104B186800230A2214
S2140007B000210AF0A9FA0B4B02221A70094B0022FC
S2140007C05A70084B4FF000025A60084B1868002316
S2140007D0002200210AF0E2F800BFFB8918460AF062
S2140007E095FE2AE69CA000200000B4438CA00020C2
S2140007F080B582B000AF78600A4B18680023642288
S21400080000210AF081FA084B1A78084B1A70054B3B
S21400081018680023002200210AF0C0F800BF08373D
S214000820BD4680BD88A00020760400200804002075
S21400083090B583B000AF4FF0804004F063FB0CF03F
S2140008403DFB0023FB710023BB7119E0BC79BB792B
S21400085018460CF0DDFA03461A4607F1080323444F
S21400086003F8082CBB7907F10802134413F8083C78
S214000870002B02D0FB790133FB71BB790133BB71CE
S214000880BB79032BE2D94FF0804004F021FBFB79C3
S214000890002B02D0FB79012B01D9002315E00023A1
S2140008A0BB710EE0BB7907F10802134413F8083C4D
S2140008B0002B03D0BB790133DBB206E0BB790133F2
S2140008C0BB71BB79032BEDD9002318460C37BD4608
S2140008D090BD0000F0B5A9B01AAF7860A64B1B68B3
S2140008E01B885B089AB2A54B1A800CF071FB386324
S2140008F03B6B002B09D04FF0A00383F31188BFF3A6
S2140009006F8FBFF34F8F3B62FEE7002008F010F8B2
S21400091038633B6B002B09D04FF0A00383F311889C
S214000920BFF36F8FBFF34F8FFB61FEE7924808F06F
S214000930F5FA38633B6B002B09D04FF0A00383F326
S2140009401188BFF36F8FBFF34F8FBB61FEE78A4BF3
S2140009506FF07F425A60884B00229A60884B198855
S214000960884B00930023002287480BF0A5FE024622
S214000970864B1A60824B1988854B00930023002211
S21400098084480BF099FE0246834B1A60834B198805
S214000990834B00930023002282480BF08DFE024614
S2140009A0814B1A60814B186800230A2200210AF046
S2140009B0ABF97F4B1A787F4B1A707C4B1868002374
S2140009C00022002109F0EAFF7A4B1B78052B00F283
S2140009D01A8401A252F823F0F1090000270A000049
S2140009E0470D0000170E0000DB0F00000711000087
S2140009F000F076FC08F0ECF9644B1B6818460CF027
S214000A0077F90346002B40F0CC83604B1C680BF054
S214000A1009F803461A460A230093002301212046BC
S214000A200BF09AFEBDE3594B1B6818460CF060F9B4
S214000A300346012B08D1554B18680A230093002360
S214000A40002203210BF088FE5B4B1B7883F001032A
S214000A50DBB2002B28D0594B186800230A2200214D
S214000A600AF052F9564B1B78564C1693564A15AB5D
S214000A701188927819809A70684604F110035422FF
S214000A80194610F0B8FC94E80F0000F0F7FE4B4B48
S214000A90186800230022002109F080FF08F098F96A
S214000AA0454B01221A70AEE307F114024FF6FF73AE
S214000AB04FF0FF314FF0FF300BF036FC7B69AD2B6B
S214000AC000F01181AD2B06D8552B00F0B280AA2B72
S214000AD000F0848097E3DE2B00F0D6803B4A9342FA
S214000AE000D090E3354B186800230A2200210AF054
S214000AF00BF9344801F056FB354B186800230A22E0
S214000B0000210AF001F9304B324A11889278198098
S214000B109A702D4B1B7819462F4803F029FE2E4B52
S214000B201B6A1B68274A93612B4B1B6A5B68254A26
S214000B30D361224B186800230022002109F02EFF03
S214000B40234B186800230022002109F027FF174BCB
S214000B50186800230A2200210AF0D6F8144B022255
S214000B601A70124B186800230022002109F016FFA5
S214000B70114B00221A70E5E0240400202004002017
S214000B805000002049120000DC1D01001404002063
S214000B9091120000EC1D01001804002052000020F5
S214000BA0B9120000FC1D01001C04002088A00020D3
S214000BB076040020500400205104002084A0002069
S214000BC05400002008A000200CA10020F0DEBC0A83
S214000BD070A0002054040020A8A00020A44800F024
S214000BE0D1FEA44B186800230A2200210AF08CF8D4
S214000BF09F4B1B78A04C1693A04A15AB1268114663
S214000C0019800233120C1A70684604F1100354223D
S214000C10194610F0F0FB94E80F0000F02FFE954BFD
S214000C20186800230022002109F0B8FE08F0D0F86A
S214000C3088E08F4800F0D2FE8E4B186800230A2208
S214000C4000210AF061F88A4B1B788B4C16938B4A6E
S214000C5015AB1268114619800233120C1A706846DA
S214000C6004F110035422194610F0C5FB94E80F0057
S214000C7000F004FE7F4B186800230022002109F0D4
S214000C808DFE08F0A5F85DE07A4B186800230A226E
S214000C9000210AF039F8764B1B78784A76491846D0
S214000CA000F0C8FE724B1B78734C1693734A15AB54
S214000CB01268114619800233120C1A70684604F145
S214000CC010035422194610F096FB94E80F0000F02B
S214000CD0D5FD684B186800230022002109F05EFE4F
S214000CE008F076F82EE0634B186800230A220021ED
S214000CF00AF00AF85E4B1B78604A5F49184600F017
S214000D00C9FE5B4B1B785C4C16935C4A15AB1268AD
S214000D10114619800233120C1A70684604F110034B
S214000D205422194610F067FB94E80F0000F0A6FD69
S214000D30504B186800230022002109F02FFE08F00F
S214000D4047F800BF5FE24E4B1B78013BDBB218460C
S214000D5000F0CCFF08F03CF8494B1B78013BDAB2B8
S214000D60474B1A70464B1B78002B40F01C82444BB6
S214000D7004221A70434B186800230A22002109F047
S214000D80C3FF0346002B0DD03F4B03221A703E4B89
S214000D901A783E4B1A703B4B18680023002200213D
S214000DA009F0FCFD3A4B186800230A22002109F0DE
S214000DB0ABFF384B0022DA82374B18680023142228
S214000DC0002109F0A1FF0346002B15D0314C6846E0
S214000DD004F110035422194610F00DFB94E80F009E
S214000DE003F074FE02462D4B5A602B4B1868002306
S214000DF00022002109F0D2FD254B186800230022AE
S214000E00002109F0CBFD264B1B6818460AF0C2FCF1
S214000E100FF030FDC7E107F1100200234FF0FF315D
S214000E204FF0FF300BF080FA0346012B3ED13B69B2
S214000E301C4A934240F0E481124B186800230A22B1
S214000E40002109F061FF104B04221A700E4B1A782D
S214000E500E4B1A700B4B186800230022002109F075
S214000E609DFD114B1B6818460BF066FBC8E100BFE2
S214000E705400002084A0002008A000205404002075
S214000E805500002088A00020760400205004002092
S214000E9070A00020A8A000208CA000209CA000200D
S214000EA098A000202143658700A00020BF4B18684B
S214000EB000230A22002109F027FF0346002B0CD04E
S214000EC0BB4ABC4B14460FCB84E80F00B74B1868E0
S214000ED000230022002109F061FDB74B18680023AB
S214000EE00A22002109F010FF0346002B0CD0B34B5A
S214000EF0B34A92E8030083E80300AF4B1868002368
S214000F000022002109F04AFDAE4B186800230A2291
S214000F10002109F0F9FE0346002B41D0AA4B1868C1
S214000F2000230A22002109F0EFFE0346002B30D0F2
S214000F30A64DA24A04AB92E8030083E803009C4B4C
S214000F406C460FCB84E80F0005F150030FCB00F082
S214000F5025FF9E4C964B16AD0FCB85E80F009C4B9D
S214000F601593684604F110035422194610F043FA0C
S214000F7094E80F0001F04AF9034687F83730924BA1
S214000F80186800230022002109F008FD904B01227A
S214000F901A758C4B186800230022002109F0FEFC0D
S214000FA097F83730002B14D08A4B186800230A2293
S214000FB0002109F0A9FE884B04221A70864B1A7885
S214000FC0864B1A70834B186800230022002109F014
S214000FD0E5FC07F0FDFE00BF15E10FF067FC804B57
S214000FE01B6818460AF0CCFA0346032B04D07C4B49
S214000FF01B6818460AF01CFB7A4B1B78002B05D0A2
S21400100001F036FC774B00221A7004E001F0DCFB9E
S214001010744B01221A7007F0DBFE734B1B681846F0
S2140010200BF066FE0346002B0CD16F4B1C680AF0D3
S214001030F9FC03461A460A230093002302212046A1
S2140010400BF08AFB07F10C0200234FF0FF314FF044
S214001050FF300BF069F90346012B40F0D380FB68A4
S214001060624A934248D1514B18680023052200215A
S21400107009F04AFE4F4B5B68FB624C4B1868002336
S2140010800022002109F08AFC4F4B18680023052235
S214001090002109F039FE4D4BD3ED187AFCEEE77AC5
S2140010A017EE903ABB62484B1868002300220021D6
S2140010B009F074FC0FF014FC03461A46B96AF86A85
S2140010C00FF0B8FB7862796A49480FF073FB414B22
S2140010D0186800230A22002109F016FE3E4B05225E
S2140010E01A703D4B1A783D4B1A703A4B186800231D
S2140010F00022002109F052FC3E4B1B6818460BF0FC
S2140011001BFA00BF7EE03A4E6D4606F110040FCC87
S2140011100FC594E8070085E8070096E80F0001F081
S214001120FBFB07F055FE344B1B6818460BF0E0FD42
S2140011300346002B0CD1304B1C680AF073FC0346A8
S2140011401A460A2300930023022120460BF004FBD4
S21400115007F108024FF6FF734FF0FF314FF0FF30F4
S2140011600BF0E2F8BB68254A93424CD1194B18683D
S21400117000230A22002109F0C7FD174B00221A702F
S214001180154B1A78154B1A70124B1868002300225C
S214001190002109F003FC174B1B6818460BF0CCF92E
S2140011A031E000BF2FE000BF2DE000BF90A0002080
S2140011B05804002074A000208CA0002068040020A2
S2140011C09CA0002070A0002084A0002008A0002082
S2140011D0A8A0002088A0002076040020500400204C
S2140011E098A00020700400201804002078563412BE
S2140011F010A1002000A000201C040020B1CAED0FA2
S21400120000BF00E000BF0D4B1B78022B06D10C4B35
S2140012101B8818460AF07AF9FFF7C4BB074B1B7801
S214001220042B04D164200AF071F9FFF7BBBB054B11
S2140012301B8818460AF06AF9FFF7B4BB5004002072
S214001240560000205800002080B582B000AF7860BD
S2140012500D4B186800230A22002109F055FD0346AD
S214001260012B0DD1094B1B78002B02D1074B012215
S2140012701A70054B186800230022002109F08EFB27
S21400128000BF0837BD4680BD88A000207604002039
S21400129080B582B000AF7860054B18680023032243
S2140012A004490BF0A5F800BF0837BD4680BD00BF57
S2140012B000A000207856341280B582B000AF786067
S2140012C0054B18680023032204490BF091F800BF71
S2140012D00837BD4680BD00BF00A00020B1CAED0F94
S2140012E0F0B58FB002AF374807F0ABFE3649354849
S2140012F008F0A1FD3B46354A3021184610F08EF81E
S2140013003B46184610F0D5F806462E4B1B681B8841
S2140013105B089BB21C462B4B93F824301A46294B8D
S21400132093F8273013441D463B46184610F0C1F884
S214001330034603FB05F35B08E31A1A463946002307
S214001340019305230093134632461E4808F00CFD11
S2140013503B461F4A3021184610F060F83B461846B8
S21400136010F0A7F80646174B1B681B885B089BB255
S2140013701C46144B93F824301A46124B93F8273029
S21400138013441D463B46184610F093F8034603FBED
S21400139005F35B08E31A18460A4B93F825301A46FD
S2140013A013465B001344053339460022019200932E
S2140013B003463246034808F0D7FC00BF3437BD4624
S2140013C0F0BD00BF24040020E82601000C1E01002A
S2140013D0181E010090B591B002AF0346FB71354967
S2140013E0354808F028FD07F10803344A302118462E
S2140013F010F014F807F10803184610F05AF82E4BB0
S21400140093F825309B0007F1080100220192009313
S2140014100A230246284808F0A7FCFB79032B2BD8A2
S21400142001A252F823F000BF39140000491400004E
S214001430591400006914000007F10803204A3021FF
S21400144018460FF0EBFF17E007F108031D4A30219E
S21400145018460FF0E3FF0FE007F108031A4A3021A1
S21400146018460FF0DBFF07E007F10803174A3021A4
S21400147018460FF0D3FF00BF07F10803184610F018
S21400148018F804460C4B1B681B88A3F133000A4B64
S21400149093F825309B0007F1080100220192009383
S2140014A003462246044808F05FFC00BF3C37BD46B2
S2140014B090BD00BFB823010024040020241E0100B4
S2140014C02C1E0100341E01003C1E0100441E0100BB
S2140014D090B591B002AF0346FB713749374808F024
S2140014E0AAFC07F10803364A302118460FF096FF8B
S2140014F007F1080318460FF0DCFF304B93F8253051
S2140015001A4613469B00134407F108010022019275
S21400151000930A230246294808F026FCFB79032B91
S2140015202AD801A252F823F0391500004915000008
S214001530591500006915000007F10803214A3021FB
S21400154018460FF06BFF17E007F108031E4A30211C
S21400155018460FF063FF0FE007F108031B4A30211F
S21400156018460FF05BFF07E007F10803184A302122
S21400157018460FF053FF00BF07F1080318460FF098
S21400158098FF04460D4B1B681B88A3F133000B4BDA
S21400159093F825301A4613469B00134407F10801BA
S2140015A000220192009303462246044808F0DCFB22
S2140015B000BF3C37BD4690BDB82301002404002080
S2140015C0541E0100601E0100681E0100701E01000E
S2140015D07C1E010090B591B002AF0346FB71324904
S2140015E0324808F028FC07F10803314A3021184633
S2140015F00FF014FF07F1080318460FF05AFF2B4BA5
S21400160093F825301A4613465B0013445B001A46CF
S21400161007F108010023019300920A23024623489B
S21400162008F0A2FBFB79012B0BD0022B11D0002B6C
S21400163017D107F108031F4A302118460FF0EEFEB7
S2140016400FE007F108031C4A302118460FF0E6FEAB
S21400165007E007F10803194A302118460FF0DEFEAE
S21400166000BF07F1080318460FF023FF04460F4B90
S2140016701B681B88A3F133000C4B93F825301A46E1
S21400168013465B0013445B001A4607F1080100236B
S2140016900193009203462246044808F065FB00BF0B
S2140016A03C37BD4690BD00BFB8230100240400208F
S2140016B0801E01008C1E0100941E01009C1E01006D
S2140016C090B591B002AF0346FB713049304808F040
S2140016D0B2FB07F108032F4A302118460FF09EFE92
S2140016E007F1080318460FF0E4FE294B93F825305F
S2140016F01A461346DB009B1A07F1080100220192E6
S21400170000930A230246224808F02EFBFB79012BA1
S2140017100BD0022B11D0002B17D107F108031E4A5D
S214001720302118460FF07AFE0FE007F108031B4A37
S214001730302118460FF072FE07E007F10803184A3A
S214001740302118460FF06AFE00BF07F1080318465E
S2140017500FF0AFFE04460E4B1B681B88A3F1330048
S2140017600B4B93F825301A461346DB009B1A07F1FD
S214001770080100220192009303462246044808F01E
S214001780F3FA00BF3C37BD4690BD00BFB82301004A
S21400179024040020A41E0100B01E0100B81E010093
S2140017A09C1E010090B591B002AF0346FB712D4917
S2140017B02D4808F040FB07F108032C4A3021184654
S2140017C00FF02CFE07F1080318460FF072FE264BAA
S2140017D093F82530DB0007F1080100220192009300
S2140017E00A230246204808F0BFFAFB79012B0BD0EB
S2140017F0022B11D0002B17D107F108031C4A302109
S21400180018460FF00BFE0FE007F10803194A3021C7
S21400181018460FF003FE07E007F10803164A3021CA
S21400182018460FF0FBFD00BF07F1080318460FF03F
S21400183040FE04460C4B1B681B88A3F133000A4B82
S21400184093F82530DB0007F108010022019200938F
S21400185003462246044808F087FA00BF3C37BD46D8
S21400186090BD00BFB823010024040020C01E010064
S214001870C81E0100D01E0100D81E010084B0F0B5BD
S2140018808FB002AF07F1480484E80F003A4807F02B
S214001890D8FB3A49384808F0CEFA3B46384A302159
S2140018A018460FF0BBFD3B4618460FF002FE0646F4
S2140018B0314B1B681B885B089BB21C462E4B93F86B
S2140018C024301A462C4B93F8273013441D463B46CB
S2140018D018460FF0EEFD034603FB05F35B08E31A1C
S2140018E01A463946002301930523009313463246D1
S2140018F0214808F039FA204B93F825305A001E4B41
S2140019001B681B8819461C4B93F825305B00009318
S2140019100B464FF0FF31184807F03DFF97F8B03000
S214001920154A92F8252002FB03F3DA1C0223032152
S214001930114807F080FC97F8AC301846FFF74AFDD0
S21400194097F85C301846FFF7C3FD97F868301846DE
S214001950FFF740FE97F85D301846FFF7B1FE97F8A0
S2140019605E301846FFF71EFF00BF3437BD46BDE8A1
S214001970F04004B0704700BF24040020E8260100B1
S214001980E01E010080B483B000AF78607B681B78EF
S214001990043B032B1AD801A252F823F0AD1900001D
S2140019A0B5190000BD190000C51900007B680522A6
S2140019B01A700CE07B6806221A7008E07B68072223
S2140019C01A7004E07B6808221A7000E000BF00BFAF
S2140019D00C37BD465DF8047B704700BF80B483B00B
S2140019E000AF78607B681B78053B032B1AD801A2F2
S2140019F052F823F0051A00000D1A0000151A000010
S214001A001D1A00007B6804221A700CE07B68052211
S214001A101A7008E07B6806221A7004E07B680722CA
S214001A201A7000E000BF00BF0C37BD465DF8047BAF
S214001A30704700BF80B584B000AF0346B9607A60D7
S214001A40FB73FB7B043B042B20D801A252F823F047
S214001A50651A00006D1A0000751A00007D1A000055
S214001A60851A0000786800F045F80FE0B86800F0C6
S214001A706DF80BE0B86800F0A9F807E0B86800F069
S214001A80DDF803E0B86800F005F900BF00BF1037C6
S214001A90BD4680BD80B584B000AF0346B9607A60AD
S214001AA0FB73FB7B043B042B20D801A252F823F0E7
S214001AB0C51A0000CD1A0000D51A0000DD1A000075
S214001AC0E51A0000786800F02BF80FE0B86800F020
S214001AD05DF80BE0B86800F095F807E0B86800F02D
S214001AE0C3F803E0B86800F0EBF800BF00BF10379B
S214001AF0BD4680BD80B483B000AF78607B681B783D
S214001B00032B06D07B681B780133DAB27B681A7029
S214001B1000E000BF00BF0C37BD465DF8047B704791
S214001B2080B483B000AF78607B681B78002B06D04B
S214001B307B681B78013BDAB27B681A7000E000BF56
S214001B4000BF0C37BD465DF8047B704780B582B099
S214001B5000AF78607B681B7D012B09D0022B0CD070
S214001B60002B00D00EE001217868FEF797FB09E015
S214001B7002217868FEF792FB04E003217868FEF7FE
S214001B808DFB00BF00BF0837BD4680BD80B582B064
S214001B9000AF78607B681B7D022B09D0032B0CD02E
S214001BA0012B00D00EE000217868FEF777FB09E0F5
S214001BB001217868FEF772FB04E002217868FEF7E0
S214001BC06DFB00BF00BF0837BD4680BD80B483B044
S214001BD000AF78607B6893F82030002B02D0012B92
S214001BE005D009E07B68012283F8202004E07B68AA
S214001BF0022283F8202000BF00BF0C37BD465DF8E8
S214001C00047B704780B483B000AF78607B6893F83D
S214001C102030012B02D0022B05D009E07B68002281
S214001C2083F8202004E07B68012283F8202000BF90
S214001C3000BF0C37BD465DF8047B704780B483B0A8
S214001C4000AF78607B685B7D022B06D07B685B7D8F
S214001C500133DAB27B685A7500E000BF00BF0C376C
S214001C60BD465DF8047B704780B483B000AF7860F3
S214001C707B685B7D002B06D07B685B7D013BDAB220
S214001C807B685A7500E000BF00BF0C37BD465DF8A4
S214001C90047B704780B483B000AF78607B689B7D20
S214001CA0022B06D07B689B7D0133DAB27B689A757F
S214001CB000E000BF00BF0C37BD465DF8047B7047F0
S214001CC080B483B000AF78607B689B7D002B06D025
S214001CD07B689B7D013BDAB27B689A7500E000BFAB
S214001CE000BF0C37BD465DF8047B7047B0B592B0B8
S214001CF002AF0346FB71FB7907F10C010A22184676
S214001D000FF052FB234807F09CF92349214808F0BE
S214001D1092F807F10C0207F11003302118460FF075
S214001D207DFB07F1100318460FF0C3FB0546194B61
S214001D301B681B885B089BB21C4607F110031846FD
S214001D400FF0B7FB0246134B93F824301946114B9D
S214001D5093F827300B4403FB02F35B08E31A18469C
S214001D600C4B1B685B885B089BB21A46094B93F8C2
S214001D7025305B08DBB2D31A07F11001002201926E
S214001D80009303462A46034807F0EEFF00BF40379D
S214001D90BD46B0BD24040020D828010090B587B009
S214001DA002AF3C4684E80F000B4807F04AF907F1FB
S214001DB020030FCB00F012F86A4607F1300393E8D1
S214001DC0030082E803003B460FCB00F021F900BF7A
S214001DD01437BD4690BD00BF2404002090B59DB0CA
S214001DE002AF3C4684E80F0005237B650523BB65F0
S214001DF0844B1B681B885B089BB2FB65814B93F882
S214001E0025303B66D7ED027AF5EE407AF1EE10FA11
S214001E101AD17C4B1B681B885B089BB20533DA0F14
S214001E2013445B107B640523BB64764B1B681B88DE
S214001E305B089BB20533DA0F13445B10FB64714BEF
S214001E4093F825303B657AE0D7ED027AF5EEC07A56
S214001E50F1EE10FA3DDB6B4B1B681B885B089BB2F0
S214001E600533DA0F13445B107B640523BB64654BB4
S214001E701B681B885B089BB20533DA0F13445B10A4
S214001E8007EE903AB8EEE77AD7ED026A5D4B1B682C
S214001E901B885B089BB219465A4B1B681B885B085D
S214001EA09BB20533DA0F13445B105B420B4407EE1C
S214001EB0903AF8EEE77A66EEA77A77EE277AFDEEA6
S214001EC0E77A17EE903AFB644E4B93F825303B6565
S214001ED035E04C4B1B681B885B089BB20533DA0F5A
S214001EE013445B1007EE903AB8EEE77A454B1B6852
S214001EF01B885B089BB20533DA0F13445B10053B67
S214001F0007EE903AF8EEE76AD7ED027A66EEA77A21
S214001F1077EE277AFDEEE77A17EE903A7B64052394
S214001F20BB64384B1B681B885B089BB20533DA0F13
S214001F3013445B10FB64334B93F825303B6507F185
S214001F40540319462F4807F03DFD07F14403194690
S214001F502C4807F0ADFD2C4A07F1100392E8030069
S214001F6018600433198002330A0C1A7007F117033D
S214001F702922002118460FF049FA3B460FCB00F005
S214001F8017FA78667B6E07F140010A2218460FF0B2
S214001F900BFA07F1400207F11003114618460FF03E
S214001FA071FA1A49174807F046FF07F1100318465A
S214001FB00FF07FFA134B1B681B88A3F1380207F15A
S214001FC010010023019303230093134602460D4895
S214001FD007F0CAFE0B4B93F825305A00094B1B68D6
S214001FE01B881946074B93F825305B0000930B4679
S214001FF04FF0FF31034807F0CEFB00BF6C37BD46FD
S21400200090BD00BF24040020EC1E0100B823010090
S21400201090B587B002AF3C4684E80F0097F82030B2
S214002020042B00F2B78001A252F823F09F20000094
S2140020304D20000041200000F12000004321000058
S2140020403B461946564807F0BDFCA4E03B68991C81
S2140020507A683868FB6800930346514807F09BFB94
S214002060BB68991C7A68B868FB68009303464C48BE
S21400207007F091FBB968FA683868FB680093034676
S214002080474807F088FBBB68991C7A683B68981C31
S2140020907B6800930346424807F07DFB7BE03B6885
S2140020A0191D7A683868FB68009303463C4807F0B9
S2140020B072FBBB68191D7A68B868FB680093034614
S2140020C0374807F068FBB968FA683868FB68009319
S2140020D00346334807F05FFBBB68191D7A683B6808
S2140020E0181D7B68009303462D4807F054FB52E00A
S2140020F03B68991E7A683868FB6800930346284850
S21400210007F049FBBB68991E7A68B868FB680093BD
S2140021100346234807F03FFBB968FA683868FB684F
S214002120009303461E4807F036FBBB68991E7A6884
S2140021303B68981E7B6800930346194807F02BFB04
S21400214029E03B68191F7A683868FB6800930346E5
S214002150134807F020FBBB68191F7A68B868FB684D
S214002160009303460E4807F016FBB968FA6838680D
S214002170FB68009303460A4807F00DFBBB68191F6F
S2140021807A683B68181F7B6800930346044807F08C
S21400219002FB00E000BF00BF1437BD4690BD00BF85
S2140021A02404002080B483B000AF7860164B1B6810
S2140021B01B885B089BB21A467B689B8F5B089BB2AA
S2140021C01A447B689A65104B1B681B885B089BB299
S2140021D01A467B689B8F5B089BB2D21A7B681A658F
S2140021E0094B1B685B889A1E7B685A657B685B6D2B
S2140021F07A68D28F9A1A7B68DA6500BF0C37BD46BC
S2140022005DF8047B704700BF2404002084B090B5BE
S21400221085B002AF07F1180484E80F0000237B7135
S2140022200023FB7130E0FB6FDB8A1A46FB79134410
S214002230FA6F128B934202DD01237B7129E0FB7952
S21400224010335B00FA6F1344181DFB6F1A6EFB7990
S214002250F96FC98A0B44DB0013441C68FB6F1A6EC7
S214002260FB79F96FC98A0B44DB0013445B68009363
S214002270234607F1300206CA02F07CFB0346002B19
S21400228006D1FB790133FB71FB791D2BCBD900E01E
S21400229000BFFB79013BDBB2BB7179E097F90630F2
S2140022A0FA6F10335B0013441B791A463E4B1B68CB
S2140022B01B88013B002B00DA03339B105B42D118CE
S2140022C097F90630FA6F10335B0013445B791C46AF
S2140022D097F90630013BFA6F10335B0013441B7905
S2140022E01A46314B1B681B88013B002B00DA033370
S2140022F09B105B42D01897F90630013BFA6F1033FB
S2140023005B0013445B79009303462246264807F099
S21400231042FA97F90630FA6F10335B0013441B79C4
S2140023201A46214B1B681B88013B002B00DA03333F
S2140023309B10D11897F90630FA6F10335B001344E0
S2140023405B791C4697F90630013BFA6F10335B0049
S21400235013441B791A46144B1B681B88013B002B41
S21400236000DA03339B10D01897F90630013BFA6F5A
S21400237010335B0013445B790093034622460A48F9
S21400238007F009FA97F90630DBB2013BDBB2BB7106
S21400239097F90630002B81DC002318460C37BD4623
S2140023A0BDE8904004B07047240400200000000000
S2140023B090B585B000AF3C4684E80F003B6807EE5A
S2140023C0903AF8EE677A17EE900A0EF00FFC08A324
S2140023D0D3E900230EF062FC03460C46184621465D
S2140023E00EF034FF034618461437BD4690BD00BFB6
S2140023F0F7E978CC40E501402DE9B0438AB000AF5C
S214002400786039604FF000034FF00004C7E90434E9
S2140024104FF000034FF00004C7E902344FF000030A
S2140024204FF00004C7E908340023FB774FF00003A1
S2140024304FF00004C7E90834B4E1D7E908234FF0A9
S2140024400000D5490EF072FA03460C46184621469F
S2140024504FF00002D14B0BF077FD04460D467B682B
S2140024601B6818460EF0C2FB02460B46204629465D
S2140024700EF014FC03460C4625461C464FF00002A0
S214002480C64BD7E908010EF009FC02460B469046FB
S2140024909946D7E908234FF00000BF490EF046FAE8
S2140024A002460B46104619464FF000024FF0804396
S2140024B00BF04AFD02460B46404649460EF0EEFB40
S2140024C002460B46904699467B6808331B681846BA
S2140024D00EF08CFB02460B46404649460EF0DEFBED
S2140024E002460B46204629460EF022FA03460C46C4
S2140024F025461C464FF000024FF08043D7E90801FE
S2140025000BF022FD4FF00002A44B0EF0C7FB024674
S2140025100B4690469946D7E908234FF000009E499F
S2140025200EF004FA02460B46404649460EF0B6FB4D
S21400253002460B46904699467B6810331B68184641
S2140025400EF054FB02460B46404649460EF0A6FBEC
S21400255002460B46204629460EF0EAF903460C468C
S21400256025461C464FF000028C4BD7E908010BF0BD
S214002570EBFC804689467B6818331B6818460EF0CD
S21400258035FB02460B46404649460EF087FB0246A0
S2140025900B46204629460EF0CBF903460C46C7E903
S2140025A00434D7E908234FF000007B490EF0BEF94B
S2140025B003460C46184621464FF00002774B0BF0B8
S2140025C0C3FC04460D467B685B6818460EF00EFB9F
S2140025D002460B46204629460EF060FB03460C4694
S2140025E025461C464FF000026C4BD7E908010EF05A
S2140025F055FB02460B4690469946D7E908234FF00E
S214002600000065490EF092F902460B461046194640
S2140026104FF000024FF080430BF096FC02460B464C
S214002620404649460EF03AFB02460B46904699460F
S2140026307B6808335B6818460EF0D8FA02460B46ED
S214002640404649460EF02AFB02460B4620462946DF
S2140026500EF06EF903460C4625461C464FF0000267
S2140026604FF08043D7E908010BF06EFC4FF00002F4
S2140026704A4B0EF013FB02460B4690469946D7E9A6
S21400268008234FF0000044490EF050F902460B466E
S214002690404649460EF002FB02460B4690469946D7
S2140026A07B6810335B6818460EF0A0FA02460B46AD
S2140026B0404649460EF0F2FA02460B4620462946A8
S2140026C00EF036F903460C4625461C464FF000022F
S2140026D0324BD7E908010BF037FC804689467B6809
S2140026E018335B6818460EF081FA02460B464046E1
S2140026F049460EF0D3FA02460B46204629460EF00F
S21400270017F903460C46C7E902344FF00002244B83
S214002710D7E904010EF00CF903460C46184621468C
S2140027200EF094FD0346D9B2FB7FDB003A681344F3
S21400273007EE901AF8EE677AC3ED007A4FF00002C3
S214002740174BD7E902010EF0F3F803460C4618467D
S21400275021460EF07BFD0346D9B2FB7FDB003A68CC
S214002760134407EE901AF8EE677AC3ED017AFB7F02
S2140027700133FB7706A3D3E90023D7E908010EF05F
S214002780D7F803460C46C7E908340BE0AFF30080E1
S2140027909A9999999999B93F0000F03F000008402E
S2140027A00000E03F4FF00002064BD7E908010EF0AC
S2140027B0F1FC0346002B7FF440AE00BF2837BD4631
S2140027C0BDE8B0830000F03FF0B58FB002AF254BF8
S2140027D06FF07F425A60234B00229A60214806F031
S2140027E030FC21491F4807F026FB3B461F4A302194
S2140027F018460EF013FE3B4618460EF05AFE0646E6
S214002800184B1B681B885B089BB21C46154B93F83D
S21400281024301A46134B93F8273013441D463B4684
S21400282018460EF046FE034603FB05F39B08E31A24
S214002830053318460B4B1B685B885B089BB21A4631
S214002840084B93F825305B00D31A394600220192D4
S214002850009303463246034807F086FA00BF343733
S214002860BD46F0BD24040020E82601001C1F010020
S214002870F0B58FB002AF254B00225A60234B6FF0A5
S2140028807F429A60214806F0DCFB21491F4807F08A
S214002890D2FA3B461F4A302118460EF0BFFD3B4693
S2140028A018460EF006FE0646184B1B681B885B088B
S2140028B09BB21C46154B93F824301A46134B93F8DC
S2140028C0273013441D463B4618460EF0F2FD0346DD
S2140028D003FB05F39B08E31A053318460B4B1B68EE
S2140028E05B885B089BB21A46084B93F825305B0062
S2140028F0D31A394600220192009303463246034813
S21400290007F032FA00BF3437BD46F0BD240400207D
S214002910E82601001C1F010084B0F0B591B002AF9C
S21400292007F1500484E80F00554B6FF07F425A6061
S214002930534B00229A60524806F083FB5149504898
S21400294007F079FA3B1D504A302118460EF066FD16
S2140029503B1D18460EF0ADFD0646494B1B681B880E
S2140029605B089BB21C46464B93F824301A46444BF1
S21400297093F8273013441D463B1D18460EF099FD6C
S214002980034603FB05F35B08E31A1A46391D0023CA
S21400299001930523009313463246394807F0E4F9BD
S2140029A0374B93F825305A00354B1B681B88194661
S2140029B0334B93F825305B0000930B464FF0FF3106
S2140029C02F4806F0E8FE31492D4807F034FA3B1D43
S2140029D02F4A302118460EF021FD3B1D18460EF0FA
S2140029E068FD274B93F825309B00391D0022019285
S2140029F000930A230246224807F0B6F93B1D254AF3
S214002A00302118460EF00AFD3B1D18460EF051FD0B
S214002A1004461B4B1B681B88A3F13300184B93F826
S214002A2025309B00391D0022019200930346224662
S214002A30134807F099F9002387F8373013E097F822
S214002A4037300133DAB297F837309B0007F1500180
S214002A500B445B681946104600F01EF897F83730AE
S214002A60013387F8373097F8503097F837209A4276
S214002A70E5D300BF3C37BD46BDE8F04004B0704724
S214002A8024040020E8260100281F0100B8230100C6
S214002A90341F01003C1F010090B595B002AF0346FD
S214002AA03960FB71FB7907F114010A2218460EF013
S214002AB07BFC07F114032A4918460EF0E3FC29496B
S214002AC0294807F0B8F907F1140207F11803302176
S214002AD018460EF0A3FC07F1180318460EF0E9FCA2
S214002AE0FB790533204A92F8252002FB03F307F111
S214002AF018010022019200930A2302461A4807F0A2
S214002B0033F93B6807F10C010A2218460EF04CFC1C
S214002B1007F10C0207F11803302118460EF07EFC70
S214002B2007F1180318460EF0C4FC04460E4B1B684B
S214002B301B88A3F13300FB7905330B4A92F8252056
S214002B4002FB03F307F118010022019200930346EB
S214002B502246054807F008F900BF4C37BD4690BD31
S214002B60441F0100B82301002404002080B485B06F
S214002B7000AF786039607B6803F1C063FB60FB6878
S214002B803A681A6000BF1437BD465DF8047B70478C
S214002B9080B485B000AF786039607B6803F18063ED
S214002BA0FB60FB683A681A6000BF1437BD465DF8E4
S214002BB0047B704780B582B000AF03463960FB7176
S214002BC0FB79002B1CD0FB79012B19D0FB79022B4B
S214002BD016D0FB79032B13D0FB79042B10D0FB798E
S214002BE0052B0DD0FB79062B0AD0FB79072B07D0D7
S214002BF0FB79082B04D0FB79092B01D0FB790A2B33
S214002C00FA7913465B0013441B010C3303F180432F
S214002C1003F5204301213A6801FA02F211461846EC
S214002C20FFF7B6FF00BF0837BD4680BD80B582B04F
S214002C3000AF03463960FB71FB79002B1CD0FB7993
S214002C40012B19D0FB79022B16D0FB79032B13D05E
S214002C50FB79042B10D0FB79052B0DD0FB79062BC6
S214002C600AD0FB79072B07D0FB79082B04D0FB7919
S214002C70092B01D0FB790A2BFA7913465B00134423
S214002C801B010C3303F1804303F5204301213A680E
S214002C9001FA02F211461846FFF768FF00BF083730
S214002CA0BD4680BD80B584B000AF78604FF4FA733F
S214002CB0FB816423BB8100F003F9794B186800237D
S214002CC00022002108F020F8764B1A78764B1A700E
S214002CD0734B186800230022002107F05FFE724B3A
S214002CE01B78052B00F2CD8001A252F823F000BF1E
S214002CF0092D0000092D00004F2D0000712D000049
S214002D00F72D00003D2E0000684B1B78184600F09B
S214002D10F5F8674B1B78184600F005F9634B1B78EF
S214002D2083F00103DBB2002B14BF01230023DAB2C9
S214002D305E4B1A705E4B1B7883F00103DBB2002BF0
S214002D4014BF01230023DAB2594B1A7099E0574B8F
S214002D5000221A70564B00221A70544B1B781846E5
S214002D6000F0CCF8524B1B78184600F0DCF888E0F0
S214002D70504B5B78002B03D04C4B01221A7013E0AB
S214002D804C4B1B78002B0CD0484B1B7883F0010370
S214002D90DBB2002B14BF01230023DAB2434B1A70B8
S214002DA002E0424B00221A70424BDB78002B03D025
S214002DB03F4B01221A7013E03E4B9B78002B0CD041
S214002DC03B4B1B7883F00103DBB2002B14BF0123BF
S214002DD00023DAB2364B1A7002E0354B00221A7026
S214002DE0324B1B78184600F089F8314B1B78184692
S214002DF000F099F845E0304B1B78012B09D02B4B9F
S214002E0000221A702A4B01221A702B4B01221A70CC
S214002E1009E0264B01221A70254B00221A70264B19
S214002E2000221A7000BF214B1B78184600F066F887
S214002E301F4B1B78184600F076F822E01F4B1B78D5
S214002E40012B09D0194B00221A70194B00221A7058
S214002E501A4B01221A7009E0144B01221A70144B07
S214002E6001221A70154B00221A7000BF0F4B1B78F8
S214002E70184600F043F80E4B1B78184600F053F83F
S214002E8000BF094B1B78042B04D1BB89184608F0F9
S214002E903DFB12E7FB89184608F038FB0DE700BF3C
S214002EA088A0002076040020710400207204002010
S214002EB0730400206CA00020740400207504002019
S214002EC080B500AF01210C4802F0ECFA0021052085
S214002ED003F032FD002304220421052003F06CFDDC
S214002EE00021052003F028FD0023042205210520EB
S214002EF003F062FD00BF80BD00350A0080B582B0D9
S214002F0000AF0346FB71FB79002B04D0042105209B
S214002F10FFF78CFE03E004210520FFF74BFE00BF01
S214002F200837BD4680BD80B582B000AF0346FB7152
S214002F30FB79002B04D005210520FFF777FE03E080
S214002F4005210520FFF736FE00BF0837BD4680BDC9
S214002F5080B400AF044BDB6C1B0EDBB21846BD46DC
S214002F605DF8047B704700BFB081E00F80B582B08B
S214002F7000AF164B01225A64FFF7EAFF0346FB71C7
S214002F80FB79002B0CD1124B4AF6E8521A60114B13
S214002F901B68104A43F0040313600D4B00221A60AE
S214002FA0FB79012B05D80C4B1B680B4A43F40053E6
S214002FB013600A4B1B6A23F44413084A43F488132D
S214002FC0136200BF0837BD4680BD00BF00000E403C
S214002FD090310E4098310E4064310E4000400E4055
S214002FE080B582B002AFFFF7C1FFFDF7F1F801F040
S214002FF041FB3C48FDF708F93B48FDF7C1F93B4863
S214003000FDF7CFF93A48FDF7E0F93A480DF0A6FB90
S2140030100AF0EAFD03220021012007F02EFC0246FA
S214003020354B1A60012007F0A0FC0246334B1A60AD
S214003030012007F09AFC0246314B1A60012007F087
S21400304094FC02462F4B1A60012007F08EFC0246C5
S2140030502D4B1A60012007F088FC02462B4B1A60A5
S214003060012007F082FC0246294B1A60294B019387
S21400307004230093002364222749284808F003F914
S214003080274B01930123009300234FF4AF72254989
S214003090254808F0F8F80023019302230093002344
S2140030A0C8222249224808F0EEF8002301930223A2
S2140030B000930023C8221F491F4808F0E4F81F4B5E
S2140030C00193012300930023FA221D491D4808F0AE
S2140030D0DAF81A4B1B68184608F0AAFA08F0B6FB8E
S2140030E0FEE700BF08A0002074A000209CA00020DF
S2140030F00CA1002010A10020A4A0002090A0002079
S2140031008CA0002088A0002094A0002084A000208E
S21400311070A0002004A00020481F0100A52C00007D
S21400312000A00020501F0100D50800005C1F010011
S21400313019370000681F0100F103000098A0002066
S214003140741F01008131000080B483B000AF4FF0DF
S214003150A00383F31188BFF36F8FBFF34F8F7B609D
S214003160FEE780B485B000AF786039604FF0A0030A
S21400317083F31188BFF36F8FBFF34F8FFB60FEE7BB
S214003180B0B5A2B01AAF78603223BB83AC4800F06B
S21400319075F9AC4B186800230A22002107F0B4FD2D
S2140031A0A94B1A78A94B1A70A64B18680023002260
S2140031B0002107F0F3FBA54B1B78042B05D1A04894
S2140031C000F05CF9A24B00221A70A24B186800238C
S2140031D00A22002107F098FD0346002B00F0BB8072
S2140031E04FF00003BB614FF000037B619A4B1B7DE1
S2140031F0002B00F0A980994B186800230A220021B2
S21400320007F082FD0346002B00F09E80944B9869E1
S214003210934BD969904B1A6E8F4BDB8ADB001344B5
S2140032201C688D4B1A6E8C4BDB8ADB0013445B6884
S214003230224601F077FD034618460DF0D7FC0346FC
S2140032400C46184621460BF01DF803460C46184659
S21400325021460EF01BF80346BB61814B9869804BF4
S214003260D9697D4B1A6E7C4BDB8A0133DB00134435
S2140032701C68794B1A6E784BDB8A0133DB001344EB
S2140032805B68224601F04EFD034618460DF0AEFC84
S21400329003460C46184621460AF0F4FF03460C4641
S2140032A0184621460DF0F2FF03467B6197ED057A3E
S2140032B0D7ED067AB4EEE77AF1EE10FA05D5664B4E
S2140032C0DB8A01339AB2644BDA820023FB7731E063
S2140032D02023FB74FB7F604A10335B0013441B798A
S2140032E01A46FB7C1344FB60FB7F5B4A10335B0093
S2140032F013441B791A46FB7CD31ABB60584B9B6D54
S214003300FA689A4207DA574B186800230322564990
S21400331009F06EF80BE0524B1B6DBA689A4206DD58
S214003320504B1868002303224F4909F061F8FB7FD1
S2140033300133FB77FB7F032BCAD9484B1868002361
S2140033400022002107F02AFB424B186800230022C7
S214003350002107F023FB454B186800230A220021B2
S21400336007F0D2FC424B1B78022B3ED0414B18682C
S21400337000230A22002107F0C7FC3F4B1B681846B3
S2140033800DF012FC4FF000024FF000030DF016FF98
S2140033900346002B22D0314B186800230A22002156
S2140033A007F0B2FC2E4C344B15AD0FCB85E80F0062
S2140033B0684604F11003542219460EF01CF894E8EF
S2140033C00F0000F0C9F803461A46214B1A70234B2B
S2140033D0186800230022002107F0E0FA254B186841
S2140033E000230022002107F0D9FA204B186800239A
S2140033F00022002107F0D2FA154B1B78012B04D0CF
S214003400022B0ED0002B11D015E002210C4800F044
S2140034104BF8144B186800230322134908F0E8FF02
S21400342009E00021064800F03FF804E000210448C7
S21400343000F066F800BFBB8B184608F067F8A8E6F1
S2140034406CA0002088A000207604002078040020CD
S2140034507904002070A00020A8A0002084A00020EE
S21400346008A0002000A00020214365878CA0002033
S2140034709CA0002090A0002074A0002080B483B000
S21400348000AF78607B6800221A707B6800225A7052
S2140034907B6800229A707B680022DA7000BF0C37C7
S2140034A0BD465DF8047B704780B483B000AF78609B
S2140034B00B46FB70FB78032B1AD801A252F823F0B8
S2140034C0D1340000D9340000E1340000E9340000B3
S2140034D07B6801221A700CE07B6801229A7008E073
S2140034E07B6801225A7004E07B680122DA7000E0F3
S2140034F000BF00BF0C37BD465DF8047B704700BFB9
S21400350080B483B000AF78600B46FB70FB78032B6B
S2140035101AD801A252F823F02935000031350000F0
S21400352039350000413500007B6800221A700CE037
S2140035307B6800229A7008E07B6800225A7004E0DC
S2140035407B680022DA7000E000BF00BF0C37BD4683
S2140035505DF8047B704700BF84B0B0B582B000AFA2
S21400356007F1180484E80F00FB6F18460DF01CFBEB
S2140035704FF000024FF080430AF0E6FC04460D468A
S214003580B7F8583018460DF01FFB02460B4620468B
S21400359029460DF0ADFC03460C46184621464FF072
S2140035A000022B4B0DF0A4FC03460C4618462146A1
S2140035B04FF000024FF080430AF0C6FC03460C466C
S2140035C0184621460DF062FE03467B6078680DF0D3
S2140035D00DFB03460C46184621460AF053FE0346EA
S2140035E00C46184621460DF051FE03467B60D7ED8B
S2140035F0147A97ED017AB4EEE77AF1EE10FA01DB71
S214003600012319E078680DF0F1FA04460D463B6D8B
S21400361018460DF0EBFA0CA3D3E900230DF03EFBA1
S21400362002460B46204629460DF0BEFD0346002BFB
S21400363001D0022300E0002318460837BD46BDE847
S214003640B04004B0704700BF333333333333EB3FFF
S2140036500000E03F80B485B000AF786039607B68DA
S21400366003F10473DA003B6813449B00FB60FB68BD
S2140036701B6818461437BD465DF8047B704700008B
S21400368080B483B000AF7860044A7B68C2F8243404
S21400369000BF0C37BD465DF8047B704700A00040B5
S2140036A080B582B000AF03463960FB71FB79002B12
S2140036B01CD0FB79012B19D0FB79022B16D0FB7995
S2140036C0032B13D0FB79042B10D0FB79052B0DD0E0
S2140036D0FB79062B0AD0FB79072B07D0FB79082B42
S2140036E004D0FB79092B01D0FB790A2BFA79134613
S2140036F05B0013441B011C3303F1804303F5204396
S21400370039681846FFF7A6FF034618460837BD4631
S21400371080BD00000000000090B59FB016AF786036
S2140037206423FB77FB7F4FF47A7202FB03F3B04A05
S21400373082FB03129211DB17D31ABB83C8237B8349
S2140037404FF47A733B8300F005FF398BA94B009347
S21400375000230022A84808F0AFFF0246A74B1A60D5
S214003760A74B0093002300224FF47A71A54808F077
S214003770A3FF0246A44B1A60A44B0093002300222A
S2140037804FF4FA71A24808F097FF0246A14B1A6060
S21400379000F0FEFE03461A469F4B1A7000F015FF17
S2140037A003461A469D4B1A709D4B1868002300224C
S2140037B0002107F0A9FA9B4B1A789B4B1A70984B7E
S2140037C0186800230022002107F0E8F8974B1868D5
S2140037D000230022002107F097FA954B1A78954BA4
S2140037E01A70924B186800230022002107F0D6F8C2
S2140037F08D4B1B78052B00F2D08201A252F823F0E5
S2140038009B3D0000193800009B3D000081390000F8
S2140038109B3D0000ED3C00007F4B1A787F4B1B78E9
S2140038201946104600F0EEFE0346032B00F2A68073
S21400383001A252F823F000BF5339000049380000B7
S214003840EF380000213900007B4B01221A706E4BC6
S2140038501B68184609F04CFA0346002B0CD16A4B3D
S2140038601C6808F0DFF803461A460A230093002374
S2140038700221204608F070FF704B186800230022D3
S214003880002107F041FA6E4B186800230022002141
S21400389007F03AFA6B4C684604F1100354221946B6
S2140038A00DF0A9FD94E80F0000F0E2FD0246654B1E
S2140038B05A63644C684604F11003542219460DF00E
S2140038C09AFD94E80F0000F0FBFD02465D4B9A63FC
S2140038D05B4B186800230022002107F05FF8574B67
S2140038E0186800230022002107F058F847E0464BEE
S2140038F01B68184609F0FCF90346012B08D1424B19
S21400390018680A23009300230022032108F024FFEE
S2140039104D4B186800230322AA2108F069FD2EE00B
S214003920394B1B68184609F0E3F90346012B08D10A
S214003930354B18680A23009300230022032108F061
S2140039400BFF414B186800230322552108F050FD59
S21400395015E02D4B1B68184609F0CAF90346012BE3
S21400396008D1294B18680A2300930023002203215C
S21400397008F0F2FE304B00221A7000E000BF0CE2A6
S214003980244B1B68184609F0B3F90346002B0CD1EC
S214003990204B1C6808F046F803461A460A23009394
S2140039A000230121204608F0D7FE1B4B1A781B4B3C
S2140039B01B781946104600F025FE0346022B45D01C
S2140039C0032B00F0A180012B40F0F5801A4B01225A
S2140039D01A700A4B1C6808F025F803461A460A2394
S2140039E0009300230221204608F0B6FEECE000BF5C
S2140039F0D34D6210DD3D0000801F01007C040020D6
S214003A00353E0000901F010080040020A53E000007
S214003A10A01F0100840400208804002089040020E0
S214003A2088A00020760400208A04002094A00020AD
S214003A30770400208B0400208C04002084A0002043
S214003A4090A0002008A0002000A00020984B1B7823
S214003A50002B08D0974B18680A23009300230022F7
S214003A60032108F079FE944B1B78012B00F0A78009
S214003A70924B186800230A22002107F045F90346F6
S214003A80012B40F09E808E4B9B6818460DF0AEF8DA
S214003A9085A3D3E900230CF04BFF03460C461846DB
S214003AA021464FF00002874B0DF074FB0346002BB7
S214003AB013D0834B9B6818460DF098F87AA3D3E989
S214003AC000230CF035FF03460C46184621460DF041
S214003AD0DDFB02467A4B9A6003E0794B4FF07E524C
S214003AE09A60774BD3ED027AF5EEC07AF1EE10FAD3
S214003AF002DB734B00221A73704B186800230022F7
S214003B00002106F04BFF5CE0694B1B78002B08D0C9
S214003B10684B18680A23009300230022032108F04C
S214003B201BFE664B186800230A22002107F0ECF8FB
S214003B300346012B47D1624B9B6818460DF056F89A
S214003B4059A3D3E900230CF0F1FE03460C461846B1
S214003B5021464FF000025C4B0DF026FB0346002B7F
S214003B6013D0574B9B6818460DF040F84EA3D3E988
S214003B7000230CF0DBFE03460C46184621460DF0EB
S214003B8085FB02464E4B9A6002E04D4B4F4A9A60C8
S214003B904B4BD3ED027AF5EEC07AF1EE10FA02D571
S214003BA0474B01221A73454B186800230022002158
S214003BB006F0F4FE07E03E4B00221A7004E000BF59
S214003BC002E000BF00E000BF3C4B186800230A225A
S214003BD0002107F099F83A4B1B687B61374B186851
S214003BE000230022002106F0D9FE394B1868002376
S214003BF00A22002107F088F8364B186800230A22AC
S214003C00002107F081F8344B344A00920CCB7969D6
S214003C10334800F06BFA2E4B186800230022002170
S214003C2006F0BCFE2F4B186800230A22002107F07E
S214003C306BF82D4B1A6A2C4BDB8ADB00134493ED92
S214003C40007A294B1A6A284BDB8A0133DB001344BF
S214003C50D3ED007A77EE677AC7ED047A224B1A6ABC
S214003C60214BDB8ADB00134493ED017A1E4B1A6A64
S214003C701D4BDB8A0133DB001344D3ED017A77EE6C
S214003C80677AC7ED037A134B1868002300220021D9
S214003C9006F084FE134B186800230022002106F06D
S214003CA07DFE7AE0AFF300809A9999999999A93F99
S214003CB08C0400207C0400208B04002090A00020B0
S214003CC074A000200000F03F0000F0BF000080BF9E
S214003CD08CA0002084A000209CA00020CDCC4C3DD1
S214003CE008A0002070A00020A8A00020324B186872
S214003CF000230A22002107F007F8304B4FF000029D
S214003D009A602E4B00221A732C4B00225A602B4BC3
S214003D1000221A60284B186800230022002106F0B3
S214003D203DFE274B186800230A22002106F0ECFF10
S214003D30244B4FF000021A66214B1868002300221D
S214003D40002106F02BFE204B1A78204B1B781946D4
S214003D50104600F057FC0346012B18D11C4B0122DD
S214003D601A701C4B1B68184608F0C2FF0346002B4F
S214003D7011D1184B1C6807F055FE03461A460A2355
S214003D80009300230221204608F0E6FC03E0104BD7
S214003D9000221A7000E000BF00BF0F4B1B78012BFB
S214003DA004D17B8B184607F0B1FBF1E4BB8B1846B9
S214003DB007F0ACFBECE400BF90A0002074A000204D
S214003DC084A0002008A00020880400208904002089
S214003DD08C040020800400208A04002080B582B075
S214003DE000AF7860114B186800230A22002106F005
S214003DF08BFF0346012B15D10D4B1B78012B03D1EE
S214003E000B4B00221A7006E0094B1B78002B02D1E0
S214003E10074B01221A70054B186800230022002168
S214003E2006F0BCFD00BF0837BD4680BD94A000204C
S214003E307704002080B584B000AF7860144B186813
S214003E4000230022002106F05FFF124B1B78FB7355
S214003E500F4B186800230022002106F09FFDFB7B15
S214003E60012B07D10C4B1868002303220B4908F0DE
S214003E70BFFA09E0FB7B052B06D1074B1868002329
S214003E800322074908F0B4FA00BF1037BD4680BDCC
S214003E9088A000207604002000A00020F0DEBC0AE7
S214003EA0B1CAED0FB0B59CB01AAF7860254B186854
S214003EB000230A22002106F027FF234B1868002360
S214003EC00A22002106F020FF204B214A0192DA68E0
S214003ED000920ECB1F4800F01BFB1E4C1B4B15AD73
S214003EE00FCB85E80F00684604F1100354221946EC
S214003EF00DF081FA94E80F0000F02EF807EE900A15
S214003F00FCEEE77A17EE902A104B1A600F4B1A68F1
S214003F100E4B5B689A4203D90C4B1B680B4A5360E6
S214003F20084B186800230022002106F037FD064BD8
S214003F30186800230022002106F030FD00BF083775
S214003F40BD46B0BD84A0002090A0002074A0002034
S214003F509A99993E08A0002084B02DE9F043A1B0BC
S214003F601AAF07F1380686E80F0097ED297AD7EDE5
S214003F70207A67EE277AC7ED037A15AE07F19C0321
S214003F800FCB86E80F00684607F14803542219460F
S214003F900DF031FA07F138030FCB00F013FA0346A1
S214003FA0BB66BB6E7B61D7F89C30002B08D0D7ED84
S214003FB01C7A97ED057A77EE277AC7ED057A07E043
S214003FC0D7ED1B7A97ED057A77EE277AC7ED057A57
S214003FD097F8A830002B07D0D7ED217A97ED057A11
S214003FE077EE277AC7ED057AD7F89C3007EE903A39
S214003FF0F8EE677A97ED057A67EE277AC7ED057AC9
S2140040004FF07C53BB604FF000033B6197ED037AA3
S214004010D7ED057A37EE677AD7ED1F7A77EEA76A7F
S214004020D7ED027A66EEA77AC7EE276A16EE900AF2
S2140040300CF0DCFD02460B46C7E900234FF00002F9
S2140040404FF00003D7E900010DF0B8F80346002B47
S21400405014D0D7E900010AF015F903460C461846B5
S21400406021460DF013F903463B6197ED047AD7ED30
S214004070027A67EE277AC7ED047A22E0D7ED027A55
S214004080F1EE677A17EE903A18460CF0AFFD8046D0
S21400409089463C687B6883F00045204629460AF03E
S2140040A0F1F803460C461A462346404649460CF0AD
S2140040B0F5FD03460C46184621460DF0E7F8034684
S2140040C03B61D7F89C3007EE903AF8EE677A97EDAA
S2140040D0047A77EE277AC7ED047A3B6918461C37D0
S2140040E0BD46BDE8F04304B070470000B0B58CB0E4
S2140040F000AFF860B960394681E80C00AC4BFB6154
S2140041004FF00003FB624FF00003BB627B687B62EC
S214004110D7ED097A9FEDA77AF4EEC77AF1EE10FA9A
S21400412008D8D7ED097AF5EEC07AF1EE10FA01DB81
S214004130012300E00023002B09D14FF0A00383F3F6
S2140041401188BFF36F8FBFF34F8FBB61FEE700236D
S21400415087F82330D7ED017AF5EEC07AF1EE10FA43
S21400416008DBD7ED017A9FED947AF4EEC77AF1EE8C
S21400417010FA08D9D7ED017A9FED8E7AF4EE477AD9
S214004180F1EE10FA03D1012387F8233058E0D7ED7B
S214004190017A9FED897AF4EEC77AF1EE10FA14DD13
S2140041A0D7ED017A9FED857AF4EEC77AF1EE10FA34
S2140041B00BD8022387F82330D7ED097A9FED7E7A55
S2140041C077EEC77AC7ED097A3AE0D7ED017A9FED28
S2140041D07B7AF4EEC77AF1EE10FA14DDD7ED017AA9
S2140041E09FED777AF4EEC77AF1EE10FA0BD8032338
S2140041F087F82330D7ED097A9FED707A77EEC77A85
S214004200C7ED097A1CE0D7ED017A9FED6D7AF4EEE2
S214004210C77AF1EE10FA13DDD7ED017A9FED657AD5
S214004220F4EEC77AF1EE10FA0AD5042387F82330A5
S214004230D7ED097A9FED627A77EEC77AC7ED097AED
S21400424097ED097AD7ED077A27EE277ADFED5B6AD6
S214004250C7EE267AC7ED097ABB6807EE903AB8EE45
S214004260677AD7ED107A67EE277A17EE900A0CF089
S214004270BDFC04460D46786A0CF0B8FC02460B46B8
S2140042801046194609F0CAFD02460B462046294646
S2140042900CF004FD03460C46184621460CF0F6FFCB
S2140042A00346FB62BB6807EE903AB8EE677AD7ED36
S2140042B0107A67EE277A17EE900A0CF097FC044601
S2140042C00D46786A0CF092FC02460B4610461946DC
S2140042D009F058FD02460B46204629460CF0DEFC47
S2140042E003460C46184621460CF0D0FF0346BB6238
S2140042F097F82330013B032B25D801A252F823F070
S214004300114300001F430000394300005B430000D8
S214004310D7ED0B7AF1EE677AC7ED0B7A1EE0D7ED94
S2140043200B7AF1EE677AC7ED0B7AD7ED0A7AF1EEE3
S214004330677AC7ED0A7A11E0D7ED0A7AF1EE677A66
S214004340C7ED0A7A0AE04FF0A00383F31188BFF3A3
S2140043506F8FBFF34F8F7B61FEE700BFFB6893ED67
S214004360067AD7ED0B7A77EE277AFB68C3ED067AE6
S214004370FB6893ED077AD7ED0A7A77EE277AFB6823
S214004380C3ED077AFB6893ED187ABB6807EE903AA0
S214004390F8EE676AD7ED107A66EEA77A77EE277A98
S2140043A0FB68C3ED187A00BF3037BD46B0BD00BF0E
S2140043B0C3F548400000B4430000B4420000344354
S2140043C00000874384B0B0B582B000AF07F1180490
S2140043D084E80F00B7F85A3007EE903AB8EEE77A5E
S2140043E0D7ED117A67EE277AC7ED017AFB6F18468C
S2140043F00CF0DAFB4FF000024FF0804309F0A4FD0A
S21400440004460D4678680CF0F1FB02460B46204643
S21400441029460CF08DFA03460C46184621460CF049
S21400442035FF03467B6078680CF0E0FB4FF03332D4
S2140044300E4B0CF033FC03460C46184621464FF054
S21400444000024FF080430CF053FD03460C4618461E
S21400445021460CF01BFF03467B607B681846083736
S214004460BD46BDE8B04004B0704700BF3333F33FED
S21400447084B098B500AF07F1100484E80F0097EDFC
S2140044800D7AD7ED157A67EE277A17EE900A0CF0BC
S214004490ADFB09A3D3E900230CF000FC03460C4651
S2140044A0184621460CF0F2FE03461846BD46BDE807
S2140044B0984004B0704700BF1F85EB51B89E23405C
S2140044C084B098B500AF07F1100484E80F0097EDAC
S2140044D00E7AD7ED157A67EE277A17EE900A0CF06B
S2140044E085FB09A3D3E900230CF0D8FB03460C4652
S2140044F0184621460CF0CAFE03461846BD46BDE8DF
S214004500984004B0704700BF1F85EB51B89E23400B
S21400451084B080B483B000AF786007F1140080E800
S2140045200E007B6893ED187A7B6907EE903AF8EEFA
S214004530676AD7ED097A66EEA77A77EE277A7B6800
S214004540C3ED187A00BF0C37BD465DF8047B04B097
S2140045507047000080B500AF01210C4800F0A2FFB4
S2140045600021052002F0E8F900230122062105209B
S21400457002F022FA0021052002F0DEF900230122D3
S2140045800721052002F018FA00BF80BD00350A009A
S21400459080B582B000AF06210520FFF781F80346FC
S2140045A0002B0CBF01230023DBB27B607B68002B53
S2140045B001D1002305E07B68002B01D0012300E039
S2140045C0012318460837BD4680BD80B582B000AFCF
S2140045D007210520FFF764F80346002B0CBF0123D4
S2140045E00023DBB27B607B68002B01D1002305E053
S2140045F07B68002B01D0012300E001231846083712
S214004600BD4680BD80B483B000AF03460A46FB714A
S2140046101346BB71FB79012B04D1BB79012B01D169
S214004620012310E0FB79012B04D1BB79002B01D1CB
S214004630022308E0FB79002B04D1BB79012B01D1C2
S214004640032300E0002318460C37BD465DF8047BC4
S214004650704780B500AF45F25550FFF711F800BF20
S21400466080BD80B500AF4AF6AA20FFF709F800BF64
S21400467080BD000080B500AF324933480CF011FF12
S214004680314BF9221A83304B1B8B1A4613469B007C
S21400469013445B001A462C4BDA612B4B0022DA825D
S2140046A0294B2A4A1A622A49274800F0DDF8264B89
S2140046B0274A1A66274928480CF0F3FE264B112293
S2140046C01A83254B1B8B1A4613469B0013445B002C
S2140046D01A46214BDA61204B0022DA821E4B1F4A13
S2140046E01A621F491F480CF0DCFE1E4B11221A836B
S2140046F01C4B1B8B1A4613469B0013445B001A4642
S214004700184BDA61174B0022DA82164B134A1A62EC
S214004710154916480CF0C5FE144B32221A83134B6B
S2140047201B8B1A4613469B0013445B001A460F4B1E
S214004730DA610E4B0022DA820C4B044A1A6200BF82
S21400474080BD00BFB41F0100900400205C00002064
S21400475020060020C01F0100F4040020B402002040
S214004760D01F010058050020D81F0100BC050020FE
S21400477080B584B000AF78600B46FB70FB78032BE7
S21400478051D801A252F823F099470000C147000013
S214004790E3470000054800007B682E4A184611468D
S2140047A064231A460CF027FE7B68186A294B1B6A9E
S2140047B0042219460CF01FFE7B68274A1A6644E05E
S2140047C07B68264A1846114664231A460CF013FEE8
S2140047D07B68186A214B1B6A042219460CF00BFEF4
S2140047E033E07B681E4A1846114664231A460CF0CE
S2140047F002FE7B68186A1A4B1B6A042219460CF0E4
S214004800FAFD22E07B68174A1846114664231A46CA
S2140048100CF0F1FD7B68186A124B1B6A04221946DD
S2140048200CF0E9FD11E07B680A4A1846114664233D
S2140048301A460CF0E0FD4FF0A00383F31188BFF397
S2140048406F8FBFF34F8FFB60FEE700BF1037BD468C
S21400485080BD00BF9004002020060020F404002045
S21400486058050020BC05002080B5A4B000AF7860D5
S21400487039600023C7F888300023C7F88C306EE014
S2140048800023C7F8843037E0D7F88C20D7F8843078
S2140048901A447B681B8B013B9A4214DB7B681A6ABE
S2140048A07B681B8B03F10053013BDB001A44D7F8EF
S2140048B08430DB0007F190010B44883B92E803004C
S2140048C083E8030013E07B681A6AD7F88C10D7F8E1
S2140048D084300B44DB001A44D7F88430DB0007F141
S2140048E090010B44883B92E8030083E80300D7F866
S2140048F084300133C7F88430D7F88430032BC3DD07
S21400490007F1280207F1080311461846FDF774FD63
S2140049100023C7F8803019E0D7F88830DB003A6803
S2140049201A44D7F88030DB0007F190010B44683B4F
S21400493093E8030082E80300D7F888300133C7F80D
S2140049408830D7F880300133C7F88030D7F8803009
S214004950092BE1DDD7F88C300333C7F88C307B6841
S2140049601B8B1A46D7F88C30934289DB00BF9037F2
S214004970BD4680BD90B58DB000AF786107F10C00E4
S21400498080E80600BB60D7ED037A97ED027A77EEF3
S214004990677AC7ED087AD7ED047A97ED107A77EE46
S2140049A0677AC7ED097A97ED087ADFED436AC7EEB6
S2140049B0267AC7ED067A97ED097ADFED3F6AC7EEED
S2140049C0267AC7ED077ABB6918460CF00FF94FF048
S2140049D000023A4B0BF0ACFF03460C461846214645
S2140049E04FF00002364B0CF059F903460C461846B9
S2140049F021460CF04BFC0346FB62D7ED077A9FED91
S214004A00317A67EE877A17EE900A0CF0EFF80346D5
S214004A100C461846214609F0FDF903460C461A4690
S214004A2023464FF0000026490BF080FF03460C4655
S214004A30184621460CF02AFC0346BB62D7ED0B7ADB
S214004A40FCEEE77AC7ED017A3B79DAB27B691A7039
S214004A50D7ED0A7AFCEEE77AC7ED017A3B79DAB24F
S214004A607B695A70D7ED0B7A9FED177AF4EEC77A0A
S214004A70F1EE10FA08DCD7ED0A7A9FED137AF4EE21
S214004A80C77AF1EE10FA01DD012310E0D7ED0B7ABC
S214004A90F5EEC07AF1EE10FA06D4D7ED0A7AF5EE06
S214004AA0C07AF1EE10FA01D5012300E00023184683
S214004AB03437BD4690BD00BF000020420000E03FF6
S214004AC0000060400000004300000A4384B090B538
S214004AD08FB000AF07F1480484E80F008B4B3B63B0
S214004AE0BB6E1B687B61BB6E5B68BB61BB6E0833CD
S214004AF01B68FB60BB6E08335B683B617B697B6051
S214004B00D7ED067A9FED827A77EE877AC7ED027A3E
S214004B10F86839697A68BB6800F004F907EE900A0D
S214004B20FCEEE77A17EE903AFB627869B9697A6824
S214004B30BB6800F0F7F807EE900AFCEEE77A17EE8F
S214004B40903ABB627869B9697A68BB6800F0EAF89F
S214004B5007EE900AFCEEE77A17EE903A7B62B86AA8
S214004B600CF022F803460C461846214609F08AFB4C
S214004B7003460C46184621460CF088FB03463B626B
S214004B80786A0CF011F803460C461846214609F0E0
S214004B9079FB03460C46184621460CF077FB034685
S214004BA0FB6197ED057AD7ED037AB4EE677AF1EEFE
S214004BB010FA03D14FF000037B633CE097ED067AD2
S214004BC0D7ED047AB4EE677AF1EE10FA02D1514BC3
S214004BD07B6330E0BA6A7B6A1A44FB6AD31A07EE34
S214004BE0903AB8EE677AD7ED087A77EEA76AD7EDEF
S214004BF0077A66EEA77AC7EE276A16EE900A0BF0DB
S214004C00F5FF03460C461846214609F04BF90346C5
S214004C100C46184621460CF039FB03467B63D7ED5D
S214004C200D7A9FED3D7A67EE876A97ED0C7AC6EEB1
S214004C30877AC7ED0D7ABB6E083393ED007ABB6EAC
S214004C40D3ED007AB4EEE77AF1EE10FA14DDBB6E1F
S214004C50083393ED017ABB6ED3ED017AB4EEE77AB2
S214004C60F1EE10FA08DDD7ED0D7A9FED2C7A77EE8F
S214004C70877AC7ED0D7A40E0BB6E083393ED007A75
S214004C80BB6ED3ED007AB4EEE77AF1EE10FA14DDDF
S214004C90BB6E083393ED017ABB6ED3ED017AB4EEAA
S214004CA0E77AF1EE10FA08D5D7ED0D7A9FED1A7A6D
S214004CB077EE877AC7ED0D7A1FE0BB6E083393ED6B
S214004CC0007ABB6ED3ED007AB4EEE77AF1EE10FA16
S214004CD013D5BB6E083393ED017ABB6ED3ED017A24
S214004CE0B4EEE77AF1EE10FA07D5D7ED0D7A9FED20
S214004CF00C7A77EE877AC7ED0D7A7B6B18463C37D1
S214004D00BD46BDE8904004B0704700BFC3F54840BC
S214004D100000C8420000B44200003443000087434D
S214004D200000B44280B487B000AFF860B9607A6023
S214004D303B6097ED037AD7ED017A77EE677AC7ED99
S214004D40057A97ED027AD7ED007A77EE677AC7EDA7
S214004D50047A97ED057AD7ED057A27EE277AD7ED10
S214004D60046AD7ED047A66EEA77A77EE277A17EE0E
S214004D70903A18461C37BD465DF8047B704780B4F1
S214004D8087B000AFF860B9607A60FB6803F104731F
S214004D90DA00BB6813449B007B617B697A681A6003
S214004DA000BF1C37BD465DF8047B704780B485B0F5
S214004DB000AF786039607B6803F1C063FB60FB6816
S214004DC03A681A6000BF1437BD465DF8047B70472A
S214004DD080B485B000AF786039607B6803F180638B
S214004DE0FB60FB683A681A6000BF1437BD465DF882
S214004DF0047B704780B584B000AFF860B9607A6015
S214004E00B968F868FFF7E4FF7968F868FFF7CEFF3F
S214004E1000BF1037BD4680BD80B582B000AF786059
S214004E2039607B68B3F1804F02D07B68194A9342A1
S214004E3000BF3B681B78DB071A463B685B681B06AF
S214004E40134343F400427B681A603B68DB681B042C
S214004E503A68127A1A437B689A623B681B691B049D
S214004E603A68527A1A437B68DA623B689B7A1B0779
S214004E7043F0806343F47D437A68536078683B6808
S214004E801B7D1A460021FFF77AFF00BF0837BD4694
S214004E9080BD00BF0004004080B582B000AF7860DF
S214004EA00B46FB707B68B3F1804F02D07B68074AE5
S214004EB0934200BF7B680433FA78FF211846FFF759
S214004EC099FF00BF0837BD4680BD00BF0004004004
S214004ED080B483B000AF78607B68B3F1804F02D0B7
S214004EE07B68074A934200BF7B681B6823F0010279
S214004EF07B681A6000BF0C37BD465DF8047B7047C0
S214004F000004004080B483B000AF78607B68B3F1E3
S214004F10804F02D07B68074A934200BF7B681B68BD
S214004F2043F001027B681A6000BF0C37BD465DF88F
S214004F30047B70470004004080B487B000AFF86080
S214004F40B9607A60FB6803F10473DA00BB68134447
S214004F509B007B617B697A681A6000BF1C37BD4680
S214004F605DF8047B704780B485B000AF7860396028
S214004F707B6803F10473DA003B6813449B00FB6014
S214004F80FB681B6818461437BD465DF8047B7047FF
S214004F9080B483B000AF786001227B6802FA03F326
S214004FA018460C37BD465DF8047B704780B582B066
S214004FB000AF78607868FFF7EBFF034618460837BF
S214004FC0BD4680BD80B584B000AF78607B68013395
S214004FD0B3FA83F3DBB2C3F11F03FB60F868FFF795
S214004FE0D7FFFB6818461037BD4680BD80B500AFBA
S214004FF000BF12210348FFF7B6FF0346002BF8D187
S21400500000BF80BD04300E4080B500AFFFF7EEFF56
S214005010034B5B681B0C03F00303DBB2184680BD32
S21400502000300E4080B584B000AF78600123FB608E
S2140050307B68124A934204D80023FB600023BB60BF
S21400504008E07B680E4A934202D80123BB6001E069
S2140050500223BB60FA6810210A48FFF76DFF094B70
S214005060D3F8003123F08072BB681B060549134352
S214005070C1F8003100BF1037BD4680BD0048E801CA
S2140050800090D00300400E4080B483B000AF054BC4
S2140050901B687B607B6818460C37BD465DF8047B52
S2140050A0704700BF5403002080B582B000AF08F000
S2140050B0F1FD7860064BD3F800311B0A03F01F039E
S2140050C001337A6802FB03F318460837BD4680BDF5
S2140050D000400E4080B582B000AF0D4800F03CFDA9
S2140050E00346FB70FB78072B05D0092B07D108F089
S2140050F0D1FD786006E0FFF7C7FF786002E0002386
S2140051007B6000BF7B6818460837BD4680BD00BF81
S21400511006000E0080B584B000AF78607B68002B78
S2140051201CD11B4800F018FD0346FB7200BFFB7A3B
S214005130013B072B23D801A252F823F0615100004F
S2140051407F5100007F5100006F5100007F5100002A
S2140051507F5100006751000077510000002312E0E5
S2140051600023FB600EE0FFF78FFFF8600AE008F010
S214005170C9FDF86006E0FFF797FFF86002E000233D
S214005180FB6000BFFB6818461037BD4680BD00BFF9
S214005190B800320080B485B000AF786039601E4B2E
S2140051A05B6803F04073FB600023BB6012E01B4AA1
S2140051B0BB68DB0013441A793B68DBB29A4206D11F
S2140051C0164ABB6852F833307A689A4206D9BB68EA
S2140051D00133BB60BB68042BE9D900E000BFBB68A5
S2140051E0052B02D10323FB6005E00C4ABB68DB00FD
S2140051F013445B79FB60FB681B06FB60064B5B6831
S21400520023F040720449FB6813434B6000BF143719
S214005210BD465DF8047B704700000E40E41F0100A9
S21400522080B582B000AF0E4B1B6C002B14BF012361
S2140052300023FB710A4B41F671321A6408F020FD18
S214005240034600211846FFF7A5FFFB79002B02D086
S214005250034B00221A6400BF0837BD4680BD00BF5E
S21400526000000E4080B584B000AF786039600C4B0B
S2140052701B6C002B14BF01230023FB73084B41F665
S21400528071321A6439687868FFF784FFFB7B002B5D
S21400529002D0034B00221A6400BF1037BD4680BD03
S2140052A000000E4080B487B000AF78600F237B61AB
S2140052B07B6803333B617B69FB60FA683B6993421A
S2140052C028BF1346BB60BB681B07BB60BB6818469D
S2140052D01C37BD465DF8047B7047000080B400AF05
S2140052E0044B5B6A1B0903F003031846BD465DF8D2
S2140052F0047B704700400E4080B483B000AF7860F7
S214005300074B5B6A23F030027B681B01044913439A
S2140053104B6200BF0C37BD465DF8047B704700BF8C
S21400532000400E4090B585B000AF78600023BB60AB
S2140053307B68354A934206D0344A934203D0344AB7
S214005340934200D000E000BF786800F005FC0346FA
S214005350FB607B682C4A93420DD02C4A934211D0B6
S2140053602B4A934200D014E02A4BD3F8803003F047
S2140053700703FB600DE0274BD3F8843003F00703E8
S214005380FB6006E0234BD3F8883003F00703FB608E
S21400539000BFFB68042B2ED801A252F823F000BFF2
S2140053A0F1530000B5530000BD530000CD5300007C
S2140053B0C553000008F0C8FCB8601FE008F0D6FC33
S2140053C0B8601BE008F0C9FCB86017E008F038FCCD
S2140053D00446104BD3F800311B0E03F001030133D3
S2140053E01846FFF7E3FD0346B4FBF3F3BB6005E0A6
S2140053F00023BB6002E00023BB6000BFBB6818460A
S2140054001437BD4690BD00BF0300200005002400F1
S21400541002001E0000400E4080B483B000AF7860EB
S2140054200A4BD3F8443103F00103002B08D100BF28
S214005430064BD3F840217B681340002BF8D100E0E0
S21400544000BF0C37BD465DF8047B704700400E4039
S21400545080B400AF00BFBD465DF8047B704780B4E3
S21400546000AF00BFBD465DF8047B704780B582B0D4
S21400547000AF7860786800F081F90346013318467B
S2140054800837BD4680BD80B582B000AF7860396011
S2140054903B68013B1946786800F032FA00BF0837CF
S2140054A0BD4680BD80B586B000AF78600B46FB7009
S2140054B000233B617B681B0A03F00F03013B092BAB
S2140054C044D801A252F823F0F1540000FD54000025
S2140054D04D5500004D550000F754000003550000E0
S2140054E00D5500004D5500001755000023550000CF
S2140054F0184B7B6118E0184B7B6115E0174B7B61FE
S21400550012E0174B7B6101233B610DE0154B7B617D
S21400551010233B6108E0144B7B614FF480333B6102
S21400552002E0124B7B6100BF7B681B0B03F01F037E
S214005530FB603B69002B02D03869FFF76DFFFB78F4
S2140055401A46F9687869FFF7F7FC00E000BF1837DD
S214005550BD4680BD00400E40B0400E40C0400E40EC
S214005560E0400E40E8400E40F0400E4050410E40F5
S21400557080B584B000AF78607B6803F47813B3F529
S214005580A01F7DD0B3F5A01F1AD8B3F5202F50D09A
S214005590B3F5202F08D8B3F5003F4ED0B3F5802FD3
S2140055A038D0002B32D0D8E0B3F5602F00F0C8809A
S2140055B0B3F5801F00F0C880B3F5402F4CD0CCE088
S2140055C0B3F5001F00F08B80B3F5001F0AD8B3F5C3
S2140055D0D01F00F08980B3F5F01F4CD0B3F5B01F94
S2140055E05CD0BAE0B3F5381F6AD0B3F5381F04D8DC
S2140055F0B3F5101F00F09F80AFE0B3F5401F00F03A
S2140056008680B3F5481F00F0A380A6E008F042FBB2
S214005610F860A5E008F03EFBF860544BD3F80C3178
S2140056201B0AC3F308030133FA68B2FBF3F3FB600B
S21400563096E008F02FFBF86092E008F02BFBF8608D
S2140056404A4BD3F808311B0AC3F308030133FA6840
S214005650B2FBF3F3FB6083E008F01CFBF860434BFF
S214005660D3F814311B0A03F01F030133FA68B2FBA8
S214005670F3F3FB6074E03E48FFF754FEF8606FE01B
S2140056803C48FFF74FFEF860384BD3F8303103F054
S2140056900303FA6822FA03F3FB6061E03448FFF77D
S2140056A041FEF860314BD3F8203103F00F03184663
S2140056B0FFF77CFC0246FB68B3FBF2F3FB604FE0AF
S2140056C02B48FFF72FFEF860284BD3F820311B0934
S2140056D003F00303FA6822FA03F3FB6040E026486F
S2140056E0FFF720FEF8603BE02348FFF71BFEF8605C
S2140056F01E4BD3F828311B0903F003031846FFF7A7
S21400570055FC0246FB68B3FBF2F3FB6028E01A4840
S214005710FFF708FEF860154BD3F828311B0A03F094
S214005720030304331846FFF741FC0246FB68B3FB4D
S214005730F2F3FB6014E00F48FFF7F4FDF8600FE0AB
S214005740FFF7C8FCF8600BE0FFF79EFCF86007E088
S2140057500020FFF7DFFCF86002E00023FB6000BFDC
S214005760FB6818461037BD4680BD00BF00400E409F
S21400577002001E00050024000300200080B584B04F
S21400578000AF78607B681B0903F00F03BB60BB6843
S214005790013B092B00F2A08001A252F823F000BFC3
S2140057A0C9570000D9570000E9570000F957000014
S2140057B0D9580000D95800000958000019580000B0
S2140057C067580000BB580000474BD3F800311B0A4F
S2140057D003F01F03FB6082E0434BD3F814311B0A2F
S2140057E003F01F03FB607AE03F4BD3F800311B0E3B
S2140057F003F00103FB6072E03B4BD3F80C311B0A4D
S214005800C3F30803FB606AE0374BD3F808311B0A82
S214005810C3F30803FB6062E07B68344A934203D01C
S214005820334A93420DD01AE02F4BD3F8203103F0C1
S2140058300F03FB60F868FFF7B9FB0346013BFB600C
S21400584010E0294BD3F820311B0903F00303FB605B
S214005850F868FFF7ABFB0346013BFB6002E0002362
S214005860FB6000BF3BE07B68224A934203D0224A9B
S21400587093420ED01DE01C4BD3F828311B0903F0D1
S2140058800303FB60F868FFF791FB0346013BFB60F0
S21400589012E0154BD3F828311B0A03F00303FB6014
S2140058A0FB6804331846FFF781FB0346013BFB60A9
S2140058B002E00023FB6000BF11E07B680F4A9342C2
