:1000000000000420C1010000ED010000ED0100002E
:10001000ED010000ED010000ED010000ED01000028
:10002000ED010000ED010000ED010000B122000033
:10003000ED010000EC010000112500007925000011
:10004000ED010000ED010000ED010000ED010000F8
:10005000ED010000ED010000ED010000ED010000E8
:10006000ED010000ED010000ED010000350300008E
:10007000ED010000ED010000ED010000ED010000C8
:10008000ED010000ED010000ED010000ED010000B8
:10009000ED010000ED010000ED010000ED010000A8
:1000A000ED010000ED010000ED010000ED01000098
:1000B000ED010000ED010000ED010000ED01000088
:1000C000ED010000ED010000ED010000ED01000078
:1000D000ED010000ED010000ED010000ED01000068
:1000E000ED010000ED010000ED010000ED01000058
:1000F000ED010000ED010000ED010000ED01000048
:10010000ED010000ED010000ED01000010B5054C0F
:10011000237833B9044B13B10448AFF300800123B3
:10012000237010BD8000002000000000404300004C
:1001300008B5034B1BB103490348AFF3008008BD6A
:10014000000000008400002040430000154B002BFD
:1001500008BF134B9D46A3F5803A00218B460F46FE
:100160001348144A121A04F080F80F4B002B00D0E9
:1001700098470E4B002B00D0984700200021040028
:100180000D000D48002802D00C48AFF3008004F0A9
:100190003DF82000290003F0EFFF04F023F800BF32
:1001A0000000080000000420000000000000000023
:1001B000800000204031002000000000000000000E
:1001C000064880470649074A074B9A42BEBF51F886
:1001D000040B42F8040BF8E7FFF7B8FFCD0200006C
:1001E0004C4300000000002080000020FEE700BF1C
:1001F00080B582B000AF00F025F878600A4BD3F8E4
:1002000008311B0AC3F308033B603B6801337A687B
:10021000B2FBF3F37B60054A7B6813607B6818468A
:100220000837BD4680BD00BF00400E4008000020DA
:1002300080B400AF024B1846BD465DF8047B7047A2
:10024000005A620280B483B000AF164BD3F89430EA
:1002500003F00703032B08D0042B02D0022B08D095
:100260000BE0114B1B687B600BE04FF400437B609D
:1002700007E00E4B1B687B6003E00D4B1B687B6047
:1002800000BF084BD3F800311B0A03F01F030133F2
:100290007A68B2FBF3F318460C37BD465DF8047B71
:1002A000704700BF00400E40040000200000002006
:1002B0000C00002080B400AF034B1B681846BD46FD
:1002C0005DF8047B704700BF0000002080B400AFE1
:1002D000074B084A9A60064BD3F88830044A43F427
:1002E0007003C2F8883000BFBD465DF8047B7047DC
:1002F00000ED00E00000000080B400AF4FF40043C8
:100300001846BD465DF8047B704780B400AF4FF4DB
:100310007A731846BD465DF8047B704780B400AF21
:10032000034B1B681846BD465DF8047B704700BF51
:100330000400002080B483B000AF174B02225A6043
:10034000164B02225A60144B01225A61134B5B6A0E
:100350007B60134B1B78DBB21946124A7B6842F86C
:1003600021300F4B1B78DBB21A460F4B53F822306B
:100370007A689A4207D90A4B1B78DBB219460A4AB7
:100380007B6842F82130094B01221A7000BF0C37FC
:10039000BD465DF8047B7047008001400084014049
:1003A0009C000020A0000020B00000209D00002044
:1003B00080B483B000AF7860FEE780B483B000AF54
:1003C00078607B6803F108027B685A607B684FF6AF
:1003D000FF721A817B6803F108027B68DA607B6830
:1003E00003F108027B681A617B6800221A6000BF73
:1003F0000C37BD465DF8047B704780B483B000AF16
:1004000078607B6800221A6100BF0C37BD465DF83A
:10041000047B704780B485B000AF786039607B683A
:100420005B68FB603B68FA685A60FB689A683B68E7
:100430009A60FB689B683A685A60FB683A689A6001
:100440003B687A681A617B681B685A1C7B681A6073
:1004500000BF1437BD465DF8047B704780B485B09B
:1004600000AF786039603B681B887B817B894FF6E1
:10047000FF72934203D17B681B69FB600CE07B68D1
:100480000833FB6002E0FB685B68FB60FB685B684D
:100490001B887A899A42F6D2FB685A683B685A6090
:1004A0003B685B683A689A603B68FA689A60FB68E8
:1004B0003A685A603B687A681A617B681B685A1C04
:1004C0007B681A6000BF1437BD465DF8047B704737
:1004D00080B485B000AF78607B681B69FB607B6887
:1004E0005B687A6892689A607B689B687A685268F1
:1004F0005A60FB685B687A689A4203D17B689A68A5
:10050000FB685A607B6800221A61FB681B685A1EF0
:10051000FB681A60FB681B6818461437BD465DF817
:10052000047B704780B584B000AF786039607B6829
:10053000FB60FB68002B09D14FF0A00383F3118807
:10054000BFF36F8FBFF34F8FBB60FEE701F086FFF5
:10055000FB681A68FB68DB6BF968096C01FB03F345
:100560001A44FB689A60FB6800229A63FB681A6869
:10057000FB685A60FB681A68FB68DB6B013BF96833
:10058000096C01FB03F31A44FB68DA60FB68FF2285
:1005900083F84420FB68FF2283F845203B68002B4A
:1005A00014D1FB681B69002B1AD0FB681033184666
:1005B00001F05EF80346002B12D00D4B4FF0805235
:1005C0001A60BFF34F8FBFF36F8F09E0FB681033E2
:1005D0001846FFF7F2FEFB6824331846FFF7EDFEDE
:1005E00001F06AFF012318461037BD4680BD00BFE9
:1005F00004ED00E080B58AB002AFF860B960134640
:10060000FB71FB68002B09D14FF0A00383F3118825
:10061000BFF36F8FBFF34F8F3B61FEE7BB68002BCB
:1006200002D10023FB6104E0FB68BA6802FB03F31C
:10063000FB61FB694833184602F020F8B861BB69DA
:10064000002B0DD0BB697B617B6948337B61FA79F4
:10065000BB69009313467A69B968F86800F005F839
:10066000BB6918462037BD4680BD80B584B000AF59
:10067000F860B9607A60FB70BB68002B03D1BB697E
:10068000BA691A6002E0BB697A681A60BB69FA68E5
:10069000DA63BB69BA681A640121B869FFF742FFDF
:1006A00000BF1037BD4680BD80B58EB000AFF8608A
:1006B000B9603B601346FB8000237B63FB683B63B0
:1006C0003B6B002B09D14FF0A00383F31188BFF3DC
:1006D0006F8FBFF34F8FBB62FEE7BB68002B03D168
:1006E0003B6B1B6C002B01D1012300E00023002B8E
:1006F00009D14FF0A00383F31188BFF36F8FBFF3CD
:100700004F8F7B62FEE73B68022B03D13B6BDB6BB9
:10071000012B01D1012300E00023002B09D14FF070
:10072000A00383F31188BFF36F8FBFF34F8F3B623A
:10073000FEE701F039F90346002B02D1FB88002BBC
:1007400001D1012300E00023002B09D14FF0A003C9
:1007500083F31188BFF36F8FBFF34F8FFB61FEE709
:1007600001F07CFE3B6B9A6B3B6BDB6B9A4202D3D6
:100770003B68022B29D13A68B968386B00F002FA5D
:10078000F8623B6B5B6A002B10D03B6B243318463E
:1007900000F06EFF0346002B13D0404B4FF0805209
:1007A0001A60BFF34F8FBFF36F8F0AE0FB6A002B15
:1007B00007D03A4B4FF080521A60BFF34F8FBFF310
:1007C0006F8F01F079FE012363E0FB88002B03D1DA
:1007D00001F072FE00235CE07B6B002B06D107F179
:1007E0001403184600F0A6FF01237B6301F064FEAA
:1007F00000F0F4FC01F032FE3B6B93F844305BB246
:10080000B3F1FF3F03D13B6B002283F844203B6BE5
:1008100093F845305BB2B3F1FF3F03D13B6B00224D
:1008200083F8452001F048FEBA1D07F11403114674
:10083000184600F097FF0346002B24D1386B00F0D8
:1008400099FA0346002B18D03B6B1033FA881146F7
:10085000184600F0BBFE386B00F024FA00F0CCFC28
:100860000346002B7FF47CAF0C4B4FF080521A6094
:10087000BFF34F8FBFF36F8F72E7386B00F012FA40
:1008800000F0BAFC6CE7386B00F00CFA00F0B4FC36
:10089000002318463837BD4680BD00BF04ED00E098
:1008A00080B58EB000AFF860B9607A603B60FB68DD
:1008B0003B633B6B002B09D14FF0A00383F31188FE
:1008C000BFF36F8FBFF34F8F7B62FEE7BB68002BD8
:1008D00003D13B6B1B6C002B01D1012300E00023F3
:1008E000002B09D14FF0A00383F31188BFF36F8F62
:1008F000BFF34F8F3B62FEE73B68022B03D13B6B9C
:10090000DB6B012B01D1012300E00023002B09D177
:100910004FF0A00383F31188BFF36F8FBFF34F8FA6
:10092000FB61FEE701F06CFEEFF311824FF0A003D4
:1009300083F31188BFF36F8FBFF34F8FBA617B6171
:10094000BB69FB623B6B9A6B3B6BDB6B9A4202D3DE
:100950003B68022B2CD13B6B93F8453087F82B304A
:100960003A68B968386B00F00DF997F92B30B3F19C
:10097000FF3F12D13B6B5B6A002B16D03B6B2433DD
:10098000184600F075FE0346002B0ED07B68002B46
:100990000BD07B6801221A6007E097F82B300133F7
:1009A000DBB25AB23B6B83F8452001237B6301E045
:1009B00000237B63FB6A3B613B6983F311887B6B9C
:1009C00018463837BD4680BD80B58CB000AFF860A2
:1009D000B9601346FB800023FB62FB68BB62BB6A05
:1009E000002B09D14FF0A00383F31188BFF36F8F61
:1009F000BFF34F8F3B62FEE7BB68002B03D1BB6A9E
:100A00001B6C002B01D1012300E00023002B09D136
:100A10004FF0A00383F31188BFF36F8FBFF34F8FA5
:100A2000FB61FEE700F0C0FF0346002B02D1FB880C
:100A3000002B01D1012300E00023002B09D14FF04E
:100A4000A00383F31188BFF36F8FBFF34F8FBB6198
:100A5000FEE701F003FDBB6A9B6B7B627B6A002BA8
:100A60001FD0B968B86A00F0F7F87B6A5A1EBB6AF3
:100A70009A63BB6A1B69002B0FD0BB6A1033184600
:100A800000F0F6FD0346002B07D03D4B4FF080529F
:100A90001A60BFF34F8FBFF36F8F01F00DFD01237D
:100AA00069E0FB88002B03D101F006FD002362E022
:100AB000FB6A002B06D107F11003184600F03AFE3E
:100AC0000123FB6201F0F8FC00F088FB01F0C6FC9A
:100AD000BB6A93F844305BB2B3F1FF3F03D1BB6A0A
:100AE000002283F84420BB6A93F845305BB2B3F12F
:100AF000FF3F03D1BB6A002283F8452001F0DCFCF4
:100B0000BA1D07F110031146184600F02BFE0346EC
:100B1000002B23D1B86A00F017F90346002B17D039
:100B2000BB6A2433FA881146184600F04FFDB86AB4
:100B300000F0B8F800F060FB0346002B89D1104BA1
:100B40004FF080521A60BFF34F8FBFF36F8F80E773
:100B5000B86A00F0A7F800F04FFB7AE7B86A00F037
:100B6000A1F800F049FBB86A00F0EEF80346002B4C
:100B70003FF46FAF002318463037BD4680BD00BF3D
:100B800004ED00E080B586B000AFF860B9607A602F
:100B900000237B61FB689B6B3B61FB681B6C002B3C
:100BA0000DD1FB681B68002B4DD1FB689B68184674
:100BB00000F018FF7861FB6800229A6043E07B68D0
:100BC000002B19D1FB685868FB681B6C1A46B96882
:100BD00003F040FBFB685A68FB681B6C1A44FB6817
:100BE0005A60FB685A68FB689B689A422BD3FB6883
:100BF0001A68FB685A6026E0FB68D868FB681B6CC3
:100C00001A46B96803F026FBFB68DA68FB681B6CC0
:100C10005B421A44FB68DA60FB68DA68FB681B68B1
:100C20009A4207D2FB689A68FB681B6C5B421A44C5
:100C3000FB68DA607B68022B05D13B69002B02D090
:100C40003B69013B3B613B695A1CFB689A637B69CA
:100C500018461837BD4680BD80B582B000AF7860B9
:100C600039607B681B6C002B18D07B68DA687B6866
:100C70001B6C1A447B68DA607B68DA687B689B6867
:100C80009A4203D37B681A687B68DA607B68D9680C
:100C90007B681B6C1A46386803F0DCFA00BF083723
:100CA000BD4680BD80B584B000AF786001F0D6FB52
:100CB0007B6893F84530FB7311E07B685B6A002B1F
:100CC00012D07B682433184600F0D2FC0346002B78
:100CD00001D000F0A9FDFB7B013BDBB2FB7397F970
:100CE0000F30002BE9DC00E000BF7B68FF2283F8B7
:100CF000452001F0E1FB01F0B1FB7B6893F8443043
:100D0000BB7311E07B681B69002B12D07B6810332A
:100D1000184600F0ADFC0346002B01D000F084FD26
:100D2000BB7B013BDBB2BB7397F90E30002BE9DCD8
:100D300000E000BF7B68FF2283F8442001F0BCFB89
:100D400000BF1037BD4680BD80B584B000AF78606D
:100D500001F084FB7B689B6B002B02D10123FB60BD
:100D600001E00023FB6001F0A7FBFB681846103789
:100D7000BD4680BD80B584B000AF786001F06EFBE9
:100D80007B689A6B7B68DB6B9A4202D10123FB6024
:100D900001E00023FB6001F08FFBFB681846103771
:100DA000BD4680BD80B485B000AF78603960002357
:100DB000FB6014E00E4AFB6852F83330002B0BD175
:100DC0000B49FB683A6841F83320094AFB68DB00AD
:100DD00013447A685A6005E0FB680133FB60FB68E6
:100DE000072BE7D900BF1437BD465DF8047B704779
:100DF0000031002080B586B000AFF8600B467A6005
:100E00007B81FB687B6101F029FB7B6993F84430AF
:100E10005BB2B3F1FF3F03D17B69002283F844202A
:100E20007B6993F845305BB2B3F1FF3F03D17B6937
:100E3000002283F8452001F03FFB7B699B6B002B70
:100E400006D17B69243379897A68184600F0E4FB7F
:100E50007869FFF727FF00BF1837BD4680BD80B512
:100E60008CB004AFF860B9603B601346FB80FB8830
:100E70009B00184601F002FC78617B69002B0ED0C4
:100E8000542001F0FBFBF861FB69002B03D0FB69E8
:100E90007A691A6305E0786901F0B6FC01E0002385
:100EA000FB61FB69002B13D0FA8800230393FB69D5
:100EB0000293FB6A0193BB6A00933B68B968F868C8
:100EC00000F00EF8F86900F09BF80123BB6102E026
:100ED0004FF0FF33BB61BB6918462037BD4680BD6C
:100EE00080B588B000AFF860B9607A603B603B6B5A
:100EF000186B7B689B001A46A52103F0B6F93B6B83
:100F00001A6B7B6803F18043013B9B001344BB6178
:100F1000BB6923F00703BB61BB6903F00703002B28
:100F200009D04FF0A00383F31188BFF36F8FBFF395
:100F30004F8F7B61FEE7BB68002B1FD00023FB6156
:100F400012E0BA68FB69134419783A6BFB691344E1
:100F500034330A461A70BA68FB6913441B78002BB5
:100F600006D0FB690133FB61FB690F2BE9D900E077
:100F700000BF3B6B002283F8432003E03B6B002261
:100F800083F83420BB6A042B01D90423BB623B6B7A
:100F9000BA6ADA623B6BBA6A5A643B6B00229A64A3
:100FA0003B6B04331846FFF728FA3B6B183318469F
:100FB000FFF723FA3B6B3A6B1A61BB6A9BB2C3F132
:100FC00005039AB23B6B1A833B6B3A6B5A623B6BDD
:100FD0000022DA643B6B002283F850203A68F968FB
:100FE000B86901F003F902463B6B1A60FB6A002BFB
:100FF00002D0FB6A3A6B1A6000BF2037BD4680BD45
:1010000080B582B000AF786001F028FA2B4B1B68E6
:1010100001332A4A13602A4B1B68002B09D1284A46
:101020007B681360254B1B68012B10D100F020FC5E
:101030000DE0244B1B68002B09D1214B1B68DA6A99
:101040007B68DB6A9A4202D81D4A7B6813601E4B9C
:101050001B6801331C4A13607B68DA6A1B4B1B68F0
:101060009A4203D97B68DB6A184A13607B68DA6AA4
:1010700013469B0013449B00154A1A447B680433B3
:1010800019461046FFF7C6F901F016FA0D4B1B681A
:10109000002B0ED00A4B1B68DA6A7B68DB6A9A4227
:1010A00007D20C4B4FF080521A60BFF34F8FBFF343
:1010B0006F8F00BF0837BD4680BD00BF980100207C
:1010C000C0000020A4010020B4010020A0010020E5
:1010D000C400002004ED00E080B584B000AF0346FA
:1010E000FB800023FB60FB88002B17D0134B1B6891
:1010F000002B09D04FF0A00383F31188BFF36F8F4B
:10110000BFF34F8FBB60FEE700F068F8FB8800215B
:10111000184600F0D5FC00F06FF8F860FB68002B73
:1011200007D1074B4FF080521A60BFF34F8FBFF3C8
:101130006F8F00BF1037BD4680BD00BFC0010020CB
:1011400004ED00E080B586B002AF1E4B0193002392
:101150000093002364221C491C48FFF780FEF860BE
:10116000FB68012B02D100F003FDF860FB68012B46
:1011700015D14FF0A00383F31188BFF36F8FBFF336
:101180004F8FBB60124B4FF6FF721A80114B01223A
:101190001A60114B00221A8001F0B2F80DE0FB68D2
:1011A000B3F1FF3F09D14FF0A00383F31188BFF3E0
:1011B0006F8FBFF34F8F7B60FEE700BF1037BD46D8
:1011C00080BD00BFBC010020944200004118000017
:1011D000B8010020A40100209C01002080B400AFD1
:1011E000044B1B680133034A136000BFBD465DF822
:1011F000047B7047C001002080B584B000AF00239D
:10120000FB600023BB60414B1B68002B09D14FF0F2
:10121000A00383F31188BFF36F8FBFF34F8F3B6041
:10122000FEE701F01BF9394B1B68013B374A13609D
:10123000364B1B68002B62D1354B1B68002B5ED0F0
:101240002FE0344BDB68DB68FB60FB681833184623
:10125000FFF73EF9FB6804331846FFF739F9FB68DE
:10126000DA6A2D4B1B689A4203D9FB68DB6A2A4A6B
:101270001360FB68DA6A13469B0013449B00274AFD
:101280001A44FB68043319461046FFF7C3F8FB689D
:10129000DA6A234B1B68DB6A9A4202D3214B012294
:1012A0001A601C4B1B68002BCBD1FB68002B01D0B4
:1012B00000F05AFB1C4B1B687B607B68002B10D036
:1012C00000F048F80346002B02D0164B01221A60AA
:1012D0007B68013B7B607B68002BF1D1124B0022C5
:1012E0001A60104B1B68002B09D00123BB600F4B09
:1012F0004FF080521A60BFF34F8FBFF36F8F01F032
:10130000DBF8BB6818461037BD4680BDC001002021
:101310009801002058010020A0010020C4000020F6
:10132000C0000020AC010020A801002004ED00E076
:1013300080B582B000AF01F091F8054B1B88FB80AF
:1013400001F0BAF8FB8818460837BD4680BD00BFDB
:101350009C01002080B586B000AF00237B614F4B1D
:101360001B68002B40F08A804D4B1B889BB20133D9
:101370007B824B4A7B8A13807B8A002B1FD1494B8F
:101380001B681B68002B09D04FF0A00383F3118862
:10139000BFF36F8FBFF34F8F3B60FEE7414B1B687E
:1013A000FB60414B1B683F4A13603F4AFB68136078
:1013B0003E4B1B6801333D4A136000F0D5FA3C4BAD
:1013C0001B889BB27A8A9A4249D3364B1B681B68AA
:1013D000002B04D1364B4FF6FF721A803FE0314BA1
:1013E0001B68DB68DB68BB60BB689B88FB807A8A14
:1013F000FB889A4203D22E4AFB8813802FE0BB68F9
:1014000004331846FFF764F8BB689B6A002B04D0CE
:10141000BB6818331846FFF75BF8BB68DA6A254BE0
:101420001B689A4203D9BB68DB6A224A1360BB6817
:10143000DA6A13469B0013449B001F4A1A44BB6898
:10144000043319461046FEF7E5FFBB68DA6A1B4B0A
:101450001B68DB6A9A42B8D301237B61B5E7174B5F
:101460001B68DA6A144913469B0013449B000B4423
:101470001B68012B07D901237B6104E0104B1B681B
:1014800001330F4A13600F4B1B68002B01D001235F
:101490007B617B6918461837BD4680BDC0010020BE
:1014A0009C0100205001002054010020B0010020C8
:1014B000B8010020A0010020C4000020C0000020CE
:1014C000A8010020AC01002080B586B000AF3A4BE7
:1014D0001B68002B03D0394B01221A6067E0374BA1
:1014E00000221A60364B1B681B6B3B614FF0A53323
:1014F000FB603B691B68FA689A4211D13B6904336F
:101500001B68FA689A420BD13B6908331B68FA687A
:101510009A4205D13B690C331B68FA689A4208D09D
:10152000274B1A68264B1B6834331946104602F0C5
:101530004AFE244B1B687B610FE07B69002B09D1BD
:101540004FF0A00383F31188BFF36F8FBFF34F8F6A
:101550007B60FEE77B69013B7B611B497A6913462F
:101560009B0013449B000B441B68002BE5D07A6959
:1015700013469B0013449B00134A1344BB60BB6893
:101580005B685A68BB685A60BB685A68BB680833B6
:101590009A4204D1BB685B685A68BB685A60BB68F2
:1015A0005B68DB68064A1360064A7B69136000BF0C
:1015B0001837BD4680BD00BFC0010020AC0100202F
:1015C000C0000020A0010020C400002080B584B02D
:1015D00000AF78600B467B807B68002B09D14FF011
:1015E000A00383F31188BFF36F8FBFF34F8FFB60AE
:1015F000FEE7084B1B68183319467868FEF72EFF84
:101600007B880121184600F05BFA00BF1037BD4609
:1016100080BD00BFC000002080B586B000AFF8607C
:101620000B467A607B81FB68002B09D14FF0A00349
:1016300083F31188BFF36F8FBFF34F8F7B61FEE79A
:101640000A4B1B6818331946F868FEF7E3FE7B68FF
:10165000002B02D04FF6FF737B817B897968184697
:1016600000F02EFA00BF1837BD4680BDC000002034
:1016700080B586B000AF78607B68DB68DB683B6173
:101680003B69002B09D14FF0A00383F31188BFF30E
:101690006F8FBFF34F8FFB60FEE73B69183318462F
:1016A000FEF716FF1D4B1B68002B1DD13B69043351
:1016B0001846FEF70DFF3B69DA6A194B1B689A4220
:1016C00003D93B69DB6A164A13603B69DA6A134641
:1016D0009B0013449B00134A1A443B690433194688
:1016E0001046FEF797FE05E03B69183319460E4891
:1016F000FEF790FE3B69DA6A0C4B1B68DB6A9A4284
:1017000005D901237B610A4B01221A6001E0002305
:101710007B617B6918461837BD4680BDC00100203B
:10172000A0010020C400002058010020C0000020BB
:10173000AC01002080B483B000AF7860074B1A681A
:101740007B681A60064B1B889AB27B689A8000BF40
:101750000C37BD465DF8047B704700BFB001002028
:101760009C01002080B586B000AF786039607B684E
:10177000002B09D14FF0A00383F31188BFF36F8FC3
:10178000BFF34F8FFB60FEE73B68002B09D14FF0A2
:10179000A00383F31188BFF36F8FBFF34F8FBB603C
:1017A000FEE700F05BFE1E4B1B887B827B689B88FC
:1017B0007A8AD31A3B823B681B884FF6FF729342AA
:1017C00002D100237B6124E07B681A68154B1B68FB
:1017D0009A4207D07B689B887A8A9A4202D3012377
:1017E0007B6116E03B681B883A8A9A420CD23B68C0
:1017F0001A883B8AD31A9AB23B681A807868FFF736
:1018000099FF00237B6104E03B6800221A800123DA
:101810007B6100F051FE7B6918461837BD4680BDDC
:101820009C010020B001002080B400AF034B0122D6
:101830001A6000BFBD465DF8047B7047AC01002014
:1018400080B582B000AF786000F052F8064B1B689C
:10185000012BF9D9054B4FF080521A60BFF34F8F1F
:10186000BFF36F8FF0E700BFC400002004ED00E07D
:1018700080B582B000AF00237B600CE07A6813462D
:101880009B0013449B00124A13441846FEF795FD33
:101890007B6801337B607B68042BEFD90D48FEF732
:1018A0008CFD0D48FEF789FD0C48FEF786FD0C48BF
:1018B000FEF783FD0B48FEF780FD0B4B054A1A60CF
:1018C0000A4B054A1A6000BF0837BD4680BD00BFFD
:1018D000C4000020280100203C0100205801002005
:1018E0006C010020840100205001002054010020E0
:1018F00080B582B000AF19E000F0B0FD0F4BDB689F
:10190000DB687B607B6804331846FEF7E1FD0C4B17
:101910001B68013B0A4A13600A4B1B68013B094ADA
:10192000136000F0C9FD786800F00EF8054B1B68E5
:10193000002BE1D100BF0837BD4680BD6C010020FF
:10194000980100208001002080B582B000AF78604F
:101950007B681B6B184600F057FF786800F054FF57
:1019600000BF0837BD4680BD80B483B000AF0C4BCC
:101970001B681B68002B04D10A4B4FF6FF721A80BC
:1019800008E0074B1B68DB68DB687B607B689A8834
:10199000044B1A8000BF0C37BD465DF8047B7047CE
:1019A00050010020B801002080B483B000AF0B4B81
:1019B0001B68002B02D101237B6008E0084B1B68E9
:1019C000002B02D102237B6001E000237B607B6857
:1019D00018460C37BD465DF8047B7047A401002013
:1019E000C001002080B586B000AF78607B683B61A5
:1019F00000237B617B68002B56D02E4B1B683A6915
:101A00009A4209D04FF0A00383F31188BFF36F8F80
:101A1000BFF34F8FFB60FEE73B699B6C002B09D146
:101A20004FF0A00383F31188BFF36F8FBFF34F8F85
:101A3000BB60FEE73B699B6C5A1E3B699A643B693D
:101A4000DA6A3B695B6C9A422ED03B699B6C002B37
:101A50002AD13B6904331846FEF73AFD3B695A6CBC
:101A60003B69DA623B69DB6A9BB2C3F105039AB258
:101A70003B691A833B69DA6A0F4B1B689A4203D9A8
:101A80003B69DB6A0C4A13603B69DA6A13469B00C8
:101A900013449B00094A1A443B6904331946104613
:101AA000FEF7B8FC01237B617B6918461837BD46F9
:101AB00080BD00BFC0000020A0010020C4000020A5
:101AC00080B584B000AF03463960FB80224B1B8891
:101AD000FB81224B1B6804331846FEF7F9FCFB8898
:101AE0004FF6FF7293420AD13B68002B07D01B4B85
:101AF0001B68043319461A48FEF78CFC27E0FA8964
:101B0000FB881344BB81154B1B68BA899A80BA893C
:101B1000FB899A4209D2134B1A68104B1B68043395
:101B200019461046FEF79AFC11E00F4B1A680B4B52
:101B30001B68043319461046FEF790FC0B4B1B88BC
:101B40009BB2BA899A4202D2084ABB89138000BF6D
:101B50001037BD4680BD00BF9C010020C0000020A2
:101B6000840100205401002050010020B801002011
:101B700080B584B002AF00237B6000F001FB104B06
:101B80001B68002B0AD00F4B019303230093002303
:101B900064220D490D48FFF762F978607B68002BDD
:101BA00009D14FF0A00383F31188BFF36F8FBFF308
:101BB0004F8F3B60FEE77B6818460837BD4680BD07
:101BC000F4010020F80100209C4200000D1D0000DF
:101BD00080B58AB000AFF860B9603B601346FB8007
:101BE00000237B62FB68002B09D14FF0A00383F335
:101BF0001188BFF36F8FBFF34F8F3B62FEE71A4B25
:101C00001B68002B2AD0BB683B61FB88BB82FB684A
:101C1000BB61BB68052B18DCFFF7C6FE0346022B31
:101C200009D1114B18683A8E07F110010023FEF715
:101C30003BFD786212E00C4B186807F1100100239D
:101C40000022FEF731FD786208E0074B186807F1C3
:101C5000100100233A68FEF723FE78627B6A18467B
:101C60002837BD4680BD00BFF401002080B588B094
:101C700002AF03460A46FB801346BB80224B1B681B
:101C8000DB68DB687B617B6904331846FEF720FC68
:101C90007B6993F8243003F00403002B22D07B6986
:101CA0001A8BFB88134499B2FB88BA88786900F0D4
:101CB000D7F80346002B1ED0FA8800230093002398
:101CC00000217869FFF784FF38613B69002B12D14E
:101CD0004FF0A00383F31188BFF36F8FBFF34F8FD3
:101CE000FB60FEE77B6993F8243023F00103DAB24E
:101CF0007B6983F824207B691B6A7869984700BF59
:101D00001837BD4680BD00BFEC01002080B584B00F
:101D100000AF786007F10803184600F05DF803464D
:101D2000FB81BA68FB891146184600F003F800F001
:101D3000E1F8EFE780B584B000AF03463960FB807F
:101D4000FFF74CFA07F10803184600F069F803465C
:101D5000FB81BB68002B33D13B68002B0CD1FA8888
:101D6000FB899A4208D8FFF747FAFA89FB8811469F
:101D70001846FFF77BFF25E03B68002B08D0134B8C
:101D80001B681B68002B01D1012300E000233B608E
:101D90000F4B1868FA88FB89D31A9BB23A68194628
:101DA000FFF728F8FFF728FA0346002B0AD1094B62
:101DB0004FF080521A60BFF34F8FBFF36F8F01E077
:101DC000FFF71AFA00BF1037BD4680BDF0010020B2
:101DD000F401002004ED00E080B485B000AF78602D
:101DE0000E4B1B681B68002B01D1012200E0002272
:101DF0007B681A607B681B68002B05D1074B1B684A
:101E0000DB681B88FB8101E00023FB81FB8918460E
:101E10001437BD465DF8047B704700BFEC0100201D
:101E200080B584B000AF7860FFF782FA0346FB818B
:101E30000A4B1B88FA899A4205D200F03DF97B686B
:101E400001221A6002E07B6800221A60034AFB89C3
:101E50001380FB8918461037BD4680BDFC01002069
:101E600080B586B000AFF860084611461A460346B2
:101E70007B810B463B811346FB8000237B61FB6823
:101E80007A899A80FB68FA681A617A893B899A4252
:101E900013D83A89FB88D31A9AB2FB681B8B9A42F3
:101EA00002D301237B611BE0104B1A68FB680433EB
:101EB00019461046FEF7D2FA12E03A89FB889A4298
:101EC00006D27A89FB889A4202D301237B6107E01C
:101ED000074B1A68FB68043319461046FEF7BEFA32
:101EE0007B6918461837BD4680BD00BFF001002051
:101EF000EC01002080B58EB002AFCBE07B68002BF8
:101F000017DA3B1D0433FB62FB6A002B09D14FF04B
:101F1000A00383F31188BFF36F8FBFF34F8FFB6173
:101F2000FEE7FB6A1B68FA6A5068FA6A9268114613
:101F300098477B68002BC0F2AC80FB68BB62BB6A31
:101F40005B69002B04D0BB6A04331846FEF7C0FA65
:101F50003B461846FFF764FF0346FB847B68092B6A
:101F600000F2988001A252F823F000BF951F0000F4
:101F7000951F0000951F00000B2000001F2000008F
:101F800069200000951F0000951F00000B20000035
:101F90001F200000BB6A93F8243043F00103DAB23B
:101FA000BB6A83F824203A89BB6A1B8B134499B21D
:101FB0003B89FA8CB86AFFF753FF0346002B69D0C0
:101FC000BB6A1B6AB86A9847BB6A93F8243003F06F
:101FD0000403002B5ED03A89BB6A1B8B13449AB270
:101FE0000023009300230021B86AFFF7F1FD386257
:101FF0003B6A002B4ED14FF0A00383F31188BFF34F
:102000006F8FBFF34F8FBB61FEE7BB6A93F824303D
:1020100023F00103DAB2BB6A83F824203AE0BB6AFA
:1020200093F8243043F00103DAB2BB6A83F824202A
:102030003A89BB6A1A83BB6A1B8B002B09D14FF00C
:10204000A00383F31188BFF36F8FBFF34F8F7B61C2
:10205000FEE7BB6A1A8BFB8C134499B2FB8CFA8C9B
:10206000B86AFFF7FDFE15E0BB6A93F8243003F071
:102070000203002B03D1B86A00F0C6FB0AE0BB6A7A
:1020800093F8243023F00103DAB2BB6A83F82420EA
:1020900000E000BF074B1B68391D00221846FEF701
:1020A00093FC0346002B7FF429AF00BF3037BD46B9
:1020B00080BD00BFF401002080B588B002AF47E0CA
:1020C0002D4B1B68DB681B887B822B4B1B68DB68F6
:1020D000DB68FB60FB6804331846FEF7F9F9FB6820
:1020E0001B6AF8689847FB6893F8243003F00403F0
:1020F000002B2DD0FB681A8B7B8A13447B817A8955
:102100007B8A9A420ED9FB687A899A80FB68FA68C2
:102110001A61194B1A68FB68043319461046FEF71A
:102120009DF915E07A8A0023009300230021F868C6
:10213000FFF74EFD78607B68002B09D14FF0A003BC
:1021400083F31188BFF36F8FBFF34F8F3B60FEE7C0
:10215000094B1B681B68002BB2D1074B1B687B61C6
:10216000064B1B68044A1360044A7B69136000BF76
:102170001837BD4680BD00BFEC010020F0010020F3
:1021800080B500AF00F06AF9124B1B68002B1DD11F
:102190001148FEF712F91148FEF70FF9104B0E4ADD
:1021A0001A60104B0D4A1A60002210210520FEF71C
:1021B00021FA0246074B1A60064B1B68002B05D01C
:1021C000044B1B6808491846FEF7ECFD00F074F953
:1021D00000BF80BDF4010020C4010020D801002010
:1021E000EC010020F0010020A442000080B485B082
:1021F00000AFF860B9607A60FB68043BFB60FB6885
:102200004FF080721A60FB68043BFB60BB6823F0F0
:102210000102FB681A60FB68043BFB600C4AFB6828
:102220001A60FB68143BFB607A68FB681A60FB6805
:10223000043BFB60FB686FF002021A60FB68203B06
:10224000FB60FB6818461437BD465DF8047B704799
:102250005522000080B485B000AF00237B60114B95
:102260001B68B3F1FF3F09D04FF0A00383F311883F
:10227000BFF36F8FBFF34F8FFB60FEE74FF0A003FC
:1022800083F31188BFF36F8FBFF34F8FBB6000BF25
:102290007B68002BFCD000BF1437BD465DF8047B83
:1022A000704700BF10000020000000000000000088
:1022B000074B19680868B0E8F04F80F30988BFF34E
:1022C0006F8F4FF0000080F311887047AFF30080EC
:1022D000C000002000BF00BF08480068006880F30D
:1022E00008884FF0000080F3148862B661B6BFF32F
:1022F0004F8FBFF36F8F00DF00BF00BF08ED00E01E
:1023000080B588B000AF4C4B1B684C4A934209D152
:102310004FF0A00383F31188BFF36F8FBFF34F8F8C
:10232000BB61FEE7444B1B68454A934209D14FF01D
:10233000A00383F31188BFF36F8FBFF34F8F7B61CF
:10234000FEE7404BFB61FB691B78DBB2BB60FB69BE
:10235000FF221A70FB691B78DBB2FB71FB79DBB2E1
:1023600023F05F03DAB2384B1A70384B07221A6039
:1023700009E0364B1B68013B344A1360FB79DBB242
:102380005B00DBB2FB71FB79DBB203F08003802BD7
:10239000EFD02E4B1B68C3F10703032B09D04FF07E
:1023A000A00383F31188BFF36F8FBFF34F8F3B619F
:1023B000FEE7264B1B68C3F10703032B09D04FF040
:1023C000A00383F31188BFF36F8FBFF34F8FFB60C0
:1023D000FEE71E4B1B681B021C4A13601B4B1B684D
:1023E00003F4E063194A1360BB68DAB2FB691A7040
:1023F000174B1B68164A43F460031360144B1B68A9
:10240000134A43F06043136000F0D6F8114B0022EA
:102410001A6000F0EBF8104B1B680F4A43F0404382
:102420001360FFF759FFFFF74FF8FFF713FF002383
:1024300018462037BD4680BD00ED00E071C20F4157
:1024400070C20F4100E400E0FE0100200002002005
:1024500020ED00E01000002034EF00E080B483B0F5
:1024600000AF4FF0A00383F31188BFF36F8FBFF36A
:102470004F8F7B600E4B1B6801330D4A13600C4B72
:102480001B68012B0ED10B4B1B68DBB2002B09D054
:102490004FF0A00383F31188BFF36F8FBFF34F8F0B
:1024A0003B60FEE700BF0C37BD465DF8047B70471C
:1024B0001000002004ED00E080B483B000AF114BA9
:1024C0001B68002B09D14FF0A00383F31188BFF3E1
:1024D0006F8FBFF34F8F7B60FEE70A4B1B68013B9A
:1024E000084A1360074B1B68002B04D100233B6094
:1024F0003B6883F3118800BF0C37BD465DF8047B51
:10250000704700BF10000020000000000000000025
:10251000EFF30980BFF36F8F154B1A681EF0100F91
:1025200008BF20ED108A20E9F04F10602DE9090066
:102530004FF0A00080F31188BFF34F8FBFF36F8F70
:10254000FEF7C2FF4FF0000080F3118809BC196844
:102550000868B0E8F04F1EF0100F08BFB0EC108A0A
:1025600080F30988BFF36F8F704700BFAFF300801F
:10257000C000002000BF00BF80B582B000AF4FF0A8
:10258000A00383F31188BFF36F8FBFF34F8F7B607E
:10259000FEF7E0FE0346002B03D0064B4FF08052BF
:1025A0001A6000233B603B6883F3118800BF083743
:1025B000BD4680BD04ED00E080B400AF084B0022B2
:1025C0001A60084B00221A60074B49F26F421A60EA
:1025D000034B07221A6000BFBD465DF8047B7047BD
:1025E00010E000E018E000E014E000E0DFF80C008C
:1025F000016841F470010160704700BF88ED00E0A0
:1026000080B485B000AFEFF30583FB60FB680F2B50
:1026100013D9164AFB6813441B78FB72144B1B78C2
:10262000FA7A9A4209D24FF0A00383F31188BFF3DC
:102630006F8FBFF34F8F7B60FEE70E4B1B6803F479
:10264000E0620D4B1B689A4209D94FF0A00383F357
:102650001188BFF36F8FBFF34F8F3B60FEE700BF62
:102660001437BD465DF8047B704700BFF0E300E01F
:10267000FE0100200CED00E00002002080B58AB0D1
:1026800000AF78600023FB61FEF7A8FD594B1B6883
:10269000002B01D100F010F9574B1A687B681340EA
:1026A000002B40F08C807B68002B1CD008227B68BC
:1026B00013447B607B6803F00703002B13D07B6817
:1026C00023F0070308337B607B6803F00703002BCC
:1026D00009D04FF0A00383F31188BFF36F8FBFF3CE
:1026E0004F8F7B61FEE77B68002B68D0434B1B68F4
:1026F0007A689A4263D8424B3B62414B1B687B62CB
:1027000004E07B6A3B627B6A1B687B627B6A5B6876
:102710007A689A4203D97B6A1B68002BF1D1354B4A
:102720001B687A6A9A424AD03B6A1B6808221344A3
:10273000FB617B6A1A683B6A1A607B6A5A687B682D
:10274000D21A08235B009A421ED97A6A7B68134426
:10275000BB61BB6903F00703002B09D04FF0A00356
:1027600083F31188BFF36F8FBFF34F8F3B61FEE799
:102770007B6A5A687B68D21ABB695A607B6A7A683E
:102780005A60B86900F0FAF81C4B1A687B6A5B68FB
:10279000D31A1A4A1360194B1A681A4B1B689A42CB
:1027A00003D2164B1B68174A13607B6A5A68124B98
:1027B0001B681A437B6A5A607B6A00221A60FEF724
:1027C0001BFDFB69002B01D101F0F0FCFB6903F05C
:1027D0000703002B09D04FF0A00383F31188BFF348
:1027E0006F8FBFF34F8FFB60FEE7FB6918462837FA
:1027F000BD4680BDEC300020F8300020F0300020D5
:10280000E4300020F430002080B586B000AF78605E
:102810007B687B617B68002B46D008235B427A692A
:1028200013447B617B693B613B695A68204B1B68A1
:102830001340002B09D14FF0A00383F31188BFF39D
:102840006F8FBFF34F8FFB60FEE73B691B68002B68
:1028500009D04FF0A00383F31188BFF36F8FBFF34C
:102860004F8FBB60FEE73B695A68114B1B681340F2
:10287000002B19D03B691B68002B15D13B695A68A6
:102880000B4B1B68DB431A403B695A60FEF7A6FC02
:102890003B695A68074B1B681344064A1360386942
:1028A00000F06CF8FEF7A8FC00BF1837BD4680BDED
:1028B000F8300020F030002080B485B000AF42F640
:1028C000E063BB60274BFB60FB6803F00703002B52
:1028D0000CD0FB680733FB60FB6823F00703FB6049
:1028E000BA68FB68D31A1F4A1344BB60FB687B605D
:1028F0001D4A7B6813601C4B00225A607B68BA68D3
:102900001344FB600822FB689B1AFB60FB6823F002
:102910000703FB60FB68154A1360144B1B68002219
:102920005A60124B1B6800221A607B683B603B6850
:10293000FA68D21A3B685A600C4B1A683B681A60F6
:102940003B685B680A4A13603B685B68094A13602E
:10295000094B4FF000421A6000BF1437BD465DF8C6
:10296000047B704704020020E4300020EC3000209B
:10297000F4300020F0300020F830002080B485B022
:1029800000AF7860284BFB6002E0FB681B68FB60CF
:10299000FB681B687A689A42F7D8FB68BB60FB68E3
:1029A0005B68BA6813447A689A4208D1FB685A682F
:1029B0007B685B681A44FB685A60FB687B607B68D5
:1029C000BB607B685B68BA681A44FB681B689A4204
:1029D00018D1FB681A68154B1B689A420DD07B68AA
:1029E0005A68FB681B685B681A447B685A60FB681E
:1029F0001B681A687B681A6008E00C4B1A687B68D1
:102A00001A6003E0FB681A687B681A60FA687B68E2
:102A10009A4202D0FB687A681A6000BF1437BD463C
:102A20005DF8047B704700BFE4300020EC300020EC
:102A300080B487B000AFF860B9607A60FB6803F1DA
:102A40000473DA00BB6813449B007B617B697A687E
:102A50001A6000BF1C37BD465DF8047B704780B428
:102A600085B000AF786039607B6803F10473DA00E9
:102A70003B6813449B00FB60FB681B6818461437D7
:102A8000BD465DF8047B704780B483B000AF7860CA
:102A900001227B6802FA03F318460C37BD465DF845
:102AA000047B704780B582B000AF78607868FFF72C
:102AB000EBFF034618460837BD4680BD80B500AF22
:102AC00000BF12210348FFF7CAFF0346002BF8D1CD
:102AD00000BF80BD04300E4080B500AFFFF7EEFFB1
:102AE000034B5B681B0C03F00303DBB2184680BD8D
:102AF00000300E4080B584B000AF78600123FB60E9
:102B00007B68124A934204D80023FB600023BB6019
:102B100008E07B680E4A934202D80123BB6001E0C3
:102B20000223BB60FA6810210A48FFF781FF094BB6
:102B3000D3F8003123F08072BB681B0605491343AC
:102B4000C1F8003100BF1037BD4680BD0048E80124
:102B50000090D00300400E4080B483B000AF054B1E
:102B60001B687B607B6818460C37BD465DF8047BAC
:102B7000704700BF1400002080B582B000AFFDF7A1
:102B800061FB7860064BD3F800311B0A03F01F038A
:102B900001337A6802FB03F318460837BD4680BD4F
:102BA00000400E4080B582B000AF0D4800F032FB0F
:102BB0000346FB70FB78072B05D0092B07D1FDF7E7
:102BC00041FB786006E0FFF7C7FF786002E0002372
:102BD0007B6000BF7B6818460837BD4680BD00BFDC
:102BE00006000E0080B584B000AF78607B68002BD3
:102BF0001CD11B4800F00EFB0346FB7200BFFB7AA2
:102C0000013B072B23D801A252F823F0312C0000FE
:102C10004F2C00004F2C00003F2C00004F2C0000D8
:102C20004F2C0000372C0000472C0000002312E03E
:102C30000023FB600EE0FFF78FFFF8600AE0FDF76E
:102C400039FBF86006E0FFF797FFF86002E0002329
:102C5000FB6000BFFB6818461037BD4680BD00BF53
:102C6000B800320080B485B000AF786039601E4B88
:102C70005B6803F04073FB600023BB6012E01B4AFB
:102C8000BB68DB0013441A793B68DBB29A4206D179
:102C9000164ABB6852F833307A689A4206D9BB6844
:102CA0000133BB60BB68042BE9D900E000BFBB68FF
:102CB000052B02D10323FB6005E00C4ABB68DB0057
:102CC00013445B79FB60FB681B06FB60064B5B688B
:102CD00023F040720449FB6813434B6000BF143774
:102CE000BD465DF8047B704700000E40AC4200001A
:102CF00080B582B000AF0E4B1B6C002B14BF0123BC
:102D00000023FB710A4B41F671321A64FDF790FA09
:102D1000034600211846FFF7A5FFFB79002B02D0E0
:102D2000034B00221A6400BF0837BD4680BD00BFB8
:102D300000000E4080B584B000AF786039600C4B65
:102D40001B6C002B14BF01230023FB73084B41F6BF
:102D500071321A6439687868FFF784FFFB7B002BB7
:102D600002D0034B00221A6400BF1037BD4680BD5D
:102D700000000E4080B487B000AF78600F237B6105
:102D80007B6803333B617B69FB60FA683B69934274
:102D900028BF1346BB60BB681B07BB60BB681846F7
:102DA0001C37BD465DF8047B7047000080B400AF5F
:102DB000044B5B6A1B0903F003031846BD465DF82C
:102DC000047B704700400E4080B483B000AF786051
:102DD000074B5B6A23F030027B681B0104491343F5
:102DE0004B6200BF0C37BD465DF8047B704700BFE7
:102DF00000400E4090B585B000AF78600023BB6006
:102E00007B68354A934206D0344A934203D0344A11
:102E1000934200D000E000BF786800F0FBF9034661
:102E2000FB607B682C4A93420DD02C4A934211D010
:102E30002B4A934200D014E02A4BD3F8803003F0A1
:102E40000703FB600DE0274BD3F8843003F0070342
:102E5000FB6006E0234BD3F8883003F00703FB60E8
:102E600000BFFB68042B2ED801A252F823F000BF4C
:102E7000C12E0000852E00008D2E00009D2E00002A
:102E8000952E0000FDF738FAB8601FE0FDF746FA0E
:102E9000B8601BE0FDF739FAB86017E0FDF7A8F954
:102EA0000446104BD3F800311B0E03F0010301332D
:102EB0001846FFF7F7FD0346B4FBF3F3BB6005E0EC
:102EC0000023BB6002E00023BB6000BFBB68184664
:102ED0001437BD4690BD00BF03002000050024004C
:102EE00002001E0000400E4080B483B000AF786046
:102EF0000A4BD3F8443103F00103002B08D100BF83
:102F0000064BD3F840217B681340002BF8D100E03A
:102F100000BF0C37BD465DF8047B704700400E4093
:102F200080B400AF00BFBD465DF8047B704780B43D
:102F300000AF00BFBD465DF8047B704780B586B02A
:102F400000AF78600B46FB7000233B617B681B0A77
:102F500003F00F03013B092B44D801A252F823F0E0
:102F6000892F0000952F0000E52F0000E52F0000BD
:102F70008F2F00009B2F0000A52F0000E52F0000E1
:102F8000AF2F0000BB2F0000184B7B6118E0184BDF
:102F90007B6115E0174B7B6112E0174B7B610123CE
:102FA0003B610DE0154B7B6110233B6108E0144B46
:102FB0007B614FF480333B6102E0124B7B6100BFC9
:102FC0007B681B0B03F01F03FB603B69002B02D0E7
:102FD0003869FFF789FFFB781A46F9687869FFF7C7
:102FE00027FD00E000BF1837BD4680BD00400E4001
:102FF000B0400E40C0400E40E0400E40E8400E4061
:10300000F0400E4050410E4080B584B000AF786073
:103010007B6803F47813B3F5A01F7DD0B3F5A01F30
:103020001AD8B3F5202F50D0B3F5202F08D8B3F518
:10303000003F4ED0B3F5802F38D0002B32D0D8E0EF
:10304000B3F5602F00F0C880B3F5801F00F0C88092
:10305000B3F5402F4CD0CCE0B3F5001F00F08B80CF
:10306000B3F5001F0AD8B3F5D01F00F08980B3F57F
:10307000F01F4CD0B3F5B01F5CD0BAE0B3F5381FE9
:103080006AD0B3F5381F04D8B3F5101F00F09F8045
:10309000AFE0B3F5401F00F08680B3F5481F00F0A5
:1030A000A380A6E0FDF7CEF8F860A5E0FDF7CAF82A
:1030B000F860544BD3F80C311B0AC3F308030133F7
:1030C000FA68B2FBF3F3FB6096E0FDF7BBF8F8603B
:1030D00092E0FDF7B7F8F8604A4BD3F808311B0AC5
:1030E000C3F308030133FA68B2FBF3F3FB6083E038
:1030F000FDF7A8F8F860434BD3F814311B0A03F02E
:103100001F030133FA68B2FBF3F3FB6074E03E483F
:10311000FFF770FEF8606FE03C48FFF76BFEF86069
:10312000384BD3F8303103F00303FA6822FA03F383
:10313000FB6061E03448FFF75DFEF860314BD3F887
:10314000203103F00F031846FFF7ACFC0246FB6882
:10315000B3FBF2F3FB604FE02B48FFF74BFEF86048
:10316000284BD3F820311B0903F00303FA6822FA35
:1031700003F3FB6040E02648FFF73CFEF8603BE0CD
:103180002348FFF737FEF8601E4BD3F828311B09A0
:1031900003F003031846FFF785FC0246FB68B3FB08
:1031A000F2F3FB6028E01A48FFF724FEF860154BA5
:1031B000D3F828311B0A03F0030304331846FFF742
:1031C00071FC0246FB68B3FBF2F3FB6014E00F48AE
:1031D000FFF710FEF8600FE0FFF7E4FCF8600BE08B
:1031E000FFF7BAFCF86007E00020FFF7FBFCF8608F
:1031F00002E00023FB6000BFFB6818461037BD46A5
:1032000080BD00BF00400E4002001E0005002400EB
:103210000300200080B485B000AF78600123FB7309
:103220007B6803F00F03BB60BB68013B072B00F218
:10323000C48001A252F823F059320000AF320000DE
:10324000DF320000BB33000025330000553300009F
:10325000BB330000793300005D4BD3F8943003F0AA
:103260000703023B052B1ED801A252F823F000BF32
:10327000953200008F320000893200009B3200003E
:10328000A7320000A13200000223FB730EE00323EB
:10329000FB730BE00423FB7308E00B23FB7305E0D7
:1032A0000C23FB7302E00523FB7300BF88E0484B4F
:1032B000D3F8803003F00703022B06D0042B07D08D
:1032C000012B08D10323FB7308E00223FB7305E005
:1032D0000A23FB7302E00123FB7300BF70E03C4B49
:1032E000D3F8843003F00703013B032B16D801A267
:1032F00052F823F0053300000B33000017330000B1
:10330000113300000323FB730BE00223FB7308E07F
:103310000A23FB7305E00623FB7302E00123FB7322
:1033200000BF4DE02A4BD3F8883003F00703022B8F
:1033300006D0042B07D0012B08D10323FB7308E030
:103340000223FB7305E00A23FB7302E00123FB73F6
:1033500000BF35E01E4B1B6F03F00103002B04D0B0
:10336000012B05D10923FB7305E00723FB7302E062
:103370000123FB7300BF23E0154BD3F85C3103F04E
:103380003003102B0CD0102B02D8002B05D010E0EE
:10339000202B08D0302B09D00BE00123FB730BE06E
:1033A0000723FB7308E00423FB7305E00823FB738A
:1033B00002E00123FB7300BF02E00023FB7300BFA8
:1033C000FB7B18461437BD465DF8047B704700BF91
:1033D00000400E4080B483B000AF78607B68294A1B
:1033E00093422FD0274A934210D8274A934221D0A4
:1033F000254A934203D8254A93421BD03AE0244AF7
:10340000934217D0234A934218D033E0224A934282
:1034100024D0214A934206D8204A934216D0204A0B
:10342000934217D026E01F4A93421BD01E4A934274
:103430001CD01FE01D4BD3F880301CE01B4BD3F891
:103440008C3018E0194BD3F8983014E0174BD3F8B0
:103450009C3010E0154BD3F8A0300CE0134BD3F8A0
:10346000A83008E0114BD3F8AC3004E00F4BD3F890
:10347000B03000E0002318460C37BD465DF8047BF1
:10348000704700BF405DC60080841E0040420F00B0
:1034900000093D00C0CF6A0080BA8C010024F4000E
:1034A000C0EA21010048E80180D54302B081E00F65
:1034B00080B400AF034B1B681846BD465DF8047B23
:1034C000704700BF0C00002080B586B000AF786068
:1034D0007868FFF77FFF78617B69002B03D07B69F9
:1034E000B3F1FF3F00BF3A4B1B683B61384A7B6832
:1034F00013601120FFF78EFE0346052B03D1FFF763
:10350000F7FBFFF70DFD00BF18213248FFF7A7FAC0
:103510000346002BF8D17B682F4A93420DD02F4AE7
:10352000934211D02E4A934200D012E07B6923F0DF
:10353000C06343F080637B610BE07B6923F0C06371
:1035400043F000737B6104E07B6923F0C0637B611F
:1035500000BF1120FFF75EFE0346052B02D17868FD
:10356000FFF7C8FA7A683B699A4203D90121786863
:1035700000F080FA1B4A7B6913611120FFF74AFEB5
:103580000346052B09D1FCF733FEF860FFF7A4FAD8
:1035900003461946F868FFF7CDFB1348FFF734FDE3
:1035A00003461846FFF7A6FA7A683B699A4203D8A1
:1035B0000121002000F05EFA1120FFF72BFE0346E8
:1035C000052B01D1FFF7B3FC00BF1837BD4680BD06
:1035D0000C00002040410E4080841E0000093D0088
:1035E00040420F0000400E4000250A0080B588B020
:1035F00000AF0346FB710B46BB7113467B71FB7931
:10360000042B00F2B88001A252F823F069360000C2
:1036100057360000333600002136000045360000E2
:1036200001237B6102233B610123FB610023BB611A
:1036300025E004237B6108233B610323FB61022314
:10364000BB611CE010237B6120233B610523FB61F0
:103650000423BB6113E040237B6180233B6107238C
:10366000FB610623BB610AE04FF480737B614FF47A
:1036700000733B610923FB610823BB6100BFBB7979
:10368000002B5BD00023FB73FB79022B11D1FFF7DA
:103690008DFB0346002B0CD1394BDB6B0123FB73F5
:1036A000384B5B6A03F00103012B02D10120FFF7C5
:1036B0008BFB344A7B69136600BFB9693248FFF758
:1036C000CEF90346002BF8D07B79002B54D000BFF5
:1036D000F9692D48FFF7C3F90346002BF8D0FB79B1
:1036E000022B49D1FB7B002B46D0264B5B6A03F0B3
:1036F0000103012B05D101222021022000F04AF90B
:1037000003E00021022000F0FBF8022000F03EF868
:10371000B860012200210220FFF768FFB96802208B
:1037200000F06EF8174A7B69136600BFF969164806
:10373000FFF795F90346002BF8D01DE0114A3B69CD
:10374000136600BF0F4BD3F890300121BA6901FA1C
:1037500002F21340002BF5D17B79002B0CD000BF77
:10376000084BD3F890300121FA6901FA02F21340B4
:10377000002BF5D100E000BF2037BD4680BD00BF63
:1037800000300E4000400E4090400E4080B485B0A6
:1037900000AF0346FB71FB79013B032B23D801A249
:1037A00052F823F0B5370000D9370000C1370000C8
:1037B000CD370000114B1B6AC3F30803FB6015E013
:1037C0000E4B1B6903F07F03FB600FE00B4B9B6903
:1037D00003F07F03FB6009E0084BD3F89C30C3F390
:1037E0000A03FB6002E00023FB6000BFFB68184691
:1037F0001437BD465DF8047B704700BF00400E40A3
:1038000080B584B000AF03463960FB71FB79013BA2
:10381000032B6AD801A252F823F000BF2D38000014
:10382000AF3800005B380000853800003B68C3F308
:1038300008033B6000BF1A212E48FFF710F903462A
:10384000002BF8D12C4B1B6A23F4FF7323F00103E8
:1038500029493A6813430B6248E03B6803F07F0351
:103860003B6000BF18212348FFF7F9F80346002BFF
:10387000F8D1214B1B6923F07F021F493B6813439A
:103880000B6133E03B6803F07F033B6000BF19210D
:103890001848FFF7E4F80346002BF8D1164B9B6954
:1038A00023F07F0214493B6813438B611EE0124BE7
:1038B000D3F89030104B5B6A23F030030E4A43F08C
:1038C000100353623B68DB0903F00F031846FFF750
:1038D00051FAF860084B1A6B084B13403A681A43C8
:1038E0000549FB6813430B6300E000BF00BF1037BE
:1038F000BD4680BD40410E4000400E4000F8FF0F25
:1039000080B584B000AF03460A46FB711346BB7115
:10391000FFF74CFA0346002B03D14FF44003FB6042
:1039200016E0BB79202B04D0302B0AD0002B04D01A
:103930000BE04FF40003FB600AE04FF44003FB6030
:1039400006E04FF44003FB6002E0104BFB6000BF59
:1039500000BF0F4BD3F89020FB681340FA689A42DF
:10396000F7D1FB6803F48003002B0AD0084BD3F88F
:10397000A03003F48063002B14BF01230023DBB2CB
:1039800000E0012318461037BD4680BDFF33E10734
:1039900000400E4080B582B000AF0346FB710B467D
:1039A000BB7113467B71FB79022B00D016E0BB790B
:1039B000002B07D00C4B4FF48062C3F8A8200A4AB2
:1039C000BB7953667B79002B07D0BA79FB79114616
:1039D0001846FFF795FF034601E000BF0123184694
:1039E0000837BD4680BD00BF00400E4080B485B0A2
:1039F00000AF786039607B6803F10473DA003B68DC
:103A000013449B00FB60FB681B6818461437BD46D7
:103A10005DF8047B7047000080B500AF00BF122145
:103A20000348FFF7E3FF0346002BF8D100BF80BD3A
:103A300004300E4080B500AFFFF7EEFF034B5B682C
:103A40001B0C03F00303DBB2184680BD00300E40B0
:103A500080B483B000AF0346FB71FB79C3F102036E
:103A6000102202FA03F318460C37BD465DF8047BBA
:103A70007047000080B584B000AF78600B46FB70E3
:103A8000154BD3F800311B0A03F01F030133BB6051
:103A90007B68002B07D1FCF7D5FB0246BB6802FB15
:103AA00003F3FB6001E07B68FB600C4B1B78002B91
:103AB00009D0FB680A4A934205D8FB7819460220D0
:103AC00000F010F804E0FB781946002000F00AF836
:103AD00000BF1037BD4680BD00400E40FC300020C6
:103AE000FF2C310190B587B000AF03460A46FB7149
:103AF0001346BB711B4BD3F800311B0A03F01F03A5
:103B000001337B61FCF79EFB3861FFF793FF0346AF
:103B1000FB73FA7BFB799A421FD03B697A6902FBFF
:103B200003F3BB60FB79022B03D102213869FFF755
:103B300001F90D4CFB791846FFF78AFF0346236114
:103B4000BB79002B01D0FFF767FFFB79002B05D174
:103B500000213869FFF7EEF800E000BF1C37BD46D2
:103B600090BD00BF00400E4000300E4080B485B0D4
:103B700000AF786039607B6803F1C063FB60FB686D
:103B80003A681A6000BF1437BD465DF8047B704781
:103B900080B485B000AF786039607B6803F18063E2
:103BA000FB60FB683A681A6000BF1437BD465DF8D9
:103BB000047B704780B584B000AFF860B9607A606C
:103BC000B968F868FFF7E4FF7968F868FFF7CEFF97
:103BD00000BF1037BD4680BD80B582B000AF034640
:103BE0003960FB71FB79002B1CD0FB79012B19D0BC
:103BF000FB79022B16D0FB79032B13D0FB79042B16
:103C000010D0FB79052B0DD0FB79062B0AD0FB7960
:103C1000072B07D0FB79082B04D0FB79092B01D0A7
:103C2000FB790A2BFA7913465B0013441B010C3312
:103C300003F1804303F5204301213A6801FA02F2BF
:103C400011461846FFF7A4FF00BF0837BD4680BDE8
:103C500080B582B000AF03463960FB71FB79002B61
:103C60001CD0FB79012B19D0FB79022B16D0FB79E4
:103C7000032B13D0FB79042B10D0FB79052B0DD02F
:103C8000FB79062B0AD0FB79072B07D0FB79082B91
:103C900004D0FB79092B01D0FB790A2BFA79134662
:103CA0005B0013441B010C3303F1804303F52043F5
:103CB00001213A6801FA02F211461846FFF756FF51
:103CC00000BF0837BD4680BD80B582B000AF034657
:103CD0003960FB71FB79002B1DD0FB79012B1AD0C9
:103CE000FB79022B17D0FB79032B14D0FB79042B23
:103CF00016D0FB79052B0ED0FB79062B10D0FB7963
:103D0000072B0DD0FB79082B05D0FB79092B02D0AE
:103D1000FB790A2B04D13B6823F00113002B00BF71
:103D2000FA7913465B0013441B0103F1804303F54A
:103D300020433A684FF001111846FFF73BFF00BFE0
:103D40000837BD4680BD000080B584B000AFB960C3
:103D50007B600346FB731346BB73FB7B002B1CD0BD
:103D6000FB7B012B19D0FB7B022B16D0FB7B032B9B
:103D700013D0FB7B042B10D0FB7B052B0DD0FB7BE2
:103D8000062B0AD0FB7B072B07D0FB7B082B04D02C
:103D9000FB7B092B01D0FB7B0A2BBB7B002B0DD0BF
:103DA0007B68002B05D0FB7BB9681846FFF750FFF6
:103DB00004E0FB7BB9681846FFF70EFFBB68072BD2
:103DC00020D82E49FA7B13465B0013441B010B4499
:103DD00004331A68BB689B000F2101FA03F3DB432D
:103DE0001340B97BBA68920001FA02F211462348E7
:103DF000FA7B194313465B0013441B01034404334D
:103E0000196025E01D49FA7B13465B0013441B0132
:103E10000B4408331A68BB6803F18043083B9B00DE
:103E20000F2101FA03F3DB4302EA0301BA7BBB680B
:103E300003F18043083B9B0002FA03F30F48FA7B2F
:103E4000194313465B0013441B01034408331960F4
:103E5000BB7B002B0DD17B68002B05D0FB7BB968A9
:103E60001846FFF7F5FE04E0FB7BB9681846FFF73C
:103E7000B3FE00BF1037BD4680BD00BF00A00040AC
:103E800080B500AFFFF714FB0346184680BD000065
:103E900080B500AF012201210320FFF7A7FB0748EF
:103EA000FFF712FBFFF7ECFF01210548FFF746F88B
:103EB00001210448FFF742F800BF80BD80D54302CE
:103EC0004041050000250A0080B485B000AF78604D
:103ED00039607B6803F1C063FB60FB683A681A6075
:103EE00000BF1437BD465DF8047B704780B485B0D1
:103EF00000AF786039607B6803F18063FB60FB682A
:103F00003A681A6000BF1437BD465DF8047B7047FD
:103F100080B582B000AF03463960FB71FB79002B9E
:103F20001CD0FB79012B19D0FB79022B16D0FB7921
:103F3000032B13D0FB79042B10D0FB79052B0DD06C
:103F4000FB79062B0AD0FB79072B07D0FB79082BCE
:103F500004D0FB79092B01D0FB790A2BFA7913469F
:103F60005B0013441B010C3303F1804303F5204332
:103F700001213A6801FA02F211461846FFF7B6FF2E
:103F800000BF0837BD4680BD80B582B000AF034694
:103F90003960FB71FB79002B1CD0FB79012B19D008
:103FA000FB79022B16D0FB79032B13D0FB79042B62
:103FB00010D0FB79052B0DD0FB79062B0AD0FB79AD
:103FC000072B07D0FB79082B04D0FB79092B01D0F4
:103FD000FB790A2BFA7913465B0013441B010C335F
:103FE00003F1804303F5204301213A6801FA02F20C
:103FF00011461846FFF768FF00BF0837BD4680BD71
:1040000080B584B000AF78604FF4FA73BB8100F0E4
:1040100023F80023FB730023BB73FB7B184600F0DF
:1040200039F8BB7B184600F04AF8FB7B83F00103AC
:10403000DBB2002B14BF01230023FB73BB7B83F097
:104040000103DBB2002B14BF01230023BB73BB8928
:104050001846FDF741F8E0E780B500AF01210C48B4
:10406000FEF76CFF00210520FFF72EFE002304223F
:1040700004210520FFF768FE00210520FFF724FE3C
:104080000023042205210520FFF75EFE00BF80BD4E
:1040900000350A0080B582B000AF0346FB71FB79A2
:1040A000002B04D004210520FFF76EFF03E004215C
:1040B0000520FFF72DFF00BF0837BD4680BD80B546
:1040C00082B000AF0346FB71FB79002B04D00521C1
:1040D0000520FFF759FF03E005210520FFF718FF32
:1040E00000BF0837BD4680BD80B400AF044BDB6C19
:1040F0001B0EDBB21846BD465DF8047B704700BF5F
:10410000B081E00F80B582B000AF164B01225A6437
:10411000FFF7EAFF0346FB71FB79002B0CD1124B32
:104120004AF6E8521A60114B1B68104A43F0040328
:1041300013600D4B00221A60FB79012B05D80C4B44
:104140001B680B4A43F4005313600A4B1B6A23F4A9
:104150004413084A43F48813136200BF0837BD466E
:1041600080BD00BF00000E4090310E4098310E40DF
:1041700064310E4000400E4080B582B002AFFFF7C0
:10418000C1FFFFF785FEFFF767FF002301930123BF
:1041900000930023642203490348FCF760FEFCF708
:1041A000D1FFFEE7D44200000140000080B483B09C
:1041B00000AF4FF0A00383F31188BFF36F8FBFF3FD
:1041C0004F8F7B60FEE780B485B000AF78603960C8
:1041D0004FF0A00383F31188BFF36F8FBFF34F8FAE
:1041E000FB60FEE708B5074B044613B10021AFF3AF
:1041F0000080054B1868836A03B198472046FCF796
:10420000D7F800BF00000000DC42000070B50D4E82
:104210000D4CA41BA4100025A54209D10B4E0C4C3B
:1042200000F02CF8A41BA4100025A54205D170BDF8
:1042300056F8253098470135EEE756F8253098476F
:104240000135F2E778000020780000207800002097
:104250007C00002010B5431E0A44914200D110BDDD
:1042600011F8014B03F8014FF7E70244034693426C
:1042700000D1704703F8011BF9E70000F8B500BF53
:10428000F8BC08BC9E467047F8B500BFF8BC08BC37
:104290009E46704749444C4500000000546D722012
:1042A00053766300546D72510000000040787D0128
:1042B00000000000005A620200010000C0CF6A0046
:1042C00002000000809FD50002010000002D310196
:1042D00002020000426C696E6B7900001800002039
:1042E00000000000000000000000000000000000CE
:1042F00000000000000000000000000000000000BE
:1043000000000000000000000000000000000000AD
:10431000000000000000000000000000000000009D
:10432000000000000000000000000000000000008D
:10433000000000000000000000000000000000007D
:044340000000000079
:0843440008BEFF7F010000002C
:10434C00005A620200800000C0EA2101C0EA21018B
:10435C00AAAAAAAAC0EA210100000000004300009A
:10436C0020430000E04200000000000000000000BC
:10437C000000000000000000000000000000000031
:10438C000000000000000000000000000000000021
:10439C000000000000000000000000000000000011
:1043AC000000000000000000000000000000000001
:1043BC000000000000000000310100000D010000B1
:04000003000001C137
:00000001FF
