S01F00006A64616E69656C736B695F46696E616C5F50726F6A6563742E73333738
S21400000000000420D1D40000FDD40000FDD4000080
S214000010FDD40000FDD40000FDD40000FDD4000097
S214000020FDD40000FDD40000FDD40000119B0000AC
S214000030FDD40000FCD40000219D0000899D000036
S214000040FDD40000FDD40000FDD40000FDD4000067
S214000050FDD40000FDD40000FDD40000FDD4000057
S214000060FDD40000FDD400000340000055C600008B
S214000070FDD40000FDD40000FDD40000FDD4000037
S214000080FDD40000FDD4000013400000FDD40000A5
S214000090FDD40000FDD40000FDD40000FDD4000017
S2140000A0FDD40000FDD40000FDD40000FDD4000007
S2140000B0FDD40000FDD40000FDD40000FDD40000F7
S2140000C0FDD40000FDD40000FDD40000FDD40000E7
S2140000D0FDD40000FDD40000FDD40000FDD40000D7
S2140000E0FDD40000FDD40000FDD40000FDD40000C7
S2140000F0FDD40000FDD40000FDD40000FDD40000B7
S214000100FDD40000FDD40000FDD4000010B5054C61
S214000110237833B9044B13B10448AFF300800123AE
S214000120237010BD4C03002000000000382501009D
S21400013008B5034B1BB103490348AFF3008008BD65
S214000140000000005003002038250100154B002B4E
S21400015008BF134B9D46A3F5803A00218B460F46F9
S2140001601348144A121A10F0ABFD0F4B002B00D0A8
S21400017098470E4B002B00D0984700200021040023
S2140001800D000D48002802D00C48AFF3008010F098
S21400019041FD2000290002F003FC10F027FD00BFFF
S2140001A0000008000000042000000000000000001E
S2140001B04C030020B886002000000000000000006D
S2140001C080B500AF05F0A6FB0346184680BD0000CC
S2140001D080B500AF01220121032005F039FC074855
S2140001E005F0A4FBFFF7ECFF0121054804F072FDC3
S2140001F00121044804F06EFD00BF80BD80D5430297
S2140002004041050000250A0080B582B000AF786046
S2140002107B6800221A757B681B49184610F09BFD08
S2140002207B6800225A757B6800229A757B680022DC
S21400023083F820207B68002283F820207B684FF01C
S2140002407E525A627B68114A9A627B68104A5A64E8
S2140002507B680A229A877B681222DA877B680A22E2
S214000260A3F840207B680B4A9A647B680222A3F8B6
S21400027042207B68084ADA627B684FF000029A6583
S21400028000BF0837BD4680BD6C1601004260653C65
S21400029000A0CD44000ECE471F856B3EB0B584B09F
S2140002A000AF78600B46FB707B68FA781A75FB78AF
S2140002B0032B47D801A252F823F000BFCD0200005E
S2140002C0EB02000009030000270300007B682449B6
S2140002D0184610F040FD7B68224A03F13C041546A0
S2140002E00FCD0FC42B68236036E07B681E49184686
S2140002F010F031FD7B681D4A03F13C0415460FCD16
S2140003000FC42B68236027E07B681949184610F055
S21400031022FD7B68174A03F13C0415460FCD0FC437
S2140003202B68236018E07B681349184610F013FD0D
S2140003307B68124A03F13C0415460FCD0FC42B68A8
S214000340236009E04FF0A00383F31188BFF36F8F9B
S214000350BFF34F8FFB60FEE700BF1037BD46B0BD52
S2140003606C16010000000020741601001400002026
S2140003707C16010028000020881601003C000020A2
S21400038080B483B000AF78607B684FF000029A605C
S2140003907B6800221A6000BF0C37BD465DF8047B00
S2140003A0704780B483B000AF78607B6802221A7012
S2140003B07B6800225A707B684FF000025A6000BFCC
S2140003C00C37BD465DF8047B704780B483B000AF41
S2140003D078607B6800221A707B6800225A707B68FF
S2140003E000229A7000BF0C37BD465DF8047B70474C
S2140003F090B587B002AF78603223BB810223FB73CF
S214000400734B0093002301224FF4C87171480BF020
S214000410B3FD0246704B1A606F4B1C680AF02AFF49
S21400042003461A460A2300930023012120460BF0B8
S214000430F3FD0CF0CDF900F0FFF803461A46674BC3
S2140004401A70674B1B78052B00F2BD8001A252F88C
S21400045023F000BFC70500006D040000C7050000BC
S214000460B304000095050000C70500005B4B1A7832
S2140004705C4B1B789A421AD0584B1A78594B1A7014
S214000480564B1B78012B02D0042B08D010E0564B9D
S214000490186800230322AD210BF0FCFB08E0524B4A
S2140004A0186800230322DE210BF0F4FB00E000BFF7
S2140004B089E04A4B1B78013B032B1FD801A252F858
S2140004C023F000BFD5040000DF040000E9040000AC
S2140004D0F30400000023FB73F623BB7313E0012331
S2140004E0FB73FB23BB730EE00323FB730A23BB7370
S2140004F009E00423FB730523BB7304E00223FB73AC
S2140005000023BB7300BF394B186800230A22002162
S2140005100AF038F8364AFB7B1370354B93ED017AB8
S21400052097F90E3007EE903AF8EEE77A77EE277AEC
S2140005302F4BC3ED017A2E4BD3ED017A9FED2D7A2A
S214000540F4EEC77AF1EE10FA0ADD294BD3ED017A04
S2140005509FED287A77EEC77A254BC3ED017A11E036
S214000560234BD3ED017AF5EEC07AF1EE10FA09D5F9
S2140005701F4BD3ED017A9FED1F7A77EE877A1C4BDF
S214000580C3ED017A194B186800230022002109F0F8
S2140005902BFE18E0154B186800230A22002109F0EC
S2140005A0F1FF134B02221A70114B00225A70104BA7
S2140005B04FF000025A600D4B1868002300220021FD
S2140005C009F012FE00BFBB8918460AF003FC32E7AA
S2140005D0F90500008C1601006C0300207003002053
S2140005E06803002071030020FC8400208085002022
S2140005F0908500200000B44380B582B000AF7860DC
S2140006000A4B186800236422002109F0BBFF084B40
S2140006101A78084B1A70054B186800230022002130
S21400062009F0E2FD00BF0837BD4680BD7C8500208E
S214000630E20300206803002090B583B000AF4FF0BF
S214000640804004F077F80CF099F80023FB71002343
S214000650BB7119E0BC79BB7918460CF039F8034633
S2140006601A4607F10803234403F8082CBB7907F160
S2140006700802134413F8083C002B02D0FB79013320
S214000680FB71BB790133BB71BB79032BE2D94FF009
S214000690804004F035F8FB79002B02D0FB79012B63
S2140006A001D9002315E00023BB710EE0BB7907F1EA
S2140006B00802134413F8083C002B03D0BB7901331F
S2140006C0DBB206E0BB790133BB71BB79032BEDD9F6
S2140006D0002318460C37BD4690BD0000F0B5AFB0FD
S2140006E020AF7860AC4B1B681B885B089AB2AB4B9C
S2140006F01A800CF0CDF878637B6B002B09D04FF096
S214000700A00383F31188BFF36F8FBFF34F8F3B6255
S214000710FEE7002007F024FD78637B6B002B09D0F2
S2140007204FF0A00383F31188BFF36F8FBFF34F8F93
S214000730FB61FEE7984808F009F878637B6B002BAE
S21400074009D04FF0A00383F31188BFF36F8FBFF378
S2140007504F8FBB61FEE7904B6FF07F425A608E4B27
S21400076000229A608E4B19888E4B0093002300223D
S2140007708D480BF001FC02468C4B1A60884B19889A
S2140007808B4B0093002300228A480BF0F5FB0246B1
S214000790894B1A60894B1988894B009300230022E5
S2140007A088480BF0E9FB0246874B1A60874B1868AF
S2140007B000230A22002109F0E5FE854B1A78854BB6
S2140007C01A70824B186800230022002109F00CFDE5
S2140007D0804B1B78052B00F2D58301A252F823F03C
S2140007E0F90700002F0800006B0B00002D0C00001E
S2140007F0D10D0000DB0E000000F04EFC07F000FFFD
S2140008006A4B1B6818460BF0D3FE0346002B40F0DD
S214000810B283664B1C680AF02DFD03461A460A236F
S21400082000930023012120460BF0F6FBA3E35F4B69
S2140008301B6818460BF0BCFE0346012B08D15B4B29
S21400084018680A2300930023002203210BF0E4FB20
S214000850614B1B7883F00103DBB2002B28D05F4B83
S214000860186800230A22002109F08CFE5C4B1B78D6
S2140008705C4C14935C4A13AB1188927819809A707A
S214000880684604F110034C22194610F00EFA94E85C
S2140008900F0000F0CFFE514B186800230022002105
S2140008A009F0A2FC07F0ACFE4B4B01221A7069E37C
S2140008B007F114024FF6FF734FF0FF314FF0FF3091
S2140008C00BF084F97B69AD2B00F01F81AD2B06D8A9
S2140008D0552B00F0C080AA2B00F0928052E3DE2B4E
S2140008E000F0E480414A934200D04BE33B4B18684B
S2140008F000230A22002109F045FE3A4C3C4B139394
S214000900684604F110034C22194610F0CEF994E81C
S2140009100F0001F023FB374B186800230A22002142
S21400092009F030FE344B304A1188927819809A705C
S2140009302D4B1B781946314803F00AFC2F4BDB6918
S2140009401B68284A93612D4BDB695B68254AD36197
S214000950224B186800230022002109F045FC254B95
S214000960186800230022002109F03EFC174B186887
S21400097000230A22002109F005FE154B02221A70F8
S214000980124B186800230022002109F02DFC124BA0
S21400099000221A70E8E000BF74030020BC030020A9
S2140009A050000020011000009C160100A00300204B
S2140009B049100000AC160100A403002052000020DD
S2140009C071100000BC160100A80300207C850020E2
S2140009D0E2030020BE030020BF030020788500202D
S2140009E05400002004850020BC850020F0DEBC0AF0
S2140009F0AC03002064850020C00300209C850020F6
S214000A009E4800F09BFE9E4B186800230A22002199
S214000A1009F0B8FD994B1B789A4C14939A4A13AB7D
S214000A201268114619800233120C1A70684604F1D7
S214000A3010034C22194610F038F994E80F0000F025
S214000A40F9FD8F4B186800230022002109F0CCFB2B
S214000A5007F0D6FD88E0894800F09CFE884B1868B1
S214000A6000230A22002109F08DFD844B1B78854C5B
S214000A701493854A13AB1268114619800233120C80
S214000A801A70684604F110034C22194610F00DF94E
S214000A9094E80F0000F0CEFD794B18680023002282
S214000AA0002109F0A1FB07F0ABFD5DE0744B186870
S214000AB000230A22002109F065FD704B1B78724A5C
S214000AC07049184600F092FE6C4B1B786D4C1493E0
S214000AD06D4A13AB1268114619800233120C1A7055
S214000AE0684604F110034C22194610F0DEF894E82C
S214000AF00F0000F09FFD624B1868002300220021C3
S214000B0009F072FB07F07CFD2EE05D4B18680023B1
S214000B100A22002109F036FD584B1B785A4A5949DB
S214000B20184600F093FE554B1B78564C1493564AC5
S214000B3013AB1268114619800233120C1A706846FD
S214000B4004F110034C22194610F0AFF894E80F0099
S214000B5000F070FD4A4B186800230022002109F0BF
S214000B6043FB07F04DFD00BF0CE2484B1B78013BF2
S214000B70DBB2184600F096FF07F042FD434B1B78A9
S214000B80013BDAB2414B1A70404B1B78002B40F009
S214000B90F4813E4B04221A703D4B186800230A224B
S214000BA0002109F0EFFC3B4B03221A70394B1A78F0
S214000BB0394B1A70364B186800230022002109F0C2
S214000BC013FB364B186800230A22002109F0DAFCD2
S214000BD0334B00229A82334B186800230A220021E6
S214000BE009F0D0FC2E4C6D4604F110030FCB85E8BF
S214000BF00F0094E80F0003F08DFB02462A4B5A6064
S214000C00284B186800230022002109F0EDFA234B38
S214000C10186800230022002109F0E6FA234B1B681F
S214000C2018460AF0C3F90FF087FAA6E107F110029A
S214000C3000234FF0FF314FF0FF300AF0C7FF0346A6
S214000C40012B37D13B691A4A934240F09881104BEA
S214000C50186800230A22002109F094FC0D4B042298
S214000C601A700C4B1A780C4B1A70094B1868002334
S214000C700022002109F0B8FA81E100BF54000020EC
S214000C807885002004850020C00300205500002041
S214000C907C850020E2030020BE030020648500203F
S214000CA09C85002080850020908500208C85002073
S214000CB021436587BB4B186800230A22002109F0F0
S214000CC061FCB94AB94B14460FCB84E80F00B54B0C
S214000CD0186800230022002109F086FAB44B186831
S214000CE000230A22002109F04DFCB24BB24A92E8DA
S214000CF0030083E80300AE4B18680023002200219F
S214000D0009F072FAAD4CAB4A04AB92E8030083E8F4
S214000D100300A54B6D460FCB85E80F0094E80F0047
S214000D2000F018FFA64B186800230A22002109F0DD
S214000D3029FCA44B186800230A22002109F022FC93
S214000D40A14E994B1BAC0FCB84E80F009F4B13AC06
S214000D501D460FCD0FC495E80F0084E80F006846C7
S214000D6006F110034C2219460FF09FFF96E80F007D
S214000D7001F02AF9034687F82730914B18680023BC
S214000D800022002109F030FA8E4B1868002300225A
S214000D90002109F029FA97F82730002B14D08C4B45
S214000DA0186800230A22002109F0ECFB894B042274
S214000DB01A70884B1A78884B1A70854B186800236F
S214000DC00022002109F010FA07F01AFC00BFD9E053
S214000DD00FF0CEF9814B1B78002B05D001F028FAD6
S214000DE07E4B00221A7004E001F0CEF97B4B012204
S214000DF01A7007F005FC7A4B1B6818460BF0D8FBF8
S214000E000346002B0CD1764B1C680AF033FA0346D7
S214000E101A460A2300930023022120460BF0FCF812
S214000E2007F10C0200234FF0FF314FF0FF300AF0BD
S214000E30CDFE0346012B40F0A480FB68694A93422E
S214000E4040F09F80574B186800230522002109F0C8
S214000E5099FB564B5B683B63524B18680023002295
S214000E60002109F0C1F9574B18680023052200211C
S214000E7009F088FB544BD3ED167AFCEEE77A17EEB2
S214000E80903AFB624F4B186800230022002109F0BD
S214000E90ABF90FF07FF903461A46F96A386B0FF084
S214000EA029F9B862B96A50480FF0E4F8484B186858
S214000EB000230A22002109F065FB464B05221A7022
S214000EC0444B1A78444B1A70414B18680023002292
S214000ED0002109F089F900BF53E0434E6D4606F144
S214000EE010040FCC0FC594E8070085E8070096E8C5
S214000EF00F0001F0F1F907F083FB3C4B1B68184626
S214000F000BF056FB0346002B0CD1384B1C680AF03E
S214000F10B1F903461A460A2300930023022120460D
S214000F200BF07AF807F108024FF6FF734FF0FF3127
S214000F304FF0FF300AF04AFEBB682D4A934221D19B
S214000F40234B186800230A22002109F01BFB214BC3
S214000F5000221A701F4B1A781F4B1A701C4B186809
S214000F6000230022002109F03FF9224B1B68184697
S214000F700AF042FF06E000BF04E000BF02E000BF48
S214000F8000E000BF144B1B78022B05D11A4B1B88C0
S214000F90184609F01FFF09E4184B1B88184609F08D
S214000FA019FF03E484850020C40300206885002020
S214000FB080850020D403002090850020AC0300200C
S214000FC06485002078850020048500209C8500200C
S214000FD07C850020E2030020BE030020DC03002006
S214000FE0A403002078563412C0850020A8030020F1
S214000FF0B1CAED0FFC8400205600002058000020E7
S21400100080B582B000AF78600D4B186800230A22C6
S214001010002109F0B7FA0346012B0DD1094B1B78C6
S214001020002B02D1074B01221A70054B18680023CB
S2140010300022002109F0D8F800BF0837BD4680BD61
S2140010407C850020E203002080B582B000AF786087
S214001050054B18680023032204490AF01BFE00BF54
S2140010600837BD4680BD00BFFC8400207856341289
S21400107080B582B000AF7860054B18680023032265
S21400108004490AF007FE00BF0837BD4680BD00BF12
S214001090FC840020B1CAED0FF0B58FB002AF374820
S2140010A007F0E7FB3649354808F0DDFA3B46354A97
S2140010B0302118460FF00CFE3B4618460FF053FE44
S2140010C006462E4B1B681B885B089BB21C462B4BA8
S2140010D093F824301A46294B93F8273013441D46BC
S2140010E03B4618460FF03FFE034603FB05F35B083E
S2140010F0E31A1A4639460023019305230093134644
S21400110032461E4808F048FA3B461F4A3021184629
S2140011100FF0DEFD3B4618460FF025FE0646174B41
S2140011201B681B885B089BB21C46144B93F8243044
S2140011301A46124B93F8273013441D463B46184672
S2140011400FF011FE034603FB05F35B08E31A18468F
S2140011500A4B93F825301A4613465B0013440533B2
S214001160394600220192009303463246034808F0AF
S21400117013FA00BF3437BD46F0BD00BF740300202D
S214001180A81F0100CC160100D816010090B591B03A
S21400119002AF0346FB713549354808F064FA07F19B
S2140011A00803344A302118460FF092FD07F1080371
S2140011B018460FF0D8FD2E4B93F825309B0007F10C
S2140011C008010022019200930A230246284808F0EC
S2140011D0E3F9FB79032B2BD801A252F823F000BFCA
S2140011E0F11100000112000011120000211200008F
S2140011F007F10803204A302118460FF069FD17E072
S21400120007F108031D4A302118460FF061FD0FE074
S21400121007F108031A4A302118460FF059FD07E077
S21400122007F10803174A302118460FF051FD00BF9A
S21400123007F1080318460FF096FD04460C4B1B6892
S2140012401B88A3F133000A4B93F825309B0007F167
S214001250080100220192009303462246044808F043
S2140012609BF900BF3C37BD4690BD00BF781C01000F
S21400127074030020E4160100EC160100F4160100C9
S214001280FC1601000417010090B591B002AF0346AA
S214001290FB713749374808F0E6F907F10803364A84
S2140012A0302118460FF014FD07F1080318460FF01A
S2140012B05AFD304B93F825301A4613469B001344CC
S2140012C007F108010022019200930A2302462948EA
S2140012D008F062F9FB79032B2AD801A252F823F012
S2140012E0F11200000113000011130000211300008A
S2140012F007F10803214A302118460FF0E9FC17E0F1
S21400130007F108031E4A302118460FF0E1FC0FE0F3
S21400131007F108031B4A302118460FF0D9FC07E0F6
S21400132007F10803184A302118460FF0D1FC00BF19
S21400133007F1080318460FF016FD04460D4B1B6810
S2140013401B88A3F133000B4B93F825301A4613463F
S2140013509B00134407F10801002201920093034604
S2140013602246044808F018F900BF3C37BD4690BD39
S214001370781C0100740300201417010020170100D8
S21400138028170100301701003C17010090B591B0F6
S21400139002AF0346FB713249324808F064F907F1A0
S2140013A00803314A302118460FF092FC07F1080373
S2140013B018460FF0D8FC2B4B93F825301A461346E8
S2140013C05B0013445B001A4607F1080100230193F3
S2140013D000920A230246234808F0DEF8FB79012B28
S2140013E00BD0022B11D0002B17D107F108031F4A90
S2140013F0302118460FF06CFC0FE007F108031C4A7A
S214001400302118460FF064FC07E007F10803194A7C
S214001410302118460FF05CFC00BF07F108031846A1
S2140014200FF0A1FC04460F4B1B681B88A3F133008A
S2140014300C4B93F825301A4613465B0013445B00AA
S2140014401A4607F10801002301930092034622463C
S214001450044808F0A1F800BF3C37BD4690BD00BF69
S214001460781C010074030020401701004C1701008F
S214001470541701005C17010090B591B002AF034607
S214001480FB713049304808F0EEF807F108032F4AA0
S214001490302118460FF01CFC07F1080318460FF021
S2140014A062FC294B93F825301A461346DB009B1A3C
S2140014B007F108010022019200930A2302462248FF
S2140014C008F06AF8FB79012B0BD0022B11D0002B09
S2140014D017D107F108031E4A302118460FF0F8FB13
S2140014E00FE007F108031B4A302118460FF0F0FB07
S2140014F007E007F10803184A302118460FF0E8FB0A
S21400150000BF07F1080318460FF02DFC04460E4BEB
S2140015101B681B88A3F133000B4B93F825301A4643
S2140015201346DB009B1A07F1080100220192009384
S21400153003462246044808F02FF800BF3C37BD4655
S21400154090BD00BF781C01007403002064170100E2
S21400155070170100781701005C17010090B591B074
S21400156002AF0346FB712D492D4808F07CF807F1C1
S21400157008032C4A302118460FF0AAFB07F108038F
S21400158018460FF0F0FB264B93F82530DB0007F1EA
S21400159008010022019200930A230246204807F021
S2140015A0FBFFFB79012B0BD0022B11D0002B17D1A0
S2140015B007F108031C4A302118460FF089FB0FE09C
S2140015C007F10803194A302118460FF081FB07E09F
S2140015D007F10803164A302118460FF079FB00BFC2
S2140015E007F1080318460FF0BEFB04460C4B1B68B9
S2140015F01B88A3F133000A4B93F82530DB0007F174
S214001600080100220192009303462246044807F090
S214001610C3FF00BF3C37BD4690BD00BF781C01002D
S214001620740300208017010088170100901701003E
S2140016309817010084B0F0B58FB002AF07F14804E8
S21400164084E80F003A4807F014F93A49384808F099
S2140016500AF83B46384A302118460FF039FB3B461D
S21400166018460FF080FB0646314B1B681B885B084C
S2140016709BB21C462E4B93F824301A462C4B93F8FC
S214001680273013441D463B4618460FF06CFB0346B6
S21400169003FB05F35B08E31A1A4639460023019359
S2140016A00523009313463246214807F075FF204B6A
S2140016B093F825305A001E4B1B681B8819461C4B96
S2140016C093F825305B0000930B464FF0FF31184827
S2140016D007F079FC97F8A830154A92F8252002FB07
S2140016E003F3DA1C02230321114807F0BCF997F82C
S2140016F0A4301846FFF74AFD97F85C301846FFF707
S214001700C3FD97F868301846FFF740FE97F85D303F
S2140017101846FFF7B1FE97F85E301846FFF71EFF33
S21400172000BF3437BD46BDE8F04004B0704700BF88
S21400173074030020A81F0100A017010080B483B026
S21400174000AF78607B681B78043B032B1AD801A295
S21400175052F823F0651700006D170000751700009B
S2140017607D1700007B6805221A700CE07B68062255
S2140017701A7008E07B6807221A7004E07B6808226B
S2140017801A7000E000BF00BF0C37BD465DF8047B52
S214001790704700BF80B483B000AF78607B681B786A
S2140017A0053B032B1AD801A252F823F0BD17000000
S2140017B0C5170000CD170000D51700007B6804226F
S2140017C01A700CE07B6805221A7008E07B68062217
S2140017D01A7004E07B6807221A7000E000BF00BFA2
S2140017E00C37BD465DF8047B704700BF80B584B0FB
S2140017F000AF0346B9607A60FB73FB7B043B042BA7
S21400180020D801A252F823F01D1800002518000069
S2140018102D180000351800003D180000786800F00C
S21400182045F80FE0B86800F06DF80BE0B86800F017
S214001830A9F807E0B86800F0DDF803E0B86800F043
S21400184005F900BF00BF1037BD4680BD80B584B027
S21400185000AF0346B9607A60FB73FB7B043B042B46
S21400186020D801A252F823F07D1800008518000049
S2140018708D180000951800009D180000786800F08C
S2140018802BF80FE0B86800F05DF80BE0B86800F0E1
S21400189095F807E0B86800F0C3F803E0B86800F011
S2140018A0EBF800BF00BF1037BD4680BD80B483B0E4
S2140018B000AF78607B681B78032B06D07B681B78AC
S2140018C00133DAB27B681A7000E000BF00BF0C3745
S2140018D0BD465DF8047B704780B483B000AF786087
S2140018E07B681B78002B06D07B681B78013BDAB23E
S2140018F07B681A7000E000BF00BF0C37BD465DF87D
S214001900047B704780B582B000AF78607B681B7D33
S214001910012B09D0022B0CD0002B00D00EE00121A9
S2140019207868FEF7BBFC09E002217868FEF7B6FC93
S21400193004E003217868FEF7B1FC00BF00BF08375B
S214001940BD4680BD80B582B000AF78607B681B7DE9
S214001950022B09D0032B0CD0012B00D00EE0002167
S2140019607868FEF79BFC09E001217868FEF796FC94
S21400197004E002217868FEF791FC00BF00BF08373C
S214001980BD4680BD80B483B000AF78607B6893F8B6
S2140019902030002B02D0012B05D009E07B68012205
S2140019A083F8202004E07B68022283F8202000BF12
S2140019B000BF0C37BD465DF8047B704780B483B02B
S2140019C000AF78607B6893F82030012B02D0022BA2
S2140019D005D009E07B68002283F8202004E07B68BD
S2140019E0012283F8202000BF00BF0C37BD465DF8FB
S2140019F0047B704780B483B000AF78607B685B7D03
S214001A00022B06D07B685B7D0133DAB27B685A75A1
S214001A1000E000BF00BF0C37BD465DF8047B704792
S214001A2080B483B000AF78607B685B7D002B06D007
S214001A307B685B7D013BDAB27B685A7500E000BFCD
S214001A4000BF0C37BD465DF8047B704780B483B09A
S214001A5000AF78607B689B7D022B06D07B689B7D01
S214001A600133DAB27B689A7500E000BF00BF0C371E
S214001A70BD465DF8047B704780B483B000AF7860E5
S214001A807B689B7D002B06D07B689B7D013BDAB292
S214001A907B689A7500E000BF00BF0C37BD465DF856
S214001AA0047B7047B0B592B002AF0346FB71FB797A
S214001AB007F10C010A2218460FF0D0F8234806F06A
S214001AC0D8FE2349214807F0CEFD07F10C0207F1A6
S214001AD01003302118460FF0FBF807F110031846E4
S214001AE00FF041F90546194B1B681B885B089BB233
S214001AF01C4607F1100318460FF035F90246134B43
S214001B0093F824301946114B93F827300B4403FB07
S214001B1002F35B08E31A18460C4B1B685B885B08ED
S214001B209BB21A46094B93F825305B08DBB2D31AF2
S214001B3007F1100100220192009303462A4603484B
S214001B4007F02AFD00BF4037BD46B0BD7403002035
S214001B509821010090B587B002AF3C4684E80F009C
S214001B600B4806F086FE07F120030FCB00F012F8B4
S214001B706A4607F1300393E8030082E803003B4619
S214001B800FCB00F021F900BF1437BD4690BD00BF53
S214001B907403002090B59DB002AF3C4684E80F0069
S214001BA005237B650523BB65844B1B681B885B0888
S214001BB09BB2FB65814B93F825303B66D7ED027AE6
S214001BC0F5EE407AF1EE10FA1AD17C4B1B681B88B2
S214001BD05B089BB20533DA0F13445B107B64052366
S214001BE0BB64764B1B681B885B089BB20533DA0F19
S214001BF013445B10FB64714B93F825303B657AE029
S214001C00D7ED027AF5EEC07AF1EE10FA3DDB6B4BBB
S214001C101B681B885B089BB20533DA0F13445B1006
S214001C207B640523BB64654B1B681B885B089BB203
S214001C300533DA0F13445B1007EE903AB8EEE77AF6
S214001C40D7ED026A5D4B1B681B885B089BB2194682
S214001C505A4B1B681B885B089BB20533DA0F13448C
S214001C605B105B420B4407EE903AF8EEE77A66EEBE
S214001C70A77A77EE277AFDEEE77A17EE903AFB64BE
S214001C804E4B93F825303B6535E04C4B1B681B8864
S214001C905B089BB20533DA0F13445B1007EE903AED
S214001CA0B8EEE77A454B1B681B885B089BB205338A
S214001CB0DA0F13445B10053B07EE903AF8EEE76A3E
S214001CC0D7ED027A66EEA77A77EE277AFDEEE77A08
S214001CD017EE903A7B640523BB64384B1B681B8861
S214001CE05B089BB20533DA0F13445B10FB64334B7F
S214001CF093F825303B6507F1540319462F4807F043
S214001D0079FA07F1440319462C4807F0E9FA2C4AF9
S214001D1007F1100392E803001860043319800233B9
S214001D200A0C1A7007F117032922002118460EF034
S214001D30C7FF3B460FCB00F003FA78667B6E07F1D1
S214001D4040010A2218460EF089FF07F1400207F10B
S214001D501003114618460EF0EFFF1A49174807F011
S214001D6082FC07F1100318460EF0FDFF134B1B68AC
S214001D701B88A3F1380207F1100100230193032307
S214001D800093134602460D4807F006FC0B4B93F8EB
S214001D9025305A00094B1B681B881946074B93F8D9
S214001DA025305B0000930B464FF0FF31034807F0E9
S214001DB00AF900BF6C37BD4690BD00BF7403002013
S214001DC0AC170100781C010090B587B002AF3C4606
S214001DD084E80F0097F82030042B00F2B78001A2A9
S214001DE052F823F0571E0000051E0000F91D0000E3
S214001DF0A91E0000FB1E00003B461946564807F089
S214001E00F9F9A4E03B68991C7A683868FB68009387
S214001E100346514807F0D7F8BB68991C7A68B8683B
S214001E20FB68009303464C4807F0CDF8B968FA689B
S214001E303868FB6800930346474807F0C4F8BB6859
S214001E40991C7A683B68981C7B6800930346424856
S214001E5007F0B9F87BE03B68191D7A683868FB68BC
S214001E60009303463C4807F0AEF8BB68191D7A6835
S214001E70B868FB6800930346374807F0A4F8B968CB
S214001E80FA683868FB6800930346334807F09BF807
S214001E90BB68191D7A683B68181D7B68009303466B
S214001EA02D4807F090F852E03B68991E7A6838682B
S214001EB0FB6800930346284807F085F8BB68991E20
S214001EC07A68B868FB6800930346234807F07BF8F7
S214001ED0B968FA683868FB68009303461E4807F03E
S214001EE072F8BB68991E7A683B68981E7B680093F8
S214001EF00346194807F067F829E03B68191F7A6817
S214001F003868FB6800930346134807F05CF8BB6824
S214001F10191F7A68B868FB68009303460E4807F0F6
S214001F2052F8B968FA683868FB68009303460A48AE
S214001F3007F049F8BB68191F7A683B68181F7B686A
S214001F4000930346044807F03EF800E000BF00BFD9
S214001F501437BD4690BD00BF7403002084B090B413
S214001F6000AF07F1080484E80F00164B1B681B88B7
S214001F705B089BB21A46B7F844305B089BB21A441B
S214001F807B6E9A600F4B1B681B885B089BB21A46D9
S214001F90B7F844305B089BB2D21A7B6E1A60094BC6
S214001FA01B685B889A1E7B6E5A607B6E5B68B7F810
S214001FB046209A1A7B6EDA6000BFBD4690BC04B01D
S214001FC0704700BF7403002084B090B587B002AF9E
S214001FD007F1200484E80F000023FB7325E0D7F800
S214001FE09820B7F890301946FB7B0B44DB0013446F
S214001FF01968D7F89820B7F890301846FB7B03444A
S214002000DB0013445A68FB7B5C0007F110031C449A
S21400201013460A4607F1380103C902F0F3F80346EF
S21400202024F80C3CFB7B0133FB73FB7B042BD6D9DB
S2140020300423FB7376E0FB7B5B0007F1100213447E
S21400204013F80C3C1A463D4B1B681B88013B002BC3
S21400205000DA0733DB105B42D118FB7B5B0007F12D
S2140020601002134413F80B3C1846FB7B013B5B0045
S21400207007F11002134413F80C3C1A462F4B1B684A
S2140020801B88013B002B00DA0733DB105B421A4447
S214002090FB7B013B5B0007F11004234413F80B3C69
S2140020A0009313460246254806F08DFFFB7B5B0037
S2140020B007F11002134413F80C3C1A461F4B1B681A
S2140020C01B88013B002B00DA0733DB10D118FB7BA3
S2140020D05B0007F11002134413F80B3C1846FB7B19
S2140020E0013B5B0007F11002134413F80C3C1A4640
S2140020F0124B1B681B88013B002B00DA0733DB10F2
S2140021001A44FB7B013B5B0007F11004234413F8E1
S2140021100B3C009313460246084806F054FFFB7B30
S214002120013BFB73FB7B002B85D10023184614373D
S214002130BD46BDE8904004B0704700BF7403002061
S21400214090B585B000AF3C4684E80F003B6807EECC
S214002150903AF8EE677A17EE900A0EF0A1F908A307
S214002160D3E900230EF0F4F903460C461846214640
S2140021700EF0C6FC034618461437BD4690BD00BF99
S214002180F7E978CC40E50140F0B58FB002AF254BBB
S2140021906FF07F425A60234B00229A60214806F077
S2140021A068FB21491F4807F05EFA3B461F4A30216C
S2140021B018460EF08DFD3B4618460EF0D4FD06463A
S2140021C0184B1B681B885B089BB21C46154B93F884
S2140021D024301A46134B93F8273013441D463B46CB
S2140021E018460EF0C0FD034603FB05F39B08E31AF2
S2140021F0053318460B4B1B685B885B089BB21A4678
S214002200084B93F825305B00D31A3946002201921A
S214002210009303463246034807F0BEF900BF343742
S214002220BD46F0BD74030020A81F0100DC170100A6
S214002230F0B58FB002AF254B00225A60234B6FF0EB
S2140022407F429A60214806F014FB21491F4807F098
S2140022500AFA3B461F4A302118460EF039FD3B4627
S21400226018460EF080FD0646184B1B681B885B0858
S2140022709BB21C46154B93F824301A46134B93F822
S214002280273013441D463B4618460EF06CFD0346A9
S21400229003FB05F39B08E31A053318460B4B1B6834
S2140022A05B885B089BB21A46084B93F825305B00A8
S2140022B0D31A394600220192009303463246034859
S2140022C007F06AF900BF3437BD46F0BD740300203E
S2140022D0A81F0100DC17010084B0F0B591B002AF72
S2140022E007F1500484E80F00554B6FF07F425A60A8
S2140022F0534B00229A60524806F0BBFA51495048A8
S21400230007F0B1F93B1D504A302118460EF0E0FCAC
S2140023103B1D18460EF027FD0646494B1B681B88DA
S2140023205B089BB21C46464B93F824301A46444B37
S21400233093F8273013441D463B1D18460EF013FD38
S214002340034603FB05F35B08E31A1A46391D002310
S21400235001930523009313463246394807F01CF9CB
S214002360374B93F825305A00354B1B681B881946A7
S214002370334B93F825305B0000930B464FF0FF314C
S2140023802F4806F020FE31492D4807F06CF93B1D1A
S2140023902F4A302118460EF09BFC3B1D18460EF0C7
S2140023A0E2FC274B93F825309B00391D0022019252
S2140023B000930A230246224807F0EEF83B1D254A02
S2140023C0302118460EF084FC3B1D18460EF0CBFC60
S2140023D004461B4B1B681B88A3F13300184B93F86D
S2140023E025309B00391D00220192009303462246A9
S2140023F0134807F0D1F8002387F8373013E097F832
S21400240037300133DAB297F837309B0007F15001C6
S2140024100B445B681946104600F01EF897F83730F4
S214002420013387F8373097F8503097F837209A42BC
S214002430E5D300BF3C37BD46BDE8F04004B070476A
S21400244074030020A81F0100E8170100781C010093
S214002450F4170100FC17010090B595B002AF0346D3
S2140024603960FB71FB7907F114010A2218460EF059
S214002470F5FB07F114032A4918460EF05DFC2949BE
S214002480294807F0F0F807F1140207F11803302185
S21400249018460EF01DFC07F1180318460EF063FCF4
S2140024A0FB790533204A92F8252002FB03F307F157
S2140024B018010022019200930A2302461A4807F0E8
S2140024C06BF83B6807F10C010A2218460EF0C6FBB3
S2140024D007F10C0207F11803302118460EF0F8FB3E
S2140024E007F1180318460EF03EFC04460E4B1B6818
S2140024F01B88A3F13300FB7905330B4A92F825209D
S21400250002FB03F307F11801002201920093034631
S2140025102246054807F040F800BF4C37BD4690BD40
S21400252004180100781C01007403002080B485B0F4
S21400253000AF786039607B6803F1C063FB60FB68BE
S2140025403A681A6000BF1437BD465DF8047B7047D2
S21400255080B485B000AF786039607B6803F1806333
S214002560FB60FB683A681A6000BF1437BD465DF82A
S214002570047B704780B582B000AF03463960FB71BC
S214002580FB79002B1CD0FB79012B19D0FB79022B91
S21400259016D0FB79032B13D0FB79042B10D0FB79D4
S2140025A0052B0DD0FB79062B0AD0FB79072B07D01D
S2140025B0FB79082B04D0FB79092B01D0FB790A2B79
S2140025C0FA7913465B0013441B010C3303F1804376
S2140025D003F5204301213A6801FA02F21146184633
S2140025E0FFF7B6FF00BF0837BD4680BD80B582B096
S2140025F000AF03463960FB71FB79002B1CD0FB79DA
S214002600012B19D0FB79022B16D0FB79032B13D0A4
S214002610FB79042B10D0FB79052B0DD0FB79062B0C
S2140026200AD0FB79072B07D0FB79082B04D0FB795F
S214002630092B01D0FB790A2BFA7913465B00134469
S2140026401B010C3303F1804303F5204301213A6854
S21400265001FA02F211461846FFF768FF00BF083776
S214002660BD4680BD80B584B000AF78604FF4FA7385
S214002670FB816423BB8100F003F9794B18680023C3
S2140026800022002107F07EFF764B1A78764B1A70F0
S214002690734B186800230022002107F0A5FD724B3B
S2140026A01B78052B00F2CD8001A252F823F000BF64
S2140026B0C9260000C92600000F27000031270000A9
S2140026C0B7270000FD270000684B1B78184600F06F
S2140026D0F5F8674B1B78184600F005F9634B1B7836
S2140026E083F00103DBB2002B14BF01230023DAB210
S2140026F05E4B1A705E4B1B7883F00103DBB2002B37
S21400270014BF01230023DAB2594B1A7099E0574BD5
S21400271000221A70564B00221A70544B1B7818462B
S21400272000F0CCF8524B1B78184600F0DCF888E036
S214002730504B5B78002B03D04C4B01221A7013E0F1
S2140027404C4B1B78002B0CD0484B1B7883F00103B6
S214002750DBB2002B14BF01230023DAB2434B1A70FE
S21400276002E0424B00221A70424BDB78002B03D06B
S2140027703F4B01221A7013E03E4B9B78002B0CD087
S2140027803B4B1B7883F00103DBB2002B14BF012305
S2140027900023DAB2364B1A7002E0354B00221A706C
S2140027A0324B1B78184600F089F8314B1B781846D8
S2140027B000F099F845E0304B1B78012B09D02B4BE5
S2140027C000221A702A4B01221A702B4B01221A7013
S2140027D009E0264B01221A70254B00221A70264B60
S2140027E000221A7000BF214B1B78184600F066F8CE
S2140027F01F4B1B78184600F076F822E01F4B1B781C
S214002800012B09D0194B00221A70194B00221A709E
S2140028101A4B01221A7009E0144B01221A70144B4D
S21400282001221A70154B00221A7000BF0F4B1B783E
S214002830184600F043F80E4B1B78184600F053F885
S21400284000BF094B1B78042B04D1BB89184608F03F
S214002850C1FA12E7FB89184608F0BCFA0DE700BF7C
S2140028607C850020E2030020DD030020DE0300203C
S214002870DF03002060850020E0030020E103002045
S21400288080B500AF01210C4802F024FA0021052093
S21400289003F06AFC002304220421052003F0A4FCB4
S2140028A00021052003F060FC0023042205210520FA
S2140028B003F09AFC00BF80BD00350A0080B582B0E8
S2140028C000AF0346FB71FB79002B04D004210520E2
S2140028D0FFF78CFE03E004210520FFF74BFE00BF48
S2140028E00837BD4680BD80B582B000AF0346FB7199
S2140028F0FB79002B04D005210520FFF777FE03E0C7
S21400290005210520FFF736FE00BF0837BD4680BD0F
S21400291080B400AF044BDB6C1B0EDBB21846BD4622
S2140029205DF8047B704700BFB081E00F80B582B0D1
S21400293000AF164B01225A64FFF7EAFF0346FB710D
S214002940FB79002B0CD1124B4AF6E8521A60114B59
S2140029501B68104A43F0040313600D4B00221A60F4
S214002960FB79012B05D80C4B1B680B4A43F400532C
S21400297013600A4B1B6A23F44413084A43F4881373
S214002980136200BF0837BD4680BD00BF00000E4082
S21400299090310E4098310E4064310E4000400E409B
S2140029A080B582B002AFFFF7C1FFFDF711FC01F062
S2140029B039FB3C48FDF728FC3B48FDF7E1FC3B486B
S2140029C0FDF7EFFC3A48FDF700FD3A480DF026FB10
S2140029D00AF06AFD03220021012007F075FB02467B
S2140029E0354B1A60012007F0E7FB0246334B1A60AE
S2140029F0012007F0E1FB0246314B1A60012007F088
S214002A00DBFB02462F4B1A60012007F0D5FB02467F
S214002A102D4B1A60012007F0CFFB02462B4B1A60A5
S214002A20012007F0C9FB0246294B1A60294B019387
S214002A3004230093002364222749284808F077F8E7
S214002A40274B01930123009300234FF4AF722549CF
S214002A50254808F06CF80023019302230093002316
S214002A60C8222249224808F062F800230193022374
S214002A7000930023C8221F491F4808F058F81F4B30
S214002A800193012300930023C8221D491D4808F026
S214002A904EF81A4B1B68184608F0D6F908F0F0FAFC
S214002AA0FEE700BF04850020688500209085002092
S214002AB0BC850020C08500209885002084850020E5
S214002AC0808500207C850020888500207885002071
S214002AD06485002000850020081801006526000097
S214002AE0FC84002010180100DD0600001C18010000
S214002AF0292F000028180100F10300008C85002013
S214002B0034180100412B000080B483B000AF4FF0B2
S214002B10A00383F31188BFF36F8FBFF34F8F7B60E3
S214002B20FEE780B485B000AF786039604FF0A00350
S214002B3083F31188BFF36F8FBFF34F8FFB60FEE701
S214002B40B0B59CB018AF78603223FB81444800F0E3
S214002B509DF8444B186800230A22002107F012FD56
S214002B60414B1A78414B1A703E4B186800230022DE
S214002B70002107F039FB3D4B1B78042B02D1384867
S214002B8000F084F83A4B186800230A22002107F068
S214002B90F9FC384B1B78022B3ED0374B18680023C5
S214002BA00A22002107F0EEFC344B1B6818460DF095
S214002BB055FC4FF000024FF000030DF059FF03469E
S214002BC0002B22D02E4B186800230A22002107F083
S214002BD0D9FC2C4C294B13AD0FCB85E80F0068466B
S214002BE004F110034C2219460EF05FF894E80F002B
S214002BF000F0BAF803461A46234B1A70204B1868A2
S214002C0000230022002107F0EFFA1B4B1868002370
S214002C100022002107F0E8FA154B1868002300226E
S214002C20002107F0E1FA184B1B78012B04D0022B89
S214002C3007D0002B0AD00EE00221094800F03CF82D
S214002C4009E00021064800F037F804E000210448B7
S214002C5000F05EF800BFFB89184608F0BBF878E77E
S214002C60608500207C850020E2030020E40300202D
S214002C7080850020908500208485002068850020BF
S214002C807885002004850020E503002080B483B00A
S214002C9000AF78607B6800221A707B6800225A704A
S214002CA07B6800229A707B680022DA7000BF0C37BF
S214002CB0BD465DF8047B704780B483B000AF786093
S214002CC00B46FB70FB78032B1AD801A252F823F0B0
S214002CD0E12C0000E92C0000F12C0000F92C00008B
S214002CE07B6801221A700CE07B6801229A7008E06B
S214002CF07B6801225A7004E07B680122DA7000E0EB
S214002D0000BF00BF0C37BD465DF8047B704700BFB0
S214002D1080B483B000AF78600B46FB70FB78032B63
S214002D201AD801A252F823F0392D0000412D0000D8
S214002D30492D0000512D00007B6800221A700CE01F
S214002D407B6800229A7008E07B6800225A7004E0D4
S214002D507B680022DA7000E000BF00BF0C37BD467B
S214002D605DF8047B704700BF84B0B0B582B000AF9A
S214002D7007F1180484E80F007B6F18460DF06EFB11
S214002D804FF000024FF080430AF03AFD04460D462D
S214002D90B7F8583018460DF071FB02460B46204631
S214002DA029460DF0FFFC03460C46184621464FF018
S214002DB000022B4B0DF0F6FC03460C461846214647
S214002DC04FF000024FF080430AF01AFD03460C460F
S214002DD0184621460DF0B4FE03467B6078680DF079
S214002DE05FFB03460C46184621460AF0A7FE03463C
S214002DF00C46184621460DF0A3FE03467B60D7ED31
S214002E00147A97ED017AB4EEE77AF1EE10FA01DB68
S214002E10012319E078680DF043FB04460D463B6D30
S214002E2018460DF03DFB0CA3D3E900230DF090FBF4
S214002E3002460B46204629460DF010FE0346002BA0
S214002E4001D0022300E0002318460837BD46BDE83F
S214002E50B04004B0704700BF333333333333EB3FF7
S214002E600000E03F80B485B000AF786039607B68D2
S214002E7003F10473DA003B6813449B00FB60FB68B5
S214002E801B6818461437BD465DF8047B7047000083
S214002E9080B483B000AF7860044A7B68C2F82434FC
S214002EA000BF0C37BD465DF8047B704700A00040AD
S214002EB080B582B000AF03463960FB71FB79002B0A
S214002EC01CD0FB79012B19D0FB79022B16D0FB798D
S214002ED0032B13D0FB79042B10D0FB79052B0DD0D8
S214002EE0FB79062B0AD0FB79072B07D0FB79082B3A
S214002EF004D0FB79092B01D0FB790A2BFA7913460B
S214002F005B0013441B011C3303F1804303F520438D
S214002F1039681846FFF7A6FF034618460837BD4629
S214002F2080BD00000000000090B59DB014AF786032
S214002F303223FB77FB7F4FF47A7202FB03F3B04A2F
S214002F4082FB03129211DB17D31ABB83C8237B8341
S214002F504FF47A733B8300F0D5FF398BA94B00936F
S214002F6000230022A84809F007F80246A74B1A607B
S214002F70A74B0093002300224FF47A71A54808F06F
S214002F80FBFF0246A44B1A60A44B009300230022CA
S214002F904FF49671A24808F0EFFF0246A14B1A6064
S214002FA000F0CEFF03461A469F4B1A7000F0E5FF6E
S214002FB003461A469D4B1A709D4B18680023002244
S214002FC0002107F0DFFA9B4B1A789B4B1A70984B40
S214002FD0186800230022002107F006F9974B1868AE
S214002FE000230022002107F0CDFA954B1A78954B66
S214002FF01A70924B186800230022002107F0F4F89C
S2140030008D4B1B78052B00F2D88201A252F823F0D4
S214003010BB35000029300000BB35000091310000B0
S214003020BB3500000D3500007F4B1A787F4B1B78B0
S2140030301946104600F0BEFF0346032B00F2A6809A
S21400304001A252F823F000BF63310000593000009F
S214003050FF300000313100007B4B01221A706E4BAE
S2140030601B68184609F0A4FA0346002B0CD16A4BDD
S2140030701C6808F0FFF803461A460A23009300234C
S2140030800221204608F0C8FF704B18680023002273
S214003090002107F077FA6E4B186800230022002103
S2140030A007F070FA6B4C684604F110034C22194680
S2140030B00DF0FBFD94E80F0000F0B2FE0246654BF3
S2140030C05A63644C684604F110034C2219460DF00E
S2140030D0ECFD94E80F0000F0CBFE02465D4B9A63D1
S2140030E05B4B186800230022002107F07DF8574B41
S2140030F0186800230022002107F076F847E0464BC8
S2140031001B68184609F054FA0346012B08D1424BB7
S21400311018680A23009300230022032108F07CFF8E
S2140031204D4B186800230322AA2108F0B3FD2EE0B9
S214003130394B1B68184609F03BFA0346012B08D1A9
S214003140354B18680A23009300230022032108F059
S21400315063FF414B186800230322552108F09AFDAF
S21400316015E02D4B1B68184609F022FA0346012B82
S21400317008D1294B18680A23009300230022032154
S21400318008F04AFF304B00221A7000E000BF14E23D
S214003190244B1B68184609F00BFA0346002B0CD18B
S2140031A0204B1C6808F066F803461A460A2300936C
S2140031B000230121204608F02FFF1B4B1A781B4BDB
S2140031C01B781946104600F0F5FE0346022B45D044
S2140031D0032B00F09680012B40F0DF801A4B012273
S2140031E01A700A4B1C6808F045F803461A460A236C
S2140031F0009300230221204608F00EFFD6E000BF11
S214003200D34D6210FD35000040180100E803002091
S2140032105536000050180100EC030020C5360000AB
S21400322060180100F0030020F4030020F5030020DE
S2140032307C850020E2030020F6030020888500201D
S214003240E3030020F7030020F80300207885002021
S2140032508485002004850020FC8400209C4B1B787D
S214003260002B08D09B4B18680A23009300230022EB
S214003270032108F0D1FE984B1B78012B00F09180BB
S214003280964B186800230A22002107F07BF90346B4
S214003290012B40F08880924B9B6818460DF000F991
S2140032A089A3D3E900230CF09DFF03460C4618467D
S2140032B021464FF000028B4B0DF0C6FB0346002B59
S2140032C013D0874B9B6818460DF0EAF87EA3D3E927
S2140032D000230CF087FF03460C46184621460DF0E7
S2140032E02FFC02467E4B9A6003E07D4B4FF07E52E9
S2140032F09A607A4B186800230022002106F074FFBB
S21400330051E0734B1B78002B08D0724B18680A23C9
S214003310009300230022032108F07EFE6F4B1868FE
S21400332000230A22002107F02DF90346012B3CD189
S2140033306B4B9B6818460DF0B3F863A3D3E90023E4
S2140033400CF04EFF03460C46184621464FF000028E
S214003350654B0DF083FB0346002B13D0604B9B6838
S21400336018460DF09DF858A3D3E900230CF038FF5B
S21400337003460C46184621460DF0E2FB0246584B23
S2140033809A6002E0564B594A9A60544B18680023DC
S2140033900022002106F028FF07E04D4B00221A709D
S2140033A004E000BF02E000BF00E000BF4B4B18681F
S2140033B000230A22002107F0E5F8494B1B687B61D1
S2140033C0464B186800230022002106F00DFF484BEC
S2140033D0186800230A22002107F0D4F8454B186825
S2140033E000230A22002107F0CDF8434B434A0092FF
S2140033F00CCB7969424800F07DFA3D4B18680023F3
S2140034000022002106F0F0FE3E4B186800230A2238
S214003410002107F0B7F83C4BDA693B4B9B8ADB0090
S214003420134493ED007A384BDA69374B9B8A0133A5
S214003430DB001344D3ED007A77EE677AC7ED047AA3
S214003440314BDA69304B9B8ADB00134493ED017AEB
S2140034502D4BDA692C4B9B8A0133DB001344D3EDEA
S214003460017A77EE677AC7ED037A97ED047AD7ED9F
S214003470047A27EE277AD7ED036AD7ED037A66EE4D
S214003480A77A77EE277A17EE900A0DF009F803462A
S2140034900C46184621460AF051FB03460C461846D1
S2140034A021460DF04DFB0346BB60124B1868002307
S2140034B00022002106F098FE124B18680023002216
S2140034C0002106F091FE78E09A9999999999A93F7A
S2140034D0F8030020E8030020F7030020848500207E
S2140034E0688500200000F03F0000F0BF000080BFAD
S2140034F0808500207885002090850020CDCC4C3D2E
S21400350004850020648500209C850020324B1868C6
S21400351000230A22002107F035F8304B4FF0000256
S2140035209A602E4B00221A732C4B00225A602B4BAB
S21400353000221A60284B186800230022002106F09B
S21400354053FE274B186800230A22002107F01AF8BA
S214003550244B4FF000029A65214B18680023002286
S214003560002106F041FE204B1A78204B1B781946A6
S214003570104600F01FFD0346012B18D11C4B0122FC
S2140035801A701C4B1B68184609F012F80346002BED
S21400359011D1184B1C6807F06DFE03461A460A2325
S2140035A0009300230221204608F036FD03E0104B6E
S2140035B000221A7000E000BF00BF0F4B1B78012BE3
S2140035C004D17B8B184607F005FCE9E4BB8B184654
S2140035D007F000FCE4E400BF848500206885002036
S2140035E07885002004850020F4030020F5030020E1
S2140035F0F8030020EC030020F603002080B582B01C
S21400360000AF7860114B186800230A22002106F0EC
S214003610B9FF0346012B15D10D4B1B78012B03D1A7
S2140036200B4B00221A7006E0094B1B78002B02D1C8
S214003630074B01221A70054B186800230022002150
S21400364006F0D2FD00BF0837BD4680BD8885002045
S214003650E303002080B584B000AF7860144B186890
S21400366000230022002106F08DFF124B1B78FB730F
S2140036700F4B186800230022002106F0B5FDFB7BE7
S214003680012B07D10C4B1868002303220B4908F0C6
S21400369001FB09E0FB7B052B06D1074B18680023CE
S2140036A00322074908F0F6FA00BF1037BD4680BD72
S2140036B07C850020E2030020FC840020F0DEBC0AAB
S2140036C0B1CAED0FB0B59AB018AF7860254B186840
S2140036D000230A22002106F055FF234B186800231A
S2140036E00A22002106F04EFF204B214A0192DA689A
S2140036F000920ECB1F4800F0E3FB1E4C1B4B13AD95
S2140037000FCB85E80F00684604F110034C221946DB
S2140037100DF0CBFA94E80F0000F02EF807EE900AB2
S214003720FCEEE77A17EE902A104B1A600F4B1A68D9
S2140037300E4B5B689A4203D90C4B1B680B4A5360CE
S214003740084B186800230022002106F04DFD064BAA
S214003750186800230022002106F046FD00BF083747
S214003760BD46B0BD78850020848500206885002091
S2140037709A99993E0485002084B02DE9F0439FB0C5
S21400378018AF07F1380686E80F0097ED277AD7EDD1
S214003790207A67EE277AC7ED037A13AE07F1940313
S2140037A00FCB86E80F00684607F148034C221946FF
S2140037B00DF07BFA07F138030FCB00F0D9FA034679
S2140037C0BB66BB6E7B61D7F89430002B08D0D7ED74
S2140037D01C7A97ED057A77EE277AC7ED057A07E02B
S2140037E0D7ED1B7A97ED057A77EE277AC7ED057A3F
S2140037F0D7F8943007EE903AF8EE677A97ED057AA8
S21400380067EE277AC7ED057A394BBB604FF00003A9
S2140038103B6197ED037AD7ED057A37EE677AD7EDF9
S2140038201F7A77EEA76AD7ED027A66EEA77AC7EE1A
S214003830276A16EE900A0CF033FE02460B46C7E9DE
S21400384000234FF000024FF00003D7E900010DF00F
S2140038500FF90346002B14D0D7E900010AF06EF9E1
S21400386003460C46184621460DF06AF903463B61AE
S21400387097ED047AD7ED027A67EE277AC7ED047AD9
S21400388022E0D7ED027AF1EE677A17EE903A184604
S2140038900CF006FE804689463C687B6883F000454F
S2140038A0204629460AF04AF903460C461A4623469D
S2140038B0404649460CF04CFE03460C461846214648
S2140038C00DF03EF903463B61D7F8943007EE903A88
S2140038D0F8EE677A97ED047A77EE277AC7ED047AE2
S2140038E03B6918461C37BD46BDE8F04304B0704738
S2140038F09A99993EB0B58CB000AFF860B960394679
S21400390081E80C00D54BFB614FF00003FB624FF0E3
S2140039100003BB627B687B62D7ED097A9FEDD07AA5
S214003920F4EEC77AF1EE10FA08D8D7ED097AF5EE7C
S214003930C07AF1EE10FA01DB012300E00023002B31
S21400394009D14FF0A00383F31188BFF36F8FBFF345
S2140039504F8FBB61FEE7002387F82330D7ED017A4F
S214003960F5EEC07AF1EE10FA08DBD7ED017A9FED9E
S214003970BD7AF4EEC77AF1EE10FA08D9D7ED017ADF
S2140039809FEDB77AF4EE477AF1EE10FA03D10123F1
S21400399087F8233058E0D7ED017A9FEDB27AF4EE3F
S2140039A0C77AF1EE10FA14DDD7ED017A9FEDAE7A04
S2140039B0F4EEC77AF1EE10FA0BD8022387F823301C
S2140039C0D7ED097A9FEDA77A77EEC77AC7ED097A21
S2140039D03AE0D7ED017A9FEDA47AF4EEC77AF1EEDD
S2140039E010FA14DDD7ED017A9FEDA07AF4EEC77ACF
S2140039F0F1EE10FA0BD8032387F82330D7ED097AB7
S214003A009FED997A77EEC77AC7ED097A1CE0D7ED75
S214003A10017A9FED967AF4EEC77AF1EE10FA13DD8E
S214003A20D7ED017A9FED8E7AF4EEC77AF1EE10FAB2
S214003A300AD5042387F82330D7ED097A9FED8B7AD1
S214003A4077EEC77AC7ED097A97ED097AD7ED077A48
S214003A5027EE277ADFED846AC7EE267AC7ED097A65
S214003A6097F82330013B032B00F24F8101A252F856
S214003A7023F000BF853A0000213B0000BF3B00005A
S214003A80713C0000BB685B4207EE903AB8EE677A7E
S214003A90D7ED107A67EE277A17EE900A0CF000FD45
S214003AA004460D46786A0CF0FBFC02460B461046B0
S214003AB0194609F00FFE02460B46204629460CF032
S214003AC047FD03460C46184621460DF039F80346D6
S214003AD0FB62BB6807EE903AB8EE677AD7ED107ACD
S214003AE067EE277A17EE900A0CF0DAFC04460D46CD
S214003AF0786A0CF0D5FC02460B461046194609F0CB
S214003B00A1FD02460B46204629460CF021FD034641
S214003B100C46184621460DF013F80346BB62FEE03D
S214003B20BB685B4207EE903AB8EE677AD7ED107A3C
S214003B3067EE277A17EE900A0CF0B2FC04460D46A4
S214003B40786A0CF0ADFC02460B461046194609F0A2
S214003B50C1FD02460B46204629460CF0F9FC0346FA
S214003B600C46184621460CF0EBFF0346FB62BB688A
S214003B705B4207EE903AB8EE677AD7ED107A67EEBA
S214003B80277A17EE900A0CF08BFC04460D46786AEE
S214003B900CF086FC02460B461046194609F052FD0C
S214003BA002460B46204629460CF0D2FC03460C463D
S214003BB0184621460CF0C4FF0346BB62AFE0BB6864
S214003BC007EE903AB8EE677AD7ED107A67EE277A66
S214003BD017EE900A0CF064FC04460D46786A0CF06A
S214003BE05FFC02460B461046194609F073FD024676
S214003BF00B46204629460CF0ABFC03460C461846FE
S214003C0021460CF09DFF0346FB62BB685B4207EE55
S214003C10903AB8EE677AD7ED107A67EE277A17EE05
S214003C20900A0CF03DFC04460D46786A0CF038FC11
S214003C3002460B461046194609F004FD02460B469E
S214003C40204629460CF084FC03460C4618462146BE
S214003C500CF076FF0346BB6261E000BFC3F5484048
S214003C600000B4430000B442000034430000874321
S214003C70BB6807EE903AB8EE677AD7ED107A67EE33
S214003C80277A17EE900A0CF00BFC04460D46786A6D
S214003C900CF006FC02460B461046194609F01AFDC3
S214003CA002460B46204629460CF052FC03460C46BC
S214003CB0184621460CF044FF0346FB62BB6807EE3D
S214003CC0903AB8EE677AD7ED107A67EE277A17EE55
S214003CD0900A0CF0E5FB04460D46786A0CF0E0FB13
S214003CE002460B461046194609F0ACFC02460B4647
S214003CF0204629460CF02CFC03460C461846214666
S214003D000CF01EFF0346BB6209E04FF0A00383F3EE
S214003D101188BFF36F8FBFF34F8F7B61FEE7FB68A1
S214003D2093ED067AD7ED0B7A77EE277AFB68C3ED2C
S214003D30067AFB6893ED077AD7ED0A7A77EE277A4C
S214003D40FB68C3ED077AFB6893ED167ABB6807EE4F
S214003D50903AF8EE676AD7ED107A66EEA77A77EEB5
S214003D60277AFB68C3ED167A00BF3037BD46B0BD74
S214003D7084B0B0B582B000AF07F1180484E80F0035
S214003D80B7F85A3007EE903AB8EEE77AD7ED117AE0
S214003D9067EE277AC7ED017A7B6F18460CF05EFB5C
S214003DA04FF000024FF0804309F02AFD04460D460E
S214003DB078680CF075FB02460B46204629460CF048
S214003DC011FA03460C46184621460CF0B9FE034687
S214003DD07B6078680CF064FB4FF033320E4B0CF0CF
S214003DE0B7FB03460C46184621464FF000024FF03C
S214003DF080430CF0D7FC03460C46184621460CF0D0
S214003E009FFE03467B607B6818460837BD46BDE8C4
S214003E10B04004B0704700BF3333F33F00000000EB
S214003E2084B098B500AF07F1100484E80F0097ED52
S214003E300D7AD7ED157A67EE277A17EE900A0CF012
S214003E402FFB09A3D3E900230CF082FB03460C46A4
S214003E50184621460CF074FE03461846BD46BDE8DB
S214003E60984004B0704700BF1F85EB51B89E2340B2
S214003E7084B098B500AF07F1100484E80F0097ED02
S214003E800E7AD7ED157A67EE277A17EE900A0CF0C1
S214003E9007FB09A3D3E900230CF05AFB03460C46A4
S214003EA0184621460CF04CFE03461846BD46BDE8B3
S214003EB0984004B0704700BF1F85EB51B89E234062
S214003EC084B080B483B000AF786007F1140080E857
S214003ED00E007B6893ED167A7B6907EE903AF8EE53
S214003EE0676AD7ED097A66EEA77A77EE277A7B6857
S214003EF0C3ED167A00BF0C37BD465DF8047B04B0F0
S214003F007047000080B500AF01210C4800F0E2FECB
S214003F100021052002F028F90023012206210520B1
S214003F2002F062F90021052002F01EF900230122AA
S214003F300721052002F058F900BF80BD00350A00B1
S214003F4080B582B000AF06210520FEF7B1FF03461C
S214003F50002B0CBF01230023DBB27B607B68002BA9
S214003F6001D1002305E07B68002B01D0012300E08F
S214003F70012318460837BD4680BD80B582B000AF25
S214003F8007210520FEF794FF0346002B0CBF0123F4
S214003F900023DBB27B607B68002B01D1002305E0A9
S214003FA07B68002B01D0012300E001231846083768
S214003FB0BD4680BD80B483B000AF03460A46FB71A1
S214003FC01346BB71FB79012B04D1BB79012B01D1C0
S214003FD0012310E0FB79012B04D1BB79002B01D122
S214003FE0022308E0FB79002B04D1BB79012B01D119
S214003FF0032300E0002318460C37BD465DF8047B1B
S214004000704780B500AF45F25550FEF741FF00BF40
S21400401080BD80B500AF4AF6AA20FEF739FF00BF84
S21400402080BD000080B500AF3D493E480CF093FED1
S2140040303C4B4B22DA823B4BDB8A1A4613469B00EC
S21400404013445B001A46374B9A61364B00229A821D
S214004050344B354ADA61354935480CF07CFE344B32
S2140040603222DA82324BDB8A1A4613469B0013440E
S2140040705B001A462E4B9A612D4B00229A824FF413
S214004080167005F013FB0246294BDA614FF41672E0
S214004090254928480CF009FE274928480CF05BFE05
S2140040A0264B3222DA82254BDB8A1A4613469B00C1
S2140040B013445B001A46214B9A61204B00229A82D9
S2140040C04FF4167005F0F2FA02461C4BDA614FF414
S2140040D0167215491A480CF0E8FD1A491A480CF0F1
S2140040E03AFE194B3222DA82174BDB8A1A461346FF
S2140040F09B0013445B001A46134B9A61124B002236
S2140041009A824FF4167005F0D1FA02460E4BDA6129
S2140041104FF4167204490D480CF0C7FD00BF80BD71
S21400412074180100FC0300205C00002080180100C9
S2140041301C04002038040020901801003C040020D5
S21400414058040020981801005C0400207804002021
S214004150B0B582B000AF78600B46FB70FB78032BDF
S2140041603ED801A252F823F0794100009F4100009A
S214004170B5410000CB4100007B68214A1C4615462D
S2140041800FCD0FC495E80F0084E80F007B68D86950
S2140041901B4BDB69042219460CF087FD2BE07B687D
S2140041A0174A1C4615460FCD0FC495E80F0084E845
S2140041B00F0020E07B68124A1C4615460FCD0FC440
S2140041C095E80F0084E80F0015E07B680C4A1C4653
S2140041D015460FCD0FC495E80F0084E80F000AE0DF
S2140041E07B68074A1C4615460FCD0FC495E80F009E
S2140041F084E80F0000BF00BF0837BD46B0BD00BF53
S214004200FC03002090B58FB000AF07F1100484E8DF
S2140042100300FA60BB60D7ED047A97ED037A77EE79
S214004220677AC7ED097AD7ED057A97ED027A77EEC9
S214004230677AC7ED0A7A97ED097ADFED336AC7EE3B
S214004240267AC7ED077A97ED0A7ADFED2F6AC7EE72
S214004250267AC7ED087AFB6918460CF021F94FF06C
S21400426000022A4B0BF0BEFF03460C4618462146BA
S2140042704FF00002264B0CF06BF903460C4618462E
S21400428021460CF05DFC03467B633B6A18460CF047
S21400429007F903460C461A4623464FF000001B4912
S2140042A00BF09EFF03460C46184621464FF00002D0
S2140042B0174B0CF04DF903460C46184621460CF0F9
S2140042C03FFC03463B63D7ED0D7AFCEEE77AC7ED7D
S2140042D0017A3B79DBB23B76D7ED0C7AFCEEE77AD7
S2140042E0C7ED017A3B79DBB27B763B8BBB8500233F
S2140042F097F82C2062F3070397F82D2062F30F231C
S21400430018463C37BD4690BD000020420000E03F06
S2140043100000604084B090B58FB000AF07F148044D
S21400432084E80F00874B3B637B6E1B683B617B6EAC
S2140043305B687B617B6E08331B68BB607B6E0833F3
S2140043405B68FB607B6E1B683B60D7ED057AB2EE60
S214004350047A77EE877AC7ED017AB868F9683A6822
S2140043607B6800F0F7F807EE900AFCEEE77A17EEA7
S214004370903AFB62386979693A687B6800F0EAF837
S21400438007EE900AFCEEE77A17EE903ABB623869C1
S21400439079693A687B6800F0DDF807EE900AFCEE73
S2140043A0E77A17EE903A7B62F86A0CF057F8034605
S2140043B00C461846214609F0C1FB03460C46184633
S2140043C021460CF0BDFB03463B62B86A0CF046F88B
S2140043D003460C461846214609F0B0FB03460C4639
S2140043E0184621460CF0ACFB0346FB61786A0CF0DD
S2140043F035F803460C461846214609F09FFB03464F
S2140044000C46184621460CF09BFB0346BB61BA6A75
S2140044107B6A1A44FB6AD31A07EE903AB8EE677ABC
S214004420D7ED077A77EEA76AD7ED067A66EEA77A13
S214004430C7EE276A16EE900A0CF032F803460C46D2
S2140044401846214609F08AF903460C4618462146C6
S2140044500CF076FB03467B63D7ED0D7A9FED3A7A38
S21400446067EE876A97ED0C7AC6EE877AC7ED0D7A07
S2140044707B6E083393ED007A7B6ED3ED007AB4EE54
S214004480E77AF1EE10FA14DD7B6E083393ED017ACD
S2140044907B6ED3ED017AB4EEE77AF1EE10FA08DD22
S2140044A0D7ED0D7A9FED297A77EE877AC7ED0D7AEC
S2140044B040E07B6E083393ED007A7B6ED3ED007A96
S2140044C0B4EEE77AF1EE10FA14DD7B6E083393ED66
S2140044D0017A7B6ED3ED017AB4EEE77AF1EE10FA4C
S2140044E008D5D7ED0D7A9FED187A77EE877AC7ED67
S2140044F00D7A1FE07B6E083393ED007A7B6ED3ED6A
S214004500007AB4EEE77AF1EE10FA13D57B6E083334
S21400451093ED017A7B6ED3ED017AB4EEE77AF1EE95
S21400452010FA07D5D7ED0D7A9FED097A77EE877AE0
S214004530C7ED0D7A7B6B18463C37BD46BDE890400C
S21400454004B07047C3F5484000003443000087437A
S2140045500000B44280B487B000AFF860B9607A60FB
S2140045603B6097ED037AD7ED017A77EE677AC7ED71
S214004570057A97ED027AD7ED007A77EE677AC7ED7F
S214004580047A97ED057AD7ED057A27EE277AD7EDE8
S214004590046AD7ED047A66EEA77A77EE277A17EEE6
S2140045A0903A18461C37BD465DF8047B704780B4C9
S2140045B087B000AFF860B9607A60FB6803F10473F7
S2140045C0DA00BB6813449B007B617B697A681A60DB
S2140045D000BF1C37BD465DF8047B704780B485B0CD
S2140045E000AF786039607B6803F1C063FB60FB68EE
S2140045F03A681A6000BF1437BD465DF8047B704702
S21400460080B485B000AF786039607B6803F1806362
S214004610FB60FB683A681A6000BF1437BD465DF859
S214004620047B704780B584B000AFF860B9607A60EC
S214004630B968F868FFF7E4FF7968F868FFF7CEFF17
S21400464000BF1037BD4680BD80B582B000AF786031
S21400465039607B68B3F1804F02D07B68194A934279
S21400466000BF3B681B78DB071A463B685B681B0687
S214004670134343F400427B681A603B68DB681B0404
S2140046803A68127A1A437B689A623B681B691B0475
S2140046903A68527A1A437B68DA623B689B7A1B0751
S2140046A043F0806343F47D437A68536078683B68E0
S2140046B01B7D1A460021FFF77AFF00BF0837BD466C
S2140046C080BD00BF0004004080B582B000AF7860B7
S2140046D00B46FB707B68B3F1804F02D07B68074ABD
S2140046E0934200BF7B680433FA78FF211846FFF731
S2140046F099FF00BF0837BD4680BD00BF00040040DC
S21400470080B483B000AF78607B68B3F1804F02D08E
S2140047107B68074A934200BF7B681B6823F0010250
S2140047207B681A6000BF0C37BD465DF8047B704797
S2140047300004004080B483B000AF78607B68B3F1BB
S214004740804F02D07B68074A934200BF7B681B6895
S21400475043F001027B681A6000BF0C37BD465DF867
S214004760047B70470004004080B487B000AFF86058
S214004770B9607A60FB6803F10473DA00BB6813441F
S2140047809B007B617B697A681A6000BF1C37BD4658
S2140047905DF8047B704780B485B000AF7860396000
S2140047A07B6803F10473DA003B6813449B00FB60EC
S2140047B0FB681B6818461437BD465DF8047B7047D7
S2140047C080B483B000AF786001227B6802FA03F3FE
S2140047D018460C37BD465DF8047B704780B582B03E
S2140047E000AF78607868FFF7EBFF03461846083797
S2140047F0BD4680BD80B584B000AF78607B6801336D
S214004800B3FA83F3DBB2C3F11F03FB60F868FFF76C
S214004810D7FFFB6818461037BD4680BD80B500AF91
S21400482000BF12210348FFF7B6FF0346002BF8D15E
S21400483000BF80BD04300E4080B500AFFFF7EEFF2E
S214004840034B5B681B0C03F00303DBB2184680BD0A
S21400485000300E4080B584B000AF78600123FB6066
S2140048607B68124A934204D80023FB600023BB6097
S21400487008E07B680E4A934202D80123BB6001E041
S2140048800223BB60FA6810210A48FFF76DFF094B48
S214004890D3F8003123F08072BB681B06054913432A
S2140048A0C1F8003100BF1037BD4680BD0048E801A2
S2140048B00090D00300400E4080B483B000AF054B9C
S2140048C01B687B607B6818460C37BD465DF8047B2A
S2140048D0704700BFB402002080B582B000AF08F079
S2140048E039FE7860064BD3F800311B0A03F01F032D
S2140048F001337A6802FB03F318460837BD4680BDCD
S21400490000400E4080B582B000AF0D4800F03CFD80
S2140049100346FB70FB78072B05D0092B07D108F060
S21400492019FE786006E0FFF7C7FF786002E0002314
S2140049307B6000BF7B6818460837BD4680BD00BF59
S21400494006000E0080B584B000AF78607B68002B50
S2140049501CD11B4800F018FD0346FB7200BFFB7A13
S214004960013B072B23D801A252F823F091490000FF
S214004970AF490000AF4900009F490000AF49000062
S214004980AF49000097490000A7490000002312E045
S2140049900023FB600EE0FFF78FFFF8600AE008F0E8
S2140049A011FEF86006E0FFF797FFF86002E00023CC
S2140049B0FB6000BFFB6818461037BD4680BD00BFD1
S2140049C0B800320080B485B000AF786039601E4B06
S2140049D05B6803F04073FB600023BB6012E01B4A79
S2140049E0BB68DB0013441A793B68DBB29A4206D1F7
S2140049F0164ABB6852F833307A689A4206D9BB68C2
S214004A000133BB60BB68042BE9D900E000BFBB687C
S214004A10052B02D10323FB6005E00C4ABB68DB00D4
S214004A2013445B79FB60FB681B06FB60064B5B6808
S214004A3023F040720449FB6813434B6000BF1437F1
S214004A40BD465DF8047B704700000E40A4180100C8
S214004A5080B582B000AF0E4B1B6C002B14BF012339
S214004A600023FB710A4B41F671321A6408F068FDA8
S214004A70034600211846FFF7A5FFFB79002B02D05E
S214004A80034B00221A6400BF0837BD4680BD00BF36
S214004A9000000E4080B584B000AF786039600C4BE3
S214004AA01B6C002B14BF01230023FB73084B41F63D
S214004AB071321A6439687868FFF784FFFB7B002B35
S214004AC002D0034B00221A6400BF1037BD4680BDDB
S214004AD000000E4080B487B000AF78600F237B6183
S214004AE07B6803333B617B69FB60FA683B699342F2
S214004AF028BF1346BB60BB681B07BB60BB68184675
S214004B001C37BD465DF8047B7047000080B400AFDC
S214004B10044B5B6A1B0903F003031846BD465DF8A9
S214004B20047B704700400E4080B483B000AF7860CE
S214004B30074B5B6A23F030027B681B010449134372
S214004B404B6200BF0C37BD465DF8047B704700BF64
S214004B5000400E4090B585B000AF78600023BB6083
S214004B607B68354A934206D0344A934203D0344A8F
S214004B70934200D000E000BF786800F005FC0346D2
S214004B80FB607B682C4A93420DD02C4A934211D08E
S214004B902B4A934200D014E02A4BD3F8803003F01F
S214004BA00703FB600DE0274BD3F8843003F00703C0
S214004BB0FB6006E0234BD3F8883003F00703FB6066
S214004BC000BFFB68042B2ED801A252F823F000BFCA
S214004BD0214C0000E54B0000ED4B0000FD4B0000B3
S214004BE0F54B000008F010FDB8601FE008F01EFD51
S214004BF0B8601BE008F011FDB86017E008F080FC14
S214004C000446104BD3F800311B0E03F001030133AA
S214004C101846FFF7E3FD0346B4FBF3F3BB6005E07D
S214004C200023BB6002E00023BB6000BFBB681846E1
S214004C301437BD4690BD00BF0300200005002400C9
S214004C4002001E0000400E4080B483B000AF7860C3
S214004C500A4BD3F8443103F00103002B08D100BF00
S214004C60064BD3F840217B681340002BF8D100E0B8
S214004C7000BF0C37BD465DF8047B704700400E4011
S214004C8080B400AF00BFBD465DF8047B704780B4BB
S214004C9000AF00BFBD465DF8047B704780B582B0AC
S214004CA000AF7860786800F081F903460133184653
S214004CB00837BD4680BD80B582B000AF78603960E9
S214004CC03B68013B1946786800F032FA00BF0837A7
S214004CD0BD4680BD80B586B000AF78600B46FB70E1
S214004CE000233B617B681B0A03F00F03013B092B83
S214004CF044D801A252F823F0214D00002D4D0000AB
S214004D007D4D00007D4D0000274D0000334D000016
S214004D103D4D00007D4D0000474D0000534D000006
S214004D20184B7B6118E0184B7B6115E0174B7B61D5
S214004D3012E0174B7B6101233B610DE0154B7B6155
S214004D4010233B6108E0144B7B614FF480333B61DA
S214004D5002E0124B7B6100BF7B681B0B03F01F0356
S214004D60FB603B69002B02D03869FFF76DFFFB78CC
S214004D701A46F9687869FFF7F7FC00E000BF1837B5
S214004D80BD4680BD00400E40B0400E40C0400E40C4
S214004D90E0400E40E8400E40F0400E4050410E40CD
S214004DA080B584B000AF78607B6803F47813B3F501
S214004DB0A01F7DD0B3F5A01F1AD8B3F5202F50D072
S214004DC0B3F5202F08D8B3F5003F4ED0B3F5802FAB
S214004DD038D0002B32D0D8E0B3F5602F00F0C88072
S214004DE0B3F5801F00F0C880B3F5402F4CD0CCE060
S214004DF0B3F5001F00F08B80B3F5001F0AD8B3F59B
S214004E00D01F00F08980B3F5F01F4CD0B3F5B01F6B
S214004E105CD0BAE0B3F5381F6AD0B3F5381F04D8B3
S214004E20B3F5101F00F09F80AFE0B3F5401F00F011
S214004E308680B3F5481F00F0A380A6E008F08AFB42
S214004E40F860A5E008F086FBF860544BD3F80C3108
S214004E501B0AC3F308030133FA68B2FBF3F3FB60E3
S214004E6096E008F077FBF86092E008F073FBF860D5
S214004E704A4BD3F808311B0AC3F308030133FA6818
S214004E80B2FBF3F3FB6083E008F064FBF860434B8F
S214004E90D3F814311B0A03F01F030133FA68B2FB80
S214004EA0F3F3FB6074E03E48FFF754FEF8606FE0F3
S214004EB03C48FFF74FFEF860384BD3F8303103F02C
S214004EC00303FA6822FA03F3FB6061E03448FFF755
S214004ED041FEF860314BD3F8203103F00F0318463B
S214004EE0FFF77CFC0246FB68B3FBF2F3FB604FE087
S214004EF02B48FFF72FFEF860284BD3F820311B090C
S214004F0003F00303FA6822FA03F3FB6040E0264846
S214004F10FFF720FEF8603BE02348FFF71BFEF86033
S214004F201E4BD3F828311B0903F003031846FFF77E
S214004F3055FC0246FB68B3FBF2F3FB6028E01A4818
S214004F40FFF708FEF860154BD3F828311B0A03F06C
S214004F50030304331846FFF741FC0246FB68B3FB25
S214004F60F2F3FB6014E00F48FFF7F4FDF8600FE083
S214004F70FFF7C8FCF8600BE0FFF79EFCF86007E060
S214004F800020FFF7DFFCF86002E00023FB6000BFB4
S214004F90FB6818461037BD4680BD00BF00400E4077
S214004FA002001E00050024000300200080B584B027
S214004FB000AF78607B681B0903F00F03BB60BB681B
S214004FC0013B092B00F2A08001A252F823F000BF9B
S214004FD0F94F000009500000195000002950000049
S214004FE009510000095100003950000049500000E6
S214004FF097500000EB500000474BD3F800311B0AD7
S21400500003F01F03FB6082E0434BD3F814311B0A06
S21400501003F01F03FB607AE03F4BD3F800311B0E12
S21400502003F00103FB6072E03B4BD3F80C311B0A24
S214005030C3F30803FB606AE0374BD3F808311B0A5A
S214005040C3F30803FB6062E07B68344A934203D0F4
S214005050334A93420DD01AE02F4BD3F8203103F099
S2140050600F03FB60F868FFF7B9FB0346013BFB60E4
S21400507010E0294BD3F820311B0903F00303FB6033
S214005080F868FFF7ABFB0346013BFB6002E000233A
S214005090FB6000BF3BE07B68224A934203D0224A73
S2140050A093420ED01DE01C4BD3F828311B0903F0A9
S2140050B00303FB60F868FFF791FB0346013BFB60C8
S2140050C012E0154BD3F828311B0A03F00303FB60EC
S2140050D0FB6804331846FFF781FB0346013BFB6081
S2140050E002E00023FB6000BF11E07B680F4A93429A
S2140050F006D1094BD3F8303103F00303FB6002E01E
S2140051000023FB6000BF02E00023FB6000BFFB68DB
S21400511018461037BD4680BD00400E40800616007B
S21400512080162E0090171A0090273000A009140051
S21400513080B584B000AF786039607B681B0903F0E7
S2140051400F03FB60FB68013B092B00F2078101A2FD
S21400515052F823F07D510000C95100005D53000055
S214005160E15100005D5300005D530000FD5100005A
S21400517045520000C552000033530000FFF768FC9C
S2140051807948FFF767FBFFF77BFD784BD3F80031D4
S21400519023F4F8523B681B0274491343C1F80031EC
S2140051A008F0AEF9B860FFF747FB03461946B86843
S2140051B0FFF770FC6E48FFF7F3FD03461846FFF74F
S2140051C049FBFFF764FDCAE0684BD3F8143123F4BB
S2140051D0F8523B681B0265491343C1F81431BEE020
S2140051E0624BD3F80C3123F4FF3323F480733A6810
S2140051F012025E491343C1F80C31B0E0FFF728FCF9
S2140052005948FFF727FB594BD3F8083123F4FF33EF
S21400521023F480733A68120254491343C1F80831E4
S21400522008F06EF9B860FFF707FB03461946B86842
S214005230FFF730FC4E48FFF7B3FD03461846FFF76E
S21400524009FB8CE07B684B4A934215D04A4A93424E
S21400525024D04A4A934200D033E04FF48020FFF730
S214005260F3FC424BD3F8303123F003023F493B684E
S2140052701343C1F8303124E03868FFF7BBFA3860D2
S2140052800420FFF7E1FC394BD3F8203123F00F025E
S21400529036493B681343C1F8203112E03868FFF7FF
S2140052A0A9FA38600420FFF7CFFC304BD3F8203142
S2140052B023F030023B681B012C491343C1F8203110
S2140052C000BF4CE07B682E4A934203D02D4A93429F
S2140052D013D02DE03868FFF78DFA38604020FFF7CE
S2140052E0B3FC224BD3F8283123F030023B681B0175
S2140052F01E491343C1F828311AE03B687F2B02D8B9
S2140053003B680E2B00BF3868FFF774FA0346043B71
S2140053103B604020FFF798FC144BD3F8283123F469
S21400532040723B681B0211491343C1F8283100BF85
S21400533015E07B68114A934200D00EE04FF48020BF
S214005340FFF782FC094BD3F8303123F003020749FC
S2140053503B681343C1F8303100BF00E000BF00BF18
S2140053601037BD4680BD00BF0148E80100400E4032
S21400537000250A008006160080162E00A0091400DC
S21400538090171A009027300080B485B000AF786080
S2140053900123FB737B6803F00F03BB60BB68013B14
S2140053A0072B00F2C48001A252F823F0CD53000070
S2140053B023540000535400002F5500009954000059
S2140053C0C95400002F550000ED5400005D4BD3F883
S2140053D0943003F00703023B052B1ED801A252F8B7
S2140053E023F000BF0954000003540000FD530000E2
S2140053F00F5400001B540000155400000223FB73DA
S2140054000EE00323FB730BE00423FB7308E00B237F
S214005410FB7305E00C23FB7302E00523FB7300BF60
S21400542088E0484BD3F8803003F00703022B06D001
S214005430042B07D0012B08D10323FB7308E00223BB
S214005440FB7305E00A23FB7302E00123FB7300BF36
S21400545070E03C4BD3F8843003F00703013B032B8A
S21400546016D801A252F823F0795400007F540000A9
S2140054708B540000855400000323FB730BE00223CB
S214005480FB7308E00A23FB7305E00623FB7302E0C8
S2140054900123FB7300BF4DE02A4BD3F8883003F09E
S2140054A00703022B06D0042B07D0012B08D10323B9
S2140054B0FB7308E00223FB7305E00A23FB7302E09C
S2140054C00123FB7300BF35E01E4B1B6F03F0010387
S2140054D0002B04D0012B05D10923FB7305E007231D
S2140054E0FB7302E00123FB7300BF23E0154BD3F8E8
S2140054F05C3103F03003102B0CD0102B02D8002B9D
S21400550005D010E0202B08D0302B09D00BE001236B
S214005510FB730BE00723FB7308E00423FB7305E033
S2140055200823FB7302E00123FB7300BF02E00023A5
S214005530FB7300BFFB7B18461437BD465DF8047B43
S214005540704700BF00400E4080B58AB000AF78605C
S2140055500B46FB7003237B62032387F8233000236C
S214005560BB6100237B617B68112B19D1FB78042B70
S21400557003D108F027F878610BE0FB78052B08D1FB
S21400558000F0C8F90246A44B9A4202D900F0C2F9CC
S21400559078617B69002B03D00021786900F0BAFCA3
S2140055A07B6803F00F033B613B69013B072B00F26E
S2140055B0298101A252F823F0D9550000CD560000EB
S2140055C0DF56000005580000D15600007557000051
S2140055D00558000093570000FB78023B0A2B00F2A8
S2140055E0138101A252F823F0155600002156000040
S2140055F02D5600003F5600000958000009580000CC
S21400560009580000095800000958000051560000CB
S2140056105D56000004237B62002387F8233023E0D6
S21400562003237B62012387F823301DE002237B627D
S214005630022387F823307948FFF70CF914E001239A
S2140056407B62032387F823307448FFF703F90BE0E7
S21400565005237B62032387F8233005E007237B625C
S214005660062387F8233000BF97F82330062B06D092
S21400567097F8233001220121184600F0E9F9FFF7D8
S214005680E7F9FFF7FDFA7B69002B01D0FFF7C6F8B4
S214005690634A7B6A53676348FFF782FB03461846F4
S2140056A0FFF7D8F807F02CFFF860FFF7C5F80346B9
S2140056B01946F868FFF7EEF97B69002B03D1012144
S2140056C0002000F027FCFFF7E2FAA2E0564BBB6191
S2140056D0BB69002B01D0BB6900E0544BBB61BB69C2
S2140056E0002B01D0BB6900E0514BBB61FB78013B4E
S2140056F0092B00F28B8001A252F823F025570000F8
S2140057002B5700003B5700000D5800000D580000B6
S2140057104B5700000D5800000D5800000D580000B3
S214005720675700000023FB6120E0012201210020D2
S21400573000F08EF90223FB6118E00122012101200E
S21400574000F086F90123FB6110E007F0D9FE03465E
S2140057501846FFF77FF8012202213648FFF704F8C3
S2140057600323FB6102E00423FB6100BFBB69FA6907
S2140057701A604EE0FB78072B02D0092B04D048E0D5
S214005780274B00221A6703E0254B01221A6700BF49
S2140057903FE0FB78013B072B3AD801A252F823F0F2
S2140057A0C15700001158000011580000D7570000DC
S2140057B01158000011580000C7570000E7570000B6
S2140057C00023FB6112E001220121042000F040F9D1
S2140057D00123FB610AE001220121022000F038F9D2
S2140057E00223FB6102E00323FB6100BF0C4BD3F8EE
S2140057F05C3123F03002FB691B0109491343C1F8F1
S2140058005C3106E000BF04E000BF02E000BF00E03D
S21400581000BF2837BD4680BD002D31010148E80194
S21400582000400E4000250A0080400E4088400E4092
S21400583084400E40B0400E4080B483B000AF786025
S2140058407B68294A93422FD0274A934210D8274A8A
S214005850934221D0254A934203D8254A93421BD02F
S2140058603AE0244A934217D0234A934218D033E0B2
S214005870224A934224D0214A934206D8204A934291
S21400588016D0204A934217D026E01F4A93421BD0D8
S2140058901E4A93421CD01FE01D4BD3F880301CE0FC
S2140058A01B4BD3F88C3018E0194BD3F8983014E023
S2140058B0174BD3F89C3010E0154BD3F8A0300CE013
