:1000000000000420B1D40000DDD40000DDD40000E5
:10001000DDD40000DDD40000DDD40000DDD400001C
:10002000DDD40000DDD40000DDD40000819B0000A1
:10003000DDD40000DCD40000919D0000F99D00009B
:10004000DDD40000DDD40000DDD40000DDD40000EC
:10005000DDD40000DDD40000DDD40000DDD40000DC
:10006000DDD40000DDD400003340000035C60000C0
:10007000DDD40000DDD40000DDD40000DDD40000BC
:10008000DDD40000DDD4000043400000DDD40000DA
:10009000DDD40000DDD40000DDD40000DDD400009C
:1000A000DDD40000DDD40000DDD40000DDD400008C
:1000B000DDD40000DDD40000DDD40000DDD400007C
:1000C000DDD40000DDD40000DDD40000DDD400006C
:1000D000DDD40000DDD40000DDD40000DDD400005C
:1000E000DDD40000DDD40000DDD40000DDD400004C
:1000F000DDD40000DDD40000DDD40000DDD400003C
:10010000DDD40000DDD40000DDD4000010B5054CC6
:10011000237833B9044B13B10448AFF300800123B3
:10012000237010BD4C0300200000000018250100C2
:1001300008B5034B1BB103490348AFF3008008BD6A
:10014000000000005003002018250100154B002B73
:1001500008BF134B9D46A3F5803A00218B460F46FE
:100160001348144A121A10F09BFD0F4B002B00D0BD
:1001700098470E4B002B00D0984700200021040028
:100180000D000D48002802D00C48AFF3008010F09D
:1001900031FD2000290002F047FC10F017FD00BFE0
:1001A0000000080000000420000000000000000023
:1001B0004C030020348700200000000000000000F5
:1001C00080B500AF05F0E0FB0346184680BD000097
:1001D00080B500AF01220121032005F073FC074820
:1001E00005F0DEFBFFF7ECFF0121054804F0ACFD54
:1001F0000121044804F0A8FD00BF80BD80D5430262
:100200004041050000250A0080B582B000AF78604B
:100210007B6800221A757B681B49184610F08BFD1D
:100220007B6800225A757B6800229A757B680022E1
:1002300083F820207B68002283F820207B684FF021
:100240007E525A627B68114A9A627B68104A5A64ED
:100250007B680A229A877B681222DA877B680A22E7
:10026000A3F840207B680B4A9A647B680222A3F8BB
:1002700042207B68084ADA627B684FF000029A6588
:1002800000BF0837BD4680BD4C1601004260653C8A
:1002900000A0CD44000ECE471F856B3EB0B584B0A4
:1002A00000AF78600B46FB707B68FA781A75FB78B4
:1002B000032B47D801A252F823F000BFCD02000063
:1002C000EB02000009030000270300007B682449BB
:1002D000184610F030FD7B68224A03F13C041546B5
:1002E0000FCD0FC42B68236036E07B681E4918468B
:1002F00010F021FD7B681D4A03F13C0415460FCD2B
:100300000FC42B68236027E07B681949184610F05A
:1003100012FD7B68174A03F13C0415460FCD0FC44C
:100320002B68236018E07B681349184610F003FD22
:100330007B68124A03F13C0415460FCD0FC42B68AD
:10034000236009E04FF0A00383F31188BFF36F8FA0
:10035000BFF34F8FFB60FEE700BF1037BD46B0BD57
:100360004C1601000000002054160100140000206B
:100370005C16010028000020681601003C000020E7
:1003800080B483B000AF78607B684FF000029A6061
:100390007B6800221A6000BF0C37BD465DF8047B05
:1003A000704780B483B000AF78607B6802221A7017
:1003B0007B6800225A707B684FF000025A6000BFD1
:1003C0000C37BD465DF8047B704780B483B000AF46
:1003D00078607B6800221A707B6800225A707B6804
:1003E00000229A7000BF0C37BD465DF8047B704751
:1003F00090B589B002AF7860C823FB810223FB75FA
:100400007F4B0093002301224FF4C8717D480BF00D
:10041000A3FD02467C4B1A607B4B1C680AF052FF1E
:1004200003461A460A2300930023012120460BF0BD
:10043000E3FD0CF0BDF900F01BF903461A46734BBF
:100440001A70734B1B78052B00F2D48001A252F86E
:1004500023F000BFF50500006D040000F505000065
:10046000B3040000C3050000F5050000674B1A78CF
:10047000684B1B789A421AD0644B1A78654B1A70F5
:10048000624B1B78012B02D0042B08D010E0624B8A
:10049000186800230322AD210BF0FAFB08E05E4B45
:1004A000186800230322DE210BF0F2FB00E000BFFE
:1004B000A0E05A4B186800231E2200210AF074F8AD
:1004C0000346002B09D0564B1B683B61534B186801
:1004D00000230022002109F0B1FE4C4B1B78013BA8
:1004E000032B1FD801A252F823F000BFFD04000027
:1004F00007050000110500001B0500000023FB7527
:100500001E23BB7513E00123FB750F23BB750EE0A3
:100510000323FB75F123BB7509E00423FB75E2237C
:10052000BB7504E00223FB750023BB7500BF3D4B88
:10053000186800231E2200210AF036F83A4AFB7D93
:1005400013703B69002B0DD0374B93ED017A97F96F
:10055000163007EE903AF8EEE77A77EE277A324BCC
:10056000C3ED017A304BD3ED017A9FED307AF4EE92
:10057000C77AF1EE10FA0ADD2B4BD3ED017A9FED2D
:100580002B7A77EEC77A284BC3ED017A11E0264B20
:10059000D3ED017AF5EEC07AF1EE10FA09D5224BCF
:1005A000D3ED017A9FED217A77EE877A1E4BC3ED6A
:1005B000017A1C4B186800230022002109F03EFE3E
:1005C00018E0184B186800230A22002109F0ECFFFC
:1005D000154B02221A70144B00225A70124B4FF026
:1005E00000025A600F4B186800230022002109F016
:1005F00025FE00BFFB8918460AF0D8FB1BE700BFA9
:10060000310600006C1601006C030020700300200E
:10061000680300207103002060850020E885002029
:10062000CC850020E4850020F48500200000B44340
:1006300080B582B000AF78600A4B1868002364224E
:10064000002109F0B1FF084B1A78084B1A70054BCE
:10065000186800230022002109F0F0FD00BF0837D0
:10066000BD4680BDE0850020E20300206803002035
:1006700090B583B000AF4FF0804004F095F80CF0D7
:100680006DF80023FB710023BB7119E0BC79BB79C5
:1006900018460CF00DF803461A4607F108032344E8
:1006A00003F8082CBB7907F10802134413F8083C3F
:1006B000002B02D0FB790133FB71BB790133BB7195
:1006C000BB79032BE2D94FF0804004F053F8FB795B
:1006D000002B02D0FB79012B01D9002315E0002368
:1006E000BB710EE0BB7907F10802134413F8083C14
:1006F000002B03D0BB790133DBB206E0BB790133B9
:10070000BB71BB79032BEDD9002318460C37BD46CE
:1007100090BD0000F0B5A7B018AF7860AC4B1B6877
:100720001B885B089AB2AB4B1A800CF0A1F83863B7
:100730003B6B002B09D04FF0A00383F31188BFF36C
:100740006F8FBFF34F8F3B62FEE7002007F042FD43
:1007500038633B6B002B09D04FF0A00383F3118863
:10076000BFF36F8FBFF34F8FFB61FEE7984808F030
:1007700027F838633B6B002B09D04FF0A00383F3BD
:100780001188BFF36F8FBFF34F8FBB61FEE7904BB4
:100790006FF07F425A608E4B00229A608E4B198810
:1007A0008E4B0093002300228D480BF0D5FB0246B0
:1007B0008C4B1A60884B19888B4B009300230022C6
:1007C0008A480BF0C9FB0246894B1A60894B19888D
:1007D000894B00930023002288480BF0BDFB0246A2
:1007E000874B1A60874B186800230A22002109F002
:1007F000DBFE854B1A78854B1A70824B18680023F4
:100800000022002109F01AFD804B1B78052B00F215
:10081000288401A252F823F0310800006708000084
:10082000A30B00007B0C00003D0E0000610F0000D8
:1008300000F07CFC07F01EFF6A4B1B6818460BF0AB
:10084000A7FE0346002B40F0D983664B1C680AF0D4
:1008500039FD03461A460A2300930023012120464E
:100860000BF0CAFBCAE35F4B1B6818460BF090FE07
:100870000346012B08D15B4B18680A230093002321
:10088000002203210BF0B8FB614B1B7883F00103BE
:10089000DBB2002B28D05F4B186800230A2200210E
:1008A00009F082FE5C4B1B785C4C14935C4A13ABE2
:1008B0001188927819809A70684604F110034C22CE
:1008C000194610F0E2F994E80F0000F0FDFE514BDC
:1008D000186800230022002109F0B0FC07F0CAFECE
:1008E0004B4B01221A70BCE307F114024FF6FF7361
:1008F0004FF0FF314FF0FF300BF066F97B69AD2B05
:1009000000F01F81AD2B06D8552B00F0C080AA2B1C
:1009100000F09280A5E3DE2B00F0E480414A934290
:1009200000D09EE33B4B186800230A22002109F007
:100930003BFE3A4C3C4B1393684604F110034C22A7
:10094000194610F0A2F994E80F0001F051FB374B63
:10095000186800230A22002109F026FE344B304A91
:100960001188927819809A702D4B1B78194631485E
:1009700003F006FC2F4B1B6A1B68284A93612D4B22
:100980001B6A5B68254AD361224B1868002300224A
:10099000002109F053FC254B186800230022002198
:1009A00009F04CFC174B186800230A22002109F0BB
:1009B000FBFD154B02221A70124B1868002300220F
:1009C000002109F03BFC124B00221A70E8E000BF46
:1009D00074030020BC03002050000020951000008C
:1009E0007C160100A0030020DD1000008C16010021
:1009F000A403002052000020051100009C160100F5
:100A0000A8030020E0850020E2030020BE030020B0
:100A1000BF030020DC8500205400002068850020F2
:100A200038860020F0DEBC0AAC030020C885002018
:100A3000C003002000860020A64800F0C9FEA64B97
:100A4000186800230A22002109F0AEFDA14B1B7893
:100A5000A24C1493A24A13AB1268114619800233B8
:100A6000120C1A70684604F110034C22194610F05B
:100A70000CF994E80F0000F027FE974B186800234C
:100A80000022002109F0DAFB07F0F4FD88E091482C
:100A900000F0CAFE904B186800230A22002109F0DA
:100AA00083FD8C4B1B788D4C14938D4A13AB1268CD
:100AB000114619800233120C1A70684604F11003B3
:100AC0004C22194610F0E1F894E80F0000F0FCFD0C
:100AD000814B186800230022002109F0AFFB07F0CA
:100AE000C9FD5DE07C4B186800230A22002109F053
:100AF0005BFD784B1B787A4A7849184600F0C0FEB7
:100B0000744B1B78754C1493754A13AB12681146DD
:100B100019800233120C1A70684604F110034C223B
:100B2000194610F0B2F894E80F0000F0CDFD6A4BC2
:100B3000186800230022002109F080FB07F09AFDCD
:100B40002EE0654B186800230A22002109F02CFDD5
:100B5000604B1B78624A6149184600F0C1FE5D4B4C
:100B60001B785E4C14935E4A13AB126811461980D1
:100B70000233120C1A70684604F110034C22194615
:100B800010F083F894E80F0000F09EFD524B1868B7
:100B900000230022002109F051FB07F06BFD00BF8C
:100BA0005FE2504B1B78013BDBB2184600F0C4FFFC
:100BB00007F060FD4B4B1B78013BDAB2494B1A70D2
:100BC000484B1B78002B40F01B82464B04221A70C6
:100BD000454B186800230A22002109F0E5FC034672
:100BE000002B0DD0414B03221A70404B1A78404B1A
:100BF0001A703D4B186800230022002109F01EFBEB
:100C00003C4B186800230A22002109F0CDFC3A4B26
:100C10000022DA82394B186800231422002109F0DF
:100C2000C3FC0346002B19D0334E6D4606F1100469
:100C30000FCC0FC50FCC0FC594E8030085E8030067
:100C400096E80F0003F0A0FB02462D4B5A602B4B99
:100C5000186800230022002109F0F0FA254B1868DB
:100C600000230022002109F0E9FA264B1B681846F0
:100C70000AF0E0F90FF050FAC2E107F11002002388
:100C80004FF0FF314FF0FF300AF09EFF0346012B7B
:100C90003ED13B691C4A934240F0B481124B186824
:100CA00000230A22002109F07FFC104B04221A7055
:100CB0000E4B1A780E4B1A700B4B1868002300224B
:100CC000002109F0BBFA114B1B6818460BF084F8A1
:100CD00098E100BF54000020DC85002068850020DA
:100CE000C003002055000020E0850020E203002022
:100CF000BE030020C885002000860020E485002077
:100D0000F4850020F0850020214365876085002060
:100D1000BD4B186800230A22002109F045FC034658
:100D2000002B0CD0B94ABA4B14460FCB84E80F0005
:100D3000B54B186800230022002109F07FFAB54B5B
:100D4000186800230A22002109F02EFC0346002B1C
:100D50000CD0B14BB14A92E8030083E80300AD4BDD
:100D6000186800230022002109F068FAAC4CAA4A56
:100D700004AB92E8030083E80300A44B6D460FCB5D
:100D800085E80F0094E80F0000F02EFFA54B1868CF
:100D900000230A22002109F007FC0346002B30D073
:100DA000A14B186800230A22002109F0FDFB03462D
:100DB000002B1FD09D4C954B14AD0FCB85E80F0039
:100DC0009B4B1393684604F110034C2219460FF015
:100DD0005CFF94E80F0001F041F9034687F83730D3
:100DE000914B186800230022002109F027FA904B4C
:100DF00001221A758B4B186800230022002109F08C
:100E00001DFA97F83730002B14D08A4B186800234E
:100E10000A22002109F0C8FB874B04221A70864B76
:100E20001A78864B1A70834B186800230022002121
:100E300009F004FA07F01EFC00BF12E10FF088F978
:100E40007F4B1B68184609F0EBFF0346032B04D0C9
:100E50007B4B1B6818460AF03BF87A4B1B78002B3B
:100E600005D001F029FA774B00221A7004E001F056
:100E7000CFF9744B01221A7007F0FCFB724B1B6810
:100E800018460BF085FB0346002B0CD16E4B1C68FB
:100E90000AF018FA03461A460A2300930023022197
:100EA00020460BF0A9F807F10C0200234FF0FF31A8
:100EB0004FF0FF300AF088FE0346012B40F0D0804F
:100EC000FB68624A934240F0CB804F4B1868002386
:100ED0000522002109F068FB4D4B5B68FB624A4B21
:100EE000186800230022002109F0A8F94E4B186869
:100EF00000230522002109F057FB4C4BD3ED167A55
:100F0000FCEEE77A17EE903ABB62474B1868002375
:100F10000022002109F092F90FF02CF903461A463D
:100F2000B96AF86A0FF0D6F87862796A48480FF023
:100F300091F8404B186800230A22002109F034FB85
:100F40003D4B05221A703C4B1A783C4B1A70394BBA
:100F5000186800230022002109F070F900BF7FE02B
:100F60003B4E6D4606F110040FCC0FC594E8070008
:100F700085E8070096E80F0001F0F2F907F07AFB28
:100F8000344B1B6818460BF003FB0346002B0CD1B7
:100F9000304B1C680AF096F903461A460A23009360
:100FA0000023022120460BF027F807F108024FF634
:100FB000FF734FF0FF314FF0FF300AF005FEBB68C2
:100FC000254A93424DD11B4B186800230A22002169
:100FD00009F0EAFA184B00221A70174B1A78174BCF
:100FE0001A70144B186800230022002109F026F91A
:100FF0001A4B1B6818460AF0EFFE32E000BF30E0E3
:1010000000BF2EE000BF2CE0E8850020C4030020D4
:10101000CC850020E4850020D4030020F485002046
:10102000AC030020C8850020DC85002068850020F6
:1010300000860020E0850020E2030020BE0300209F
:10104000F0850020DC030020A40300207856341231
:101050003C860020A8030020B1CAED0F6085002067
:1010600000BF094B1B78022B06D1084B1B88184682
:1010700009F09CFEFFF7B6BB054B1B88184609F02C
:1010800095FEFFF7AFBB00BFBE0300205600002057
:101090005800002080B582B000AF78600D4B186812
:1010A00000230A22002109F07FFA0346012B0DD10B
:1010B000094B1B78002B02D1074B01221A70054BFC
:1010C000186800230022002109F0B8F800BF083793
:1010D000BD4680BDE0850020E203002080B582B0DF
:1010E00000AF7860054B18680023032204490AF01A
:1010F000CFFD00BF0837BD4680BD00BF6085002022
:101100007856341280B582B000AF7860054B18680D
:101110000023032204490AF0BBFD00BF0837BD4687
:1011200080BD00BF60850020B1CAED0FF0B58FB063
:1011300002AF374807F0D7FB3649354808F0CDFAFB
:101140003B46354A302118460FF0B2FD3B46184663
:101150000FF0F9FD06462E4B1B681B885B089BB2FF
:101160001C462B4B93F824301A46294B93F8273012
:1011700013441D463B4618460FF0E5FD034603FBAE
:1011800005F35B08E31A1A46394600230193052349
:101190000093134632461E4808F038FA3B461F4A71
:1011A000302118460FF084FD3B4618460FF0CBFD6A
:1011B0000646174B1B681B885B089BB21C46144BEA
:1011C00093F824301A46124B93F8273013441D46E7
:1011D0003B4618460FF0B7FD034603FB05F35B08DB
:1011E000E31A18460A4B93F825301A4613465B005B
:1011F00013440533394600220192009303463246D8
:10120000034808F003FA00BF3437BD46F0BD00BF05
:1012100074030020881F0100AC160100B8160100FD
:1012200090B591B002AF0346FB713549354808F0DF
:1012300054FA07F10803344A302118460FF038FDFC
:1012400007F1080318460FF07EFD2E4B93F825306A
:101250009B0007F108010022019200930A23024635
:10126000284808F0D3F9FB79032B2BD801A252F8B8
:1012700023F000BF8512000095120000A5120000A7
:10128000B512000007F10803204A302118460FF07C
:101290000FFD17E007F108031D4A302118460FF033
:1012A00007FD0FE007F108031A4A302118460FF036
:1012B000FFFC07E007F10803174A302118460FF03A
:1012C000F7FC00BF07F1080318460FF03CFD044689
:1012D0000C4B1B681B88A3F133000A4B93F8253095
:1012E0009B0007F108010022019200930346224669
:1012F000044808F08BF900BF3C37BD4690BD00BFE5
:10130000581C010074030020C4160100CC16010013
:10131000D4160100DC160100E416010090B591B06E
:1013200002AF0346FB713749374808F0D6F907F199
:101330000803364A302118460FF0BAFC07F10803BB
:1013400018460FF000FD304B93F825301A4613462F
:101350009B00134407F108010022019200930A2325
:101360000246294808F052F9FB79032B2AD801A23A
:1013700052F823F08513000095130000A513000018
:10138000B513000007F10803214A302118460FF079
:101390008FFC17E007F108031E4A302118460FF0B2
:1013A00087FC0FE007F108031B4A302118460FF0B5
:1013B0007FFC07E007F10803184A302118460FF0B8
:1013C00077FC00BF07F1080318460FF0BCFC044689
:1013D0000D4B1B681B88A3F133000B4B93F8253092
:1013E0001A4613469B00134407F10801002201929C
:1013F000009303462246044808F008F900BF3C3732
:10140000BD4690BD581C010074030020F416010075
:101410000017010008170100101701001C17010038
:1014200090B591B002AF0346FB713249324808F0E3
:1014300054F907F10803314A302118460FF038FCFF
:1014400007F1080318460FF07EFC2B4B93F825306C
:101450001A4613465B0013445B001A4607F1080165
:101460000023019300920A230246234808F0CEF895
:10147000FB79012B0BD0022B11D0002B17D107F1D8
:1014800008031F4A302118460FF012FC0FE007F145
:1014900008031C4A302118460FF00AFC07E007F148
:1014A0000803194A302118460FF002FC00BF07F16B
:1014B000080318460FF047FC04460F4B1B681B88B7
:1014C000A3F133000C4B93F825301A4613465B000A
:1014D00013445B001A4607F10801002301930092B0
:1014E00003462246044808F091F800BF3C37BD4649
:1014F00090BD00BF581C010074030020201701009C
:101500002C170100341701003C17010090B591B071
:1015100002AF0346FB713049304808F0DEF807F1AE
:1015200008032F4A302118460FF0C2FB07F10803C9
:1015300018460FF008FC294B93F825301A4613463D
:10154000DB009B1A07F108010022019200930A2395
:101550000246224808F05AF8FB79012B0BD0022BE7
:1015600011D0002B17D107F108031E4A302118466D
:101570000FF09EFB0FE007F108031B4A30211846CD
:101580000FF096FB07E007F10803184A30211846D0
:101590000FF08EFB00BF07F1080318460FF0D3FBD6
:1015A00004460E4B1B681B88A3F133000B4B93F8CA
:1015B00025301A461346DB009B1A07F1080100226A
:1015C0000192009303462246044808F01FF800BF2A
:1015D0003C37BD4690BD00BF581C0100740300207D
:1015E0004417010050170100581701003C17010073
:1015F00090B591B002AF0346FB712D492D4808F01C
:101600006CF807F108032C4A302118460FF050FB04
:1016100007F1080318460FF096FB264B93F8253088
:10162000DB0007F108010022019200930A23024621
:10163000204807F0EBFFFB79012B0BD0022B11D0D8
:10164000002B17D107F108031C4A302118460FF070
:101650002FFB0FE007F10803194A302118460FF05D
:1016600027FB07E007F10803164A302118460FF060
:101670001FFB00BF07F1080318460FF064FB044688
:101680000C4B1B681B88A3F133000A4B93F82530E1
:10169000DB0007F108010022019200930346224675
:1016A000044807F0B3FF00BF3C37BD4690BD00BF04
:1016B000581C010074030020601701006817010026
:1016C000701701007817010084B0F0B58FB002AF39
:1016D00007F1480484E80F003A4807F004F93A4952
:1016E000384807F0FAFF3B46384A302118460FF0D9
:1016F000DFFA3B4618460FF026FB0646314B1B68C7
:101700001B885B089BB21C462E4B93F824301A466C
:101710002C4B93F8273013441D463B4618460FF0D8
:1017200012FB034603FB05F35B08E31A1A4639462E
:10173000002301930523009313463246214807F006
:1017400065FF204B93F825305A001E4B1B681B8801
:1017500019461C4B93F825305B0000930B464FF065
:10176000FF31184807F069FC97F8A830154A92F83D
:10177000252002FB03F3DA1C02230321114807F0A2
:10178000ACF997F8A4301846FFF74AFD97F85C309B
:101790001846FFF7C3FD97F868301846FFF740FE7C
:1017A00097F85D301846FFF7B1FE97F85E3018469F
:1017B000FFF71EFF00BF3437BD46BDE8F04004B060
:1017C000704700BF74030020881F010080170100CC
:1017D00080B483B000AF78607B681B78043B032B38
:1017E0001AD801A252F823F0F917000001180000DE
:1017F00009180000111800007B6805221A700CE01F
:101800007B6806221A7008E07B6807221A7004E0E1
:101810007B6808221A7000E000BF00BF0C37BD468D
:101820005DF8047B704700BF80B483B000AF786080
:101830007B681B78053B032B1AD801A252F823F0D2
:1018400051180000591800006118000069180000C4
:101850007B6804221A700CE07B6805221A7008E08D
:101860007B6806221A7004E07B6807221A7000E089
:1018700000BF00BF0C37BD465DF8047B704700BF5A
:1018800080B584B000AF0346B9607A60FB73FB7B20
:10189000043B042B20D801A252F823F0B118000019
:1018A000B9180000C1180000C9180000D1180000C4
:1018B000786800F045F80FE0B86800F06DF80BE0CC
:1018C000B86800F0A9F807E0B86800F0DDF803E0B8
:1018D000B86800F005F900BF00BF1037BD4680BDF5
:1018E00080B584B000AF0346B9607A60FB73FB7BC0
:1018F000043B042B20D801A252F823F01119000058
:1019000019190000211900002919000031190000DF
:10191000786800F02BF80FE0B86800F05DF80BE095
:10192000B86800F095F807E0B86800F0C3F803E085
:10193000B86800F0EBF800BF00BF1037BD4680BDAF
:1019400080B483B000AF78607B681B78032B06D02F
:101950007B681B780133DAB27B681A7000E000BF45
:1019600000BF0C37BD465DF8047B704780B483B080
:1019700000AF78607B681B78002B06D07B681B78F3
:10198000013BDAB27B681A7000E000BF00BF0C3781
:10199000BD465DF8047B704780B582B000AF7860CB
:1019A0007B681B7D012B09D0022B0CD0002B00D0B3
:1019B0000EE001217868FEF771FC09E002217868E9
:1019C000FEF76CFC04E003217868FEF767FC00BFBB
:1019D00000BF0837BD4680BD80B582B000AF7860DB
:1019E0007B681B7D022B09D0032B0CD0012B00D070
:1019F0000EE000217868FEF751FC09E001217868CB
:101A0000FEF74CFC04E002217868FEF747FC00BFBB
:101A100000BF0837BD4680BD80B483B000AF78609A
:101A20007B6893F82030002B02D0012B05D009E011
:101A30007B68012283F8202004E07B68022283F87F
:101A4000202000BF00BF0C37BD465DF8047B704707
:101A500080B483B000AF78607B6893F82030012BAE
:101A600002D0022B05D009E07B68002283F82020F9
:101A700004E07B68012283F8202000BF00BF0C3700
:101A8000BD465DF8047B704780B483B000AF7860DA
:101A90007B685B7D022B06D07B685B7D0133DAB20D
:101AA0007B685A7500E000BF00BF0C37BD465DF88B
:101AB000047B704780B483B000AF78607B685B7D47
:101AC000002B06D07B685B7D013BDAB27B685A75E0
:101AD00000E000BF00BF0C37BD465DF8047B7047D7
:101AE00080B483B000AF78607B689B7D022B06D00A
:101AF0007B689B7D0133DAB27B689A7500E000BF9A
:101B000000BF0C37BD465DF8047B704780B483B0DE
:101B100000AF78607B689B7D002B06D07B689B7D47
:101B2000013BDAB27B689A7500E000BF00BF0C375A
:101B3000BD465DF8047B7047B0B592B002AF034676
:101B4000FB71FB7907F10C010A2218460FF076F8B9
:101B5000234806F0C8FE2349214807F0BEFD07F1DF
:101B60000C0207F11003302118460FF0A1F807F11D
:101B7000100318460FF0E7F80546194B1B681B8841
:101B80005B089BB21C4607F1100318460FF0DBF808
:101B90000246134B93F824301946114B93F8273023
:101BA0000B4403FB02F35B08E31A18460C4B1B685B
:101BB0005B885B089BB21A46094B93F825305B089B
:101BC000DBB2D31A07F11001002201920093034601
:101BD0002A46034807F01AFD00BF4037BD46B0BD96
:101BE000740300207821010090B587B002AF3C4615
:101BF00084E80F000B4806F076FE07F120030FCBB8
:101C000000F012F86A4607F1300393E8030082E817
:101C100003003B460FCB00F021F900BF1437BD464F
:101C200090BD00BF7403002090B59DB002AF3C464C
:101C300084E80F0005237B650523BB65844B1B6887
:101C40001B885B089BB2FB65814B93F825303B6694
:101C5000D7ED027AF5EE407AF1EE10FA1AD17C4B0C
:101C60001B681B885B089BB20533DA0F13445B10BB
:101C70007B640523BB64764B1B681B885B089BB2A7
:101C80000533DA0F13445B10FB64714B93F8253076
:101C90003B657AE0D7ED027AF5EEC07AF1EE10FA04
:101CA0003DDB6B4B1B681B885B089BB20533DA0F6F
:101CB00013445B107B640523BB64654B1B681B8866
:101CC0005B089BB20533DA0F13445B1007EE903AC2
:101CD000B8EEE77AD7ED026A5D4B1B681B885B089C
:101CE0009BB219465A4B1B681B885B089BB2053395
:101CF000DA0F13445B105B420B4407EE903AF8EEA8
:101D0000E77A66EEA77A77EE277AFDEEE77A17EEA6
:101D1000903AFB644E4B93F825303B6535E04C4BD5
:101D20001B681B885B089BB20533DA0F13445B10FA
:101D300007EE903AB8EEE77A454B1B681B885B08C4
:101D40009BB20533DA0F13445B10053B07EE903A64
:101D5000F8EEE76AD7ED027A66EEA77A77EE277A91
:101D6000FDEEE77A17EE903A7B640523BB64384BAF
:101D70001B681B885B089BB20533DA0F13445B10AA
:101D8000FB64334B93F825303B6507F15403194648
:101D90002F4807F069FA07F1440319462C4807F069
:101DA000D9FA2C4A07F1100392E8030018600433B3
:101DB000198002330A0C1A7007F117032922002137
:101DC00018460EF06DFF3B460FCB00F0FDF978662C
:101DD0007B6E07F140010A2218460EF02FFF07F133
:101DE000400207F11003114618460EF095FF1A49FC
:101DF000174807F072FC07F1100318460EF0A3FF16
:101E0000134B1B681B88A3F1380207F11001002354
:101E1000019303230093134602460D4807F0F6FB97
:101E20000B4B93F825305A00094B1B681B88194649
:101E3000074B93F825305B0000930B464FF0FF31C2
:101E4000034807F0FAF800BF6C37BD4690BD00BFED
:101E5000740300208C170100581C010090B587B056
:101E600002AF3C4684E80F0097F82030042B00F2C4
:101E7000B78001A252F823F0EB1E0000991E00006B
:101E80008D1E00003D1F00008F1F00003B461946BD
:101E9000564807F0E9F9A4E03B68991C7A6838686D
:101EA000FB6800930346514807F0C7F8BB68991CCC
:101EB0007A68B868FB68009303464C4807F0BDF8A1
:101EC000B968FA683868FB6800930346474807F02A
:101ED000B4F8BB68991C7A683B68981C7B680093CF
:101EE0000346424807F0A9F87BE03B68191D7A6871
:101EF0003868FB68009303463C4807F09EF8BB68CF
:101F0000191D7A68B868FB6800930346374807F0E4
:101F100094F8B968FA683868FB6800930346334858
:101F200007F08BF8BB68191D7A683B68181D7B6841
:101F3000009303462D4807F080F852E03B68991E55
:101F40007A683868FB6800930346284807F075F8FC
:101F5000BB68991E7A68B868FB68009303462348FB
:101F600007F06BF8B968FA683868FB6800930346B5
:101F70001E4807F062F8BB68991E7A683B68981E95
:101F80007B6800930346194807F057F829E03B683F
:101F9000191F7A683868FB6800930346134807F0F6
:101FA0004CF8BB68191F7A68B868FB680093034651
:101FB0000E4807F042F8B968FA683868FB68009381
:101FC00003460A4807F039F8BB68191F7A683B686E
:101FD000181F7B6800930346044807F02EF800E0C2
:101FE00000BF00BF1437BD4690BD00BF7403002082
:101FF00084B090B400AF07F1080484E80F00164BDA
:102000001B681B885B089BB21A46B7F844305B0814
:102010009BB21A447B6E9A600F4B1B681B885B084F
:102020009BB21A46B7F844305B089BB2D21A7B6E5B
:102030001A60094B1B685B889A1E7B6E5A607B6E28
:102040005B68B7F846209A1A7B6EDA6000BFBD461F
:1020500090BC04B0704700BF7403002084B090B5FA
:1020600085B002AF07F1180484E80F000023FB716C
:1020700026E0FB7910335B007A6F1344181D7B6FE9
:102080001A6A7B6FDB8A1946FB790B44DB00134429
:1020900019687B6F1A6A7B6FDB8A1C46FB792344C5
:1020A000DB0013445B6800930B4607F1300206CA5D
:1020B00002F0D4F80346002B06D1FB790133FB7103
:1020C000FB79072BD5D900E000BFFB79BB716EE02F
:1020D000BB797A6F10335B0013441B791A46394B76
:1020E0001B681B88013B002B00DA0733DB105B42C7
:1020F000D118BB797A6F10335B0013445B791C46AF
:10210000BB79013B7A6F10335B0013441B791A468D
:102110002C4B1B681B88013B002B00DA0733DB10BC
:102120005B42D018BB79013B7A6F10335B001344DC
:102130005B79009303462246224806F07EFFBB7976
:102140007A6F10335B0013441B791A461D4B1B68D2
:102150001B88013B002B00DA0733DB10D118BB7959
:102160007A6F10335B0013445B791C46BB79013BEB
:102170007A6F10335B0013441B791A46114B1B68AE
:102180001B88013B002B00DA0733DB10D018BB792A
:10219000013B7A6F10335B0013445B790093034675
:1021A0002246084806F049FFBB79013BBB71BB7969
:1021B000002B8DD1002318460C37BD46BDE890405A
:1021C00004B070477403002090B585B000AF3C4662
:1021D00084E80F003B6807EE903AF8EE677A17EE56
:1021E000900A0EF04DF908A3D3E900230EF0A0F9F0
:1021F00003460C46184621460EF072FC034618466C
:102200001437BD4690BD00BFF7E978CC40E50140EA
:10221000F0B58FB002AF254B6FF07F425A60234B71
:1022200000229A60214806F05EFB21491F4807F012
:1022300054FA3B461F4A302118460EF039FD3B4602
:1022400018460EF080FD0646184B1B681B885B087D
:102250009BB21C46154B93F824301A46134B93F847
:10226000273013441D463B4618460EF06CFD0346CE
:1022700003FB05F39B08E31A053318460B4B1B6859
:102280005B885B089BB21A46084B93F825305B00CD
:10229000D31A39460022019200930346324603487E
:1022A00007F0B4F900BF3437BD46F0BD7403002019
:1022B000881F0100BC170100F0B58FB002AF254B9D
:1022C00000225A60234B6FF07F429A60214806F04B
:1022D0000AFB21491F4807F000FA3B461F4A3021FC
:1022E00018460EF0E5FC3B4618460EF02CFD06465F
:1022F000184B1B681B885B089BB21C46154B93F858
:1023000024301A46134B93F8273013441D463B469E
:1023100018460EF018FD034603FB05F39B08E31A6D
:10232000053318460B4B1B685B885B089BB21A464B
:10233000084B93F825305B00D31A394600220192EE
:10234000009303463246034807F060F900BF343774
:10235000BD46F0BD74030020881F0100BC170100BA
:1023600084B0F0B591B002AF07F1500484E80F00DB
:10237000554B6FF07F425A60534B00229A6052488F
:1023800006F0B1FA5149504807F0A7F93B1D504AF1
:10239000302118460EF08CFC3B1D18460EF0D3FC85
:1023A0000646494B1B681B885B089BB21C46464B84
:1023B00093F824301A46444B93F8273013441D46B3
:1023C0003B1D18460EF0BFFC034603FB05F35B08FC
:1023D000E31A1A46391D002301930523009313467F
:1023E0003246394807F012F9374B93F825305A0036
:1023F000354B1B681B881946334B93F825305B001F
:1024000000930B464FF0FF312F4806F016FE31497E
:102410002D4807F062F93B1D2F4A302118460EF077
:1024200047FC3B1D18460EF08EFC274B93F82530D9
:102430009B00391D0022019200930A230246224884
:1024400007F0E4F83B1D254A302118460EF030FC19
:102450003B1D18460EF077FC04461B4B1B681B887F
:10246000A3F13300184B93F825309B00391D00224F
:102470000192009303462246134807F0C7F8002351
:1024800087F8373013E097F837300133DAB297F82E
:1024900037309B0007F150010B445B68194610462A
:1024A00000F01EF897F83730013387F8373097F887
:1024B000503097F837209A42E5D300BF3C37BD46ED
:1024C000BDE8F04004B0704774030020881F01008D
:1024D000C8170100581C0100D4170100DC170100C7
:1024E00090B595B002AF03463960FB71FB7907F1F7
:1024F00014010A2218460EF0A1FB07F114032A4921
:1025000018460EF009FC2949294807F0E6F807F1BA
:10251000140207F11803302118460EF0C9FB07F129
:10252000180318460EF00FFCFB790533204A92F889
:10253000252002FB03F307F118010022019200930A
:102540000A2302461A4807F061F83B6807F10C01BC
:102550000A2218460EF072FB07F10C0207F118036D
:10256000302118460EF0A4FB07F1180318460EF0B0
:10257000EAFB04460E4B1B681B88A3F13300FB7972
:1025800005330B4A92F8252002FB03F307F11801EB
:1025900000220192009303462246054807F036F8D0
:1025A00000BF4C37BD4690BDE4170100581C010028
:1025B0007403002080B485B000AF786039607B6818
:1025C00003F1C063FB60FB683A681A6000BF143710
:1025D000BD465DF8047B704780B485B000AF78607D
:1025E00039607B6803F18063FB60FB683A681A60BE
:1025F00000BF1437BD465DF8047B704780B582B0DC
:1026000000AF03463960FB71FB79002B1CD0FB79CE
:10261000012B19D0FB79022B16D0FB79032B13D099
:10262000FB79042B10D0FB79052B0DD0FB79062B01
:102630000AD0FB79072B07D0FB79082B04D0FB7954
:10264000092B01D0FB790A2BFA7913465B0013445E
:102650001B010C3303F1804303F5204301213A6849
:1026600001FA02F211461846FFF7B6FF00BF08371D
:10267000BD4680BD80B582B000AF03463960FB71B6
:10268000FB79002B1CD0FB79012B19D0FB79022B95
:1026900016D0FB79032B13D0FB79042B10D0FB79D8
:1026A000052B0DD0FB79062B0AD0FB79072B07D021
:1026B000FB79082B04D0FB79092B01D0FB790A2B7D
:1026C000FA7913465B0013441B010C3303F180437A
:1026D00003F5204301213A6801FA02F21146184637
:1026E000FFF768FF00BF0837BD4680BD80B584B0E6
:1026F00000AF78604FF4FA73FB816423BB8100F074
:1027000003F9794B186800230022002107F04CFFE1
:10271000764B1A78764B1A70734B18680023002298
:10272000002107F08BFD724B1B78052B00F2CD804A
:1027300001A252F823F000BF5127000051270000EA
:1027400097270000B92700003F28000085280000D7
:10275000684B1B78184600F0F5F8674B1B78184655
:1027600000F005F9634B1B7883F00103DBB2002B0B
:1027700014BF01230023DAB25E4B1A705E4B1B7844
:1027800083F00103DBB2002B14BF01230023DAB274
:10279000594B1A7099E0574B00221A70564B002281
:1027A0001A70544B1B78184600F0CCF8524B1B782B
:1027B000184600F0DCF888E0504B5B78002B03D023
:1027C0004C4B01221A7013E04C4B1B78002B0CD0A1
:1027D000484B1B7883F00103DBB2002B14BF0123AD
:1027E0000023DAB2434B1A7002E0424B00221A7007
:1027F000424BDB78002B03D03F4B01221A7013E0D1
:102800003E4B9B78002B0CD03B4B1B7883F0010395
:10281000DBB2002B14BF01230023DAB2364B1A704F
:1028200002E0354B00221A70324B1B78184600F03C
:1028300089F8314B1B78184600F099F845E0304B89
:102840001B78012B09D02B4B00221A702A4B012236
:102850001A702B4B01221A7009E0264B01221A70C4
:10286000254B00221A70264B00221A7000BF214B04
:102870001B78184600F066F81F4B1B78184600F0CE
:1028800076F822E01F4B1B78012B09D0194B002250
:102890001A70194B00221A701A4B01221A7009E0A3
:1028A000144B01221A70144B01221A70154B00228E
:1028B0001A7000BF0F4B1B78184600F043F80E4B00
:1028C0001B78184600F053F800BF094B1B78042B07
:1028D00004D1BB89184608F069FA12E7FB8918464B
:1028E00008F064FA0DE700BFE0850020E203002055
:1028F000DD030020DE030020DF030020C48500206C
:10290000E0030020E103002080B500AF01210C4866
:1029100002F01AFA0021052003F060FC00230422D3
:102920000421052003F09AFC0021052003F056FC49
:10293000002304220521052003F090FC00BF80BD88
:1029400000350A0080B582B000AF0346FB71FB7909
:10295000002B04D004210520FFF78CFE03E00421A6
:102960000520FFF74BFE00BF0837BD4680BD80B590
:1029700082B000AF0346FB71FB79002B04D0052128
:102980000520FFF777FE03E005210520FFF736FE5F
:1029900000BF0837BD4680BD80B400AF044BDB6C80
:1029A0001B0EDBB21846BD465DF8047B704700BFC6
:1029B000B081E00F80B582B000AF164B01225A649F
:1029C000FFF7EAFF0346FB71FB79002B0CD1124B9A
:1029D0004AF6E8521A60114B1B68104A43F0040390
:1029E00013600D4B00221A60FB79012B05D80C4BAC
:1029F0001B680B4A43F4005313600A4B1B6A23F411
:102A00004413084A43F48813136200BF0837BD46D5
:102A100080BD00BF00000E4090310E4098310E4046
:102A200064310E4000400E4080B582B002AFFFF727
:102A3000C1FFFDF7CDFB01F00DFB3C48FDF7E4FBCA
:102A40003B48FDF79DFC3B48FDF7ABFC3A48FDF7E2
:102A5000BCFC3A480DF0D2FA0AF016FD0322002120
:102A6000012007F05AFB0246354B1A60012007F09F
:102A7000CCFB0246334B1A60012007F0C6FB02462E
:102A8000314B1A60012007F0C0FB02462F4B1A6041
:102A9000012007F0BAFB02462D4B1A60012007F017
:102AA000B4FB02462B4B1A60012007F0AEFB024636
:102AB000294B1A60294B01930423009300236422BD
:102AC0002749284808F02FF8274B0193012300934A
:102AD00000234FF4AF722549254808F024F800235D
:102AE0000193022300930023C8222249224808F0C0
:102AF0001AF800230193022300930023C8221F49E0
:102B00001F4808F010F81F4B019301230093002386
:102B1000C8221D491D4808F006F81A4B1B681846C4
:102B200008F0D6F908F0E2FAFEE700BF6885002059
:102B3000CC850020F4850020388600203C860020CB
:102B4000FC850020E8850020E4850020E085002049
:102B5000EC850020DC850020C885002064850020ED
:102B6000E8170100ED26000060850020F017010045
:102B700015070000FC170100B9300000081801001B
:102B8000F1030000F085002014180100C92B00009B
:102B900080B483B000AF4FF0A00383F31188BFF37C
:102BA0006F8FBFF34F8F7B60FEE780B485B000AFBF
:102BB000786039604FF0A00383F31188BFF36F8F03
:102BC000BFF34F8FFB60FEE7B0B59CB018AF7860E5
:102BD0003223FB817F4800F01FF97F4B18680023E8
:102BE0000A22002107F0E0FC7C4B1A787C4B1A701B
:102BF000794B186800230022002107F01FFB784B57
:102C00001B78042B05D1734800F006F9754B0022A0
:102C10001A70754B186800230A22002107F0C4FCC3
:102C20000346002B60D0714B1B7D002B55D0704BA1
:102C30001B7883F00103DBB2002B25D06B4B1B6AA2
:102C400018686A4B1B6A5968684B1B6A08331A6814
:102C5000664B1B6A08335B6801F0B6FC03461846F6
:102C60000DF00EFC03460C46184621460AF056FFAE
:102C700003460C46184621460DF052FF02465D4BB6
:102C80001A605B4B01221A705B4B186800230A2202
:102C9000002107F089FC0346002B1ED0574B93ED13
:102CA000167A544BD3ED007AB4EEE77AF1EE10FACF
:102CB0000CDD4E4BDB8A01339AB24C4BDA824C4B23
:102CC00000221A704D4B4FF000029A654A4B18686B
:102CD00000230022002107F0B1FA434B18680023BB
:102CE0000022002107F0AAFA454B186800230A22A7
:102CF000002107F059FC434B1B78022B3ED0424B7E
:102D0000186800230A22002107F04EFC3F4B1B6885
:102D100018460DF093FB4FF000024FF000030DF04A
:102D200097FE0346002B22D0334B186800230A225B
:102D3000002107F039FC314C344B13AD0FCB85E843
:102D40000F00684604F110034C2219460DF09DFF58
:102D500094E80F0000F0D0F803461A46214B1A7091
:102D6000254B186800230022002107F067FA264B44
:102D7000186800230022002107F060FA204B186831
:102D800000230022002107F059FA164B1B78012B73
:102D900004D0022B0ED0002B11D015E002210D48DB
:102DA00000F050F81A4B186800230322194908F064
:102DB0006FFF09E00021074800F044F804E000211B
:102DC000044800F06BF800BFFB89184607F0EEFFDF
:102DD00003E700BFC4850020E0850020E203002057
:102DE000E4030020E5030020C885002000860020C1
:102DF000E6030020E8030020DC8500206885002031
:102E0000E4850020F4850020E8850020CC850020A2
:102E1000608500202143658780B483B000AF78606F
:102E20007B6800221A707B6800225A707B6800223F
:102E30009A707B680022DA7000BF0C37BD465DF8DF
:102E4000047B704780B483B000AF78600B46FB70A2
:102E5000FB78032B1AD801A252F823F06D2E000044
:102E6000752E00007D2E0000852E00007B6801225B
:102E70001A700CE07B6801229A7008E07B680122DE
:102E80005A7004E07B680122DA7000E000BF00BFE6
:102E90000C37BD465DF8047B704700BF80B483B03B
:102EA00000AF78600B46FB70FB78032B1AD801A2A9
:102EB00052F823F0C52E0000CD2E0000D52E0000C4
:102EC000DD2E00007B6800221A700CE07B68002277
:102ED0009A7008E07B6800225A7004E07B68002248
:102EE000DA7000E000BF00BF0C37BD465DF8047B20
:102EF000704700BF0000000084B0B0B582B000AFE2
:102F000007F1180484E80F007B6F18460DF096FA5D
:102F10004FF000024FF080430AF062FC04460D4679
:102F2000B7F8583018460DF099FA02460B4620467D
:102F300029460DF027FC03460C46184621464FF063
:102F400000022B4B0DF01EFC03460C461846214692
:102F50004FF000024FF080430AF042FC03460C465B
:102F6000184621460DF0DCFD03467B6078680DF0C5
:102F700087FA03460C46184621460AF0CFFD034661
:102F80000C46184621460DF0CBFD03467B60D7ED7D
:102F9000147A97ED017AB4EEE77AF1EE10FA01DBDC
:102FA000012319E078680DF06BFA04460D463B6D7D
:102FB00018460DF065FA0CA3D3E900230DF0B8FA1A
:102FC00002460B46204629460DF038FD0346002BED
:102FD00001D0022300E0002318460837BD46BDE8B3
:102FE000B04004B0704700BF333333333333EB3F6B
:102FF0000000E03F80B485B000AF786039607B6846
:1030000003F10473DA003B6813449B00FB60FB6828
:103010001B6818461437BD465DF8047B70470000F6
:1030200080B483B000AF7860044A7B68C2F824346F
:1030300000BF0C37BD465DF8047B704700A0004020
:1030400080B582B000AF03463960FB71FB79002B7D
:103050001CD0FB79012B19D0FB79022B16D0FB7900
:10306000032B13D0FB79042B10D0FB79052B0DD04B
:10307000FB79062B0AD0FB79072B07D0FB79082BAD
:1030800004D0FB79092B01D0FB790A2BFA7913467E
:103090005B0013441B011C3303F1804303F5204301
:1030A00039681846FFF7A6FF034618460837BD469D
:1030B00080BD00000000000090B59DB014AF7860A6
:1030C0003223FB77FB7F4FF47A7202FB03F3B04AA3
:1030D00082FB03129211DB17D31ABB83C8237B83B5
:1030E0004FF47A733B8300F025FF398BA94B009393
:1030F00000230022A84808F02FFF0246A74B1A60C1
:10310000A74B0093002300224FF47A71A54808F0E2
:1031100023FF0246A44B1A60A44B00930023002215
:103120004FF49671A24808F017FF0246A14B1A60AF
:1031300000F01EFF03461A469F4B1A7000F035FF41
:1031400003461A469D4B1A709D4B186800230022B7
:10315000002107F029FA9B4B1A789B4B1A70984B69
:10316000186800230022002107F068F8974B1868C0
:1031700000230022002107F017FA954B1A78954B8F
:103180001A70924B186800230022002107F056F8AD
:103190008D4B1B78052B00F2F08201A252F823F030
:1031A0007B370000B93100007B370000213300007D
:1031B0007B370000CD3600007F4B1A787F4B1B78A1
:1031C0001946104600F00EFF0346032B00F2A680BE
:1031D00001A252F823F000BFF3320000E9310000F1
:1031E0008F320000C13200007B4B01221A706E4BFF
:1031F0001B68184609F0CCF90346002B0CD16A4B2A
:103200001C6808F05FF803461A460A23009300235F
:103210000221204608F0F0FE704B186800230022BF
:10322000002107F0C1F96E4B18680023002200212D
:1032300007F0BAF96B4C684604F110034C221946AA
:103240000DF023FD94E80F0000F002FE0246654BEE
:103250005A63644C684604F110034C2219460DF081
:1032600014FD94E80F0000F01BFE02465D4B9A63CC
:103270005B4B186800230022002106F0DFFF574B4C
:10328000186800230022002106F0D8FF47E0464BD3
:103290001B68184609F07CF90346012B08D1424B04
:1032A00018680A23009300230022032108F0A4FEDB
:1032B0004D4B186800230322AA2108F0E9FC2EE0F8
:1032C000394B1B68184609F063F90346012B08D1F6
:1032D000354B18680A23009300230022032108F0CD
:1032E0008BFE414B186800230322552108F0D0FCC7
:1032F00015E02D4B1B68184609F04AF90346012BCF
:1033000008D1294B18680A230093002300220321C7
:1033100008F072FE304B00221A7000E000BF2CE271
:10332000244B1B68184609F033F90346002B0CD1D7
:10333000204B1C6807F0C6FF03461A460A23009379
:1033400000230121204608F057FE1B4B1A781B4B27
:103350001B781946104600F045FE0346022B45D067
:10336000032B00F0A180012B40F0F5801A4B0122C5
:103370001A700A4B1C6807F0A5FF03461A460A2379
:10338000009300230221204608F036FEECE000BF47
:10339000D34D6210BD37000020180100EC0300205F
:1033A0001538000030180100F003002085380000B7
:1033B00040180100F4030020F8030020F903002066
:1033C000E0850020E2030020FA030020EC850020C5
:1033D000E3030020FB030020FC030020DC85002029
:1033E000E88500206885002060850020A84B1B78B8
:1033F000002B08D0A74B18680A2300930023002253
:10340000032108F0F9FDA44B1B78012B00F0A780E5
:10341000A24B186800230A22002107F0C5F80346D2
:10342000012B40F09E809E4B9B6818460DF028F8BB
:1034300095A3D3E900230CF0C5FE03460C461846BD
:1034400021464FF00002974B0DF0EEFA0346002B99
:1034500013D0934B9B6818460DF012F88AA3D3E95A
:1034600000230CF0AFFE03460C46184621460DF033
:1034700057FB02468A4B9A6003E0894B4FF07E521D
:103480009A60874BD3ED027AF5EEC07AF1EE10FA2E
:1034900002DB834B00221A73804B18680023002242
:1034A000002106F0CBFE5CE0794B1B78002B08D0A6
:1034B000784B18680A23009300230022032108F0A8
:1034C0009BFD764B186800230A22002107F06CF858
:1034D0000346012B47D1724B9B6818460CF0D0FF76
:1034E00069A3D3E900230CF06BFE03460C46184693
:1034F00021464FF000026C4B0DF0A0FA0346002B62
:1035000013D0674B9B6818460CF0BAFF5EA3D3E953
:1035100000230CF055FE03460C46184621460DF0DC
:10352000FFFA02465E4B9A6002E05D4B5F4A9A608A
:103530005B4BD3ED027AF5EEC07AF1EE10FA02D5CC
:10354000574B01221A73554B1868002300220021A3
:1035500006F074FE07E04E4B00221A7004E000BF34
:1035600002E000BF00E000BF4C4B186800230A22B5
:10357000002107F019F84A4B1B687B61474B18681C
:1035800000230022002106F059FE494B1868002351
:103590000A22002107F008F8464B186800230A2287
:1035A000002107F001F8444B444A00920CCB7969A2
:1035B000434800F08BFA3E4B18680023002200219C
:1035C00006F03CFE3F4B186800230A22002106F05B
:1035D000EBFF3D4B1A6A3C4BDB8ADB00134493ED57
:1035E000007A394B1A6A384BDB8A0133DB0013440B
:1035F000D3ED007A77EE677AC7ED047A324B1A6A18
:10360000314BDB8ADB00134493ED017A2E4B1A6AAF
:103610002D4BDB8A0133DB001344D3ED017A77EEC7
:10362000677AC7ED037A97ED047AD7ED047A27EE2F
:10363000277AD7ED036AD7ED037A66EEA77A77EE9D
:10364000277A17EE900A0CF01BFF03460C4618462B
:1036500021460AF063FA03460C46184621460DF04F
:103660005FFA0346BB60134B186800230022002159
:1036700006F0E4FD134B186800230022002106F039
:10368000DDFD7AE0AFF300809A9999999999A93F65
:10369000FC030020EC030020FB030020E885002051
:1036A000CC8500200000F03F0000F0BF000080BF8C
:1036B000E4850020DC850020F4850020CDCC4C3D45
:1036C00068850020C885002000860020324B1868DD
:1036D00000230A22002106F067FF304B4FF0000262
:1036E0009A602E4B00221A732C4B00225A602B4BEF
:1036F00000221A60284B186800230022002106F0DF
:103700009DFD274B186800230A22002106F04CFF7C
:10371000244B4FF000029A65214B186800230022C9
:10372000002106F08BFD204B1A78204B1B781946A0
:10373000104600F057FC0346012B18D11C4B012208
:103740001A701C4B1B68184608F022FF0346002B1A
:1037500011D1184B1C6807F0B5FD03461A460A2321
:10376000009300230221204608F046FC03E0104BA2
:1037700000221A7000E000BF00BF0F4B1B78012B26
:1037800004D17B8B184607F011FBD1E4BB8B1846A4
:1037900007F00CFBCCE400BFE8850020CC850020BE
:1037A000DC85002068850020F8030020F903002054
:1037B000FC030020F0030020FA03002080B582B053
:1037C00000AF7860114B186800230A22002106F030
:1037D000EBFE0346012B15D10D4B1B78012B03D1BA
:1037E0000B4B00221A7006E0094B1B78002B02D10C
:1037F000074B01221A70054B186800230022002194
:1038000006F01CFD00BF0837BD4680BDEC850020DA
:10381000E303002080B584B000AF7860144B1868D3
:1038200000230022002106F0BFFE124B1B78FB7321
:103830000F4B186800230022002106F0FFFCFB7BE1
:10384000012B07D10C4B1868002303220B4908F009
:103850001FFA09E0FB7B052B06D1074B18680023F4
:103860000322074908F014FA00BF1037BD4680BD97
:10387000E0850020E203002060850020F0DEBC0A25
:10388000B1CAED0FB0B59AB018AF7860254B186883
:1038900000230A22002106F087FE234B186800232C
:1038A0000A22002106F080FE204B214A0192DA68AC
:1038B00000920ECB1F4800F01BFB1E4C1B4B13ADA0
:1038C0000FCB85E80F00684604F110034C2219461F
:1038D0000DF0DBF994E80F0000F02EF807EE900AE7
:1038E000FCEEE77A17EE902A104B1A600F4B1A681D
:1038F0000E4B5B689A4203D90C4B1B680B4A536012
:10390000084B186800230022002106F097FC064BA4
:10391000186800230022002106F090FC00BF083741
:10392000BD46B0BDDC850020E8850020CC850020A8
:103930009A99993E6885002084B02DE9F0439FB0A4
:1039400018AF07F1380686E80F0097ED277AD7ED14
:10395000207A67EE277AC7ED037A13AE07F1940356
:103960000FCB86E80F00684607F148034C22194642
:103970000DF08BF907F138030FCB00F013FA034673
:10398000BB66BB6E7B61D7F89430002B08D0D7EDB7
:103990001C7A97ED057A77EE277AC7ED057A07E06E
:1039A000D7ED1B7A97ED057A77EE277AC7ED057A82
:1039B00097F8A030002B07D0D7ED217A97ED057A44
:1039C00077EE277AC7ED057AD7F8943007EE903A6C
:1039D000F8EE677A97ED057A67EE277AC7ED057AF4
:1039E000394BBB604FF000033B6197ED037AD7ED95
:1039F000057A37EE677AD7ED1F7A77EEA76AD7EDAB
:103A0000027A66EEA77AC7EE276A16EE900A0CF0E5
:103A100037FD02460B46C7E900234FF000024FF086
:103A20000003D7E900010DF013F80346002B14D072
:103A3000D7E900010AF072F803460C461846214601
:103A40000DF06EF803463B6197ED047AD7ED027AEC
:103A500067EE277AC7ED047A22E0D7ED027AF1EE1D
:103A6000677A17EE903A18460CF00AFD80468946B0
:103A70003C687B6883F00045204629460AF04EF8F2
:103A800003460C461A462346404649460CF050FD74
:103A900003460C46184621460DF042F803463B61AA
:103AA000D7F8943007EE903AF8EE677A97ED047AFB
:103AB00077EE277AC7ED047A3B6918461C37BD4676
:103AC000BDE8F04304B070479A99993EB0B58CB008
:103AD00000AFF860B960394681E80C00AC4BFB617F
:103AE0004FF00003FB624FF00003BB627B687B6218
:103AF000D7ED097A9FEDA77AF4EEC77AF1EE10FAC6
:103B000008D8D7ED097AF5EEC07AF1EE10FA01DBAC
:103B1000012300E00023002B09D14FF0A00383F321
:103B20001188BFF36F8FBFF34F8FBB61FEE7002398
:103B300087F82330D7ED017AF5EEC07AF1EE10FA6E
:103B400008DBD7ED017A9FED947AF4EEC77AF1EEB7
:103B500010FA08D9D7ED017A9FED8E7AF4EE477A04
:103B6000F1EE10FA03D1012387F8233058E0D7EDA6
:103B7000017A9FED897AF4EEC77AF1EE10FA14DD3E
:103B8000D7ED017A9FED857AF4EEC77AF1EE10FA5F
:103B90000BD8022387F82330D7ED097A9FED7E7A80
:103BA00077EEC77AC7ED097A3AE0D7ED017A9FED53
:103BB0007B7AF4EEC77AF1EE10FA14DDD7ED017AD4
:103BC0009FED777AF4EEC77AF1EE10FA0BD8032363
:103BD00087F82330D7ED097A9FED707A77EEC77AB0
:103BE000C7ED097A1CE0D7ED017A9FED6D7AF4EE0E
:103BF000C77AF1EE10FA13DDD7ED017A9FED657A01
:103C0000F4EEC77AF1EE10FA0AD5042387F82330D0
:103C1000D7ED097A9FED627A77EEC77AC7ED097A18
:103C200097ED097AD7ED077A27EE277ADFED5B6A01
:103C3000C7EE267AC7ED097ABB6807EE903AB8EE70
:103C4000677AD7ED107A67EE277A17EE900A0CF0B4
:103C500017FC04460D46786A0CF012FC02460B462F
:103C60001046194609F026FD02460B462046294615
:103C70000CF05EFC03460C46184621460CF050FF43
:103C80000346FB62BB6807EE903AB8EE677AD7ED61
:103C9000107A67EE277A17EE900A0CF0F1FB0446D3
:103CA0000D46786A0CF0ECFB02460B4610461946AE
:103CB00009F0B8FC02460B46204629460CF038FCB9
:103CC00003460C46184621460CF02AFF0346BB6209
:103CD00097F82330013B032B25D801A252F823F09B
:103CE000F13C0000FF3C0000193D00003B3D00009E
:103CF000D7ED0B7AF1EE677AC7ED0B7A1EE0D7EDC0
:103D00000B7AF1EE677AC7ED0B7AD7ED0A7AF1EE0E
:103D1000677AC7ED0A7A11E0D7ED0A7AF1EE677A91
:103D2000C7ED0A7A0AE04FF0A00383F31188BFF3CE
:103D30006F8FBFF34F8F7B61FEE700BFFB6893ED92
:103D4000067AD7ED0B7A77EE277AFB68C3ED067A11
:103D5000FB6893ED077AD7ED0A7A77EE277AFB684E
:103D6000C3ED077AFB6893ED167ABB6807EE903ACD
:103D7000F8EE676AD7ED107A66EEA77A77EE277AC3
:103D8000FB68C3ED167A00BF3037BD46B0BD00BF3B
:103D9000C3F548400000B4430000B442000034437F
:103DA0000000874384B0B0B582B000AF07F11804BB
:103DB00084E80F00B7F85A3007EE903AB8EEE77A89
:103DC000D7ED117A67EE277AC7ED017A7B6F184637
:103DD0000CF034FB4FF000024FF0804309F000FD7F
:103DE00004460D4678680CF04BFB02460B46204615
:103DF00029460CF0E7F903460C46184621460CF01C
:103E00008FFE03467B6078680CF03AFB4FF033324C
:103E10000E4B0CF08DFB03460C46184621464FF026
:103E200000024FF080430CF0ADFC03460C461846F0
:103E300021460CF075FE03467B607B681846083708
:103E4000BD46BDE8B04004B0704700BF3333F33F18
:103E500084B098B500AF07F1100484E80F0097ED27
:103E60000D7AD7ED157A67EE277A17EE900A0CF0E7
:103E700007FB09A3D3E900230CF05AFB03460C46C9
:103E8000184621460CF04CFE03461846BD46BDE8D8
:103E9000984004B0704700BF1F85EB51B89E234087
:103EA00084B098B500AF07F1100484E80F0097EDD7
:103EB0000E7AD7ED157A67EE277A17EE900A0CF096
:103EC000DFFA09A3D3E900230CF032FB03460C46CA
:103ED000184621460CF024FE03461846BD46BDE8B0
:103EE000984004B0704700BF1F85EB51B89E234037
:103EF00084B080B483B000AF786007F1140080E82C
:103F00000E007B6893ED167A7B6907EE903AF8EE27
:103F1000676AD7ED097A66EEA77A77EE277A7B682B
:103F2000C3ED167A00BF0C37BD465DF8047B04B0C4
:103F30007047000080B500AF01210C4800F004FF7D
:103F40000021052002F04AF9002301220621052064
:103F500002F084F90021052002F040F9002301223B
:103F60000721052002F07AF900BF80BD00350A0064
:103F700080B582B000AF06210520FFF761F8034647
:103F8000002B0CBF01230023DBB27B607B68002B7E
:103F900001D1002305E07B68002B01D0012300E064
:103FA000012318460837BD4680BD80B582B000AFFA
:103FB00007210520FFF744F80346002B0CBF01231F
:103FC0000023DBB27B607B68002B01D1002305E07E
:103FD0007B68002B01D0012300E00123184608373D
:103FE000BD4680BD80B483B000AF03460A46FB7176
:103FF0001346BB71FB79012B04D1BB79012B01D195
:10400000012310E0FB79012B04D1BB79002B01D1F6
:10401000022308E0FB79002B04D1BB79012B01D1ED
:10402000032300E0002318460C37BD465DF8047BEF
:10403000704780B500AF45F25550FEF7F1FF00BF65
:1040400080BD80B500AF4AF6AA20FEF7E9FF00BFA9
:1040500080BD000080B500AF3D493E480CF06BFECE
:104060003C4B4B221A833B4B1B8B1A4613469B003F
:1040700013445B001A46374BDA61364B0022DA8272
:10408000344B354A1A62354935480CF054FE344BEE
:1040900032221A83324B1B8B1A4613469B00134461
:1040A0005B001A462E4BDA612D4B0022DA824FF468
:1040B000167005F035FB0246294B1A624FF4167252
:1040C000254928480CF0E1FD274928480CF033FE2B
:1040D000264B32221A83254B1B8B1A4613469B0014
:1040E00013445B001A46214BDA61204B0022DA822E
:1040F0004FF4167005F014FB02461C4B1A624FF485
:10410000167215491A480CF0C0FD1A491A480CF0ED
:1041100012FE194B32221A83174B1B8B1A46134679
:104120009B0013445B001A46134BDA61124B0022CA
:10413000DA824FF4167005F0F3FA02460E4B1A625B
:104140004FF4167204490D480CF09FFD00BF80BD6E
:1041500054180100000400205C00002060180100D9
:10416000380400205804002070180100700400205A
:104170009004002078180100A8040020C804002042
:10418000B0B582B000AF78600B46FB70FB78032BB4
:104190004ED801A252F823F0A9410000D7410000F7
:1041A000F5410000134200007B682B4A1C4615466F
:1041B0000FCD0FC40FCD0FC40FCD0FC495E8030072
:1041C00084E803007B68186A234B1B6A04221946A3
:1041D0000CF05BFD3BE07B681F4A1C4615460FCD8B
:1041E0000FC40FCD0FC40FCD0FC495E8030084E8B2
:1041F00003002CE07B68184A1C4615460FCD0FC4FF
:104200000FCD0FC40FCD0FC495E8030084E8030061
:104210001DE07B68104A1C4615460FCD0FC40FCD1C
:104220000FC40FCD0FC495E8030084E803000EE02F
:104230007B68094A1C4615460FCD0FC40FCD0FC42D
:104240000FCD0FC495E8030084E8030000BF00BF52
:104250000837BD46B0BD00BF0004002090B58DB04A
:1042600000AF786107F10C0080E80600BB60D7ED75
:10427000037A97ED027A77EE677AC7ED087AD7ED81
:10428000047A97ED107A77EE677AC7ED097A97EDA1
:10429000087ADFED386AC7EE267AC7ED067A97ED21
:1042A000097ADFED346AC7EE267AC7ED077ABB6973
:1042B00018460CF0E5F84FF000022F4B0BF082FF90
:1042C00003460C46184621464FF000022B4B0CF0DB
:1042D0002FF903460C46184621460CF021FC0346F4
:1042E000FB62D7ED077A9FED267A67EE877A9FED1E
:1042F000247A77EE677AC7ED0A7AD7ED0B7AFCEE6F
:10430000E77AC7ED017A3B79DAB27B691A70D7EDAB
:104310000A7AFCEEE77AC7ED017A3B79DAB27B697B
:104320005A70D7ED0B7A9FED177AF4EEC77AF1EE5B
:1043300010FA08DCD7ED0A7A9FED127AF4EEC77A0C
:10434000F1EE10FA01DD012310E0D7ED0B7AF5EE66
:10435000C07AF1EE10FA06D4D7ED0A7AF5EEC07AFB
:10436000F1EE10FA01D5012300E00023184634379E
:10437000BD4690BD000020420000E03F00006040CC
:104380000000004300000A4384B090B58FB000AF36
:1043900007F1480484E80F00874B3B63BB6E1B6842
:1043A0003B61BB6E5B687B61BB6E08331B68BB60A7
:1043B000BB6E08335B68FB60BB6E1B683B60D7ED70
:1043C000057AB2EE047A77EE877AC7ED017AB8689B
:1043D000F9683A687B6800F0F7F807EE900AFCEE9F
:1043E000E77A17EE903AFB62386979693A687B6838
:1043F00000F0EAF807EE900AFCEEE77A17EE903A42
:10440000BB62386979693A687B6800F0DDF807EECD
:10441000900AFCEEE77A17EE903A7B62F86A0CF0AD
:104420000DF803460C461846214609F077FB034673
:104430000C46184621460CF073FB03463B62B86AF3
:104440000BF0FCFF03460C461846214609F066FBBC
:1044500003460C46184621460CF062FB0346FB61FE
:10446000786A0BF0EBFF03460C461846214609F02C
:1044700055FB03460C46184621460CF051FB0346FB
:10448000BB61BA6A7B6A1A44FB6AD31A07EE903A98
:10449000B8EE677AD7ED077A77EEA76AD7ED067A96
:1044A00066EEA77AC7EE276A16EE900A0BF0E8FFD1
:1044B00003460C461846214609F040F903460C46CF
:1044C000184621460CF02CFB03467B63D7ED0D7A92
:1044D0009FED3A7A67EE876A97ED0C7AC6EE877A97
:1044E000C7ED0D7ABB6E083393ED007ABB6ED3ED4A
:1044F000007AB4EEE77AF1EE10FA14DDBB6E083301
:1045000093ED017ABB6ED3ED017AB4EEE77AF1EE6A
:1045100010FA08DDD7ED0D7A9FED297A77EE877ACC
:10452000C7ED0D7A40E0BB6E083393ED007ABB6EA9
:10453000D3ED007AB4EEE77AF1EE10FA14DDBB6E3B
:10454000083393ED017ABB6ED3ED017AB4EEE77ACE
:10455000F1EE10FA08D5D7ED0D7A9FED187A77EEC7
:10456000877AC7ED0D7A1FE0BB6E083393ED007AB2
:10457000BB6ED3ED007AB4EEE77AF1EE10FA13D504
:10458000BB6E083393ED017ABB6ED3ED017AB4EEC6
:10459000E77AF1EE10FA07D5D7ED0D7A9FED097A9B
:1045A00077EE877AC7ED0D7A7B6B18463C37BD46B0
:1045B000BDE8904004B07047C3F548400000344364
:1045C000000087430000B44280B487B000AFF860B9
:1045D000B9607A603B6097ED037AD7ED017A77EEA8
:1045E000677AC7ED057A97ED027AD7ED007A77EE14
:1045F000677AC7ED047A97ED057AD7ED057A27EE4D
:10460000277AD7ED046AD7ED047A66EEA77A77EEBB
:10461000277A17EE903A18461C37BD465DF8047BA2
:10462000704780B487B000AFF860B9607A60FB680B
:1046300003F10473DA00BB6813449B007B617B6960
:104640007A681A6000BF1C37BD465DF8047B70476E
:1046500080B485B000AF786039607B6803F1C063D7
:10466000FB60FB683A681A6000BF1437BD465DF80E
:10467000047B704780B485B000AF786039607B6898
:1046800003F18063FB60FB683A681A6000BF14376F
:10469000BD465DF8047B704780B584B000AFF8601C
:1046A000B9607A60B968F868FFF7E4FF7968F8687C
:1046B000FFF7CEFF00BF1037BD4680BD80B582B08A
:1046C00000AF786039607B68B3F1804F02D07B68BF
:1046D000194A934200BF3B681B78DB071A463B68C8
:1046E0005B681B06134343F400427B681A603B6817
:1046F000DB681B043A68127A1A437B689A623B684B
:104700001B691B043A68527A1A437B68DA623B6879
:104710009B7A1B0743F0806343F47D437A685360C0
:1047200078683B681B7D1A460021FFF77AFF00BFBF
:104730000837BD4680BD00BF0004004080B582B090
:1047400000AF78600B46FB707B68B3F1804F02D0FE
:104750007B68074A934200BF7B680433FA78FF21E5
:104760001846FFF799FF00BF0837BD4680BD00BF60
:104770000004004080B483B000AF78607B68B3F180
:10478000804F02D07B68074A934200BF7B681B685A
:1047900023F001027B681A6000BF0C37BD465DF84C
:1047A000047B70470004004080B483B000AF7860A1
:1047B0007B68B3F1804F02D07B68074A934200BF09
:1047C0007B681B6843F001027B681A6000BF0C37EE
:1047D000BD465DF8047B70470004004080B487B09C
:1047E00000AFF860B9607A60FB6803F10473DA0027
:1047F000BB6813449B007B617B697A681A6000BFC9
:104800001C37BD465DF8047B704780B485B000AFAF
:10481000786039607B6803F10473DA003B68134405
:104820009B00FB60FB681B6818461437BD465DF8AB
:10483000047B704780B483B000AF786001227B684E
:1048400002FA03F318460C37BD465DF8047B704747
:1048500080B582B000AF78607868FFF7EBFF034661
:1048600018460837BD4680BD80B584B000AF78607B
:104870007B680133B3FA83F3DBB2C3F11F03FB6040
:10488000F868FFF7D7FFFB6818461037BD4680BDB4
:1048900080B500AF00BF12210348FFF7B6FF034603
:1048A000002BF8D100BF80BD04300E4080B500AFB2
:1048B000FFF7EEFF034B5B681B0C03F00303DBB257
:1048C000184680BD00300E4080B584B000AF7860DF
:1048D0000123FB607B68124A934204D80023FB60EB
:1048E0000023BB6008E07B680E4A934202D8012394
:1048F000BB6001E00223BB60FA6810210A48FFF7A1
:104900006DFF094BD3F8003123F08072BB681B06A2
:1049100005491343C1F8003100BF1037BD4680BDC3
:104920000048E8010090D00300400E4080B483B0FE
:1049300000AF054B1B687B607B6818460C37BD4693
:104940005DF8047B704700BFB402002080B582B0E0
:1049500000AF08F0EFFD7860064BD3F800311B0A7A
:1049600003F01F0301337A6802FB03F3184608378C
:10497000BD4680BD00400E4080B582B000AF0D48FE
:1049800000F03CFD0346FB70FB78072B05D0092B9C
:1049900007D108F0CFFD786006E0FFF7C7FF786029
:1049A00002E000237B6000BF7B6818460837BD46E5
:1049B00080BD00BF06000E0080B584B000AF7860F7
:1049C0007B68002B1CD11B4800F018FD0346FB72CE
:1049D00000BFFB7A013B072B23D801A252F823F03A
:1049E000054A0000234A0000234A0000134A000041
:1049F000234A0000234A00000B4A00001B4A000023
:104A0000002312E00023FB600EE0FFF78FFFF86049
:104A10000AE008F0C7FDF86006E0FFF797FFF860CE
:104A200002E00023FB6000BFFB6818461037BD465C
:104A300080BD00BFB800320080B485B000AF7860A0
:104A400039601E4B5B6803F04073FB600023BB6062
:104A500012E01B4ABB68DB0013441A793B68DBB2E7
:104A60009A4206D1164ABB6852F833307A689A42A5
:104A700006D9BB680133BB60BB68042BE9D900E0F1
:104A800000BFBB68052B02D10323FB6005E00C4A85
:104A9000BB68DB0013445B79FB60FB681B06FB60B3
:104AA000064B5B6823F040720449FB6813434B607C
:104AB00000BF1437BD465DF8047B704700000E4010
:104AC0008418010080B582B000AF0E4B1B6C002B28
:104AD00014BF01230023FB710A4B41F671321A64A3
:104AE00008F01EFD034600211846FFF7A5FFFB79DD
:104AF000002B02D0034B00221A6400BF0837BD46CA
:104B000080BD00BF00000E4080B584B000AF78606B
:104B100039600C4B1B6C002B14BF01230023FB736B
:104B2000084B41F671321A6439687868FFF784FFE0
:104B3000FB7B002B02D0034B00221A6400BF10370E
:104B4000BD4680BD00000E4080B487B000AF7860E5
:104B50000F237B617B6803333B617B69FB60FA68F1
:104B60003B69934228BF1346BB60BB681B07BB6011
:104B7000BB6818461C37BD465DF8047B70470000D3
:104B800080B400AF044B5B6A1B0903F003031846B3
:104B9000BD465DF8047B704700400E4080B483B092
:104BA00000AF7860074B5B6A23F030027B681B0123
:104BB000044913434B6200BF0C37BD465DF8047BCC
:104BC000704700BF00400E4090B585B000AF7860E0
:104BD0000023BB607B68354A934206D0344A934237
:104BE00003D0344A934200D000E000BF786800F060
:104BF00005FC0346FB607B682C4A93420DD02C4A8F
:104C0000934211D02B4A934200D014E02A4BD3F8A0
:104C1000803003F00703FB600DE0274BD3F88430AE
:104C200003F00703FB6006E0234BD3F8883003F062
:104C30000703FB6000BFFB68042B2ED801A252F8CB
:104C400023F000BF954C0000594C0000614C00005F
:104C5000714C0000694C000008F0C6FCB8601FE011
:104C600008F0D4FCB8601BE008F0C7FCB86017E09F
:104C700008F036FC0446104BD3F800311B0E03F04D
:104C8000010301331846FFF7E3FD0346B4FBF3F3DA
:104C9000BB6005E00023BB6002E00023BB6000BFF7
:104CA000BB6818461437BD4690BD00BF0300200006
:104CB0000500240002001E0000400E4080B483B0B6
:104CC00000AF78600A4BD3F8443103F00103002BA6
:104CD00008D100BF064BD3F840217B681340002B5E
:104CE000F8D100E000BF0C37BD465DF8047B70478B
:104CF00000400E4080B400AF00BFBD465DF8047BAD
:104D0000704780B400AF00BFBD465DF8047B7047BC
:104D100080B582B000AF7860786800F081F9034612
:104D2000013318460837BD4680BD80B582B000AF5C
:104D3000786039603B68013B1946786800F032FAC8
:104D400000BF0837BD4680BD80B586B000AF786033
:104D50000B46FB7000233B617B681B0A03F00F03CB
:104D6000013B092B44D801A252F823F0954D0000D5
:104D7000A14D0000F14D0000F14D00009B4D0000E1
:104D8000A74D0000B14D0000F14D0000BB4D0000EB
:104D9000C74D0000184B7B6118E0184B7B6115E094
:104DA000174B7B6112E0174B7B6101233B610DE0E8
:104DB000154B7B6110233B6108E0144B7B614FF482
:104DC00080333B6102E0124B7B6100BF7B681B0BB1
:104DD00003F01F03FB603B69002B02D03869FFF72B
:104DE0006DFFFB781A46F9687869FFF7F7FC00E079
:104DF00000BF1837BD4680BD00400E40B0400E4099
:104E0000C0400E40E0400E40E8400E40F0400E40F2
:104E100050410E4080B584B000AF78607B6803F4E9
:104E20007813B3F5A01F7DD0B3F5A01F1AD8B3F542
:104E3000202F50D0B3F5202F08D8B3F5003F4ED027
:104E4000B3F5802F38D0002B32D0D8E0B3F5602FE7
:104E500000F0C880B3F5801F00F0C880B3F5402F84
:104E60004CD0CCE0B3F5001F00F08B80B3F5001FF1
:104E70000AD8B3F5D01F00F08980B3F5F01F4CD0ED
:104E8000B3F5B01F5CD0BAE0B3F5381F6AD0B3F504
:104E9000381F04D8B3F5101F00F09F80AFE0B3F5C2
:104EA000401F00F08680B3F5481F00F0A380A6E005
:104EB00008F040FBF860A5E008F03CFBF860544BBC
:104EC000D3F80C311B0AC3F308030133FA68B2FBB1
:104ED000F3F3FB6096E008F02DFBF86092E008F039
:104EE00029FBF8604A4BD3F808311B0AC3F30803C7
:104EF0000133FA68B2FBF3F3FB6083E008F01AFBBE
:104F0000F860434BD3F814311B0A03F01F0301333D
:104F1000FA68B2FBF3F3FB6074E03E48FFF754FE1F
:104F2000F8606FE03C48FFF74FFEF860384BD3F86D
:104F3000303103F00303FA6822FA03F3FB6061E007
:104F40003448FFF741FEF860314BD3F8203103F0CD
:104F50000F031846FFF77CFC0246FB68B3FBF2F335
:104F6000FB604FE02B48FFF72FFEF860284BD3F88B
:104F700020311B0903F00303FA6822FA03F3FB60F4
:104F800040E02648FFF720FEF8603BE02348FFF7AB
:104F90001BFEF8601E4BD3F828311B0903F00303F6
:104FA0001846FFF755FC0246FB68B3FBF2F3FB60C3
:104FB00028E01A48FFF708FEF860154BD3F82831AF
:104FC0001B0A03F0030304331846FFF741FC0246B3
:104FD000FB68B3FBF2F3FB6014E00F48FFF7F4FD4E
:104FE000F8600FE0FFF7C8FCF8600BE0FFF79EFCED
:104FF000F86007E00020FFF7DFFCF86002E0002324
:10500000FB6000BFFB6818461037BD4680BD00BF7F
:1050100000400E4002001E00050024000300200096
:1050200080B584B000AF78607B681B0903F00F0384
:10503000BB60BB68013B092B00F2A08001A252F8C3
:1050400023F000BF6D5000007D5000008D50000027
:105050009D5000007D5100007D510000AD500000CA
:10506000BD5000000B5100005F510000474BD3F8CA
:1050700000311B0A03F01F03FB6082E0434BD3F8AF
:1050800014311B0A03F01F03FB607AE03F4BD3F897
:1050900000311B0E03F00103FB6072E03B4BD3F8C1
:1050A0000C311B0AC3F30803FB606AE0374BD3F8EB
:1050B00008311B0AC3F30803FB6062E07B68344AD3
:1050C000934203D0334A93420DD01AE02F4BD3F8CA
:1050D000203103F00F03FB60F868FFF7B9FB0346CC
:1050E000013BFB6010E0294BD3F820311B0903F092
:1050F0000303FB60F868FFF7ABFB0346013BFB6073
:1051000002E00023FB6000BF3BE07B68224A934241
:1051100003D0224A93420ED01DE01C4BD3F8283115
:105120001B0903F00303FB60F868FFF791FB0346DC
:10513000013BFB6012E0154BD3F828311B0A03F04A
:105140000303FB60FB6804331846FFF781FB03464B
:10515000013BFB6002E00023FB6000BF11E07B68C5
:105160000F4A934206D1094BD3F8303103F00303C1
:10517000FB6002E00023FB6000BF02E00023FB6055
:1051800000BFFB6818461037BD4680BD00400E408A
:105190008006160080162E0090171A009027300007
:1051A000A009140080B584B000AF786039607B68D6
:1051B0001B0903F00F03FB60FB68013B092B00F2A6
:1051C000078101A252F823F0F15100003D52000086
:1051D000D153000055520000D1530000D1530000BC
:1051E00071520000B952000039530000A75300006B
:1051F000FFF768FC7948FFF767FBFFF77BFD784B0B
:10520000D3F8003123F4F8523B681B02744913436E
:10521000C1F8003108F064F9B860FFF747FB0346B6
:105220001946B868FFF770FC6E48FFF7F3FD0346B8
:105230001846FFF749FBFFF764FDCAE0684BD3F857
:10524000143123F4F8523B681B0265491343C1F83B
:105250001431BEE0624BD3F80C3123F4FF3323F456
:1052600080733A6812025E491343C1F80C31B0E012
:10527000FFF728FC5948FFF727FB594BD3F80831B3
:1052800023F4FF3323F480733A6812025449134322
:10529000C1F8083108F024F9B860FFF707FB0346AE
:1052A0001946B868FFF730FC4E48FFF7B3FD0346D8
:1052B0001846FFF709FB8CE07B684B4A934215D0F8
:1052C0004A4A934224D04A4A934200D033E04FF4F2
:1052D0008020FFF7F3FC424BD3F8303123F0030278
:1052E0003F493B681343C1F8303124E03868FFF789
:1052F000BBFA38600420FFF7E1FC394BD3F82031CA
:1053000023F00F0236493B681343C1F8203112E005
:105310003868FFF7A9FA38600420FFF7CFFC304B5C
:10532000D3F8203123F030023B681B012C49134392
:10533000C1F8203100BF4CE07B682E4A934203D075
:105340002D4A934213D02DE03868FFF78DFA38606C
:105350004020FFF7B3FC224BD3F8283123F0300272
:105360003B681B011E491343C1F828311AE03B6812
:105370007F2B02D83B680E2B00BF3868FFF774FA0A
:105380000346043B3B604020FFF798FC144BD3F8E6
:10539000283123F440723B681B0211491343C1F8C2
:1053A000283100BF15E07B68114A934200D00EE01F
:1053B0004FF48020FFF782FC094BD3F8303123F003
:1053C000030207493B681343C1F8303100BF00E0D6
:1053D00000BF00BF1037BD4680BD00BF0148E801D7
:1053E00000400E4000250A008006160080162E00A0
:1053F000A009140090171A009027300080B485B0DF
:1054000000AF78600123FB737B6803F00F03BB6080
:10541000BB68013B072B00F2C48001A252F823F0C5
:105420004154000097540000C7540000A3550000E9
:105430000D5500003D550000A355000061550000CA
:105440005D4BD3F8943003F00703023B052B1ED8C5
:1054500001A252F823F000BF7D54000077540000F1
:1054600071540000835400008F54000089540000E0
:105470000223FB730EE00323FB730BE00423FB7397
:1054800008E00B23FB7305E00C23FB7302E005230C
:10549000FB7300BF88E0484BD3F8803003F007036C
:1054A000022B06D0042B07D0012B08D10323FB735A
:1054B00008E00223FB7305E00A23FB7302E00123EB
:1054C000FB7300BF70E03C4BD3F8843003F007035C
:1054D000013B032B16D801A252F823F0ED54000033
:1054E000F3540000FF540000F95400000323FB7341
:1054F0000BE00223FB7308E00A23FB7305E006239D
:10550000FB7302E00123FB7300BF4DE02A4BD3F88D
:10551000883003F00703022B06D0042B07D0012BA1
:1055200008D10323FB7308E00223FB7305E00A2381
:10553000FB7302E00123FB7300BF35E01E4B1B6FC2
:1055400003F00103002B04D0012B05D10923FB73C9
:1055500005E00723FB7302E00123FB7300BF23E098
:10556000154BD3F85C3103F03003102B0CD0102B0B
:1055700002D8002B05D010E0202B08D0302B09D00A
:105580000BE00123FB730BE00723FB7308E004230C
:10559000FB7305E00823FB7302E00123FB7300BFEC
:1055A00002E00023FB7300BFFB7B18461437BD46A7
:1055B0005DF8047B704700BF00400E4080B58AB0A4
:1055C00000AF78600B46FB7003237B62032387F8F0
:1055D00023300023BB6100237B617B68112B19D131
:1055E000FB78042B03D107F0DDFF78610BE0FB783B
:1055F000052B08D100F0C8F90246A44B9A4202D903
:1056000000F0C2F978617B69002B03D00021786932
:1056100000F0BAFC7B6803F00F033B613B69013B80
:10562000072B00F2298101A252F823F04D56000009
:1056300041570000535700007958000045570000BB
:10564000E95700007958000007580000FB78023B3A
:105650000A2B00F2138101A252F823F089560000B0
:1056600095560000A1560000B35600007D5800007A
:105670007D5800007D5800007D5800007D580000D6
:10568000C5560000D156000004237B62002387F832
:10569000233023E003237B62012387F823301DE0BE
:1056A00002237B62022387F823307948FFF70CF945
:1056B00014E001237B62032387F823307448FFF74B
:1056C00003F90BE005237B62032387F8233005E011
:1056D00007237B62062387F8233000BF97F8233027
:1056E000062B06D097F8233001220121184600F03E
:1056F000E9F9FFF7E7F9FFF7FDFA7B69002B01D025
:10570000FFF7C6F8634A7B6A53676348FFF782FB7B
:1057100003461846FFF7D8F807F0E2FEF860FFF7F7
:10572000C5F803461946F868FFF7EEF97B69002BC8
:1057300003D10121002000F027FCFFF7E2FAA2E0EC
:10574000564BBB61BB69002B01D0BB6900E0544BD9
:10575000BB61BB69002B01D0BB6900E0514BBB6151
:10576000FB78013B092B00F28B8001A252F823F059
:10577000995700009F570000AF5700008158000064
:1057800081580000BF570000815800008158000078
:1057900081580000DB5700000023FB6120E001225C
:1057A0000121002000F08EF90223FB6118E00122A4
:1057B0000121012000F086F90123FB6110E007F0D0
:1057C0008FFE03461846FFF77FF801220221364874
:1057D000FFF704F80323FB6102E00423FB6100BF31
:1057E000BB69FA691A604EE0FB78072B02D0092BDF
:1057F00004D048E0274B00221A6703E0254B012222
:105800001A6700BF3FE0FB78013B072B3AD801A2A3
:1058100052F823F0355800008558000085580000E4
:105820004B58000085580000855800003B58000088
:105830005B5800000023FB6112E0012201210420DB
:1058400000F040F90123FB610AE00122012102205E
:1058500000F038F90223FB6102E00323FB6100BF83
:105860000C4BD3F85C3123F03002FB691B01094972
:105870001343C1F85C3106E000BF04E000BF02E062
:1058800000BF00E000BF2837BD4680BD002D3101BC
:105890000148E80100400E4000250A0080400E400B
:1058A00088400E4084400E40B0400E4080B483B02B
:1058B00000AF78607B68294A93422FD0274A9342F1
:1058C00010D8274A934221D0254A934203D8254A2B
:1058D00093421BD03AE0244A934217D0234A934282
:1058E00018D033E0224A934224D0214A934206D86A
:1058F000204A934216D0204A934217D026E01F4AEE
:1059000093421BD01E4A93421CD01FE01D4BD3F87C
:1059100080301CE01B4BD3F88C3018E0194BD3F8C7
:10592000983014E0174BD3F89C3010E0154BD3F8A7
:10593000A0300CE0134BD3F8A83008E0114BD3F89B
:10594000AC3004E00F4BD3F8B03000E00023184631
:105950000C37BD465DF8047B704700BF405DC60054
:1059600080841E0040420F0000093D00C0CF6A0045
:1059700080BA8C010024F400C0EA21010048E8014B
:1059800080D54302B081E00F80B400AF034B1B68A9
:105990001846BD465DF8047B704700BFD802002062
:1059A00080B586B000AF78607868FFF77FFF7861D8
:1059B0007B69002B03D07B69B3F1FF3F00BF3A4BFB
:1059C0001B683B61384A7B6813601120FFF716FDA6
:1059D0000346052B03D1FFF775F8FFF78BF900BFDE
:1059E00018213248FEF711FF0346002BF8D17B68DF
:1059F0002F4A93420DD02F4A934211D02E4A934200
:105A000000D012E07B6923F0C06343F080637B61C8
:105A10000BE07B6923F0C06343F000737B6104E01B
:105A20007B6923F0C0637B6100BF1120FFF7E6FCB8
:105A30000346052B02D17868FEF746FF7A683B697A
:105A40009A4203D90121786800F09EFA1B4A7B69CB
:105A500013611120FFF7D2FC0346052B09D107F093
:105A60003FFDF860FEF722FF03461946F868FFF78E
:105A70004BF81348FFF7CEF903461846FEF724FF0C
:105A80007A683B699A4203D80121002000F07CFA31
:105A90001120FFF7B3FC0346052B01D1FFF731F9C5
:105AA00000BF1837BD4680BDD802002040410E40DF
:105AB00080841E0000093D0040420F0000400E405F
:105AC00000250A0080B588B000AF0346FB710B4685
:105AD000BB7113467B71FB79042B00F2B88001A2E5
