S01F00006A64616E69656C736B695F46696E616C5F50726F6A6563742E73333738
S11300000000042035C7000061C7000061C700007C
S113001061C7000061C7000061C7000061C700003C
S113002061C7000061C7000061C70000C18D000006
S113003061C7000060C70000D18F00003990000044
S113004061C7000061C7000061C7000061C700000C
S113005061C7000061C7000061C7000061C70000FC
S113006061C7000061C7000073360000B9B8000022
S113007061C7000061C7000061C7000061C70000DC
S113008061C7000061C700008336000061C700003B
S113009061C7000061C7000061C7000061C70000BC
S11300A061C7000061C7000061C7000061C70000AC
S11300B061C7000061C7000061C7000061C700009C
S11300C061C7000061C7000061C7000061C700008C
S11300D061C7000061C7000061C7000061C700007C
S11300E061C7000061C7000061C7000061C700006C
S11300F061C7000061C7000061C7000061C700005C
S113010061C7000061C7000061C7000010B5054C5D
S1130110237833B9044B13B10448AFF300800123AF
S1130120237010BDF40000200000000010FC00004B
S113013008B5034B1BB103490348AFF3008008BD66
S113014000000000F800002010FC0000154B002BFC
S113015008BF134B9D46A3F5803A00218B460F46FA
S11301601348144A121A0EF021FA0F4B002B00D038
S113017098470E4B002B00D0984700200021040024
S11301800D000D48002802D00C48AFF300800EF09B
S1130190B7F92000290002F0B9FB0EF09DF900BF69
S11301A0000008000000042000000000000000001F
S11301B0F400002000840020000000000000000083
S11301C080B500AF04F004FD0346184680BD00006E
S11301D080B500AF01220121032004F097FD0748F8
S11301E004F002FDFFF7ECFF0121054803F0D0FE07
S11301F00121044803F0CCFE00BF80BD80D543023A
S11302004041050000250A0080B582B000AF786047
S11302107B6800221A757B68194918460EF011FA9A
S11302207B6800225A757B6800229A757B680022DD
S1130230DA757B6800221A767B684FF07E52DA61A9
S11302407B68104A1A627B680F4A5A627B680A22EA
S11302501A857B6812225A857B680A229A857B68F4
S11302600A4A1A637B6802229A867B68084A9A6360
S11302707B6800229A6400BF0837BD4680BD00BF7A
S11302804CEF00004260653C00A0CD44000ECE4718
S11302901F856B3E80B483B000AF78607B684FF0FD
S11302A000025A607B6800221A6000BF0C37BD460A
S11302B05DF8047B704780B483B000AF78607B68DE
S11302C002221A707B6800225A707B6800229A709E
S11302D000BF0C37BD465DF8047B704780B483B023
S11302E000AF78607B6800221A707B6800225A7025
S11302F07B6800229A7000BF0C37BD465DF8047B12
S11303007047000080B584B000AF78603223BB81B1
S11303100223FB730BF08EFB00F0A2F803461A468F
S1130320474B1A70474B186800230022002109F03C
S113033081FA454B1A78454B1A70424B18680023D2
S11303400022002109F0A8F8404B1B78052B71D836
S113035001A252F823F000BF35040000710300002D
S113036035040000B7030000350400003504000024
S1130370334B1A78364B1B789A421AD0304B1A7882
S1130380334B1A702E4B1B78012B02D0042B08D050
S113039010E0304B186800230322AD210AF0D2FD8F
S11303A008E02C4B186800230322DE210AF0CAFD62
S11303B000E000BF3EE0224B1B78013B032B1FD81B
S11303C001A252F823F000BFD9030000E3030000A8
S11303D0ED030000F70300000023FB73C423BB7389
S11303E013E00123FB73E223BB730EE00323FB73CF
S11303F01E23BB7309E00423FB733C23BB7304E09B
S11304000223FB730023BB7300BF134B1868002344
S11304100A22002109F00EFA104AFB7B1370BA7B02
S11304200E4B9A700C4B186800230022002109F02F
S113043033F800BFBB89184609F024FE6CE700BFFF
S113044010010020F48200200A0000201101002085
S11304501201002088820020F882002008830020F6
S113046090B583B000AF4FF0804003F0C1FA0BF0B9
S1130470B7FA0023FB710023BB7119E0BC79BB7987
S113048018460BF057FA03461A4607F108032344AB
S113049003F8082CBB7907F10802134413F8083C4D
S11304A0002B02D0FB790133FB71BB790133BB71A3
S11304B0BB79032BE2D94FF0804003F07FFAFB793C
S11304C0002B02D0FB79012B01D9002315E0002376
S11304D0BB710EE0BB7907F10802134413F8083C22
S11304E0002B03D0BB790133DBB206E0BB790133C7
S11304F0BB71BB79032BEDD9002318460C37BD46DD
S113050090BD0000F0B5A9B01CAF7860B14B1B687A
S11305101B885B089AB2B04B1A800BF0EBFAF862B6
S1130520FB6A002B09D04FF0A00383F31188BFF3BB
S11305306F8FBFF34F8F7B62FEE7002006F06EFFE4
S1130540F862FB6A002B09D04FF0A00383F31188F3
S1130550BFF36F8FBFF34F8F3B62FEE79D4807F0F9
S113056053FAF862FB6A002B09D04FF0A00383F31F
S11305701188BFF36F8FBFF34F8FFB61FEE7954B7D
S11305806FF07F425A60934B00229A60934B198814
S1130590934B00930023002292480AF01FFE024668
S11305A0914B1A608D4B1988904B009300230022C5
S11305B08F480AF013FE02468E4B1A608E4B198840
S11305C08E4B0093002300228D480AF007FE02465A
S11305D08C4B1A608C4B186800230A22002109F006
S11305E029F98A4B1A788A4B1A70874B18680023AA
S11305F00022002108F050FF854B1B78052B00F2E8
S11306005A8301A252F823F0210600006B06000071
S1130610AB0900000F0A0000990B0000330C000026
S11306207C4B1B7883F00103DBB2002B00F03E838C
S113063000F0C8FB07F042F96B4B1B6818460BF03F
S1130640E9F80346002B0CD1674B1C6809F06AFFDC
S113065003461A460A2300930023012120460AF088
S11306600DFE6C4B01221A7020E35F4B1B68184689
S11306700BF0D0F80346012B08D15B4B18680A2312
S113068000930023002203210AF0F8FD624B1B783B
S113069083F00103DBB2002B28D0604B18680023E1
S11306A00A22002109F0C6F85D4B1B785D4C1293B9
S11306B05D4A11AB1188927819809A70684604F1EA
S11306C01003442219460DF066FF94E80F0000F071
S11306D053FE524B186800230022002108F0DCFE70
S11306E007F0ECF84C4B01221A70E4E207F118020F
S11306F04FF6FF734FF0FF314FF0FF300AF0BEFBAF
S1130700BB69AD2B00F02181AD2B06D8552B00F031
S1130710C280AA2B00F09480CDE2DE2B00F0E680AC
S1130720424A934200D0C6E23C4B186800230A2296
S1130730002109F07FF83B4C3D4B1193684604F1CE
S11307401003442219460DF026FF94E80F0001F02F
S113075015FC204B1B681B885B089AB2314B1B8D20
S11307605B089BB2D31A9AB21B4B1A802B4B1868A6
S113077000230022002108F08FFE2E4B186800236E
S11307800A22002109F056F82B4B274A1188927847
S113079019809A70244B1B781946284803F00AF8EC
S11307A0244B186800230022002108F075FE164B24
S11307B0186800230A22002109F03CF8134B022296
S11307C01A70114B186800230022002108F064FEFF
S11307D0EAE000BF200100205C01002000000020AE
S11307E02D0D000054EF000014010020750D0000D1
S11307F064EF000018010020020000209D0D00009D
S113080074EF00001C010020F48200200A00002084
S11308105E0100205F01002060010020F0820020C2
S1130820040000209082002030830020F0DEBC0A07
S11308304C010020E4820020640100201083002089
S1130840844800F01DFE844B186800230A2200210E
S113085008F0F0FF7F4B1B78804C1293804A11AB59
S11308601268114619800233120C1A70684604F19A
S11308701003442219460DF08EFE94E80F0000F098
S11308807BFD754B186800230022002108F004FE4C
S113089007F014F888E06F4800F01EFE6E4B1868ED
S11308A000230A22002108F0C5FF6A4B1B786B4C19
S11308B012936B4A11AB1268114619800233120C61
S11308C01A70684604F11003442219460DF063FEC1
S11308D094E80F0000F050FD5F4B186800230022DD
S11308E0002108F0D9FD06F0E9FF5DE05A4B1868D5
S11308F000230A22002108F09DFF564B1B78584A1A
S11309005649184600F014FE524B1B78534C129370
S1130910534A11AB1268114619800233120C1A7033
S1130920684604F11003442219460DF034FE94E89D
S11309300F0000F021FD484B18680023002200211D
S113094008F0AAFD06F0BAFF2EE0434B1868002316
S11309500A22002108F06EFF3E4B1B78404A3F49B3
S1130960184600F015FE3B4B1B783C4C12933C4A56
S113097011AB1268114619800233120C1A706846C2
S113098004F11003442219460DF005FE94E80F000B
S113099000F0F2FC304B186800230022002108F01C
S11309A07BFD06F08BFF00BF85E12E4B1B78013BDE
S11309B0DBB2184600F0AAFF06F080FF294B1B7833
S11309C0013BDAB2274B1A70264B1B78002B40F000
S11309D06F81244B04221A70234B186800230A22C7
S11309E0002108F027FF214B03221A701F4B1A78AD
S11309F01F4B1A701C4B186800230022002108F0BA
S1130A004BFD1C4B1B68184609F028FC50E107F10C
S1130A10140200234FF0FF314FF0FF300AF02EFA9A
S1130A200346012B28D1104B186800230A22002109
S1130A3008F000FF0D4B04221A700C4B1A780C4B73
S1130A401A70094B186800230022002108F024FDC5
S1130A5031E100BF04000020F082002090820020D9
S1130A606401002005000020F48200200A00002018
S1130A705E01002004830020974B186800230022A5
S1130A80002108F0D7FE954B954A92E8030083E8CD
S1130A900300914B186800230022002108F0FCFC9D
S1130AA0904B186800230022002108F0C3FE8E4BEF
S1130AB08E4A1188927819809A708A4B186800239C
S1130AC00022002108F0E8FC894A874902AB096842
S1130AD0084618800233090C197080496B4603C913
S1130AE083E803000FCA00F069FF824B18680023F3
S1130AF00022002108F09EFE7F4B1868002300228C
S1130B00002108F097FE7D4E744A19AB92E8030069
S1130B1083E803007A4B11AC1D460FCD0FC495E852
S1130B200F0084E80F00684606F1100344221946BA
S1130B300DF031FD96E80F0001F046FA034687F800
S1130B402B306C4B186800230022002108F0A4FC11
S1130B50694B186800230022002108F09DFC97F8D7
S1130B602B30002B14D0674B186800230A22002175
S1130B7008F060FE644B04221A70634B1A78634BCE
S1130B801A70604B186800230022002108F084FCCE
S1130B9006F094FE00BF8EE05D4B1B78002B05D061
S1130BA001F05EFB5A4B00221A7004E001F004FBD2
S1130BB0574B01221A7006F081FE564B1B681846EB
S1130BC00AF028FE0346002B0CD1524B1C6809F096
S1130BD0A9FC03461A460A23009300230221204657
S1130BE00AF04CFB07F1100200234FF0FF314FF0E5
S1130BF0FF300AF043F90346012B5BD13B69464AB7
S1130C00934257D13F4B186800230A22002108F071
S1130C1011FE3D4B05221A703B4B1A783B4B1A7060
S1130C20384B186800230022002108F035FC00BF6F
S1130C3040E001F069FB06F041FE384B1B681846A2
S1130C400AF0E8FD0346002B0CD1344B1C6809F074
S1130C5069FC03461A460A23009300230221204616
S1130C600AF00CFB07F10C024FF6FF734FF0FF3153
S1130C704FF0FF300AF002F9FB68294A93421AD177
S1130C80204B186800230A22002108F0D3FD1E4BD4
S1130C9001221A701C4B1A781C4B1A70194B1868D5
S1130CA000230022002108F0F7FB04E000BF02E06B
S1130CB000BF00E000BF154B1B78022B05D1194B78
S1130CC01B88184609F0DEF984E4174B1B88184684
S1130CD009F0D8F97EE400BFFC82002068010020FE
S1130CE0E8820020F88200207001002008830020A0
S1130CF04C010020E4820020F08200209082002039
S1130D0010830020F48200200A0000205E010020ED
S1130D107301002018010020785634121C010020B1
S1130D20B1CAED0F060000200800002080B582B093
S1130D3000AF78600D4B186800230A22002108F0E8
S1130D4079FD0346012B0DD1094B1B78002B02D1F1
S1130D50074B01221A70054B18680023002200215A
S1130D6008F09AFB00BF0837BD4680BDF48200201E
S1130D700A00002080B582B000AF7860054B186887
S1130D800023032204490AF0DDF800BF0837BD46FA
S1130D9080BD00BF888200207856341280B582B0AE
S1130DA000AF7860054B18680023032204490AF059
S1130DB0C9F800BF0837BD4680BD00BF8882002047
S1130DC0B1CAED0FF0B58FB002AF374806F0AFFEF1
S1130DD03649354807F0A5FD3B46354A30211846CB
S1130DE00DF0ECFB3B4618460DF033FC06462E4B4B
S1130DF01B681B885B089BB21C462B4B93F8243062
S1130E001A46294B93F8273013441D463B4618468F
S1130E100DF01FFC034603FB05F35B08E31A1A46B7
S1130E2039460023019305230093134632461E4896
S1130E3007F010FD3B461F4A302118460DF0BEFB5B
S1130E403B4618460DF005FC0646174B1B681B88ED
S1130E505B089BB21C46144B93F824301A46124B81
S1130E6093F8273013441D463B4618460DF0F1FB1A
S1130E70034603FB05F35B08E31A18460A4B93F891
S1130E8025301A4613465B001344053339460022C5
S1130E900192009303463246034807F0DBFC00BF8F
S1130EA03437BD46F0BD00BF200100206CF80000BF
S1130EB084EF000090EF000090B591B002AF0346BC
S1130EC0FB713549354807F02CFD07F10803344A16
S1130ED0302118460DF072FB07F1080318460DF097
S1130EE0B8FB2E4B93F825309B0007F10801002234
S1130EF0019200930A230246284807F0ABFCFB79D1
S1130F00032B2BD801A252F823F000BF1D0F0000C1
S1130F102D0F00003D0F00004D0F000007F10803E6
S1130F20204A302118460DF049FB17E007F1080369
S1130F301D4A302118460DF041FB0FE007F108036C
S1130F401A4A302118460DF039FB07E007F108036F
S1130F50174A302118460DF031FB00BF07F1080392
S1130F6018460DF076FB04460C4B1B681B88A3F156
S1130F7033000A4B93F825309B0007F10801002247
S1130F800192009303462246044807F063FC00BF25
S1130F903C37BD4690BD00BF3CF500002001002059
S1130FA09CEF0000A4EF0000ACEF0000B4EF0000E1
S1130FB0BCEF000090B591B002AF0346FB713C4911
S1130FC03C4807F0AEFC07F108033B4A30211846C1
S1130FD00DF0F4FA07F1080318460DF03AFB354B0F
S1130FE093F825301A4613469B00134407F1080171
S1130FF00022019200930A2302462E4807F02AFC9D
S1131000FB79042B34D801A252F823F021100000FC
S11310103110000041100000511000006110000068
S113102007F10803254A302118460DF0C7FA1FE0DE
S113103007F10803224A302118460DF0BFFA17E0E1
S113104007F108031F4A302118460DF0B7FA0FE0E4
S113105007F108031C4A302118460DF0AFFA07E0E7
S113106007F10803194A302118460DF0A7FA00BF0A
S113107007F1080318460DF0ECFA04460D4B1B6803
S11310801B88A3F133000B4B93F825301A46134603
S11310909B00134407F108010022019200930346C8
S11310A02246044807F0D6FB00BF3C37BD4690BD3E
S11310B03CF5000020010020CCEF0000D8EF000038
S11310C0E0EF0000E8EF0000F4EF0000FCEF0000A8
S11310D090B591B002AF0346FB713249324807F034
S11310E020FC07F10803314A302118460DF066FA56
S11310F007F1080318460DF0ACFA2B4B93F8253092
S11311001A4613465B0013445B001A4607F10801B4
S11311100023019300920A230246234807F09AFB16
S1131120FB79012B0BD0022B11D0002B17D107F127
S113113008031F4A302118460DF040FA0FE007F16A
S113114008031C4A302118460DF038FA07E007F16D
S11311500803194A302118460DF030FA00BF07F190
S1131160080318460DF075FA04460F4B1B681B88DC
S1131170A3F133000C4B93F825301A4613465B0059
S113118013445B001A4607F10801002301930092FF
S113119003462246044807F05DFB00BF3C37BD46CA
S11311A090BD00BF3CF500002001002000F00000CD
S11311B00CF0000014F000001CF0000090B591B099
S11311C002AF0346FB713049304807F0AAFB07F130
S11311D008032F4A302118460DF0F0F907F10803EF
S11311E018460DF036FA294B93F825301A46134663
S11311F0DB009B1A07F108010022019200930A23E5
S11312000246224807F026FBFB79012B0BD0022B68
S113121011D0002B17D107F108031E4A30211846BC
S11312200DF0CCF90FE007F108031B4A30211846F2
S11312300DF0C4F907E007F10803184A30211846F5
S11312400DF0BCF900BF07F1080318460DF001FAD0
S113125004460E4B1B681B88A3F133000B4B93F819
S113126025301A461346DB009B1A07F108010022B9
S11312700192009303462246044807F0EBFA00BFAC
S11312803C37BD4690BD00BF3CF500002001002066
S113129024F0000030F0000038F000001CF00000E2
S11312A090B591B002AF0346FB712D492D4807F06C
S11312B038FB07F108032C4A302118460DF07EF95B
S11312C007F1080318460DF0C4F9264B93F82530AE
S11312D0DB0007F108010022019200930A23024671
S11312E0204807F0B7FAFB79012B0BD0022B11D061
S11312F0002B17D107F108031C4A302118460DF0C2
S11313005DF90FE007F10803194A302118460DF082
S113131055F907E007F10803164A302118460DF085
S11313204DF900BF07F1080318460DF092F9044681
S11313300C4B1B681B88A3F133000A4B93F8253030
S1131340DB0007F1080100220192009303462246C4
S1131350044807F07FFA00BF3C37BD4690BD00BF8C
S11313603CF500002001002040F0000048F000009F
S113137050F0000058F0000084B0F0B58FB002AF18
S113138007F1480484E80F003A4806F0D0FB3A49D4
S1131390384807F0C6FA3B46384A302118460DF063
S11313A00DF93B4618460DF054F90646314B1B68BF
S11313B01B885B089BB21C462E4B93F824301A46BC
S11313C02C4B93F8273013441D463B4618460DF02A
S11313D040F9034603FB05F35B08E31A1A46394652
S11313E0002301930523009313463246214807F056
S11313F031FA204B93F825305A001E4B1B681B888A
S113140019461C4B93F825305B0000930B464FF0B4
S1131410FF31184806F035FF97F8A030154A92F8C6
S1131420252002FB03F3DA1C02230321114806F0F2
S113143078FC97F89C301846FFF73EFD97F85C302F
S11314401846FFF7B7FD97F85F301846FFF740FEE0
S113145097F85D301846FFF7B1FE97F85E301846EE
S1131460FFF71EFF00BF3437BD46BDE8F04004B0AF
S1131470704700BF200100206CF8000060F00000FD
S113148080B483B000AF78607B681B78043B032B87
S11314901AD801A252F823F0A9140000B1140000D4
S11314A0B9140000C11400007B6805221A700CE016
S11314B07B6806221A7008E07B6807221A7004E031
S11314C07B6808221A7000E000BF00BF0C37BD46DD
S11314D05DF8047B704700BF80B483B000AF7860D0
S11314E07B681B78053B032B1AD801A252F823F022
S11314F00115000009150000111500001915000060
S11315007B6804221A700CE07B6805221A7008E0DC
S11315107B6806221A7004E07B6807221A7000E0D8
S113152000BF00BF0C37BD465DF8047B704700BFA9
S113153080B584B000AF0346B9607A60FB73FB7B6F
S1131540043B042B20D801A252F823F061150000BB
S1131550691500007115000079150000811500005F
S1131560786800F045F80FE0B86800F06DF80BE01B
S1131570B86800F041F907E0B86800F06FF903E0DB
S1131580B86800F097F900BF00BF1037BD4680BDB2
S113159080B584B000AF0346B9607A60FB73FB7B0F
S11315A0043B042B20D801A252F823F0C1150000FB
S11315B0C9150000D1150000D9150000E11500007F
S11315C0786800F02BF80FE0B86800F0A9F80BE099
S11315D0B86800F02AF907E0B86800F055F903E0AC
S11315E0B86800F07DF900BF00BF1037BD4680BD6C
S11315F080B483B000AF78607B681B78032B06D07F
S11316007B681B780133DAB27B681A7000E000BF94
S113161000BF0C37BD465DF8047B704780B483B0CF
S113162000AF78607B681B78002B06D07B681B7842
S1131630013BDAB27B681A7000E000BF00BF0C37D0
S1131640BD465DF8047B704780B483B000AF78601A
S11316507B681B7D032B4BD801A252F823F000BFFB
S11316607116000091160000B1160000D11600009A
S11316707B6801221A757B680F225A857B680722D2
S11316801A857B681E4A5A627B681E4A1A6330E0D8
S11316907B6802221A757B6810225A857B680822AF
S11316A01A857B68184A5A627B68184A1A6320E0D4
S11316B07B6803221A757B6811225A857B6809228C
S11316C01A857B68124A5A627B68124A1A6310E0D0
S11316D07B6804221A757B680E225A857B68062271
S11316E01A857B680C4A5A627B680C4A1A6300E0CC
S11316F000BF00BF0C37BD465DF8047B704700BFD8
S11317000060FA4400E6AA4800700F4580C0114901
S113171000401645006EBE480000324400EC2949E2
S113172080B483B000AF78607B681B7D013B032BE2
S11317304AD801A252F823F04917000069170000A3
S113174089170000A91700007B6800221A757B68BE
S113175012225A857B680A221A857B681E4A5A62BD
S11317607B681E4A1A6330E07B6801221A757B6825
S11317700F225A857B6807221A857B68184A5A62A9
S11317807B68184A1A6320E07B6802221A757B681A
S113179010225A857B6808221A857B68124A5A628D
S11317A07B68124A1A6310E07B6803221A757B680F
S11317B011225A857B6809221A857B680C4A5A6271
S11317C07B680C4A1A6300E000BF00BF0C37BD46BB
S11317D05DF8047B704700BF00A0CD44000ECE47E7
S11317E00060FA4400E6AA4800700F4580C0114921
S11317F000401645006EBE4880B483B000AF7860E8
S11318007B68DB7D002B02D0012B04D007E07B68D2
S11318100122DA7503E07B680222DA7500BF00BF9B
S11318200C37BD465DF8047B704780B483B000AFCD
S113183078607B68DB7D012B02D0022B04D007E0AB
S11318407B680022DA7503E07B680122DA7500BF49
S113185000BF0C37BD465DF8047B704780B483B08D
S113186000AF78607B685B7D022B06D07B685B7D74
S11318700133DAB27B685A7500E000BF00BF0C3751
S1131880BD465DF8047B704780B483B000AF7860D8
S11318907B685B7D002B06D07B685B7D013BDAB205
S11318A07B685A7500E000BF00BF0C37BD465DF889
S11318B0047B704780B483B000AF78607B689B7D05
S11318C0022B06D07B689B7D0133DAB27B689A7564
S11318D000E000BF00BF0C37BD465DF8047B7047D5
S11318E080B483B000AF78607B689B7D002B06D00A
S11318F07B689B7D013BDAB27B689A7500E000BF90
S113190000BF0C37BD465DF8047B7047B0B592B09C
S113191002AF0346FB71FB7907F10C010A2218465A
S11319200CF012FE234806F002F92349214806F080
S1131930F8FF07F10C0207F11003302118460CF0F0
S11319403DFE07F1100318460CF083FE0546194BC3
S11319501B681B885B089BB21C4607F110031846E2
S11319600CF077FE0246134B93F824301946114BC2
S113197093F827300B4403FB02F35B08E31A184681
S11319800C4B1B685B885B089BB21A46094B93F8A7
S113199025305B08DBB2D31A07F110010022019253
S11319A0009303462A46034806F054FF00BF40371D
S11319B0BD46B0BD200100205CFA000090B587B0A0
S11319C002AF3C4684E80F000C4806F0B0F807F17B
S11319D0200393E8030000F013F86B4607F1280294
S11319E01268114619800233120C1A703B460FCB51
S11319F000F020F900BF1437BD4690BD200100203F
S1131A0080B59AB002AF3B4683E803000523FB642C
S1131A1005233B65844B1B681B885B089BB27B6575
S1131A20814B93F82530BB65D7ED017AF5EE407A0A
S1131A30F1EE10FA1AD17C4B1B681B885B089BB231
S1131A400533DA0F13445B10FB6305233B64764BC9
S1131A501B681B885B089BB20533DA0F13445B10C9
S1131A607B64714B93F82530BB647AE0D7ED017A3F
S1131A70F5EEC07AF1EE10FA3DDB6B4B1B681B8868
S1131A805B089BB20533DA0F13445B10FB63052339
S1131A903B64654B1B681B885B089BB20533DA0FFC
S1131AA013445B1007EE903AB8EEE77AD7ED016A7B
S1131AB05D4B1B681B885B089BB219465A4B1B681D
S1131AC01B885B089BB20533DA0F13445B105B423F
S1131AD00B4407EE903AF8EEE77A66EEA77A77EED3
S1131AE0277AFDEEE77A17EE903A7B644E4B93F833
S1131AF02530BB6435E04C4B1B681B885B089BB2EC
S1131B000533DA0F13445B1007EE903AB8EEE77A28
S1131B10454B1B681B885B089BB20533DA0F1344E3
S1131B205B10053B07EE903AF8EEE76AD7ED017AD1
S1131B3066EEA77A77EE277AFDEEE77A17EE903A0B
S1131B40FB6305233B64384B1B681B885B089BB213
S1131B500533DA0F13445B107B64334B93F8253061
S1131B60BB6407F14C0319462F4806F0A1FC07F1AA
S1131B703C0319462C4806F011FD2C4A07F10803D2
S1131B8092E8030018600433198002330A0C1A70B7
S1131B9007F10F032922002118460CF007FD3B46EC
S1131BA093E8030000F0E4FAF865FB6D07F13801EF
S1131BB00A2218460CF0C8FC07F1380207F10803A2
S1131BC0114618460CF02EFD1949174806F0A9FED7
S1131BD007F1080318460CF03CFD134B1B681B88E7
S1131BE0A3F1380207F108010023019303230093B2
S1131BF0134602460C4806F02DFE0B4B93F8253095
S1131C005A00094B1B681B881946074B93F825306B
S1131C105B0000930B464FF0FF31034806F031FBA5
S1131C2000BF6037BD4680BD200100206CF000007D
S1131C303CF5000090B58BB002AF3C4684E80F0041
S1131C4097F83030022B29D107F110043B460FCB13
S1131C5084E80F00BB69964A12881344BB61BA69D1
S1131C60944B1B681B88023B9A420BDD914B1B680B
S1131C701B88023BBB61BA69B9683B68CB1AD31AAB
S1131C803B6104E03B698A4A128813443B6107F1D3
S1131C9010031946874806F00BFC67E197F83030CB
S1131CA0042B00F2628101A252F823F05F1D0000B0
S1131CB0C11C00006B1F0000FD1D0000B91E0000C8
S1131CC07B4B1B88022B05D9794B1B88013B9AB2AD
S1131CD0774B1A803B68764A12881344991C7868BB
S1131CE03B68734A12881A44FB6800931346024601
S1131CF0704806F0C6FABB686D4A12881344991CF2
S1131D007868BB686A4A12881A44FB6800931346D1
S1131D100246684806F0B5FABB68654A1288991805
S1131D20F8683B68624A12881A44FB6800931346B9
S1131D300246604806F0A5FABB685D4A128813445F
S1131D40991C78683B685A4A128813449A1C7B6829
S1131D50009313460246574806F093FA06E1544BA3
S1131D601B88042B05D9524B1B88033B9AB2504B5A
S1131D701A803B684E4A12881344191D78683B68E0
S1131D804B4A12881A44FB6800931346024649489A
S1131D9006F077FABB68464A12881344191D78681E
S1131DA0BB68434A12881A44FB68009313460246F0
S1131DB0404806F066FABB683D4A12889918F868EC
S1131DC03B683B4A12881A44FB6800931346024658
S1131DD0384806F056FABB68354A12881344191D70
S1131DE078683B68324A128813441A1D7B68009352
S1131DF0134602462F4806F044FAB7E02C4B1B88E2
S1131E0018462C4B1B681B885A1EB9683B68CB1AB2
S1131E10D31A023B984205DA254B1B8801339AB248
S1131E20234B1A803B68224A12881344991E78680F
S1131E303B681F4A12881A44FB6800931346024603
S1131E401C4806F01EFABB68194A12881344991EEE
S1131E507868BB68164A12881A44FB6800931346D4
S1131E600246144806F00DFABB68114A1288991804
S1131E70F8683B680E4A12881A44FB6800931346BC
S1131E8002460C4806F0FDF9BB68094A128813445F
S1131E90991E78683B68064A128813449A1E7B6828
S1131EA0009313460246034806F0EBF95EE000BFD8
S1131EB05C010020200100202E4B1B8818462E4B6D
S1131EC01B681B885A1EB9683B68CB1AD31A043B9B
S1131ED0984205DA274B1B8803339AB2254B1A80A4
S1131EE03B68244A12881344191F78683B68214AC6
S1131EF012881A44FB680093134602461E4806F0F3
S1131F00C0F9BB681B4A12881344191F7868BB6860
S1131F10184A12881A44FB6800931346024616486E
S1131F2006F0AFF9BB68134A12889918F8683B6841
S1131F30104A12881A44FB680093134602460E485E
S1131F4006F09FF9BB680B4A12881344191F78687E
S1131F503B68084A128813441A1F7B68009313468F
S1131F600246054806F08DF900E000BF00BF2437A3
S1131F70BD4690BD5C0100202001002084B090B4D7
S1131F8000AF07F1080484E80F003B8E1A46FB6D8E
S1131F909A600B4B1B885A1EFB6D1A60094B1B6819
S1131FA05B889A1EFB6D5A60FB6D5B687A8E9A1A89
S1131FB0FB6DDA6000BFBD4690BC04B0704700BF43
S1131FC05C0100202001002084B080B582B000AF05
S1131FD007F1100C8CE80F002D4B1B681B885B0865
S1131FE09BB2DAB22A4B1B681B88013B294981FB4F
S1131FF003018910DB175B1ADBB21344DAB2264BF8
S11320001A70234B1B685B88DBB2013BDAB2234BAB
S11320101A70D7F88020B7F878309B0013441B88D7
S11320201A46FB6F9A4229D20023FB7112E0D7F8BB
S11320308020B7F878301946FB790B449B00134491
S113204093F902301A461549134800F029F8FB7930
S11320500133FB71FB79052BE9D9BB6DD7F88010EF
S1132060B7F8782092000A441288934208D9B7F846
S1132070783001339BB2A7F8783001E0012300E007
S1132080002318460837BD46BDE8804004B07047B9
S11320902001002067666666740100207501002037
S11320A090B589B002AFF860B9601346FB71BB68A4
S11320B01B78143BFB75FA7D2B4B93F825305B00A2
S11320C09A4204DA284B93F825305B00FB75FB68D1
S11320D01B781946BB681B781846FB681B781A46A0
S11320E097F907301A44FB7D0093134602461E48B5
S11320F006F0C7F8FB681B7819461B4B1B681B8846
S1132100013B1A4A82FB03025210DB17D31A19440B
S1132110BB681B781C46FB681B781846124B1B686F
S11321201B88013B114A82FB03C25210DB17D31AEE
S1132130C21897F907301A44FB7D009313462246D0
S1132140094806F09EF8FB681A78FB791344DAB262
S1132150FB681A70BB681B78143BDAB2BB681A7050
S113216000BF1C37BD4690BD20010020676666662F
S113217090B583B000AF3B4683E803003B6807EEAD
S1132180903AF8EE677A17EE900A0BF027FE08A350
S1132190D3E900230BF07AFE03460C461846214689
S11321A00CF024F9034618460C37BD4690BD00BF19
S11321B0F7E978CC40E50140F0B58FB002AF254B8C
S11321C06FF07F425A60234B00229A60214805F049
S11321D0AEFC21491F4806F0A4FB3B461F4A3021B0
S11321E018460CF0EBF93B4618460CF032FA06465A
S11321F0184B1B681B885B089BB21C46154B93F855
S113220024301A46134B93F8273013441D463B469B
S113221018460CF01EFA034603FB05F39B08E31A69
S1132220053318460B4B1B685B885B089BB21A4648
S1132230084B93F825305B00D31A394600220192EB
S1132240009303463246034806F004FB00BF3437CC
S1132250BD46F0BD200100206CF800009CF0000099
S1132260F0B58FB002AF254B00225A60234B6FF0BC
S11322707F429A60214805F05AFC21491F4806F024
S113228050FB3B461F4A302118460CF097F93B4659
S113229018460CF0DEF90646184B1B681B885B08D1
S11322A09BB21C46154B93F824301A46134B93F8F3
S11322B0273013441D463B4618460CF0CAF9034622
S11322C003FB05F39B08E31A053318460B4B1B6805
S11322D05B885B089BB21A46084B93F825305B0079
S11322E0D31A39460022019200930346324603482A
S11322F006F0B0FA00BF3437BD46F0BD200100201F
S11323006CF800009CF00000F0B591B002AF4E4BA9
S11323106FF07F425A604C4B00229A604A4805F0A5
S113232006FC4A49484806F0FCFA3B1D484A30215D
S113233018460CF043F93B1D18460CF08AF9064682
S1132340414B1B681B885B089BB21C463E4B93F8B1
S113235024301A463C4B93F8273013441D463B1D4A
S113236018460CF076F9034603FB05F35B08E31A01
S11323701A46391D00230193052300931346324660
S1132380314806F067FA304B93F825305A002E4B4B
S11323901B681B8819462C4B93F825305B0000936F
S11323A00B464FF0FF31284805F06BFF29492648BA
S11323B006F0B7FA3B1D284A302118460CF0FEF807
S11323C03B1D18460CF045F91F4B93F825309B0034
S11323D0391D0022019200930A2302461A4806F08E
S11323E039FA3B1D1D4A302118460CF0E7F83B1D15
S11323F018460CF02EF90446134B1B681B88A3F1F6
S11324003300114B93F825309B00391D00220192B3
S11324100093034622460C4806F01CFA052387F86D
S1132420373009E097F83730184600F019F897F874
S11324303730013387F8373097F837300E2BF1D91E
S113244000BF3C37BD46F0BD200100206CF8000001
S1132450A8F000003CF50000B4F00000BCF000005F
S113246090B593B002AF0346FB71FB79043B07F1CF
S11324700C010A2218460CF067F807F10C032549F1
S113248018460CF0CFF82449244806F04AFA07F11C
S11324900C0207F11003302118460CF08FF807F1F5
S11324A0100318460CF0D5F8FB791C4A92F8252045
S11324B002FB03F307F110010022019200930A23A7
S11324C00246164806F0C6F907F11003144A3021F3
S11324D018460CF073F807F1100318460CF0B9F81D
S11324E004460E4B1B681B88A3F13300FB790B4A8F
S11324F092F8252002FB03F307F110010022019258
S1132500009303462246054806F0A4F900BF443769
S1132510BD4690BDC4F000003CF500002001002041
S1132520C8F0000080B485B000AF786039607B6883
S113253003F1C063FB60FB683A681A6000BF14379C
S1132540BD465DF8047B704780B485B000AF786009
S113255039607B6803F18063FB60FB683A681A604A
S113256000BF1437BD465DF8047B704780B582B068
S113257000AF03463960FB71FB79002B1CD0FB795B
S1132580012B19D0FB79022B16D0FB79032B13D026
S1132590FB79042B10D0FB79052B0DD0FB79062B8E
S11325A00AD0FB79072B07D0FB79082B04D0FB79E1
S11325B0092B01D0FB790A2BFA7913465B001344EB
S11325C01B010C3303F1804303F5204301213A68D6
S11325D001FA02F211461846FFF7B6FF00BF0837AA
S11325E0BD4680BD80B582B000AF03463960FB7143
S11325F0FB79002B1CD0FB79012B19D0FB79022B22
S113260016D0FB79032B13D0FB79042B10D0FB7964
S1132610052B0DD0FB79062B0AD0FB79072B07D0AD
S1132620FB79082B04D0FB79092B01D0FB790A2B09
S1132630FA7913465B0013441B010C3303F1804306
S113264003F5204301213A6801FA02F211461846C3
S1132650FFF768FF00BF0837BD4680BD80B584B072
S113266000AF78604FF4FA73FB816423BB8100F000
S1132670BDF8574B186800230022002107F0DAF850
S1132680544B1A78544B1A70514B1868002300228B
S1132690002106F001FF504B1B78052B00F28A80C5
S11326A001A252F823F000BFC1260000C126000099
S11326B007270000B5270000292700006F27000026
S11326C0464B1B78184600F0AFF8454B1B7818466C
S11326D000F0BFF8414B1B7883F00103DBB2002B01
S11326E014BF01230023DAB23C4B1A703C4B1B7815
S11326F083F00103DBB2002B14BF01230023DAB201
S1132700374B1A7056E0354B00221A70344B0022B6
S11327101A70324B1B78184600F086F8304B1B7841
S1132720184600F096F845E02E4B1B78012B09D093
S11327302A4B00221A702A4B01221A70294B0122BB
S11327401A7009E0254B01221A70254B00221A70D9
S1132750244B00221A7000BF204B1B78184600F04F
S113276063F81F4B1B78184600F073F822E01E4BE9
S11327701B78012B09D0194B00221A70184B002228
S11327801A70194B01221A7009E0144B01221A70B5
S1132790134B01221A70144B00221A7000BF0F4B06
S11327A01B78184600F040F80D4B1B78184600F0D3
S11327B050F800BF084B1B78042B04D1BB89184682
S11327C007F060FC55E7FB89184607F05BFC50E70F
S11327D0F48200200A000020760100207701002006
S11327E078010020790100207A01002080B500AF33
S11327F001210C4801F0CCFB0021052002F012FE5F
S1132800002304220421052002F04CFE00210520AF
S113281002F008FE002304220521052002F042FEF6
S113282000BF80BD00350A0080B582B000AF03460A
S1132830FB71FB79002B04D004210520FFF7D2FEA5
S113284003E004210520FFF791FE00BF0837BD46D1
S113285080BD80B582B000AF0346FB71FB79002BCD
S113286004D005210520FFF7BDFE03E00521052066
S1132870FFF77CFE00BF0837BD4680BD80B400AFC3
S1132880044BDB6C1B0EDBB21846BD465DF8047BC3
S1132890704700BFB081E00F80B582B000AF164B27
S11328A001225A64FFF7EAFF0346FB71FB79002B10
S11328B00CD1124B4AF6E8521A60114B1B68104AAD
S11328C043F0040313600D4B00221A60FB79012BC3
S11328D005D80C4B1B680B4A43F4005313600A4B96
S11328E01B6A23F44413084A43F48813136200BF99
S11328F00837BD4680BD00BF00000E4090310E4039
S113290098310E4064310E4000400E4080B582B0D4
S113291002AFFFF7C1FFFDF75BFC00F0BBFE3A48D6
S1132920FDF772FC3948FDF7B5FC3948FDF7C3FCE7
S11329303848FDF7D3FC09F0E9FE03220021012009
S113294006F01AFD0246344B1A60012006F08CFD95
S11329500246324B1A60012006F086FD0246304BD7
S11329601A60012006F080FD02462E4B1A600120F9
S113297006F07AFD02462C4B1A60012006F074FD25
S113298002462A4B1A60012006F06EFD0246284BCF
S11329901A60284B019304230093002364222649E0
S11329A0264807F01CFA264B0193012300930023C9
S11329B04FF496722349244807F011FA0023019337
S11329C0022300930023C8222049214807F007FA74
S11329D000230193022300930023C8221D491E48AB
S11329E007F0FDF91D4B0193012300930023C82236
S11329F01B491C4807F0F3F9184B1B68184607F0ED
S1132A007BFB07F095FCFEE790820020E882002023
S1132A1008830020308300200C830020FC820020E7
S1132A20F8820020F482002000830020F08200203D
S1132A30E48200208C820020CCF000005D2600009F
S1132A4088820020D4F0000005050000E0F00000BA
S1132A50C92B0000ECF000000503000004830020F3
S1132A60F8F00000A12A000080B483B000AF4FF05A
S1132A70A00383F31188BFF36F8FBFF34F8F7B6085
S1132A80FEE780B485B000AF786039604FF0A003F2
S1132A9083F31188BFF36F8FBFF34F8FFB60FEE7A3
S1132AA080B584B000AF78603223FB81124BDA69C1
S1132AB0114B9B8A9B0013441B881A460F4B9B6C3B
S1132AC09A4214D20C4B9B8A01339AB20A4B9A82D3
S1132AD0094B9B8A1A46084BDB8A03339A4206DD6C
S1132AE0074B186800230322064908F02BFAFB89D8
S1132AF0184607F0C7FAD9E7108300209082002017
S1132B00888200202143658780B485B000AF786057
S1132B1039607B6803F10473DA003B6813449B005B
S1132B20FB60FB681B6818461437BD465DF8047BE0
S1132B307047000080B483B000AF7860044A7B68BB
S1132B40C2F8243400BF0C37BD465DF8047B7047DF
S1132B5000A0004080B582B000AF03463960FB712D
S1132B60FB79002B1CD0FB79012B19D0FB79022BAC
S1132B7016D0FB79032B13D0FB79042B10D0FB79EF
S1132B80052B0DD0FB79062B0AD0FB79072B07D038
S1132B90FB79082B04D0FB79092B01D0FB790A2B94
S1132BA0FA7913465B0013441B011C3303F1804381
S1132BB003F5204339681846FFF7A6FF0346184675
S1132BC00837BD4680BD000090B597B012AF78605D
S1132BD03223FB73FB7B4FF47A7202FB03F3B04A9C
S1132BE082FB03129211DB17D31ABB81C8237B81AA
S1132BF04FF47A733B8100F0BDFC3989A94B0093F3
S1132C0000230022A84808F0E9FA0246A74B1A60FC
S1132C10A74B0093002300224FF47A71A54808F0D3
S1132C20DDFA0246A44B1A60A44B00930023002251
S1132C304FF49671A24808F0D1FA0246A14B1A60EB
S1132C4000F0B6FC03461A469F4B1A7000F0CDFC08
S1132C5003461A469D4B1A709D4B186800230022A8
S1132C60002106F0E7FD9B4B1A789B4B1A70984B9A
S1132C70186800230022002106F00EFC974B186808
S1132C8000230022002106F0D5FD954B1A78954BC0
S1132C901A70924B186800230022002106F0FCFBF6
S1132CA08D4B1B78052B00F2FC8101A252F823F016
S1132CB0A3300000C92C0000A3300000312E000016
S1132CC0A33000004F3000007F4B1A787F4B1B78F5
S1132CD01946104600F0A6FC0346032B00F2A6801A
S1132CE001A252F823F000BF032E0000F92C0000CB
S1132CF09F2D0000D12D00007B4B01221A706E4BDA
S1132D001B68184608F086FD0346002B0CD16A4B5D
S1132D101C6807F007FC03461A460A2300930023A5
S1132D200221204608F0AAFA704B186800230022FA
S1132D30002106F07FFD6E4B18680023002200215D
S1132D4006F078FD6B4C684604F1100344221946E2
S1132D500BF021FC94E80F0000F096FB0246654B53
S1132D601A64644C684604F11003442219460BF0BB
S1132D7012FC94E80F0000F0AFFB02465D4B5A646E
S1132D805B4B186800230022002106F085FB574B9B
S1132D90186800230022002106F07EFB47E0464B22
S1132DA01B68184608F036FD0346012B08D1424B38
S1132DB018680A23009300230022032108F05EFA16
S1132DC04D4B186800230322AA2108F0BBF82EE01B
S1132DD0394B1B68184608F01DFD0346012B08D12A
S1132DE0354B18680A23009300230022032108F0BE
S1132DF045FA414B186800230322552108F0A2F834
S1132E0015E02D4B1B68184608F004FD0346012B02
S1132E1008D1294B18680A230093002300220321B8
S1132E2008F02CFA304B00221A7000E000BF38E1A1
S1132E30244B1B68184608F0EDFC0346002B0CD10C
S1132E40204B1C6807F06EFB03461A460A230093C6
S1132E5000230121204608F011FA1B4B1A781B4B62
S1132E601B781946104600F0DDFB0346022B45D0C3
S1132E70032B00F09680012B40F0DF801A4B0122D7
S1132E801A700A4B1C6807F04DFB03461A460A23C6
S1132E90009300230221204608F0F0F9D6E000BF99
S1132EA0D34D6210F930000004F100007C010020D1
S1132EB05131000014F1000080010020C1310000F4
S1132EC024F10000840100208801002089010020F1
S1132ED0F48200200A0000208A01002000830020E0
S1132EE07B0100208B0100208C010020F082002057
S1132EF0FC8200209082002088820020724B1B7884
S1132F00002B08D0714B18680A2300930023002279
S1132F10032108F0B3F96E4B1B78012B00F091806C
S1132F206C4B186800230A22002106F083FC034638
S1132F30012B40F08880684B5B6818460AF04EFF0E
S1132F405FA3D3E900230AF0EBFD03460C461846C1
S1132F5021464FF00002614B0BF014FA0346002B9C
S1132F6013D05D4B5B6818460AF038FF54A3D3E9CD
S1132F7000230AF0D5FD03460C46184621460BF003
S1132F8055FA0246544B5A6003E0534B4FF07E52BD
S1132F905A60504B186800230022002106F07CFA86
S1132FA051E0494B1B78002B08D0484B18680A2382
S1132FB0009300230022032108F060F9454B1868B0
S1132FC000230A22002106F035FC0346012B3CD1E4
S1132FD0414B5B6818460AF001FF39A3D3E900238B
S1132FE00AF09CFD03460C46184621464FF00002A9
S1132FF03B4B0BF0D1F90346002B13D0364B5B68E7
S113300018460AF0EBFE2EA3D3E900230AF086FD4E
S113301003460C46184621460BF008FA02462E4B8E
S11330205A6002E02C4B2F4A5A602A4B186800233E
S11330300022002106F030FA07E0234B00221A7028
S113304004E000BF2DE000BF2BE000BF29E0264BC9
S11330501A78264B1B781946104600F0E3FA03460B
S1133060012B18D1184B01221A70214B1B681846EA
S113307008F0D0FB0346002B11D11D4B1C6807F050
S113308051FA03461A460A230093002302212046DC
S113309008F0F4F803E00C4B00221A7000E000BFC3
S11330A000BF144B1B78012B04D17B89184606F012
S11330B0E9FFC5E5BB89184606F0E4FFC0E500BF9B
S11330C09A9999999999A93F8C0100207C01002033
S11330D08B010020FC820020E88200200000F03FE9
S11330E00000F0BF000080BF88010020890100209B
S11330F0800100208A01002080B582B000AF786092
S1133100114B186800230A22002106F093FB0346A2
S1133110012B15D10D4B1B78012B03D10B4B002236
S11331201A7006E0094B1B78002B02D1074B0122D1
S11331301A70054B186800230022002106F0ACF930
S113314000BF0837BD4680BD008300207B010020FE
S113315080B584B000AF7860144B18680023002257
S1133160002106F067FB124B1B78FB730F4B1868AA
S113317000230022002106F08FF9FB7B012B07D1ED
S11331800C4B1868002303220B4907F0DBFE09E00F
S1133190FB7B052B06D1074B186800230322074944
S11331A007F0D0FE00BF1037BD4680BDF48200207A
S11331B00A00002088820020F0DEBC0AB1CAED0FAC
S11331C090B597B014AF78601F4B186800230A229B
S11331D0002106F02FFB1D4B186800230A22002152
S11331E006F028FB1A4A1B4B06CA1B4800F09CF940
S11331F0194C174A11AB92E8030083E803006846B0
S113320004F11003442219460BF0C5F994E80F00A9
S113321000F024F807EE900AFCEEE77A17EE902A05
S11332200B4B1A60084B186800230022002106F09B
S113323033F9064B186800230022002106F02CF90C
S113324000BF0C37BD4690BDF0820020FC820020F8
S1133250E88200209A99993E9082002084B02DE95A
S1133260B0439AB014AF07F1300C8CE80F0097ED1F
S1133270227AD7ED187A67EE277AC7ED037A11AA76
S113328007F1840393E8030082E80300684607F12A
S11332904003442219460BF07EF907F130030FCBAB
S11332A000F09CF80346FB66FB6E7B61D7F8843024
S11332B0002B08D0D7ED1D7A97ED057A77EE277AA3
S11332C0C7ED057A07E0D7ED1C7A97ED057A77EE1E
S11332D0277AC7ED057AD7F8843007EE903AF8EEEE
S11332E0677A97ED057A67EE277AC7ED057A3A4B48
S11332F0BB604FF000033B6197ED037AD7ED057A8D
S113330037EE677AD7ED157A77EEA76AD7ED027AAA
S113331066EEA77AC7EE276A16EE900A0AF05EFDFB
S113332002460B46C7E900234FF000024FF00003AA
S1133330D7E900010BF03AF80346002B14D0D7E983
S1133340000109F04FFC03460C46184621460BF0D9
S11333506DF803463B6197ED047AD7ED027A67EE88
S1133360277AC7ED047A22E0D7ED027AF1EE677A84
S113337017EE903A18460AF031FD804689463C68BB
S11333807B6883F000452046294609F02BFC034660
S11333900C461A462346404649460AF077FD034642
S11333A00C46184621460BF041F803463B61D7F81A
S11333B0843007EE903AF8EE677A97ED047A77EE68
S11333C0277AC7ED047A3B6918461837BD46BDE82D
S11333D0B04304B0704700BF9A99993E84B0B0B529
S11333E082B000AF07F1180484E80F00B7F84C303E
S11333F007EE903AB8EEE77AD7ED147A67EE277ABB
S1133400C7ED017AFB6E18460AF0C6FC4FF00002C5
S11334104FF0804309F048FA04460D4678680AF0F4
S1133420DDFC02460B46204629460AF079FB03469A
S11334300C46184621460AF0F9FF03467B6078687B
S11334400AF0CCFC4FF033320E4B0AF01FFD03465A
S11334500C46184621464FF000024FF080430AF014
S11334603FFE03460C46184621460AF0DFFF03469A
S11334707B607B6818460837BD46BDE8B04004B0A1
S1133480704700BF3333F33F84B098B500AF07F102
S1133490100484E80F0097ED0B7AD7ED0D7A67EEF0
S11334A0277A17EE900A0AF099FC09A3D3E90023BE
S11334B00AF0ECFC03460C46184621460AF0B6FF17
S11334C003461846BD46BDE8984004B0704700BFA7
S11334D01F85EB51B89E234084B098B500AF07F127
S11334E0100484E80F0097ED0C7AD7ED0D7A67EE9F
S11334F0277A17EE900A0AF071FC09A3D3E9002396
S11335000AF0C4FC03460C46184621460AF08EFF16
S113351003461846BD46BDE8984004B0704700BF56
S11335201F85EB51B89E234080B485B000AFF8608E
S1133530381D80E806003B60FB689B6C07EE903A00
S1133540B8EE677A7B6807EE903AF8EE676AD7EDD3
S1133550007A66EEA77A77EE277AFCEEE77A17EE22
S1133560902AFB689A6400BF1437BD465DF8047B5B
S11335707047000080B500AF01210C4800F008FD41
S11335800021052001F04EFF002301220621052021
S113359001F088FF0021052001F044FF00230122EF
S11335A00721052001F07EFF00BF80BD00350A0021
S11335B080B582B000AF06210520FFF7CBFA0346A1
S11335C0002B0CBF01230023DBB27B607B68002B44
S11335D001D1002305E07B68002B01D0012300E02A
S11335E0012318460837BD4680BD80B582B000AFC0
S11335F007210520FFF7AEFA0346002B0CBF012379
S11336000023DBB27B607B68002B01D1002305E043
S11336107B68002B01D0012300E001231846083702
S1133620BD4680BD80B483B000AF03460A46FB713B
S11336301346BB71FB79012B04D1BB79012B01D15A
S1133640012310E0FB79012B04D1BB79002B01D1BC
S1133650022308E0FB79002B04D1BB79012B01D1B3
S1133660032300E0002318460C37BD465DF8047BB5
S1133670704780B500AF45F25550FFF75BFA00BFC5
S113368080BD80B500AF4AF6AA20FFF753FA00BF09
S113369080BD000080B500AF3A493B480AF0D1FF35
S11336A0394B1422DA82384BDB8A1A4613469B00C4
S11336B013445B001A46344B9A61334B00229A82BE
S11336C0314B324ADA61324932480AF0BAFF314B9F
S11336D03222DA822F4BDB8A1A4613469B001344AC
S11336E05B001A462B4B9A612A4B00229A82502087
S11336F005F03AF90246274BDA615022234926485D
S11337000AF049FF254926480AF09BFF244B322240
S1133710DA82234BDB8A1A4613469B0013445B0070
S11337201A461F4B9A611E4B00229A82502005F0C4
S11337301BF902461A4BDA615022144919480AF05F
S11337402AFF194919480AF07CFF184B3222DA8201
S1133750164BDB8A1A4613469B0013445B001A4639
S1133760124B9A61114B00229A82502005F0FCF80A
S113377002460E4BDA61502204490D480AF00BFF51
S113378000BF80BD38F10000900100200C00002033
S113379044F10000B0010020CC01002054F10000ED
S11337A0D0010020EC0100205CF10000F0010020B9
S11337B00C020020B0B582B000AF78600B46FB70FD
S11337C0FB78032B3ED801A252F823F0DD3700002A
S11337D003380000193800002F3800007B68214AA4
S11337E01C4615460FCD0FC495E80F0084E80F0062
S11337F07B68D8691B4BDB69042219460AF0CBFEAF
S11338002BE07B68174A1C4615460FCD0FC495E87C
S11338100F0084E80F0020E07B68124A1C4615461E
S11338200FCD0FC495E80F0084E80F0015E07B6806
S11338300C4A1C4615460FCD0FC495E80F0084E8CA
S11338400F000AE07B68074A1C4615460FCD0FC4DB
S113385095E80F0084E80F0000BF00BF0837BD469D
S1133860B0BD00BF9001002080B487B000AFF86005
S1133870B9607A60FB6803F10473DA00BB6813442F
S11338809B007B617B697A681A6000BF1C37BD4668
S11338905DF8047B704780B485B000AF7860396010
S11338A07B6803F1C063FB60FB683A681A6000BF81
S11338B01437BD465DF8047B704780B485B000AF13
S11338C0786039607B6803F18063FB60FB683A6869
S11338D01A6000BF1437BD465DF8047B704780B59D
S11338E084B000AFF860B9607A60B968F868FFF72F
S11338F0E4FF7968F868FFF7CEFF00BF1037BD46D4
S113390080BD000080B582B000AF786039607B680C
S1133910B3F1804F02D07B68194A934200BF3B68E1
S11339201B78DB071A463B685B681B06134343F4AA
S113393000427B681A603B68DB681B043A68127AB1
S11339401A437B689A623B681B691B043A68527A83
S11339501A437B68DA623B689B7A1B0743F08063F7
S113396043F47D437A68536078683B681B7D1A464C
S11339700021FFF779FF00BF0837BD4680BD00BFB7
S11339800004004080B582B000AF78600B46FB7045
S11339907B68B3F1804F02D07B68074A934200BF33
S11339A07B680433FA78FF211846FFF798FF00BFBD
S11339B00837BD4680BD00BF0004004080B483B01A
S11339C000AF78607B68B3F1804F02D07B68074A10
S11339D0934200BF7B681B6823F001027B681A6076
S11339E000BF0C37BD465DF8047B704700040040FF
S11339F080B483B000AF78607B68B3F1804F02D0AD
S1133A007B68074A934200BF7B681B6843F001024E
S1133A107B681A6000BF0C37BD465DF8047B7047B5
S1133A200004004080B487B000AFF860B9607A60E9
S1133A30FB6803F10473DA00BB6813449B007B61E9
S1133A407B697A681A6000BF1C37BD465DF8047B49
S1133A50704780B485B000AF786039607B6803F14B
S1133A600473DA003B6813449B00FB60FB681B682B
S1133A7018461437BD465DF8047B704780B483B0A4
S1133A8000AF786001227B6802FA03F318460C3712
S1133A90BD465DF8047B704780B582B000AF7860A6
S1133AA07868FFF7EBFF034618460837BD4680BD2C
S1133AB080B584B000AF78607B680133B3FA83F3D8
S1133AC0DBB2C3F11F03FB60F868FFF7D7FFFB68A5
S1133AD018461037BD4680BD80B500AF00BF122127
S1133AE00348FFF7B6FF0346002BF8D100BF80BDA3
S1133AF004300E4080B500AFFFF7EEFF034B5B6868
S1133B001B0C03F00303DBB2184680BD00300E40EB
S1133B1080B584B000AF78600123FB607B68124AF3
S1133B20934204D80023FB600023BB6008E07B6859
S1133B300E4A934202D80123BB6001E00223BB601A
S1133B40FA6810210A48FFF76DFF094BD3F80031DA
S1133B5023F08072BB681B0605491343C1F800318A
S1133B6000BF1037BD4680BD0048E8010090D00377
S1133B7000400E4080B483B000AF054B1B687B60EF
S1133B807B6818460C37BD465DF8047B704700BF60
S1133B905C00002080B582B000AF08F00DFE7860B4
S1133BA0064BD3F800311B0A03F01F0301337A6874
S1133BB002FB03F318460837BD4680BD00400E40A3
S1133BC080B582B000AF0D4800F03CFD0346FB70A9
S1133BD0FB78072B05D0092B07D108F0EDFD7860A1
S1133BE006E0FFF7C7FF786002E000237B6000BFB8
S1133BF07B6818460837BD4680BD00BF06000E002E
S1133C0080B584B000AF78607B68002B1CD11B4862
S1133C1000F018FD0346FB7200BFFB7A013B072B43
S1133C2023D801A252F823F04D3C00006B3C000065
S1133C306B3C00005B3C00006B3C00006B3C0000F4
S1133C40533C0000633C0000002312E00023FB60AF
S1133C500EE0FFF78FFFF8600AE008F0E5FDF8607A
S1133C6006E0FFF797FFF86002E00023FB6000BF67
S1133C70FB6818461037BD4680BD00BFB80032004F
S1133C8080B485B000AF786039601E4B5B6803F088
S1133C904073FB600023BB6012E01B4ABB68DB007F
S1133CA013441A793B68DBB29A4206D1164ABB68C0
S1133CB052F833307A689A4206D9BB680133BB6044
S1133CC0BB68042BE9D900E000BFBB68052B02D117
S1133CD00323FB6005E00C4ABB68DB0013445B79FB
S1133CE0FB60FB681B06FB60064B5B6823F04072BD
S1133CF00449FB6813434B6000BF1437BD465DF8AD
S1133D00047B704700000E4068F1000080B582B06B
S1133D1000AF0E4B1B6C002B14BF01230023FB715F
S1133D200A4B41F671321A6408F03CFD0346002147
S1133D301846FFF7A5FFFB79002B02D0034B0022A6
S1133D401A6400BF0837BD4680BD00BF00000E40A6
S1133D5080B584B000AF786039600C4B1B6C002BCD
S1133D6014BF01230023FB73084B41F671321A641C
S1133D7039687868FFF784FFFB7B002B02D0034B84
S1133D8000221A6400BF1037BD4680BD00000E40FB
S1133D9080B487B000AF78600F237B617B68033306
S1133DA03B617B69FB60FA683B69934228BF134619
S1133DB0BB60BB681B07BB60BB6818461C37BD46AD
S1133DC05DF8047B7047000080B400AF044B5B6A6D
S1133DD01B0903F003031846BD465DF8047B7047D6
S1133DE000400E4080B483B000AF7860074B5B6A3C
S1133DF023F030027B681B01044913434B6200BF6C
S1133E000C37BD465DF8047B704700BF00400E4090
S1133E1090B585B000AF78600023BB607B68354AFD
S1133E20934206D0344A934203D0344A934200D09A
S1133E3000E000BF786800F005FC0346FB607B6887
S1133E402C4A93420DD02C4A934211D02B4A9342D0
S1133E5000D014E02A4BD3F8803003F00703FB6052
S1133E600DE0274BD3F8843003F00703FB6006E032
S1133E70234BD3F8883003F00703FB6000BFFB68D3
S1133E80042B2ED801A252F823F000BFDD3E00001F
S1133E90A13E0000A93E0000B93E0000B13E000072
S1133EA008F0E4FCB8601FE008F0F2FCB8601BE026
S1133EB008F0E5FCB86017E008F054FC0446104B29
S1133EC0D3F800311B0E03F0010301331846FFF74A
S1133ED0E3FD0346B4FBF3F3BB6005E00023BB60E2
S1133EE002E00023BB6000BFBB6818461437BD4620
S1133EF090BD00BF030020000500240002001E0046
S1133F0000400E4080B483B000AF78600A4BD3F811
S1133F10443103F00103002B08D100BF064BD3F852
S1133F2040217B681340002BF8D100E000BF0C3720
S1133F30BD465DF8047B704700400E4080B400AF7E
S1133F4000BFBD465DF8047B704780B400AF00BF7E
S1133F50BD465DF8047B704780B582B000AF7860E1
S1133F60786800F081F90346013318460837BD46E6
S1133F7080BD80B582B000AF786039603B68013B9A
S1133F801946786800F032FA00BF0837BD4680BD94
S1133F9080B586B000AF78600B46FB7000233B61B0
S1133FA07B681B0A03F00F03013B092B44D801A2D1
S1133FB052F823F0DD3F0000E93F000039400000E3
S1133FC039400000E33F0000EF3F0000F93F0000EC
S1133FD039400000034000000F400000184B7B6193
S1133FE018E0184B7B6115E0174B7B6112E0174B0F
S1133FF07B6101233B610DE0154B7B6110233B6129
S113400008E0144B7B614FF480333B6102E0124BB8
S11340107B6100BF7B681B0B03F01F03FB603B69E4
S1134020002B02D03869FFF76DFFFB781A46F96858
S11340307869FFF7F7FC00E000BF1837BD4680BD84
S113404000400E40B0400E40C0400E40E0400E40E4
S1134050E8400E40F0400E4050410E4080B584B020
S113406000AF78607B6803F47813B3F5A01F7DD0AC
S1134070B3F5A01F1AD8B3F5202F50D0B3F5202FD5
S113408008D8B3F5003F4ED0B3F5802F38D0002BBD
S113409032D0D8E0B3F5602F00F0C880B3F5801FAC
S11340A000F0C880B3F5402F4CD0CCE0B3F5001F2E
S11340B000F08B80B3F5001F0AD8B3F5D01F00F0D1
S11340C08980B3F5F01F4CD0B3F5B01F5CD0BAE0D3
S11340D0B3F5381F6AD0B3F5381F04D8B3F5101FF1
S11340E000F09F80AFE0B3F5401F00F08680B3F589
S11340F0481F00F0A380A6E008F05EFBF860A5E08E
S113410008F05AFBF860544BD3F80C311B0AC3F384
S113411008030133FA68B2FBF3F3FB6096E008F09E
S11341204BFBF86092E008F047FBF8604A4BD3F889
S113413008311B0AC3F308030133FA68B2FBF3F333
S1134140FB6083E008F038FBF860434BD3F814318C
S11341501B0A03F01F030133FA68B2FBF3F3FB609D
S113416074E03E48FFF754FEF8606FE03C48FFF708
S11341704FFEF860384BD3F8303103F00303FA688C
S113418022FA03F3FB6061E03448FFF741FEF86074
S1134190314BD3F8203103F00F031846FFF77CFCB2
S11341A00246FB68B3FBF2F3FB604FE02B48FFF7DA
S11341B02FFEF860284BD3F820311B0903F00303CA
S11341C0FA6822FA03F3FB6040E02648FFF720FE7A
S11341D0F8603BE02348FFF71BFEF8601E4BD3F862
S11341E028311B0903F003031846FFF755FC024668
S11341F0FB68B3FBF2F3FB6028E01A48FFF708FE04
S1134200F860154BD3F828311B0A03F00303043379
S11342101846FFF741FC0246FB68B3FBF2F3FB6070
S113422014E00F48FFF7F4FDF8600FE0FFF7C8FC57
S1134230F8600BE0FFF79EFCF86007E00020FFF752
S1134240DFFCF86002E00023FB6000BFFB68184657
S11342501037BD4680BD00BF00400E4002001E0066
S1134260050024000300200080B584B000AF78600E
S11342707B681B0903F00F03BB60BB68013B092B80
S113428000F2A08001A252F823F000BFB542000062
S1134290C5420000D5420000E5420000C5430000CD
S11342A0C5430000F54200000543000053430000ED
S11342B0A7430000474BD3F800311B0A03F01F0348
S11342C0FB6082E0434BD3F814311B0A03F01F0355
S11342D0FB607AE03F4BD3F800311B0E03F001037F
S11342E0FB6072E03B4BD3F80C311B0AC3F30803A9
S11342F0FB606AE0374BD3F808311B0AC3F30803A9
S1134300FB6062E07B68344A934203D0334A9342B1
S11343100DD01AE02F4BD3F8203103F00F03FB60CC
S1134320F868FFF7B9FB0346013BFB6010E0294B3B
S1134330D3F820311B0903F00303FB60F868FFF78F
S1134340ABFB0346013BFB6002E00023FB6000BFC4
S11343503BE07B68224A934203D0224A93420ED028
S11343601DE01C4BD3F828311B0903F00303FB6049
S1134370F868FFF791FB0346013BFB6012E0154B25
S1134380D3F828311B0A03F00303FB60FB680433F2
S11343901846FFF781FB0346013BFB6002E0002364
S11343A0FB6000BF11E07B680F4A934206D1094BC2
S11343B0D3F8303103F00303FB6002E00023FB6019
S11343C000BF02E00023FB6000BFFB681846103703
S11343D0BD4680BD00400E408006160080162E00AB
S11343E090171A0090273000A009140080B584B0FB
S11343F000AF786039607B681B0903F00F03FB6032
S1134400FB68013B092B00F2078101A252F823F05B
S11344103944000085440000194600009D44000012
S11344201946000019460000B94400000145000087
S113443081450000EF450000FFF768FC7948FFF76D
S113444067FBFFF77BFD784BD3F8003123F4F85278
S11344503B681B0274491343C1F8003108F082F928
S1134460B860FFF747FB03461946B868FFF770FCCE
S11344706E48FFF7F3FD03461846FFF749FBFFF7C5
S113448064FDCAE0684BD3F8143123F4F8523B6856
S11344901B0265491343C1F81431BEE0624BD3F8E3
S11344A00C3123F4FF3323F480733A6812025E491B
S11344B01343C1F80C31B0E0FFF728FC5948FFF76B
S11344C027FB594BD3F8083123F4FF3323F48073CB
S11344D03A68120254491343C1F8083108F042F90A
S11344E0B860FFF707FB03461946B868FFF730FCCE
S11344F04E48FFF7B3FD03461846FFF709FB8CE06F
S11345007B684B4A934215D04A4A934224D04A4A84
S1134510934200D033E04FF48020FFF7F3FC424B8A
S1134520D3F8303123F003023F493B681343C1F809
S1134530303124E03868FFF7BBFA38600420FFF715
S1134540E1FC394BD3F8203123F00F0236493B68A4
S11345501343C1F8203112E03868FFF7A9FA386034
S11345600420FFF7CFFC304BD3F8203123F0300286
S11345703B681B012C491343C1F8203100BF4CE0B8
S11345807B682E4A934203D02D4A934213D02DE0E8
S11345903868FFF78DFA38604020FFF7B3FC224BF0
S11345A0D3F8283123F030023B681B011E49134322
S11345B0C1F828311AE03B687F2B02D83B680E2BE8
S11345C000BF3868FFF774FA0346043B3B604020A1
S11345D0FFF798FC144BD3F8283123F440723B685E
S11345E01B0211491343C1F8283100BF15E07B6851
S11345F0114A934200D00EE04FF48020FFF782FC72
S1134600094BD3F8303123F0030207493B681343C5
S1134610C1F8303100BF00E000BF00BF1037BD4615
S113462080BD00BF0148E80100400E4000250A009B
S11346308006160080162E00A009140090171A0098
S11346409027300080B485B000AF78600123FB73FD
S11346507B6803F00F03BB60BB68013B072B00F2D0
S1134660C48001A252F823F089460000DF4600000E
S11346700F470000EB470000554700008547000046
S1134680EB470000A94700005D4BD3F8943003F0DA
S11346900703023B052B1ED801A252F823F000BFEA
S11346A0C5460000BF460000B9460000CB460000E6
S11346B0D7460000D14600000223FB730EE003231B
S11346C0FB730BE00423FB7308E00B23FB7305E08F
S11346D00C23FB7302E00523FB7300BF88E0484B07
S11346E0D3F8803003F00703022B06D0042B07D045
S11346F0012B08D10323FB7308E00223FB7305E0BD
S11347000A23FB7302E00123FB7300BF70E03C4B00
S1134710D3F8843003F00703013B032B16D801A21E
S113472052F823F0354700003B470000474700009C
S1134730414700000323FB730BE00223FB7308E0F3
S11347400A23FB7305E00623FB7302E00123FB73DA
S113475000BF4DE02A4BD3F8883003F00703022B47
S113476006D0042B07D0012B08D10323FB7308E0E8
S11347700223FB7305E00A23FB7302E00123FB73AE
S113478000BF35E01E4B1B6F03F00103002B04D068
S1134790012B05D10923FB7305E00723FB7302E01A
S11347A00123FB7300BF23E0154BD3F85C3103F006
S11347B03003102B0CD0102B02D8002B05D010E0A6
S11347C0202B08D0302B09D00BE00123FB730BE026
S11347D00723FB7308E00423FB7305E00823FB7342
S11347E002E00123FB7300BF02E00023FB7300BF60
S11347F0FB7B18461437BD465DF8047B704700BF49
S113480000400E4080B58AB000AF78600B46FB7064
S113481003237B62032387F823300023BB61002337
S11348207B617B68112B19D1FB78042B03D107F032
S1134830FBFF78610BE0FB78052B08D100F0C8F989
S11348400246A44B9A4202D900F0C2F978617B690E
S1134850002B03D00021786900F0BAFC7B6803F0D8
S11348600F033B613B69013B072B00F2298101A245
S113487052F823F095480000894900009B49000044
S1134880C14A00008D490000314A0000C14A0000BD
S11348904F4A0000FB78023B0A2B00F2138101A26D
S11348A052F823F0D1480000DD480000E948000038
S11348B0FB480000C54A0000C54A0000C54A000084
S11348C0C54A0000C54A00000D490000194900000E
S11348D004237B62002387F8233023E003237B62D5
S11348E0012387F823301DE002237B62022387F82B
S11348F023307948FFF70CF914E001237B6203238A
S113490087F823307448FFF703F90BE005237B6233
S1134910032387F8233005E007237B62062387F807
S1134920233000BF97F82330062B06D097F82330A6
S113493001220121184600F0E9F9FFF7E7F9FFF732
S1134940FDFA7B69002B01D0FFF7C6F8634A7B6A46
S113495053676348FFF782FB03461846FFF7D8F80E
S113496007F000FFF860FFF7C5F803461946F8683A
S1134970FFF7EEF97B69002B03D10121002000F041
S113498027FCFFF7E2FAA2E0564BBB61BB69002BA0
S113499001D0BB6900E0544BBB61BB69002B01D063
S11349A0BB6900E0514BBB61FB78013B092B00F272
S11349B08B8001A252F823F0E1490000E74900008E
S11349C0F7490000C94A0000C94A0000074A00002C
S11349D0C94A0000C94A0000C94A0000234A00002D
S11349E00023FB6120E001220121002000F08EF968
S11349F00223FB6118E001220121012000F086F965
S1134A000123FB6110E007F0ADFE03461846FFF7F3
S1134A107FF8012202213648FFF704F80323FB61E3
S1134A2002E00423FB6100BFBB69FA691A604EE02F
S1134A30FB78072B02D0092B04D048E0274B002237
S1134A401A6703E0254B01221A6700BF3FE0FB7899
S1134A50013B072B3AD801A252F823F07D4A00000B
S1134A60CD4A0000CD4A0000934A0000CD4A000020
S1134A70CD4A0000834A0000A34A00000023FB61E2
S1134A8012E001220121042000F040F90123FB611E
S1134A900AE001220121022000F038F90223FB611F
S1134AA002E00323FB6100BF0C4BD3F85C3123F01D
S1134AB03002FB691B0109491343C1F85C3106E06C
S1134AC000BF04E000BF02E000BF00E000BF2837E1
S1134AD0BD4680BD002D31010148E80100400E4073
S1134AE000250A0080400E4088400E4084400E405D
S1134AF0B0400E4080B483B000AF78607B68294A30
S1134B0093422FD0274A934210D8274A934221D068
S1134B10254A934203D8254A93421BD03AE0244ABB
S1134B20934217D0234A934218D033E0224A934247
S1134B3024D0214A934206D8204A934216D0204AD0
S1134B40934217D026E01F4A93421BD01E4A934239
S1134B501CD01FE01D4BD3F880301CE01B4BD3F856
S1134B608C3018E0194BD3F8983014E0174BD3F875
S1134B709C3010E0154BD3F8A0300CE0134BD3F865
S1134B80A83008E0114BD3F8AC3004E00F4BD3F855
S1134B90B03000E0002318460C37BD465DF8047BB6
S1134BA0704700BF405DC60080841E0040420F0075
S1134BB000093D00C0CF6A0080BA8C010024F400D3
S1134BC0C0EA21010048E80180D54302B081E00F2A
S1134BD080B400AF034B1B681846BD465DF8047BE8
S1134BE0704700BF8000002080B586B000AF7860B9
S1134BF07868FFF77FFF78617B69002B03D07B69BE
S1134C00B3F1FF3F00BF3A4B1B683B61384A7B68F6
S1134C1013601120FFF716FD0346052B03D1FFF7A0
S1134C2075F8FFF78BF900BF18213248FEF711FF22
S1134C300346002BF8D17B682F4A93420DD02F4AAC
S1134C40934211D02E4A934200D012E07B6923F0A4
S1134C50C06343F080637B610BE07B6923F0C06336
S1134C6043F000737B6104E07B6923F0C0637B61E4
S1134C7000BF1120FFF7E6FC0346052B02D178683C
S1134C80FEF746FF7A683B699A4203D901217868A6
S1134C9000F09EFA1B4A7B6913611120FFF7D2FCD6
S1134CA00346052B09D107F05DFDF860FEF722FFEE
S1134CB003461946F868FFF74BF81348FFF7CEF997
S1134CC003461846FEF724FF7A683B699A4203D8E4
S1134CD00121002000F07CFA1120FFF7B3FC034609
S1134CE0052B01D1FFF731F900BF1837BD4680BD50
S1134CF08000002040410E4080841E0000093D00D9
S1134D0040420F0000400E4000250A0080B588B0E4
S1134D1000AF0346FB710B46BB7113467B71FB79F5
S1134D20042B00F2B88001A252F823F0894D000050
S1134D30774D0000534D0000414D0000654D0000CB
S1134D4001237B6102233B610123FB610023BB61DF
S1134D5025E004237B6108233B610323FB610223D9
S1134D60BB611CE010237B6120233B610523FB61B5
S1134D700423BB6113E040237B6180233B61072351
S1134D80FB610623BB610AE04FF480737B614FF43F
S1134D9000733B610923FB610823BB6100BFBB793E
S1134DA0002B5BD00023FB73FB79022B11D1FFF79F
S1134DB00BF80346002B0CD1394BDB6B0123FB733F
S1134DC0384B5B6A03F00103012B02D10120FFF78A
S1134DD009F8344A7B69136600BFB9693248FEF7A3
S1134DE038FE0346002BF8D07B79002B54D000BF4B
S1134DF0F9692D48FEF72DFE0346002BF8D0FB7908
S1134E00022B49D1FB7B002B46D0264B5B6A03F077
S1134E100103012B05D101222021022000F04AF9CF
S1134E2003E00021022000F0FBF8022000F03EF82D
S1134E30B860012200210220FFF768FFB968022050
S1134E4000F06EF8174A7B69136600BFF9691648CB
S1134E50FEF7FFFD0346002BF8D01DE0114A3B6925
S1134E60136600BF0F4BD3F890300121BA6901FAE1
S1134E7002F21340002BF5D17B79002B0CD000BF3C
S1134E80084BD3F890300121FA6901FA02F2134079
S1134E90002BF5D100E000BF2037BD4680BD00BF28
S1134EA000300E4000400E4090400E4080B485B06B
S1134EB000AF0346FB71FB79013B032B23D801A20E
S1134EC052F823F0D54E0000F94E0000E14E0000E8
S1134ED0ED4E0000114B1B6AC3F30803FB6015E0A1
S1134EE00E4B1B6903F07F03FB600FE00B4B9B69C8
S1134EF003F07F03FB6009E0084BD3F89C30C3F355
S1134F000A03FB6002E00023FB6000BFFB68184655
S1134F101437BD465DF8047B704700BF00400E4067
S1134F2080B584B000AF03463960FB71FB79013B67
S1134F30032B6AD801A252F823F000BF4D4F0000A2
S1134F40CF4F00007B4F0000A54F00003B68C3F328
S1134F5008033B6000BF1A212E48FEF77AFD034682
S1134F60002BF8D12C4B1B6A23F4FF7323F00103AD
S1134F7029493A6813430B6248E03B6803F07F0316
S1134F803B6000BF18212348FEF763FD0346002B56
S1134F90F8D1214B1B6923F07F021F493B6813435F
S1134FA00B6133E03B6803F07F033B6000BF1921D2
S1134FB01848FEF74EFD0346002BF8D1164B9B69AB
S1134FC023F07F0214493B6813438B611EE0124BAC
S1134FD0D3F89030104B5B6A23F030030E4A43F051
S1134FE0100353623B68DB0903F00F031846FEF716
S1134FF0CFFEF860084B1A6B084B13403A681A430B
S11350000549FB6813430B6300E000BF00BF103782
S1135010BD4680BD40410E4000400E4000F8FF0FE9
S113502080B584B000AF03460A46FB711346BB71DA
S1135030FEF7CAFE0346002B03D14FF44003FB6086
S113504016E0BB79202B04D0302B0AD0002B04D0DF
S11350500BE04FF40003FB600AE04FF44003FB60F5
S113506006E04FF44003FB6002E0104BFB6000BF1E
S113507000BF0F4BD3F89020FB681340FA689A42A4
S1135080F7D1FB6803F48003002B0AD0084BD3F854
S1135090A03003F48063002B14BF01230023DBB290
S11350A000E0012318461037BD4680BDFF33E107F9
S11350B000400E4080B582B000AF0346FB710B4642
S11350C0BB7113467B71FB79022B00D016E0BB79D0
S11350D0002B07D00C4B4FF48062C3F8A8200A4A77
S11350E0BB7953667B79002B07D0BA79FB791146DB
S11350F01846FFF795FF034601E000BF0123184659
S11351000837BD4680BD00BF00400E4080B483B068
S113511000AFEFF310833B603B687B6072B67B6843
S113512018460C37BD465DF8047B704780B483B0E5
S113513000AF78607B68002B00D162B600BF0C37EB
S1135140BD465DF8047B704780B485B000AF7860DD
S113515039607B6803F10473DA003B6813449B00F5
S1135160FB60FB681B6818461437BD465DF8047B7A
S11351707047000080B500AF00BF12210348FFF75D
S1135180E3FF0346002BF8D100BF80BD04300E407E
S113519080B500AFFFF7EEFF034B5B681B0C03F019
S11351A00303DBB2184680BD00300E4080B483B0E8
S11351B000AF0346FB71FB79C3F10203102202FA2C
S11351C003F318460C37BD465DF8047B70470000B6
S11351D080B584B000AF78600B46FB70154BD3F8F4
S11351E000311B0A03F01F030133BB607B68002BF3
S11351F007D107F0E1FA0246BB6802FB03F3FB6048
S113520001E07B68FB600C4B1B78002B09D0FB682A
S11352100A4A934205D8FB781946022000F010F898
S113522004E0FB781946002000F00AF800BF1037AC
S1135230BD4680BD00400E4010020020FF2C31010D
S113524090B587B000AF03460A46FB711346BB71A5
S11352501B4BD3F800311B0A03F01F0301337B619E
S113526007F0AAFA3861FFF793FF0346FB73FA7B52
S1135270FB799A421FD03B697A6902FB03F3BB6056
S1135280FB79022B03D102213869FEF761FD0D4C35
S1135290FB791846FFF78AFF03462361BB79002B8D
S11352A001D0FFF767FFFB79002B05D10021386996
S11352B0FEF74EFD00E000BF1C37BD4690BD00BFA9
S11352C000400E4000300E4080B485B000AF7860DE
S11352D039607B6803F1C063FB60FB683A681A605D
S11352E000BF1437BD465DF8047B704780B485B0B9
S11352F000AF786039607B6803F18063FB60FB6812
S11353003A681A6000BF1437BD465DF8047B7047E5
S113531080B584B000AFF860B9607A60B968F868A5
S1135320FFF7E4FF7968F868FFF7CEFF00BF103796
S1135330BD4680BD80B582B000AF03463960FB71C5
S1135340FB79002B1CD0FB79012B19D0FB79022BA4
S113535016D0FB79032B13D0FB79042B10D0FB79E7
S1135360052B0DD0FB79062B0AD0FB79072B07D030
S1135370FB79082B04D0FB79092B01D0FB790A2B8C
S1135380FA7913465B0013441B010C3303F1804389
S113539003F5204301213A6801FA02F21146184646
S11353A0FFF7A4FF00BF0837BD4680BD80B582B0BB
S11353B000AF03463960FB71FB79002B1CD0FB79ED
S11353C0012B19D0FB79022B16D0FB79032B13D0B8
S11353D0FB79042B10D0FB79052B0DD0FB79062B20
S11353E00AD0FB79072B07D0FB79082B04D0FB7973
S11353F0092B01D0FB790A2BFA7913465B0013447D
S11354001B010C3303F1804303F5204301213A6867
S113541001FA02F211461846FFF756FF00BF08379B
S1135420BD4680BD80B582B000AF03463960FB71D4
S1135430FB79002B1DD0FB79012B1AD0FB79022BB1
S113544017D0FB79032B14D0FB79042B16D0FB79EE
S1135450052B0ED0FB79062B10D0FB79072B0DD032
S1135460FB79082B05D0FB79092B02D0FB790A2B99
S113547004D13B6823F00113002B00BFFA791346D3
S11354805B0013441B0103F1804303F520433A6896
S11354904FF001111846FFF73BFF00BF0837BD4628
S11354A080BD000080B584B000AFB9607B60034666
S11354B0FB731346BB73FB7B002B1CD0FB7B012BC4
S11354C019D0FB7B022B16D0FB7B032B13D0FB7B69
S11354D0042B10D0FB7B052B0DD0FB7B062B0AD0B5
S11354E0FB7B072B07D0FB7B082B04D0FB7B092B12
S11354F001D0FB7B0A2BBB7B002B0DD07B68002BE0
S113550005D0FB7BB9681846FFF750FF04E0FB7B2E
S1135510B9681846FFF70EFFBB68072B20D82E4941
S1135520FA7B13465B0013441B010B4404331A68D3
S1135530BB689B000F2101FA03F3DB431340B97BE3
S1135540BA68920001FA02F211462348FA7B194321
S113555013465B0013441B0103440433196025E024
S11355601D49FA7B13465B0013441B010B440833AB
S11355701A68BB6803F18043083B9B000F2101FAC2
S113558003F3DB4302EA0301BA7BBB6803F1804304
S1135590083B9B0002FA03F30F48FA7B19431346B6
S11355A05B0013441B01034408331960BB7B002BCD
S11355B00DD17B68002B05D0FB7BB9681846FFF73B
S11355C0F5FE04E0FB7BB9681846FFF7B3FE00BFA5
S11355D01037BD4680BD00BF00A0004080B584B038
S11355E000AFF860B9607A60BB689AB27B689BB21E
S11355F013439BB21A460021F86800F005F800BF77
S11356001037BD4680BD000080B485B000AF78601F
S11356100B46FB7013463B803A8847F607731340EA
S1135620FB60FB78002B08D10A49FB6843F08042F9
S11356307B68143341F8232005E006497B68143362
S1135640FA6841F8232000BF1437BD465DF8047B97
S1135650704700BF00600E4080B487B000AFF860B0
S1135660B9607A60FB6803F10473DA00BB68134421
S11356709B007B617B697A681A6000BF1C37BD465A
S11356805DF8047B7047000080B483B000AF78609D
S113569039603B681B781A463B685B789B001A4369
S11356A03B689B789B011A433B68DB781B011A43D8
S11356B03B681B79DB021A433B685B791B031A4383
S11356C03B689B795B0406491A437B6804331B01DE
S11356D00B441A6000BF0C37BD465DF8047B70476D
S11356E00020044080B582B000AF0346FB71FB7913
S11356F01A4600210348FFF7AFFF00BF0837BD4635
S113570080BD00BF0020044080B483B000AF786047
S11357107B681B78002B01D0012200E000227B680B
S11357205B78002B01D0042300E0002313437A6844
S11357309278002A01D0102200E0002213437A68F4
S1135740D278002A01D0202200E000221A437B688C
S11357501B791B021A437B685B791B0313437A682A
S11357609279002A02D04FF4004200E000221A434A
S11357707B68DB791B0413437A68127A002A02D00F
S11357804FF4003200E00022044913430B6000BFD1
S11357900C37BD465DF8047B704700BF0020044011
S11357A080B483B000AF78600B46FB70FB7863F085
S11357B07F03DBB21A467B689A6500BF0C37BD468F
S11357C05DF8047B7047000080B586B000AFF860D8
S11357D0B9607A60BB68002B03D10A48FEF73EFC2F
S11357E0B860BB685A1E7B685B00B2FBF3F37B6155
S11357F07B691B027B61FB687A695A6100BF1837B9
S1135800BD4680BD4041050080B582B000AF7860E0
S113581039607B68384A93420AD07B68374A93429E
S113582006D07B68364A934202D07B68354A93425D
S113583000BF786800F068F87B681A683B681B8AC8
S113584043F001039BB219463B689B7B002B02D0BB
S11358504FF4806300E000230B431A437B681A6013
S11358607B681B683A68127D002A02D04FF0005210
S113587000E000221A437B681A603B689B7C002B83
S113588005D03B68DB7C19467868FFF789FF3B68E5
S11358901B7B43F480527B685A603B6859683B68C1
S11358A09B681A467868FFF78FFF3B685B7B002B89
S11358B002D07B681022DA603B685B7D002B05D048
S11358C07B681B6843F480327B681A603B689B7D6D
S11358D01B0703F0E0423B68DB7D1B0503F4E00398
S11358E01A437B681A663B681B781A467B68DA6041
S11358F000BF0837BD4680BD0000014000040140E0
S113590000080140000C014080B483B000AF78600F
S11359107B682C4A93420AD07B682B4A934206D078
S11359207B682A4A934202D07B68294A934200BF8B
S11359307B6840F6AA62DA607B6800221A607B68A2
S113594041F205025A607B6800229A607B6800225B
S11359505A617B680022DA647B681E4A9A647B6819
S113596000221A667B6800225A677B6800229A67C5
S11359707B680022DA677B68124A93420BD07B680B
S1135980114A934207D07B68104A934203D07B6844
S11359900F4A934202D17B6800221A657B68002279
S11359A09A657B68084A934203D07B68084A93420D
S11359B002D17B680022DA6500BF0C37BD465DF872
S11359C0047B7047000001400004014000080140CE
S11359D0000C0140F9FF010080B483B000AF78608F
S11359E00B46FB7000BF7B681B6903F04003002B70
S11359F0F9D0FA787B685A6300BF0C37BD465DF86E
S1135A00047B704780B483B000AF78600B467B8022
S1135A1000BF7B681B6903F04003002BF9D07A8830
S1135A207B68DA6300BF0C37BD465DF8047B7047C2
S1135A3080B582B000AF1F4B7B607B6802221A6185
S1135A407B6802225A617B681B4A9A617B681B4A05
S1135A50DA617B684FF480621A627B6800229A6282
S1135A607B6800225A627B680022DA627B68124AF1
S1135A709A647B68124ADA647B6810221A657B6830
S1135A8000229A657B6800225A657B680022DA65E9
S1135A907B6807330B49184608F0D3FD7B680A4935
S1135AA0184608F0CEFD7B6820229A7100BF0837A3
S1135AB0BD4680BD3483002090F100001402002014
S1135AC0140600209CF10000A0F1000080B58AB00B
S1135AD000AFF860B9607A603C4B1B78002B01D1B1
S1135AE0FFF7A6FFFA6813465B001344DB00483354
S1135AF0364A1344BB61BB68FB61BB691B693B62EB
S1135B00BB69DB687B6100237B623A6A7B699A42EA
S1135B102AD9BB699A683B6AD31A3B613A697B68A4
S1135B20934228BF13463B61BB695A683B6A1344DE
S1135B303A691946F86908F02EFD7A6A3B691344FC
S1135B407B62FA693B691344FB617A683B69D31A47
S1135B507B603A6A3B6913443B62BB699B683A6A5F
S1135B609A4201D100233B627A693B6AD31A3B61B2
S1135B703A697B68934228BF13463B613B69002B1B
S1135B8018D0BB695A683B6A13443A691946F869E4
S1135B9008F001FD7A6A3B6913447B62FA693B6948
S1135BA01344FB617A683B69D31A7B603A6A3B69A8
S1135BB013443B627B6A002B02D0BB693A6A1A61C8
S1135BC07B6A18462837BD4680BD00BF3483002059
S1135BD080B58AB000AFF860B9607A60BB687B6258
S1135BE0FB685A1C13465B001344DB003F4A134412
S1135BF03B623B6A1B69FB613B6ADB68BB61FA6918
S1135C00BB699A4254D83B6A9A68BB69D31A013B70
S1135C107B617A697B689A420FD33B6A5A68BB6995
S1135C2013447A68796A184608F0B5FCBA697B6847
S1135C301A443B6ADA60012354E07A69FB6913442D
S1135C407B617A697B689A424BD33B6A9A68BB69E9
S1135C50D31A3B613A697B689A420ED93B6A5A6807
S1135C60BB6913447A68796A184608F094FCBA69E7
S1135C707B681A443B6ADA6018E03B6A5A68BB697D
S1135C8013443A69796A184608F085FC3B6A5868F7
S1135C907A6A3B69D1187A683B69D31A1A4608F0C4
S1135CA07AFC7A683B69D21A3B6ADA60012319E00C
S1135CB0FA69BB69D31A013B7B617A697B689A42B2
S1135CC00FD33B6A5A68BB6913447A68796A1846E9
S1135CD008F061FCBA697B681A443B6ADA60012304
